{
  "_format": "hh-sol-artifact-1",
  "contractName": "BetFactory",
  "sourceName": "contracts/BetFactory.sol",
  "abi": [
    {
      "inputs": [
        {
          "internalType": "int96",
          "name": "minPaymentFlowRate",
          "type": "int96"
        },
        {
          "internalType": "bool",
          "name": "isCall",
          "type": "bool"
        },
        {
          "internalType": "uint256",
          "name": "freezePeriod",
          "type": "uint256"
        },
        {
          "internalType": "int256",
          "name": "strikePrice",
          "type": "int256"
        },
        {
          "internalType": "contract ISuperfluid",
          "name": "host",
          "type": "address"
        },
        {
          "internalType": "address",
          "name": "chainLinkOracle",
          "type": "address"
        }
      ],
      "name": "createNewOffer",
      "outputs": [],
      "stateMutability": "nonpayable",
      "type": "function"
    },
    {
      "inputs": [
        {
          "internalType": "address",
          "name": "owner",
          "type": "address"
        }
      ],
      "name": "getOffers",
      "outputs": [
        {
          "internalType": "contract BetOffer[]",
          "name": "",
          "type": "address[]"
        }
      ],
      "stateMutability": "view",
      "type": "function"
    },
    {
      "inputs": [
        {
          "internalType": "uint256",
          "name": "",
          "type": "uint256"
        }
      ],
      "name": "idToOffer",
      "outputs": [
        {
          "internalType": "contract BetOffer",
          "name": "",
          "type": "address"
        }
      ],
      "stateMutability": "view",
      "type": "function"
    },
    {
      "inputs": [],
      "name": "offerId",
      "outputs": [
        {
          "internalType": "uint256",
          "name": "",
          "type": "uint256"
        }
      ],
      "stateMutability": "view",
      "type": "function"
    },
    {
      "inputs": [
        {
          "internalType": "address",
          "name": "",
          "type": "address"
        },
        {
          "internalType": "uint256",
          "name": "",
          "type": "uint256"
        }
      ],
      "name": "ownerToOffers",
      "outputs": [
        {
          "internalType": "contract BetOffer",
          "name": "",
          "type": "address"
        }
      ],
      "stateMutability": "view",
      "type": "function"
    }
  ],
  "bytecode": "0x608060405234801561001057600080fd5b50613b40806100206000396000f3fe60806040523480156200001157600080fd5b50600436106200005e5760003560e01c806309b92448146200006357806321ce9f9114620000835780632d86c00014620000a5578063673d19ab14620000db578063e7df4d641462000111575b600080fd5b6200008160048036038101906200007b9190620005aa565b62000147565b005b6200008d620002a5565b6040516200009c919062000657565b60405180910390f35b620000c36004803603810190620000bd919062000674565b620002ab565b604051620000d29190620007ce565b60405180910390f35b620000f96004803603810190620000f39190620007f2565b6200037a565b60405162000108919062000835565b60405180910390f35b6200012f600480360381019062000129919062000852565b620003ad565b6040516200013e919062000835565b60405180910390f35b6000338787878787876040516200015e90620003fc565b62000170979695949392919062000902565b604051809103906000f0801580156200018d573d6000803e3d6000fd5b509050600080815480929190620001a490620009ae565b919050555080600260008054815260200190815260200160002060006101000a81548173ffffffffffffffffffffffffffffffffffffffff021916908373ffffffffffffffffffffffffffffffffffffffff160217905550600160003373ffffffffffffffffffffffffffffffffffffffff1673ffffffffffffffffffffffffffffffffffffffff168152602001908152602001600020819080600181540180825580915050600190039060005260206000200160009091909190916101000a81548173ffffffffffffffffffffffffffffffffffffffff021916908373ffffffffffffffffffffffffffffffffffffffff16021790555050505050505050565b60005481565b6060600160008373ffffffffffffffffffffffffffffffffffffffff1673ffffffffffffffffffffffffffffffffffffffff1681526020019081526020016000208054806020026020016040519081016040528092919081815260200182805480156200036e57602002820191906000526020600020905b8160009054906101000a900473ffffffffffffffffffffffffffffffffffffffff1673ffffffffffffffffffffffffffffffffffffffff168152602001906001019080831162000323575b50505050509050919050565b60026020528060005260406000206000915054906101000a900473ffffffffffffffffffffffffffffffffffffffff1681565b60016020528160005260406000208181548110620003ca57600080fd5b906000526020600020016000915091509054906101000a900473ffffffffffffffffffffffffffffffffffffffff1681565b61310f80620009fc83390190565b600080fd5b600081600b0b9050919050565b62000427816200040f565b81146200043357600080fd5b50565b60008135905062000447816200041c565b92915050565b60008115159050919050565b62000464816200044d565b81146200047057600080fd5b50565b600081359050620004848162000459565b92915050565b6000819050919050565b6200049f816200048a565b8114620004ab57600080fd5b50565b600081359050620004bf8162000494565b92915050565b6000819050919050565b620004da81620004c5565b8114620004e657600080fd5b50565b600081359050620004fa81620004cf565b92915050565b600073ffffffffffffffffffffffffffffffffffffffff82169050919050565b60006200052d8262000500565b9050919050565b6000620005418262000520565b9050919050565b620005538162000534565b81146200055f57600080fd5b50565b600081359050620005738162000548565b92915050565b620005848162000520565b81146200059057600080fd5b50565b600081359050620005a48162000579565b92915050565b60008060008060008060c08789031215620005ca57620005c96200040a565b5b6000620005da89828a0162000436565b9650506020620005ed89828a0162000473565b95505060406200060089828a01620004ae565b94505060606200061389828a01620004e9565b93505060806200062689828a0162000562565b92505060a06200063989828a0162000593565b9150509295509295509295565b62000651816200048a565b82525050565b60006020820190506200066e600083018462000646565b92915050565b6000602082840312156200068d576200068c6200040a565b5b60006200069d8482850162000593565b91505092915050565b600081519050919050565b600082825260208201905092915050565b6000819050602082019050919050565b6000819050919050565b6000620006fd620006f7620006f18462000500565b620006d2565b62000500565b9050919050565b60006200071182620006dc565b9050919050565b6000620007258262000704565b9050919050565b620007378162000718565b82525050565b60006200074b83836200072c565b60208301905092915050565b6000602082019050919050565b60006200077182620006a6565b6200077d8185620006b1565b93506200078a83620006c2565b8060005b83811015620007c1578151620007a588826200073d565b9750620007b28362000757565b9250506001810190506200078e565b5085935050505092915050565b60006020820190508181036000830152620007ea818462000764565b905092915050565b6000602082840312156200080b576200080a6200040a565b5b60006200081b84828501620004ae565b91505092915050565b6200082f8162000718565b82525050565b60006020820190506200084c600083018462000824565b92915050565b600080604083850312156200086c576200086b6200040a565b5b60006200087c8582860162000593565b92505060206200088f85828601620004ae565b9150509250929050565b620008a48162000520565b82525050565b620008b5816200040f565b82525050565b620008c6816200044d565b82525050565b620008d781620004c5565b82525050565b6000620008ea8262000704565b9050919050565b620008fc81620008dd565b82525050565b600060e08201905062000919600083018a62000899565b620009286020830189620008aa565b620009376040830188620008bb565b62000946606083018762000646565b620009556080830186620008cc565b6200096460a0830185620008f1565b6200097360c083018462000899565b98975050505050505050565b7f4e487b7100000000000000000000000000000000000000000000000000000000600052601160045260246000fd5b6000620009bb826200048a565b91507fffffffffffffffffffffffffffffffffffffffffffffffffffffffffffffffff8203620009f057620009ef6200097f565b5b60018201905091905056fe60c0604052735d8b4c2554aeb7e86f387b4d6c00ac33499ed01f73ffffffffffffffffffffffffffffffffffffffff1660a09073ffffffffffffffffffffffffffffffffffffffff168152503480156200005857600080fd5b506040516200310f3803806200310f83398181016040528101906200007e91906200053f565b866000806101000a81548173ffffffffffffffffffffffffffffffffffffffff021916908373ffffffffffffffffffffffffffffffffffffffff16021790555085600560146101000a8154816bffffffffffffffffffffffff0219169083600b0b6bffffffffffffffffffffffff160217905550846006600c6101000a81548160ff02191690831515021790555083600281905550826004819055508173ffffffffffffffffffffffffffffffffffffffff1660808173ffffffffffffffffffffffffffffffffffffffff168152505080600560006101000a81548173ffffffffffffffffffffffffffffffffffffffff021916908373ffffffffffffffffffffffffffffffffffffffff16021790555060008273ffffffffffffffffffffffffffffffffffffffff1663b6d200de7fa9214cc96615e0085d3bb077758db69497dc2dce3b2b1e97bc93c3d18d83efd36040518263ffffffff1660e01b8152600401620001ec91906200060d565b602060405180830381865afa1580156200020a573d6000803e3d6000fd5b505050506040513d601f19601f820116820180604052508101906200023091906200066f565b905060405180604001604052808473ffffffffffffffffffffffffffffffffffffffff1681526020018273ffffffffffffffffffffffffffffffffffffffff16815250600760008201518160000160006101000a81548173ffffffffffffffffffffffffffffffffffffffff021916908373ffffffffffffffffffffffffffffffffffffffff16021790555060208201518160010160006101000a81548173ffffffffffffffffffffffffffffffffffffffff021916908373ffffffffffffffffffffffffffffffffffffffff1602179055509050506000641000000000640400000000640100000000600117171790508373ffffffffffffffffffffffffffffffffffffffff1663ad3915c8826040518263ffffffff1660e01b81526004016200035c9190620006b2565b600060405180830381600087803b1580156200037757600080fd5b505af11580156200038c573d6000803e3d6000fd5b50505050505050505050505050620006cf565b600080fd5b600073ffffffffffffffffffffffffffffffffffffffff82169050919050565b6000620003d182620003a4565b9050919050565b620003e381620003c4565b8114620003ef57600080fd5b50565b6000815190506200040381620003d8565b92915050565b600081600b0b9050919050565b620004218162000409565b81146200042d57600080fd5b50565b600081519050620004418162000416565b92915050565b60008115159050919050565b6200045e8162000447565b81146200046a57600080fd5b50565b6000815190506200047e8162000453565b92915050565b6000819050919050565b620004998162000484565b8114620004a557600080fd5b50565b600081519050620004b9816200048e565b92915050565b6000819050919050565b620004d481620004bf565b8114620004e057600080fd5b50565b600081519050620004f481620004c9565b92915050565b60006200050782620003c4565b9050919050565b6200051981620004fa565b81146200052557600080fd5b50565b60008151905062000539816200050e565b92915050565b600080600080600080600060e0888a0312156200056157620005606200039f565b5b6000620005718a828b01620003f2565b9750506020620005848a828b0162000430565b9650506040620005978a828b016200046d565b9550506060620005aa8a828b01620004a8565b9450506080620005bd8a828b01620004e3565b93505060a0620005d08a828b0162000528565b92505060c0620005e38a828b01620003f2565b91505092959891949750929550565b6000819050919050565b6200060781620005f2565b82525050565b6000602082019050620006246000830184620005fc565b92915050565b60006200063782620003c4565b9050919050565b62000649816200062a565b81146200065557600080fd5b50565b60008151905062000669816200063e565b92915050565b6000602082840312156200068857620006876200039f565b5b6000620006988482850162000658565b91505092915050565b620006ac8162000484565b82525050565b6000602082019050620006c96000830184620006a1565b92915050565b60805160a0516129d46200073b600039600081816106f5015281816107320152818161087e015281816108bb01528181610b8601528181610c6d01528181610ca001528181610cfd015281816111d201526113a3015260008181611288015261137d01526129d46000f3fe608060405234801561001057600080fd5b50600436106101375760003560e01c80637b6d79f1116100b8578063b59a01521161007c578063b59a015214610330578063c52987cf1461034e578063cca3ae721461036c578063d3112b2e1461038a578063d86ed3e5146103a9578063f437bc59146103d957610137565b80637b6d79f11461029c578063884d1f40146102a65780638da5cb5b146102d65780638e15f473146102f45780639ffda9771461031257610137565b806353c11f99116100ff57806353c11f99146101e25780635f9e7d77146102125780636d636478146102425780637150d8ae1461026057806378691f161461027e57610137565b80630a3cb6631461013c578063215eed021461015a578063230dbd291461017857806330d9c915146101a857806337a1705d146101d8575b600080fd5b6101446103f7565b60405161015191906116c4565b60405180910390f35b6101626103fd565b60405161016f91906116f8565b60405180910390f35b610192600480360381019061018d9190611854565b610421565b60405161019f91906119d3565b60405180910390f35b6101c260048036038101906101bd91906119f5565b61059e565b6040516101cf91906119d3565b60405180910390f35b6101e06105db565b005b6101fc60048036038101906101f79190611854565b6109b8565b60405161020991906119d3565b60405180910390f35b61022c600480360381019061022791906119f5565b610b0e565b60405161023991906119d3565b60405180910390f35b61024a610b4b565b6040516102579190611acc565b60405180910390f35b610268610b5e565b6040516102759190611af6565b60405180910390f35b610286610b84565b6040516102939190611b70565b60405180910390f35b6102a4610ba8565b005b6102c060048036038101906102bb91906119f5565b610df8565b6040516102cd91906119d3565b60405180910390f35b6102de610e35565b6040516102eb9190611af6565b60405180910390f35b6102fc610e59565b6040516103099190611ba4565b60405180910390f35b61031a610efa565b6040516103279190611bdb565b60405180910390f35b610338610f0d565b6040516103459190611bdb565b60405180910390f35b610356610f20565b6040516103639190611ba4565b60405180910390f35b610374610f26565b60405161038191906116c4565b60405180910390f35b610392610f2c565b6040516103a0929190611c38565b60405180910390f35b6103c360048036038101906103be9190611854565b610f7e565b6040516103d091906119d3565b60405180910390f35b6103e161137b565b6040516103ee9190611c61565b60405180910390f35b60025481565b7fa9214cc96615e0085d3bb077758db69497dc2dce3b2b1e97bc93c3d18d83efd381565b6060898961042e8261139f565b61046d576040517f08c379a000000000000000000000000000000000000000000000000000000000815260040161046490611cd9565b60405180910390fd5b610476816113f7565b6104b5576040517f08c379a00000000000000000000000000000000000000000000000000000000081526004016104ac90611d6b565b60405180910390fd5b600760000160009054906101000a900473ffffffffffffffffffffffffffffffffffffffff1673ffffffffffffffffffffffffffffffffffffffff163373ffffffffffffffffffffffffffffffffffffffff1614610548576040517f08c379a000000000000000000000000000000000000000000000000000000000815260040161053f90611dd7565b60405180910390fd5b84848080601f016020809104026020016040519081016040528093929190818152602001838380828437600081840152601f19601f82011690508083019250505050505050925050509998505050505050505050565b60606040517f08c379a00000000000000000000000000000000000000000000000000000000081526004016105d290611e69565b60405180910390fd5b600160009054906101000a900473ffffffffffffffffffffffffffffffffffffffff1673ffffffffffffffffffffffffffffffffffffffff163373ffffffffffffffffffffffffffffffffffffffff161461066b576040517f08c379a000000000000000000000000000000000000000000000000000000000815260040161066290611ed5565b60405180910390fd5b6000600160009054906101000a900473ffffffffffffffffffffffffffffffffffffffff1690506006600c9054906101000a900460ff1615610830576004546106b2610e59565b12156106f3576040517f08c379a00000000000000000000000000000000000000000000000000000000081526004016106ea90611f67565b60405180910390fd5b7f000000000000000000000000000000000000000000000000000000000000000073ffffffffffffffffffffffffffffffffffffffff1663a9059cbb827f000000000000000000000000000000000000000000000000000000000000000073ffffffffffffffffffffffffffffffffffffffff166370a08231306040518263ffffffff1660e01b81526004016107899190611af6565b602060405180830381865afa1580156107a6573d6000803e3d6000fd5b505050506040513d601f19601f820116820180604052508101906107ca9190611fb3565b6040518363ffffffff1660e01b81526004016107e7929190611fe0565b6020604051808303816000875af1158015610806573d6000803e3d6000fd5b505050506040513d601f19601f8201168201806040525081019061082a9190612035565b506109b5565b60045461083b610e59565b131561087c576040517f08c379a0000000000000000000000000000000000000000000000000000000008152600401610873906120d4565b60405180910390fd5b7f000000000000000000000000000000000000000000000000000000000000000073ffffffffffffffffffffffffffffffffffffffff1663a9059cbb827f000000000000000000000000000000000000000000000000000000000000000073ffffffffffffffffffffffffffffffffffffffff166370a08231306040518263ffffffff1660e01b81526004016109129190611af6565b602060405180830381865afa15801561092f573d6000803e3d6000fd5b505050506040513d601f19601f820116820180604052508101906109539190611fb3565b6040518363ffffffff1660e01b8152600401610970929190611fe0565b6020604051808303816000875af115801561098f573d6000803e3d6000fd5b505050506040513d601f19601f820116820180604052508101906109b39190612035565b505b50565b6060600760000160009054906101000a900473ffffffffffffffffffffffffffffffffffffffff1673ffffffffffffffffffffffffffffffffffffffff163373ffffffffffffffffffffffffffffffffffffffff1614610a4d576040517f08c379a0000000000000000000000000000000000000000000000000000000008152600401610a4490611dd7565b60405180910390fd5b610a56896113f7565b1580610a685750610a668a61139f565b155b15610ab95782828080601f016020809104026020016040519081016040528093929190818152602001838380828437600081840152601f19601f820116905080830192505050505050509050610b01565b82828080601f016020809104026020016040519081016040528093929190818152602001838380828437600081840152601f19601f8201169050808301925050505050505090505b9998505050505050505050565b60606040517f08c379a0000000000000000000000000000000000000000000000000000000008152600401610b4290612166565b60405180910390fd5b6006600c9054906101000a900460ff1681565b600160009054906101000a900473ffffffffffffffffffffffffffffffffffffffff1681565b7f000000000000000000000000000000000000000000000000000000000000000081565b60008054906101000a900473ffffffffffffffffffffffffffffffffffffffff1673ffffffffffffffffffffffffffffffffffffffff163373ffffffffffffffffffffffffffffffffffffffff1614610c36576040517f08c379a0000000000000000000000000000000000000000000000000000000008152600401610c2d906121d2565b60405180910390fd5b6003544211610c4457600080fd5b610c9e600160009054906101000a900473ffffffffffffffffffffffffffffffffffffffff16307f00000000000000000000000000000000000000000000000000000000000000006007611491909392919063ffffffff16565b7f000000000000000000000000000000000000000000000000000000000000000073ffffffffffffffffffffffffffffffffffffffff1663a9059cbb60008054906101000a900473ffffffffffffffffffffffffffffffffffffffff167f000000000000000000000000000000000000000000000000000000000000000073ffffffffffffffffffffffffffffffffffffffff166370a08231306040518263ffffffff1660e01b8152600401610d549190611af6565b602060405180830381865afa158015610d71573d6000803e3d6000fd5b505050506040513d601f19601f82011682018060405250810190610d959190611fb3565b6040518363ffffffff1660e01b8152600401610db2929190611fe0565b6020604051808303816000875af1158015610dd1573d6000803e3d6000fd5b505050506040513d601f19601f82011682018060405250810190610df59190612035565b50565b60606040517f08c379a0000000000000000000000000000000000000000000000000000000008152600401610e2c90612264565b60405180910390fd5b60008054906101000a900473ffffffffffffffffffffffffffffffffffffffff1681565b600080600560009054906101000a900473ffffffffffffffffffffffffffffffffffffffff1673ffffffffffffffffffffffffffffffffffffffff1663feaf968c6040518163ffffffff1660e01b815260040160a060405180830381865afa158015610ec9573d6000803e3d6000fd5b505050506040513d601f19601f82011682018060405250810190610eed91906122f2565b5050509150508091505090565b600560149054906101000a9004600b0b81565b600660009054906101000a9004600b0b81565b60045481565b60035481565b60078060000160009054906101000a900473ffffffffffffffffffffffffffffffffffffffff16908060010160009054906101000a900473ffffffffffffffffffffffffffffffffffffffff16905082565b60608989610f8b8261139f565b610fca576040517f08c379a0000000000000000000000000000000000000000000000000000000008152600401610fc190611cd9565b60405180910390fd5b610fd3816113f7565b611012576040517f08c379a000000000000000000000000000000000000000000000000000000000815260040161100990611d6b565b60405180910390fd5b600760000160009054906101000a900473ffffffffffffffffffffffffffffffffffffffff1673ffffffffffffffffffffffffffffffffffffffff163373ffffffffffffffffffffffffffffffffffffffff16146110a5576040517f08c379a000000000000000000000000000000000000000000000000000000000815260040161109c90611dd7565b60405180910390fd5b600073ffffffffffffffffffffffffffffffffffffffff16600160009054906101000a900473ffffffffffffffffffffffffffffffffffffffff1673ffffffffffffffffffffffffffffffffffffffff161415801561110657506003544211155b15611146576040517f08c379a000000000000000000000000000000000000000000000000000000000815260040161113d906123df565b60405180910390fd5b84848080601f016020809104026020016040519081016040528093929190818152602001838380828437600081840152601f19601f8201169050808301925050505050505092506000600760010160009054906101000a900473ffffffffffffffffffffffffffffffffffffffff1673ffffffffffffffffffffffffffffffffffffffff1663e8e7e2d17f0000000000000000000000000000000000000000000000000000000000000000306040518363ffffffff1660e01b815260040161120f9291906123ff565b602060405180830381865afa15801561122c573d6000803e3d6000fd5b505050506040513d601f19601f820116820180604052508101906112509190612454565b905080600660006101000a8154816bffffffffffffffffffffffff0219169083600b0b6bffffffffffffffffffffffff1602179055507f000000000000000000000000000000000000000000000000000000000000000073ffffffffffffffffffffffffffffffffffffffff16633f6c923a87876040518363ffffffff1660e01b81526004016112e19291906124bd565b600060405180830381865afa1580156112fe573d6000803e3d6000fd5b505050506040513d6000823e3d601f19601f820116820180604052508101906113279190612818565b60600151600160006101000a81548173ffffffffffffffffffffffffffffffffffffffff021916908373ffffffffffffffffffffffffffffffffffffffff1602179055505050509998505050505050505050565b7f000000000000000000000000000000000000000000000000000000000000000081565b60007f000000000000000000000000000000000000000000000000000000000000000073ffffffffffffffffffffffffffffffffffffffff168273ffffffffffffffffffffffffffffffffffffffff16149050919050565b60007fa9214cc96615e0085d3bb077758db69497dc2dce3b2b1e97bc93c3d18d83efd38273ffffffffffffffffffffffffffffffffffffffff16637730599e6040518163ffffffff1660e01b8152600401602060405180830381865afa158015611465573d6000803e3d6000fd5b505050506040513d601f19601f820116820180604052508101906114899190612876565b149050919050565b6114eb84848484600067ffffffffffffffff8111156114b3576114b26124e6565b5b6040519080825280601f01601f1916602001820160405280156114e55781602001600182028036833780820191505090505b506114f1565b50505050565b8460000160009054906101000a900473ffffffffffffffffffffffffffffffffffffffff1673ffffffffffffffffffffffffffffffffffffffff166339255d5b8660010160009054906101000a900473ffffffffffffffffffffffffffffffffffffffff168760010160009054906101000a900473ffffffffffffffffffffffffffffffffffffffff1673ffffffffffffffffffffffffffffffffffffffff1663b4b333c6868989600067ffffffffffffffff8111156115b4576115b36124e6565b5b6040519080825280601f01601f1916602001820160405280156115e65781602001600182028036833780820191505090505b506040516024016115fa94939291906128c4565b604051602081830303815290604052915060e01b6020820180517bffffffffffffffffffffffffffffffffffffffffffffffffffffffff8381831617835250505050846040518463ffffffff1660e01b815260040161165b93929190612910565b6000604051808303816000875af115801561167a573d6000803e3d6000fd5b505050506040513d6000823e3d601f19601f820116820180604052508101906116a39190612955565b505050505050565b6000819050919050565b6116be816116ab565b82525050565b60006020820190506116d960008301846116b5565b92915050565b6000819050919050565b6116f2816116df565b82525050565b600060208201905061170d60008301846116e9565b92915050565b6000604051905090565b600080fd5b600080fd5b600073ffffffffffffffffffffffffffffffffffffffff82169050919050565b600061175282611727565b9050919050565b600061176482611747565b9050919050565b61177481611759565b811461177f57600080fd5b50565b6000813590506117918161176b565b92915050565b6117a081611747565b81146117ab57600080fd5b50565b6000813590506117bd81611797565b92915050565b6117cc816116df565b81146117d757600080fd5b50565b6000813590506117e9816117c3565b92915050565b600080fd5b600080fd5b600080fd5b60008083601f840112611814576118136117ef565b5b8235905067ffffffffffffffff811115611831576118306117f4565b5b60208301915083600182028301111561184d5761184c6117f9565b5b9250929050565b600080600080600080600080600060c08a8c0312156118765761187561171d565b5b60006118848c828d01611782565b99505060206118958c828d016117ae565b98505060406118a68c828d016117da565b97505060608a013567ffffffffffffffff8111156118c7576118c6611722565b5b6118d38c828d016117fe565b965096505060808a013567ffffffffffffffff8111156118f6576118f5611722565b5b6119028c828d016117fe565b945094505060a08a013567ffffffffffffffff81111561192557611924611722565b5b6119318c828d016117fe565b92509250509295985092959850929598565b600081519050919050565b600082825260208201905092915050565b60005b8381101561197d578082015181840152602081019050611962565b60008484015250505050565b6000601f19601f8301169050919050565b60006119a582611943565b6119af818561194e565b93506119bf81856020860161195f565b6119c881611989565b840191505092915050565b600060208201905081810360008301526119ed818461199a565b905092915050565b600080600080600080600060a0888a031215611a1457611a1361171d565b5b6000611a228a828b01611782565b9750506020611a338a828b016117ae565b9650506040611a448a828b016117da565b955050606088013567ffffffffffffffff811115611a6557611a64611722565b5b611a718a828b016117fe565b9450945050608088013567ffffffffffffffff811115611a9457611a93611722565b5b611aa08a828b016117fe565b925092505092959891949750929550565b60008115159050919050565b611ac681611ab1565b82525050565b6000602082019050611ae16000830184611abd565b92915050565b611af081611747565b82525050565b6000602082019050611b0b6000830184611ae7565b92915050565b6000819050919050565b6000611b36611b31611b2c84611727565b611b11565b611727565b9050919050565b6000611b4882611b1b565b9050919050565b6000611b5a82611b3d565b9050919050565b611b6a81611b4f565b82525050565b6000602082019050611b856000830184611b61565b92915050565b6000819050919050565b611b9e81611b8b565b82525050565b6000602082019050611bb96000830184611b95565b92915050565b600081600b0b9050919050565b611bd581611bbf565b82525050565b6000602082019050611bf06000830184611bcc565b92915050565b6000611c0182611b3d565b9050919050565b611c1181611bf6565b82525050565b6000611c2282611b3d565b9050919050565b611c3281611c17565b82525050565b6000604082019050611c4d6000830185611c08565b611c5a6020830184611c29565b9392505050565b6000602082019050611c766000830184611c08565b92915050565b600082825260208201905092915050565b7f5265646972656374416c6c3a206e6f7420616363657074656420746f6b656e00600082015250565b6000611cc3601f83611c7c565b9150611cce82611c8d565b602082019050919050565b60006020820190508181036000830152611cf281611cb6565b9050919050565b7f5265646972656374416c6c3a206f6e6c7920434641763120737570706f72746560008201527f6400000000000000000000000000000000000000000000000000000000000000602082015250565b6000611d55602183611c7c565b9150611d6082611cf9565b604082019050919050565b60006020820190508181036000830152611d8481611d48565b9050919050565b7f4f6e6c7920686f73742063616e2063616c6c2063616c6c6261636b0000000000600082015250565b6000611dc1601b83611c7c565b9150611dcc82611d8b565b602082019050919050565b60006020820190508181036000830152611df081611db4565b9050919050565b7f556e737570706f727465642063616c6c6261636b202d204265666f726520416760008201527f7265656d656e7420437265617465640000000000000000000000000000000000602082015250565b6000611e53602f83611c7c565b9150611e5e82611df7565b604082019050919050565b60006020820190508181036000830152611e8281611e46565b9050919050565b7f4f6e6c792062757965722063616e206578656375746500000000000000000000600082015250565b6000611ebf601683611c7c565b9150611eca82611e89565b602082019050919050565b60006020820190508181036000830152611eee81611eb2565b9050919050565b7f43757272656e74207072696365206c6f776572207468616e20737472696b652060008201527f7072696365000000000000000000000000000000000000000000000000000000602082015250565b6000611f51602583611c7c565b9150611f5c82611ef5565b604082019050919050565b60006020820190508181036000830152611f8081611f44565b9050919050565b611f90816116ab565b8114611f9b57600080fd5b50565b600081519050611fad81611f87565b92915050565b600060208284031215611fc957611fc861171d565b5b6000611fd784828501611f9e565b91505092915050565b6000604082019050611ff56000830185611ae7565b61200260208301846116b5565b9392505050565b61201281611ab1565b811461201d57600080fd5b50565b60008151905061202f81612009565b92915050565b60006020828403121561204b5761204a61171d565b5b600061205984828501612020565b91505092915050565b7f43757272656e7420707269636520686967686572207468616e20737472696b6560008201527f2070726963650000000000000000000000000000000000000000000000000000602082015250565b60006120be602683611c7c565b91506120c982612062565b604082019050919050565b600060208201905081810360008301526120ed816120b1565b9050919050565b7f556e737570706f727465642063616c6c6261636b202d20204265666f7265204160008201527f677265656d656e74205465726d696e6174656400000000000000000000000000602082015250565b6000612150603383611c7c565b915061215b826120f4565b604082019050919050565b6000602082019050818103600083015261217f81612143565b9050919050565b7f4f6e6c79206f776e65722063616e206578656375746500000000000000000000600082015250565b60006121bc601683611c7c565b91506121c782612186565b602082019050919050565b600060208201905081810360008301526121eb816121af565b9050919050565b7f556e737570706f727465642063616c6c6261636b202d204265666f726520416760008201527f7265656d656e7420757064617465640000000000000000000000000000000000602082015250565b600061224e602f83611c7c565b9150612259826121f2565b604082019050919050565b6000602082019050818103600083015261227d81612241565b9050919050565b600069ffffffffffffffffffff82169050919050565b6122a381612284565b81146122ae57600080fd5b50565b6000815190506122c08161229a565b92915050565b6122cf81611b8b565b81146122da57600080fd5b50565b6000815190506122ec816122c6565b92915050565b600080600080600060a0868803121561230e5761230d61171d565b5b600061231c888289016122b1565b955050602061232d888289016122dd565b945050604061233e88828901611f9e565b935050606061234f88828901611f9e565b9250506080612360888289016122b1565b9150509295509295909350565b7f42657420616c726561647920736f6c642c20667265657a6520706572696f642060008201527f6e6f74206f766572000000000000000000000000000000000000000000000000602082015250565b60006123c9602883611c7c565b91506123d48261236d565b604082019050919050565b600060208201905081810360008301526123f8816123bc565b9050919050565b60006040820190506124146000830185611b61565b6124216020830184611ae7565b9392505050565b61243181611bbf565b811461243c57600080fd5b50565b60008151905061244e81612428565b92915050565b60006020828403121561246a5761246961171d565b5b60006124788482850161243f565b91505092915050565b82818337600083830152505050565b600061249c838561194e565b93506124a9838584612481565b6124b283611989565b840190509392505050565b600060208201905081810360008301526124d8818486612490565b90509392505050565b600080fd5b7f4e487b7100000000000000000000000000000000000000000000000000000000600052604160045260246000fd5b61251e82611989565b810181811067ffffffffffffffff8211171561253d5761253c6124e6565b5b80604052505050565b6000612550611713565b905061255c8282612515565b919050565b600080fd5b600060ff82169050919050565b61257c81612566565b811461258757600080fd5b50565b60008151905061259981612573565b92915050565b6000815190506125ae81611797565b92915050565b60007fffffffff0000000000000000000000000000000000000000000000000000000082169050919050565b6125e9816125b4565b81146125f457600080fd5b50565b600081519050612606816125e0565b92915050565b600080fd5b600067ffffffffffffffff82111561262c5761262b6124e6565b5b61263582611989565b9050602081019050919050565b600061265561265084612611565b612546565b9050828152602081018484840111156126715761267061260c565b5b61267c84828561195f565b509392505050565b600082601f830112612699576126986117ef565b5b81516126a9848260208601612642565b91505092915050565b60006126bd82611747565b9050919050565b6126cd816126b2565b81146126d857600080fd5b50565b6000815190506126ea816126c4565b92915050565b60006101608284031215612707576127066124e1565b5b612712610160612546565b905060006127228482850161258a565b60008301525060206127368482850161258a565b602083015250604061274a84828501611f9e565b604083015250606061275e8482850161259f565b6060830152506080612772848285016125f7565b60808301525060a082015167ffffffffffffffff81111561279657612795612561565b5b6127a284828501612684565b60a08301525060c06127b684828501611f9e565b60c08301525060e06127ca84828501611f9e565b60e0830152506101006127df848285016122dd565b610100830152506101206127f58482850161259f565b6101208301525061014061280b848285016126db565b6101408301525092915050565b60006020828403121561282e5761282d61171d565b5b600082015167ffffffffffffffff81111561284c5761284b611722565b5b612858848285016126f0565b91505092915050565b600081519050612870816117c3565b92915050565b60006020828403121561288c5761288b61171d565b5b600061289a84828501612861565b91505092915050565b60006128ae82611b3d565b9050919050565b6128be816128a3565b82525050565b60006080820190506128d960008301876128b5565b6128e66020830186611ae7565b6128f36040830185611ae7565b8181036060830152612905818461199a565b905095945050505050565b60006060820190506129256000830186611c29565b8181036020830152612937818561199a565b9050818103604083015261294b818461199a565b9050949350505050565b60006020828403121561296b5761296a61171d565b5b600082015167ffffffffffffffff81111561298957612988611722565b5b61299584828501612684565b9150509291505056fea2646970667358221220a5ac68363465ee30deb257cf124766a0d9d6e8e0133bbbfb022efddf8f9effb364736f6c63430008100033a264697066735822122008cf631910d787303a83b53b22f15cfe716db99c813ad0c127d91eb02492856964736f6c63430008100033",
  "linkReferences": {},
  "deployedLinkReferences": {}
}