{
  "_format": "hh-sol-artifact-1",
  "contractName": "BetOffer",
  "sourceName": "contracts/BetOffer.sol",
  "abi": [
    {
      "inputs": [
        {
          "internalType": "address",
          "name": "_owner",
          "type": "address"
        },
        {
          "internalType": "int96",
          "name": "_minPaymentFlowRate",
          "type": "int96"
        },
        {
          "internalType": "bool",
          "name": "_isCall",
          "type": "bool"
        },
        {
          "internalType": "uint256",
          "name": "_freezePeriod",
          "type": "uint256"
        },
        {
          "internalType": "int256",
          "name": "_strikePrice",
          "type": "int256"
        },
        {
          "internalType": "contract ISuperfluid",
          "name": "_host",
          "type": "address"
        },
        {
          "internalType": "address",
          "name": "_chainLinkOracle",
          "type": "address"
        }
      ],
      "stateMutability": "nonpayable",
      "type": "constructor"
    },
    {
      "inputs": [],
      "name": "CFA_ID",
      "outputs": [
        {
          "internalType": "bytes32",
          "name": "",
          "type": "bytes32"
        }
      ],
      "stateMutability": "view",
      "type": "function"
    },
    {
      "inputs": [
        {
          "internalType": "contract ISuperToken",
          "name": "_superToken",
          "type": "address"
        },
        {
          "internalType": "address",
          "name": "_agreementClass",
          "type": "address"
        },
        {
          "internalType": "bytes32",
          "name": "",
          "type": "bytes32"
        },
        {
          "internalType": "bytes",
          "name": "",
          "type": "bytes"
        },
        {
          "internalType": "bytes",
          "name": "",
          "type": "bytes"
        },
        {
          "internalType": "bytes",
          "name": "ctx",
          "type": "bytes"
        }
      ],
      "name": "afterAgreementCreated",
      "outputs": [
        {
          "internalType": "bytes",
          "name": "newCtx",
          "type": "bytes"
        }
      ],
      "stateMutability": "nonpayable",
      "type": "function"
    },
    {
      "inputs": [
        {
          "internalType": "contract ISuperToken",
          "name": "_superToken",
          "type": "address"
        },
        {
          "internalType": "address",
          "name": "_agreementClass",
          "type": "address"
        },
        {
          "internalType": "bytes32",
          "name": "",
          "type": "bytes32"
        },
        {
          "internalType": "bytes",
          "name": "",
          "type": "bytes"
        },
        {
          "internalType": "bytes",
          "name": "",
          "type": "bytes"
        },
        {
          "internalType": "bytes",
          "name": "ctx",
          "type": "bytes"
        }
      ],
      "name": "afterAgreementTerminated",
      "outputs": [
        {
          "internalType": "bytes",
          "name": "newCtx",
          "type": "bytes"
        }
      ],
      "stateMutability": "nonpayable",
      "type": "function"
    },
    {
      "inputs": [
        {
          "internalType": "contract ISuperToken",
          "name": "_superToken",
          "type": "address"
        },
        {
          "internalType": "address",
          "name": "_agreementClass",
          "type": "address"
        },
        {
          "internalType": "bytes32",
          "name": "",
          "type": "bytes32"
        },
        {
          "internalType": "bytes",
          "name": "",
          "type": "bytes"
        },
        {
          "internalType": "bytes",
          "name": "",
          "type": "bytes"
        },
        {
          "internalType": "bytes",
          "name": "ctx",
          "type": "bytes"
        }
      ],
      "name": "afterAgreementUpdated",
      "outputs": [
        {
          "internalType": "bytes",
          "name": "newCtx",
          "type": "bytes"
        }
      ],
      "stateMutability": "nonpayable",
      "type": "function"
    },
    {
      "inputs": [
        {
          "internalType": "contract ISuperToken",
          "name": "",
          "type": "address"
        },
        {
          "internalType": "address",
          "name": "",
          "type": "address"
        },
        {
          "internalType": "bytes32",
          "name": "",
          "type": "bytes32"
        },
        {
          "internalType": "bytes",
          "name": "",
          "type": "bytes"
        },
        {
          "internalType": "bytes",
          "name": "",
          "type": "bytes"
        }
      ],
      "name": "beforeAgreementCreated",
      "outputs": [
        {
          "internalType": "bytes",
          "name": "",
          "type": "bytes"
        }
      ],
      "stateMutability": "view",
      "type": "function"
    },
    {
      "inputs": [
        {
          "internalType": "contract ISuperToken",
          "name": "",
          "type": "address"
        },
        {
          "internalType": "address",
          "name": "",
          "type": "address"
        },
        {
          "internalType": "bytes32",
          "name": "",
          "type": "bytes32"
        },
        {
          "internalType": "bytes",
          "name": "",
          "type": "bytes"
        },
        {
          "internalType": "bytes",
          "name": "",
          "type": "bytes"
        }
      ],
      "name": "beforeAgreementTerminated",
      "outputs": [
        {
          "internalType": "bytes",
          "name": "",
          "type": "bytes"
        }
      ],
      "stateMutability": "view",
      "type": "function"
    },
    {
      "inputs": [
        {
          "internalType": "contract ISuperToken",
          "name": "",
          "type": "address"
        },
        {
          "internalType": "address",
          "name": "",
          "type": "address"
        },
        {
          "internalType": "bytes32",
          "name": "",
          "type": "bytes32"
        },
        {
          "internalType": "bytes",
          "name": "",
          "type": "bytes"
        },
        {
          "internalType": "bytes",
          "name": "",
          "type": "bytes"
        }
      ],
      "name": "beforeAgreementUpdated",
      "outputs": [
        {
          "internalType": "bytes",
          "name": "",
          "type": "bytes"
        }
      ],
      "stateMutability": "view",
      "type": "function"
    },
    {
      "inputs": [],
      "name": "betToken",
      "outputs": [
        {
          "internalType": "contract ISuperToken",
          "name": "",
          "type": "address"
        }
      ],
      "stateMutability": "view",
      "type": "function"
    },
    {
      "inputs": [],
      "name": "buyer",
      "outputs": [
        {
          "internalType": "address",
          "name": "",
          "type": "address"
        }
      ],
      "stateMutability": "view",
      "type": "function"
    },
    {
      "inputs": [],
      "name": "cancelBet",
      "outputs": [],
      "stateMutability": "nonpayable",
      "type": "function"
    },
    {
      "inputs": [],
      "name": "cfaV1",
      "outputs": [
        {
          "internalType": "contract ISuperfluid",
          "name": "host",
          "type": "address"
        },
        {
          "internalType": "contract IConstantFlowAgreementV1",
          "name": "cfa",
          "type": "address"
        }
      ],
      "stateMutability": "view",
      "type": "function"
    },
    {
      "inputs": [],
      "name": "executeBet",
      "outputs": [],
      "stateMutability": "nonpayable",
      "type": "function"
    },
    {
      "inputs": [],
      "name": "freezePeriod",
      "outputs": [
        {
          "internalType": "uint256",
          "name": "",
          "type": "uint256"
        }
      ],
      "stateMutability": "view",
      "type": "function"
    },
    {
      "inputs": [],
      "name": "freezePeriodEnd",
      "outputs": [
        {
          "internalType": "uint256",
          "name": "",
          "type": "uint256"
        }
      ],
      "stateMutability": "view",
      "type": "function"
    },
    {
      "inputs": [],
      "name": "getLatestPrice",
      "outputs": [
        {
          "internalType": "int256",
          "name": "",
          "type": "int256"
        }
      ],
      "stateMutability": "view",
      "type": "function"
    },
    {
      "inputs": [],
      "name": "host",
      "outputs": [
        {
          "internalType": "contract ISuperfluid",
          "name": "",
          "type": "address"
        }
      ],
      "stateMutability": "view",
      "type": "function"
    },
    {
      "inputs": [],
      "name": "isCall",
      "outputs": [
        {
          "internalType": "bool",
          "name": "",
          "type": "bool"
        }
      ],
      "stateMutability": "view",
      "type": "function"
    },
    {
      "inputs": [],
      "name": "minPaymentFlowRate",
      "outputs": [
        {
          "internalType": "int96",
          "name": "",
          "type": "int96"
        }
      ],
      "stateMutability": "view",
      "type": "function"
    },
    {
      "inputs": [],
      "name": "owner",
      "outputs": [
        {
          "internalType": "address",
          "name": "",
          "type": "address"
        }
      ],
      "stateMutability": "view",
      "type": "function"
    },
    {
      "inputs": [],
      "name": "priceFeed",
      "outputs": [
        {
          "internalType": "contract AggregatorV3Interface",
          "name": "",
          "type": "address"
        }
      ],
      "stateMutability": "view",
      "type": "function"
    },
    {
      "inputs": [],
      "name": "strikePrice",
      "outputs": [
        {
          "internalType": "int256",
          "name": "",
          "type": "int256"
        }
      ],
      "stateMutability": "view",
      "type": "function"
    }
  ],
  "bytecode": "0x60c0604052735d8b4c2554aeb7e86f387b4d6c00ac33499ed01f73ffffffffffffffffffffffffffffffffffffffff1660a09073ffffffffffffffffffffffffffffffffffffffff168152503480156200005857600080fd5b50604051620048483803806200484883398181016040528101906200007e91906200053f565b866000806101000a81548173ffffffffffffffffffffffffffffffffffffffff021916908373ffffffffffffffffffffffffffffffffffffffff16021790555085600560146101000a8154816bffffffffffffffffffffffff0219169083600b0b6bffffffffffffffffffffffff16021790555084600660006101000a81548160ff02191690831515021790555083600281905550826004819055508173ffffffffffffffffffffffffffffffffffffffff1660808173ffffffffffffffffffffffffffffffffffffffff168152505080600560006101000a81548173ffffffffffffffffffffffffffffffffffffffff021916908373ffffffffffffffffffffffffffffffffffffffff16021790555060008273ffffffffffffffffffffffffffffffffffffffff1663b6d200de7fa9214cc96615e0085d3bb077758db69497dc2dce3b2b1e97bc93c3d18d83efd36040518263ffffffff1660e01b8152600401620001ec91906200060d565b602060405180830381865afa1580156200020a573d6000803e3d6000fd5b505050506040513d601f19601f820116820180604052508101906200023091906200066f565b905060405180604001604052808473ffffffffffffffffffffffffffffffffffffffff1681526020018273ffffffffffffffffffffffffffffffffffffffff16815250600760008201518160000160006101000a81548173ffffffffffffffffffffffffffffffffffffffff021916908373ffffffffffffffffffffffffffffffffffffffff16021790555060208201518160010160006101000a81548173ffffffffffffffffffffffffffffffffffffffff021916908373ffffffffffffffffffffffffffffffffffffffff1602179055509050506000641000000000640400000000640100000000600117171790508373ffffffffffffffffffffffffffffffffffffffff1663ad3915c8826040518263ffffffff1660e01b81526004016200035c9190620006b2565b600060405180830381600087803b1580156200037757600080fd5b505af11580156200038c573d6000803e3d6000fd5b50505050505050505050505050620006cf565b600080fd5b600073ffffffffffffffffffffffffffffffffffffffff82169050919050565b6000620003d182620003a4565b9050919050565b620003e381620003c4565b8114620003ef57600080fd5b50565b6000815190506200040381620003d8565b92915050565b600081600b0b9050919050565b620004218162000409565b81146200042d57600080fd5b50565b600081519050620004418162000416565b92915050565b60008115159050919050565b6200045e8162000447565b81146200046a57600080fd5b50565b6000815190506200047e8162000453565b92915050565b6000819050919050565b620004998162000484565b8114620004a557600080fd5b50565b600081519050620004b9816200048e565b92915050565b6000819050919050565b620004d481620004bf565b8114620004e057600080fd5b50565b600081519050620004f481620004c9565b92915050565b60006200050782620003c4565b9050919050565b6200051981620004fa565b81146200052557600080fd5b50565b60008151905062000539816200050e565b92915050565b600080600080600080600060e0888a0312156200056157620005606200039f565b5b6000620005718a828b01620003f2565b9750506020620005848a828b0162000430565b9650506040620005978a828b016200046d565b9550506060620005aa8a828b01620004a8565b9450506080620005bd8a828b01620004e3565b93505060a0620005d08a828b0162000528565b92505060c0620005e38a828b01620003f2565b91505092959891949750929550565b6000819050919050565b6200060781620005f2565b82525050565b6000602082019050620006246000830184620005fc565b92915050565b60006200063782620003c4565b9050919050565b62000649816200062a565b81146200065557600080fd5b50565b60008151905062000669816200063e565b92915050565b6000602082840312156200068857620006876200039f565b5b6000620006988482850162000658565b91505092915050565b620006ac8162000484565b82525050565b6000602082019050620006c96000830184620006a1565b92915050565b60805160a0516140ab6200079d600039600081816106cd0152818161083b0152818161091b01528181610aff01528181610b3c01528181610c9001528181610ccd015281816110e1015281816111ca0152818161129a015281816112f70152818161171801528181611ab001528181611b9001528181611cc201528181611d1d01528181611d9801528181611f630152611fbb0152600081816105ca015281816106ee0152818161087501528181610f1e01528181611739015281816119920152611d7201526140ab6000f3fe608060405234801561001057600080fd5b50600436106101375760003560e01c806378691f16116100b85780639ffda9771161007c5780639ffda97714610330578063c52987cf1461034e578063cca3ae721461036c578063d3112b2e1461038a578063d86ed3e5146103a9578063f437bc59146103d957610137565b806378691f161461029c5780637b6d79f1146102ba578063884d1f40146102c45780638da5cb5b146102f45780638e15f4731461031257610137565b806353c11f99116100ff57806353c11f99146101e25780635f9e7d77146102125780636d636478146102425780637150d8ae14610260578063741bef1a1461027e57610137565b80630a3cb6631461013c578063215eed021461015a578063230dbd291461017857806330d9c915146101a857806337a1705d146101d8575b600080fd5b6101446103f7565b6040516101519190612840565b60405180910390f35b6101626103fd565b60405161016f9190612874565b60405180910390f35b610192600480360381019061018d91906129d0565b610421565b60405161019f9190612b4f565b60405180910390f35b6101c260048036038101906101bd9190612b71565b6109a8565b6040516101cf9190612b4f565b60405180910390f35b6101e06109e5565b005b6101fc60048036038101906101f791906129d0565b610dd2565b6040516102099190612b4f565b60405180910390f35b61022c60048036038101906102279190612b71565b61112c565b6040516102399190612b4f565b60405180910390f35b61024a611169565b6040516102579190612c48565b60405180910390f35b61026861117c565b6040516102759190612c72565b60405180910390f35b6102866111a2565b6040516102939190612cec565b60405180910390f35b6102a46111c8565b6040516102b19190612d28565b60405180910390f35b6102c26111ec565b005b6102de60048036038101906102d99190612b71565b6113f2565b6040516102eb9190612b4f565b60405180910390f35b6102fc61142f565b6040516103099190612c72565b60405180910390f35b61031a611453565b6040516103279190612d5c565b60405180910390f35b6103386114f4565b6040516103459190612d93565b60405180910390f35b610356611507565b6040516103639190612d5c565b60405180910390f35b61037461150d565b6040516103819190612840565b60405180910390f35b610392611513565b6040516103a0929190612df0565b60405180910390f35b6103c360048036038101906103be91906129d0565b611565565b6040516103d09190612b4f565b60405180910390f35b6103e1611d70565b6040516103ee9190612e19565b60405180910390f35b60025481565b7fa9214cc96615e0085d3bb077758db69497dc2dce3b2b1e97bc93c3d18d83efd381565b6060898961042e82611d94565b61046d576040517f08c379a000000000000000000000000000000000000000000000000000000000815260040161046490612e91565b60405180910390fd5b61047681611dec565b6104b5576040517f08c379a00000000000000000000000000000000000000000000000000000000081526004016104ac90612f23565b60405180910390fd5b600760000160009054906101000a900473ffffffffffffffffffffffffffffffffffffffff1673ffffffffffffffffffffffffffffffffffffffff163373ffffffffffffffffffffffffffffffffffffffff1614610548576040517f08c379a000000000000000000000000000000000000000000000000000000000815260040161053f90612f8f565b60405180910390fd5b84848080601f016020809104026020016040519081016040528093929190818152602001838380828437600081840152601f19601f820116905080830192505050505050509250600160009054906101000a900473ffffffffffffffffffffffffffffffffffffffff1673ffffffffffffffffffffffffffffffffffffffff167f000000000000000000000000000000000000000000000000000000000000000073ffffffffffffffffffffffffffffffffffffffff16633f6c923a87876040518363ffffffff1660e01b8152600401610623929190612feb565b600060405180830381865afa158015610640573d6000803e3d6000fd5b505050506040513d6000823e3d601f19601f82011682018060405250810190610669919061339e565b6060015173ffffffffffffffffffffffffffffffffffffffff160361095e576000600760010160009054906101000a900473ffffffffffffffffffffffffffffffffffffffff1673ffffffffffffffffffffffffffffffffffffffff1663e6a1e8887f00000000000000000000000000000000000000000000000000000000000000007f000000000000000000000000000000000000000000000000000000000000000073ffffffffffffffffffffffffffffffffffffffff16633f6c923a8a8a6040518363ffffffff1660e01b8152600401610747929190612feb565b600060405180830381865afa158015610764573d6000803e3d6000fd5b505050506040513d6000823e3d601f19601f8201168201806040525081019061078d919061339e565b60600151306040518463ffffffff1660e01b81526004016107b0939291906133e7565b608060405180830381865afa1580156107cd573d6000803e3d6000fd5b505050506040513d601f19601f820116820180604052508101906107f1919061344a565b5050915050600560149054906101000a9004600b0b600b0b81600b0b12156109585761086d843060008054906101000a900473ffffffffffffffffffffffffffffffffffffffff167f00000000000000000000000000000000000000000000000000000000000000006007611e8690949392919063ffffffff16565b935061094d847f000000000000000000000000000000000000000000000000000000000000000073ffffffffffffffffffffffffffffffffffffffff16633f6c923a89896040518363ffffffff1660e01b81526004016108ce929190612feb565b600060405180830381865afa1580156108eb573d6000803e3d6000fd5b505050506040513d6000823e3d601f19601f82011682018060405250810190610914919061339e565b60600151307f00000000000000000000000000000000000000000000000000000000000000006007611e8690949392919063ffffffff16565b9350610957611eee565b5b50610999565b6040517f08c379a0000000000000000000000000000000000000000000000000000000008152600401610990906134fd565b60405180910390fd5b50509998505050505050505050565b60606040517f08c379a00000000000000000000000000000000000000000000000000000000081526004016109dc9061358f565b60405180910390fd5b600160009054906101000a900473ffffffffffffffffffffffffffffffffffffffff1673ffffffffffffffffffffffffffffffffffffffff163373ffffffffffffffffffffffffffffffffffffffff1614610a75576040517f08c379a0000000000000000000000000000000000000000000000000000000008152600401610a6c906135fb565b60405180910390fd5b6000600160009054906101000a900473ffffffffffffffffffffffffffffffffffffffff169050600660009054906101000a900460ff1615610c4257600454610abc611453565b1215610afd576040517f08c379a0000000000000000000000000000000000000000000000000000000008152600401610af49061368d565b60405180910390fd5b7f000000000000000000000000000000000000000000000000000000000000000073ffffffffffffffffffffffffffffffffffffffff1663a9059cbb827f000000000000000000000000000000000000000000000000000000000000000073ffffffffffffffffffffffffffffffffffffffff166370a08231306040518263ffffffff1660e01b8152600401610b939190612c72565b602060405180830381865afa158015610bb0573d6000803e3d6000fd5b505050506040513d601f19601f82011682018060405250810190610bd491906136ad565b6040518363ffffffff1660e01b8152600401610bf19291906136da565b6020604051808303816000875af1158015610c10573d6000803e3d6000fd5b505050506040513d601f19601f82011682018060405250810190610c34919061372f565b50610c3d611f3a565b610dcf565b600454610c4d611453565b1315610c8e576040517f08c379a0000000000000000000000000000000000000000000000000000000008152600401610c85906137ce565b60405180910390fd5b7f000000000000000000000000000000000000000000000000000000000000000073ffffffffffffffffffffffffffffffffffffffff1663a9059cbb827f000000000000000000000000000000000000000000000000000000000000000073ffffffffffffffffffffffffffffffffffffffff166370a08231306040518263ffffffff1660e01b8152600401610d249190612c72565b602060405180830381865afa158015610d41573d6000803e3d6000fd5b505050506040513d601f19601f82011682018060405250810190610d6591906136ad565b6040518363ffffffff1660e01b8152600401610d829291906136da565b6020604051808303816000875af1158015610da1573d6000803e3d6000fd5b505050506040513d601f19601f82011682018060405250810190610dc5919061372f565b50610dce611f3a565b5b50565b6060600760000160009054906101000a900473ffffffffffffffffffffffffffffffffffffffff1673ffffffffffffffffffffffffffffffffffffffff163373ffffffffffffffffffffffffffffffffffffffff1614610e67576040517f08c379a0000000000000000000000000000000000000000000000000000000008152600401610e5e90612f8f565b60405180910390fd5b610e7089611dec565b1580610e825750610e808a611d94565b155b15610ed35782828080601f016020809104026020016040519081016040528093929190818152602001838380828437600081840152601f19601f82011690508083019250505050505050905061111f565b82828080601f016020809104026020016040519081016040528093929190818152602001838380828437600081840152601f19601f82011690508083019250505050505050905060007f000000000000000000000000000000000000000000000000000000000000000073ffffffffffffffffffffffffffffffffffffffff16633f6c923a85856040518363ffffffff1660e01b8152600401610f77929190612feb565b600060405180830381865afa158015610f94573d6000803e3d6000fd5b505050506040513d6000823e3d601f19601f82011682018060405250810190610fbd919061339e565b606001519050600160009054906101000a900473ffffffffffffffffffffffffffffffffffffffff1673ffffffffffffffffffffffffffffffffffffffff168173ffffffffffffffffffffffffffffffffffffffff16141580611079575060008054906101000a900473ffffffffffffffffffffffffffffffffffffffff1673ffffffffffffffffffffffffffffffffffffffff168173ffffffffffffffffffffffffffffffffffffffff1614158015611078575060035442115b5b156110b9576040517f08c379a00000000000000000000000000000000000000000000000000000000081526004016110b090613860565b60405180910390fd5b611113823060008054906101000a900473ffffffffffffffffffffffffffffffffffffffff167f00000000000000000000000000000000000000000000000000000000000000006007611e8690949392919063ffffffff16565b915061111d611eee565b505b9998505050505050505050565b60606040517f08c379a0000000000000000000000000000000000000000000000000000000008152600401611160906138f2565b60405180910390fd5b600660009054906101000a900460ff1681565b600160009054906101000a900473ffffffffffffffffffffffffffffffffffffffff1681565b600560009054906101000a900473ffffffffffffffffffffffffffffffffffffffff1681565b7f000000000000000000000000000000000000000000000000000000000000000081565b60008054906101000a900473ffffffffffffffffffffffffffffffffffffffff1673ffffffffffffffffffffffffffffffffffffffff163373ffffffffffffffffffffffffffffffffffffffff161461127a576040517f08c379a00000000000000000000000000000000000000000000000000000000081526004016112719061395e565b60405180910390fd5b600354421161128857600080fd5b611290611f3a565b611298611eee565b7f000000000000000000000000000000000000000000000000000000000000000073ffffffffffffffffffffffffffffffffffffffff1663a9059cbb60008054906101000a900473ffffffffffffffffffffffffffffffffffffffff167f000000000000000000000000000000000000000000000000000000000000000073ffffffffffffffffffffffffffffffffffffffff166370a08231306040518263ffffffff1660e01b815260040161134e9190612c72565b602060405180830381865afa15801561136b573d6000803e3d6000fd5b505050506040513d601f19601f8201168201806040525081019061138f91906136ad565b6040518363ffffffff1660e01b81526004016113ac9291906136da565b6020604051808303816000875af11580156113cb573d6000803e3d6000fd5b505050506040513d601f19601f820116820180604052508101906113ef919061372f565b50565b60606040517f08c379a0000000000000000000000000000000000000000000000000000000008152600401611426906139f0565b60405180910390fd5b60008054906101000a900473ffffffffffffffffffffffffffffffffffffffff1681565b600080600560009054906101000a900473ffffffffffffffffffffffffffffffffffffffff1673ffffffffffffffffffffffffffffffffffffffff1663feaf968c6040518163ffffffff1660e01b815260040160a060405180830381865afa1580156114c3573d6000803e3d6000fd5b505050506040513d601f19601f820116820180604052508101906114e79190613a52565b5050509150508091505090565b600560149054906101000a9004600b0b81565b60045481565b60035481565b60078060000160009054906101000a900473ffffffffffffffffffffffffffffffffffffffff16908060010160009054906101000a900473ffffffffffffffffffffffffffffffffffffffff16905082565b6060898961157282611d94565b6115b1576040517f08c379a00000000000000000000000000000000000000000000000000000000081526004016115a890612e91565b60405180910390fd5b6115ba81611dec565b6115f9576040517f08c379a00000000000000000000000000000000000000000000000000000000081526004016115f090612f23565b60405180910390fd5b600760000160009054906101000a900473ffffffffffffffffffffffffffffffffffffffff1673ffffffffffffffffffffffffffffffffffffffff163373ffffffffffffffffffffffffffffffffffffffff161461168c576040517f08c379a000000000000000000000000000000000000000000000000000000000815260040161168390612f8f565b60405180910390fd5b84848080601f016020809104026020016040519081016040528093929190818152602001838380828437600081840152601f19601f8201169050808301925050505050505092506000600760010160009054906101000a900473ffffffffffffffffffffffffffffffffffffffff1673ffffffffffffffffffffffffffffffffffffffff1663e6a1e8887f00000000000000000000000000000000000000000000000000000000000000007f000000000000000000000000000000000000000000000000000000000000000073ffffffffffffffffffffffffffffffffffffffff16633f6c923a8a8a6040518363ffffffff1660e01b8152600401611792929190612feb565b600060405180830381865afa1580156117af573d6000803e3d6000fd5b505050506040513d6000823e3d601f19601f820116820180604052508101906117d8919061339e565b60600151306040518463ffffffff1660e01b81526004016117fb939291906133e7565b608060405180830381865afa158015611818573d6000803e3d6000fd5b505050506040513d601f19601f8201168201806040525081019061183c919061344a565b5050915050600073ffffffffffffffffffffffffffffffffffffffff16600160009054906101000a900473ffffffffffffffffffffffffffffffffffffffff1673ffffffffffffffffffffffffffffffffffffffff16141580156118a257506003544211155b156118e2576040517f08c379a00000000000000000000000000000000000000000000000000000000081526004016118d990613b3f565b60405180910390fd5b600073ffffffffffffffffffffffffffffffffffffffff16600160009054906101000a900473ffffffffffffffffffffffffffffffffffffffff1673ffffffffffffffffffffffffffffffffffffffff1603611ae657600560149054906101000a9004600b0b600b0b81600b0b1215611990576040517f08c379a000000000000000000000000000000000000000000000000000000000815260040161198790613bab565b60405180910390fd5b7f000000000000000000000000000000000000000000000000000000000000000073ffffffffffffffffffffffffffffffffffffffff16633f6c923a87876040518363ffffffff1660e01b81526004016119eb929190612feb565b600060405180830381865afa158015611a08573d6000803e3d6000fd5b505050506040513d6000823e3d601f19601f82011682018060405250810190611a31919061339e565b60600151600160006101000a81548173ffffffffffffffffffffffffffffffffffffffff021916908373ffffffffffffffffffffffffffffffffffffffff16021790555060025442611a839190613bfa565b600381905550611ae38460008054906101000a900473ffffffffffffffffffffffffffffffffffffffff167f0000000000000000000000000000000000000000000000000000000000000000846007611fee90949392919063ffffffff16565b93505b600073ffffffffffffffffffffffffffffffffffffffff16600160009054906101000a900473ffffffffffffffffffffffffffffffffffffffff1673ffffffffffffffffffffffffffffffffffffffff1614158015611b46575060035442115b15611d60576000600760010160009054906101000a900473ffffffffffffffffffffffffffffffffffffffff1673ffffffffffffffffffffffffffffffffffffffff1663e6a1e8887f0000000000000000000000000000000000000000000000000000000000000000600160009054906101000a900473ffffffffffffffffffffffffffffffffffffffff16306040518463ffffffff1660e01b8152600401611bf1939291906133e7565b608060405180830381865afa158015611c0e573d6000803e3d6000fd5b505050506040513d601f19601f82011682018060405250810190611c32919061344a565b50509150506004600582611c469190613c2e565b611c509190613d4c565b600b0b82600b0b1215611c98576040517f08c379a0000000000000000000000000000000000000000000000000000000008152600401611c8f90613bab565b60405180910390fd5b611cf485600160009054906101000a900473ffffffffffffffffffffffffffffffffffffffff16307f00000000000000000000000000000000000000000000000000000000000000006007611e8690949392919063ffffffff16565b9450611d5c8560008054906101000a900473ffffffffffffffffffffffffffffffffffffffff167f0000000000000000000000000000000000000000000000000000000000000000600a86611d499190613db6565b600761205690949392919063ffffffff16565b9450505b5050509998505050505050505050565b7f000000000000000000000000000000000000000000000000000000000000000081565b60007f000000000000000000000000000000000000000000000000000000000000000073ffffffffffffffffffffffffffffffffffffffff168273ffffffffffffffffffffffffffffffffffffffff16149050919050565b60007fa9214cc96615e0085d3bb077758db69497dc2dce3b2b1e97bc93c3d18d83efd38273ffffffffffffffffffffffffffffffffffffffff16637730599e6040518163ffffffff1660e01b8152600401602060405180830381865afa158015611e5a573d6000803e3d6000fd5b505050506040513d601f19601f82011682018060405250810190611e7e9190613e2f565b149050919050565b6060611ee38686868686600067ffffffffffffffff811115611eab57611eaa613014565b5b6040519080825280601f01601f191660200182016040528015611edd5781602001600182028036833780820191505090505b506120be565b905095945050505050565b6000600160006101000a81548173ffffffffffffffffffffffffffffffffffffffff021916908373ffffffffffffffffffffffffffffffffffffffff1602179055506000600381905550565b611f94600160009054906101000a900473ffffffffffffffffffffffffffffffffffffffff16307f00000000000000000000000000000000000000000000000000000000000000006007612283909392919063ffffffff16565b611fec3060008054906101000a900473ffffffffffffffffffffffffffffffffffffffff167f00000000000000000000000000000000000000000000000000000000000000006007612283909392919063ffffffff16565b565b606061204b8686868686600067ffffffffffffffff81111561201357612012613014565b5b6040519080825280601f01601f1916602001820160405280156120455781602001600182028036833780820191505090505b506122e3565b905095945050505050565b60606120b38686868686600067ffffffffffffffff81111561207b5761207a613014565b5b6040519080825280601f01601f1916602001820160405280156120ad5781602001600182028036833780820191505090505b506124a8565b905095945050505050565b60608660000160009054906101000a900473ffffffffffffffffffffffffffffffffffffffff1673ffffffffffffffffffffffffffffffffffffffff16634329d2938860010160009054906101000a900473ffffffffffffffffffffffffffffffffffffffff168960010160009054906101000a900473ffffffffffffffffffffffffffffffffffffffff1673ffffffffffffffffffffffffffffffffffffffff1663b4b333c6878a8a600067ffffffffffffffff81111561218357612182613014565b5b6040519080825280601f01601f1916602001820160405280156121b55781602001600182028036833780820191505090505b506040516024016121c99493929190613e7d565b604051602081830303815290604052915060e01b6020820180517bffffffffffffffffffffffffffffffffffffffffffffffffffffffff8381831617835250505050858a6040518563ffffffff1660e01b815260040161222c9493929190613ec9565b6000604051808303816000875af115801561224b573d6000803e3d6000fd5b505050506040513d6000823e3d601f19601f820116820180604052508101906122749190613f23565b50809150509695505050505050565b6122dd84848484600067ffffffffffffffff8111156122a5576122a4613014565b5b6040519080825280601f01601f1916602001820160405280156122d75781602001600182028036833780820191505090505b5061266d565b50505050565b60608660000160009054906101000a900473ffffffffffffffffffffffffffffffffffffffff1673ffffffffffffffffffffffffffffffffffffffff16634329d2938860010160009054906101000a900473ffffffffffffffffffffffffffffffffffffffff168960010160009054906101000a900473ffffffffffffffffffffffffffffffffffffffff1673ffffffffffffffffffffffffffffffffffffffff166362fc305e888a89600067ffffffffffffffff8111156123a8576123a7613014565b5b6040519080825280601f01601f1916602001820160405280156123da5781602001600182028036833780820191505090505b506040516024016123ee9493929190613f9b565b604051602081830303815290604052915060e01b6020820180517bffffffffffffffffffffffffffffffffffffffffffffffffffffffff8381831617835250505050858a6040518563ffffffff1660e01b81526004016124519493929190613ec9565b6000604051808303816000875af1158015612470573d6000803e3d6000fd5b505050506040513d6000823e3d601f19601f820116820180604052508101906124999190613f23565b50809150509695505050505050565b60608660000160009054906101000a900473ffffffffffffffffffffffffffffffffffffffff1673ffffffffffffffffffffffffffffffffffffffff16634329d2938860010160009054906101000a900473ffffffffffffffffffffffffffffffffffffffff168960010160009054906101000a900473ffffffffffffffffffffffffffffffffffffffff1673ffffffffffffffffffffffffffffffffffffffff166350209a62888a89600067ffffffffffffffff81111561256d5761256c613014565b5b6040519080825280601f01601f19166020018201604052801561259f5781602001600182028036833780820191505090505b506040516024016125b39493929190613f9b565b604051602081830303815290604052915060e01b6020820180517bffffffffffffffffffffffffffffffffffffffffffffffffffffffff8381831617835250505050858a6040518563ffffffff1660e01b81526004016126169493929190613ec9565b6000604051808303816000875af1158015612635573d6000803e3d6000fd5b505050506040513d6000823e3d601f19601f8201168201806040525081019061265e9190613f23565b50809150509695505050505050565b8460000160009054906101000a900473ffffffffffffffffffffffffffffffffffffffff1673ffffffffffffffffffffffffffffffffffffffff166339255d5b8660010160009054906101000a900473ffffffffffffffffffffffffffffffffffffffff168760010160009054906101000a900473ffffffffffffffffffffffffffffffffffffffff1673ffffffffffffffffffffffffffffffffffffffff1663b4b333c6868989600067ffffffffffffffff8111156127305761272f613014565b5b6040519080825280601f01601f1916602001820160405280156127625781602001600182028036833780820191505090505b506040516024016127769493929190613e7d565b604051602081830303815290604052915060e01b6020820180517bffffffffffffffffffffffffffffffffffffffffffffffffffffffff8381831617835250505050846040518463ffffffff1660e01b81526004016127d793929190613fe7565b6000604051808303816000875af11580156127f6573d6000803e3d6000fd5b505050506040513d6000823e3d601f19601f8201168201806040525081019061281f919061402c565b505050505050565b6000819050919050565b61283a81612827565b82525050565b60006020820190506128556000830184612831565b92915050565b6000819050919050565b61286e8161285b565b82525050565b60006020820190506128896000830184612865565b92915050565b6000604051905090565b600080fd5b600080fd5b600073ffffffffffffffffffffffffffffffffffffffff82169050919050565b60006128ce826128a3565b9050919050565b60006128e0826128c3565b9050919050565b6128f0816128d5565b81146128fb57600080fd5b50565b60008135905061290d816128e7565b92915050565b61291c816128c3565b811461292757600080fd5b50565b60008135905061293981612913565b92915050565b6129488161285b565b811461295357600080fd5b50565b6000813590506129658161293f565b92915050565b600080fd5b600080fd5b600080fd5b60008083601f8401126129905761298f61296b565b5b8235905067ffffffffffffffff8111156129ad576129ac612970565b5b6020830191508360018202830111156129c9576129c8612975565b5b9250929050565b600080600080600080600080600060c08a8c0312156129f2576129f1612899565b5b6000612a008c828d016128fe565b9950506020612a118c828d0161292a565b9850506040612a228c828d01612956565b97505060608a013567ffffffffffffffff811115612a4357612a4261289e565b5b612a4f8c828d0161297a565b965096505060808a013567ffffffffffffffff811115612a7257612a7161289e565b5b612a7e8c828d0161297a565b945094505060a08a013567ffffffffffffffff811115612aa157612aa061289e565b5b612aad8c828d0161297a565b92509250509295985092959850929598565b600081519050919050565b600082825260208201905092915050565b60005b83811015612af9578082015181840152602081019050612ade565b60008484015250505050565b6000601f19601f8301169050919050565b6000612b2182612abf565b612b2b8185612aca565b9350612b3b818560208601612adb565b612b4481612b05565b840191505092915050565b60006020820190508181036000830152612b698184612b16565b905092915050565b600080600080600080600060a0888a031215612b9057612b8f612899565b5b6000612b9e8a828b016128fe565b9750506020612baf8a828b0161292a565b9650506040612bc08a828b01612956565b955050606088013567ffffffffffffffff811115612be157612be061289e565b5b612bed8a828b0161297a565b9450945050608088013567ffffffffffffffff811115612c1057612c0f61289e565b5b612c1c8a828b0161297a565b925092505092959891949750929550565b60008115159050919050565b612c4281612c2d565b82525050565b6000602082019050612c5d6000830184612c39565b92915050565b612c6c816128c3565b82525050565b6000602082019050612c876000830184612c63565b92915050565b6000819050919050565b6000612cb2612cad612ca8846128a3565b612c8d565b6128a3565b9050919050565b6000612cc482612c97565b9050919050565b6000612cd682612cb9565b9050919050565b612ce681612ccb565b82525050565b6000602082019050612d016000830184612cdd565b92915050565b6000612d1282612cb9565b9050919050565b612d2281612d07565b82525050565b6000602082019050612d3d6000830184612d19565b92915050565b6000819050919050565b612d5681612d43565b82525050565b6000602082019050612d716000830184612d4d565b92915050565b600081600b0b9050919050565b612d8d81612d77565b82525050565b6000602082019050612da86000830184612d84565b92915050565b6000612db982612cb9565b9050919050565b612dc981612dae565b82525050565b6000612dda82612cb9565b9050919050565b612dea81612dcf565b82525050565b6000604082019050612e056000830185612dc0565b612e126020830184612de1565b9392505050565b6000602082019050612e2e6000830184612dc0565b92915050565b600082825260208201905092915050565b7f5265646972656374416c6c3a206e6f7420616363657074656420746f6b656e00600082015250565b6000612e7b601f83612e34565b9150612e8682612e45565b602082019050919050565b60006020820190508181036000830152612eaa81612e6e565b9050919050565b7f5265646972656374416c6c3a206f6e6c7920434641763120737570706f72746560008201527f6400000000000000000000000000000000000000000000000000000000000000602082015250565b6000612f0d602183612e34565b9150612f1882612eb1565b604082019050919050565b60006020820190508181036000830152612f3c81612f00565b9050919050565b7f4f6e6c7920686f73742063616e2063616c6c2063616c6c6261636b0000000000600082015250565b6000612f79601b83612e34565b9150612f8482612f43565b602082019050919050565b60006020820190508181036000830152612fa881612f6c565b9050919050565b82818337600083830152505050565b6000612fca8385612aca565b9350612fd7838584612faf565b612fe083612b05565b840190509392505050565b60006020820190508181036000830152613006818486612fbe565b90509392505050565b600080fd5b7f4e487b7100000000000000000000000000000000000000000000000000000000600052604160045260246000fd5b61304c82612b05565b810181811067ffffffffffffffff8211171561306b5761306a613014565b5b80604052505050565b600061307e61288f565b905061308a8282613043565b919050565b600080fd5b600060ff82169050919050565b6130aa81613094565b81146130b557600080fd5b50565b6000815190506130c7816130a1565b92915050565b6130d681612827565b81146130e157600080fd5b50565b6000815190506130f3816130cd565b92915050565b60008151905061310881612913565b92915050565b60007fffffffff0000000000000000000000000000000000000000000000000000000082169050919050565b6131438161310e565b811461314e57600080fd5b50565b6000815190506131608161313a565b92915050565b600080fd5b600067ffffffffffffffff82111561318657613185613014565b5b61318f82612b05565b9050602081019050919050565b60006131af6131aa8461316b565b613074565b9050828152602081018484840111156131cb576131ca613166565b5b6131d6848285612adb565b509392505050565b600082601f8301126131f3576131f261296b565b5b815161320384826020860161319c565b91505092915050565b61321581612d43565b811461322057600080fd5b50565b6000815190506132328161320c565b92915050565b6000613243826128c3565b9050919050565b61325381613238565b811461325e57600080fd5b50565b6000815190506132708161324a565b92915050565b6000610160828403121561328d5761328c61300f565b5b613298610160613074565b905060006132a8848285016130b8565b60008301525060206132bc848285016130b8565b60208301525060406132d0848285016130e4565b60408301525060606132e4848285016130f9565b60608301525060806132f884828501613151565b60808301525060a082015167ffffffffffffffff81111561331c5761331b61308f565b5b613328848285016131de565b60a08301525060c061333c848285016130e4565b60c08301525060e0613350848285016130e4565b60e08301525061010061336584828501613223565b6101008301525061012061337b848285016130f9565b6101208301525061014061339184828501613261565b6101408301525092915050565b6000602082840312156133b4576133b3612899565b5b600082015167ffffffffffffffff8111156133d2576133d161289e565b5b6133de84828501613276565b91505092915050565b60006060820190506133fc6000830186612d19565b6134096020830185612c63565b6134166040830184612c63565b949350505050565b61342781612d77565b811461343257600080fd5b50565b6000815190506134448161341e565b92915050565b6000806000806080858703121561346457613463612899565b5b6000613472878288016130e4565b945050602061348387828801613435565b9350506040613494878288016130e4565b92505060606134a5878288016130e4565b91505092959194509250565b7f556e737570706f72746564206f7065726174696f6e0000000000000000000000600082015250565b60006134e7601583612e34565b91506134f2826134b1565b602082019050919050565b60006020820190508181036000830152613516816134da565b9050919050565b7f556e737570706f727465642063616c6c6261636b202d204265666f726520416760008201527f7265656d656e7420437265617465640000000000000000000000000000000000602082015250565b6000613579602f83612e34565b91506135848261351d565b604082019050919050565b600060208201905081810360008301526135a88161356c565b9050919050565b7f4f6e6c792062757965722063616e206578656375746500000000000000000000600082015250565b60006135e5601683612e34565b91506135f0826135af565b602082019050919050565b60006020820190508181036000830152613614816135d8565b9050919050565b7f43757272656e74207072696365206c6f776572207468616e20737472696b652060008201527f7072696365000000000000000000000000000000000000000000000000000000602082015250565b6000613677602583612e34565b91506136828261361b565b604082019050919050565b600060208201905081810360008301526136a68161366a565b9050919050565b6000602082840312156136c3576136c2612899565b5b60006136d1848285016130e4565b91505092915050565b60006040820190506136ef6000830185612c63565b6136fc6020830184612831565b9392505050565b61370c81612c2d565b811461371757600080fd5b50565b60008151905061372981613703565b92915050565b60006020828403121561374557613744612899565b5b60006137538482850161371a565b91505092915050565b7f43757272656e7420707269636520686967686572207468616e20737472696b6560008201527f2070726963650000000000000000000000000000000000000000000000000000602082015250565b60006137b8602683612e34565b91506137c38261375c565b604082019050919050565b600060208201905081810360008301526137e7816137ab565b9050919050565b7f4f6e6c792062757965722063616e20636c6f7365207468652073747265616d2060008201527f6265666f72652074686520657870697279000000000000000000000000000000602082015250565b600061384a603183612e34565b9150613855826137ee565b604082019050919050565b600060208201905081810360008301526138798161383d565b9050919050565b7f556e737570706f727465642063616c6c6261636b202d20204265666f7265204160008201527f677265656d656e74205465726d696e6174656400000000000000000000000000602082015250565b60006138dc603383612e34565b91506138e782613880565b604082019050919050565b6000602082019050818103600083015261390b816138cf565b9050919050565b7f4f6e6c79206f776e65722063616e206578656375746500000000000000000000600082015250565b6000613948601683612e34565b915061395382613912565b602082019050919050565b600060208201905081810360008301526139778161393b565b9050919050565b7f556e737570706f727465642063616c6c6261636b202d204265666f726520416760008201527f7265656d656e7420757064617465640000000000000000000000000000000000602082015250565b60006139da602f83612e34565b91506139e58261397e565b604082019050919050565b60006020820190508181036000830152613a09816139cd565b9050919050565b600069ffffffffffffffffffff82169050919050565b613a2f81613a10565b8114613a3a57600080fd5b50565b600081519050613a4c81613a26565b92915050565b600080600080600060a08688031215613a6e57613a6d612899565b5b6000613a7c88828901613a3d565b9550506020613a8d88828901613223565b9450506040613a9e888289016130e4565b9350506060613aaf888289016130e4565b9250506080613ac088828901613a3d565b9150509295509295909350565b7f42657420616c726561647920736f6c642c20667265657a6520706572696f642060008201527f6e6f74206f766572000000000000000000000000000000000000000000000000602082015250565b6000613b29602883612e34565b9150613b3482613acd565b604082019050919050565b60006020820190508181036000830152613b5881613b1c565b9050919050565b7f5061796d656e7420746f6f20736d616c6c000000000000000000000000000000600082015250565b6000613b95601183612e34565b9150613ba082613b5f565b602082019050919050565b60006020820190508181036000830152613bc481613b88565b9050919050565b7f4e487b7100000000000000000000000000000000000000000000000000000000600052601160045260246000fd5b6000613c0582612827565b9150613c1083612827565b9250828201905080821115613c2857613c27613bcb565b5b92915050565b6000613c3982612d77565b9150613c4483612d77565b9250826b7fffffffffffffffffffffff0482116000841360008413161615613c6f57613c6e613bcb565b5b817fffffffffffffffffffffffffffffffffffffffff8000000000000000000000000583126000841260008413161615613cac57613cab613bcb565b5b827fffffffffffffffffffffffffffffffffffffffff8000000000000000000000000582126000841360008412161615613ce957613ce8613bcb565b5b826b7fffffffffffffffffffffff0582126000841260008412161615613d1257613d11613bcb565b5b828202905092915050565b7f4e487b7100000000000000000000000000000000000000000000000000000000600052601260045260246000fd5b6000613d5782612d77565b9150613d6283612d77565b925082613d7257613d71613d1d565b5b600160000383147fffffffffffffffffffffffffffffffffffffffff80000000000000000000000083141615613dab57613daa613bcb565b5b828205905092915050565b6000613dc182612d77565b9150613dcc83612d77565b925082820390506b7fffffffffffffffffffffff81137fffffffffffffffffffffffffffffffffffffffff80000000000000000000000082121715613e1457613e13613bcb565b5b92915050565b600081519050613e298161293f565b92915050565b600060208284031215613e4557613e44612899565b5b6000613e5384828501613e1a565b91505092915050565b6000613e6782612cb9565b9050919050565b613e7781613e5c565b82525050565b6000608082019050613e926000830187613e6e565b613e9f6020830186612c63565b613eac6040830185612c63565b8181036060830152613ebe8184612b16565b905095945050505050565b6000608082019050613ede6000830187612de1565b8181036020830152613ef08186612b16565b90508181036040830152613f048185612b16565b90508181036060830152613f188184612b16565b905095945050505050565b60008060408385031215613f3a57613f39612899565b5b600083015167ffffffffffffffff811115613f5857613f5761289e565b5b613f64858286016131de565b925050602083015167ffffffffffffffff811115613f8557613f8461289e565b5b613f91858286016131de565b9150509250929050565b6000608082019050613fb06000830187613e6e565b613fbd6020830186612c63565b613fca6040830185612d84565b8181036060830152613fdc8184612b16565b905095945050505050565b6000606082019050613ffc6000830186612de1565b818103602083015261400e8185612b16565b905081810360408301526140228184612b16565b9050949350505050565b60006020828403121561404257614041612899565b5b600082015167ffffffffffffffff8111156140605761405f61289e565b5b61406c848285016131de565b9150509291505056fea264697066735822122091a6678d2d6d9a943bee7b7bcf07822249558befda26c6c0340a0be5ee15666764736f6c63430008100033",
  "linkReferences": {},
  "deployedLinkReferences": {}
}