{
  "_format": "hh-sol-artifact-1",
  "contractName": "BetOffer",
  "sourceName": "contracts/BetOffer.sol",
  "abi": [
    {
      "inputs": [
        {
          "internalType": "address",
          "name": "_owner",
          "type": "address"
        },
        {
          "internalType": "int96",
          "name": "_minPaymentFlowRate",
          "type": "int96"
        },
        {
          "internalType": "bool",
          "name": "_isCall",
          "type": "bool"
        },
        {
          "internalType": "uint256",
          "name": "_freezePeriod",
          "type": "uint256"
        },
        {
          "internalType": "int256",
          "name": "_strikePrice",
          "type": "int256"
        },
        {
          "internalType": "contract ISuperfluid",
          "name": "_host",
          "type": "address"
        },
        {
          "internalType": "address",
          "name": "_chainLinkOracle",
          "type": "address"
        }
      ],
      "stateMutability": "nonpayable",
      "type": "constructor"
    },
    {
      "inputs": [],
      "name": "CFA_ID",
      "outputs": [
        {
          "internalType": "bytes32",
          "name": "",
          "type": "bytes32"
        }
      ],
      "stateMutability": "view",
      "type": "function"
    },
    {
      "inputs": [
        {
          "internalType": "contract ISuperToken",
          "name": "_superToken",
          "type": "address"
        },
        {
          "internalType": "address",
          "name": "_agreementClass",
          "type": "address"
        },
        {
          "internalType": "bytes32",
          "name": "",
          "type": "bytes32"
        },
        {
          "internalType": "bytes",
          "name": "",
          "type": "bytes"
        },
        {
          "internalType": "bytes",
          "name": "",
          "type": "bytes"
        },
        {
          "internalType": "bytes",
          "name": "ctx",
          "type": "bytes"
        }
      ],
      "name": "afterAgreementCreated",
      "outputs": [
        {
          "internalType": "bytes",
          "name": "newCtx",
          "type": "bytes"
        }
      ],
      "stateMutability": "nonpayable",
      "type": "function"
    },
    {
      "inputs": [
        {
          "internalType": "contract ISuperToken",
          "name": "_superToken",
          "type": "address"
        },
        {
          "internalType": "address",
          "name": "_agreementClass",
          "type": "address"
        },
        {
          "internalType": "bytes32",
          "name": "",
          "type": "bytes32"
        },
        {
          "internalType": "bytes",
          "name": "",
          "type": "bytes"
        },
        {
          "internalType": "bytes",
          "name": "",
          "type": "bytes"
        },
        {
          "internalType": "bytes",
          "name": "ctx",
          "type": "bytes"
        }
      ],
      "name": "afterAgreementTerminated",
      "outputs": [
        {
          "internalType": "bytes",
          "name": "newCtx",
          "type": "bytes"
        }
      ],
      "stateMutability": "nonpayable",
      "type": "function"
    },
    {
      "inputs": [
        {
          "internalType": "contract ISuperToken",
          "name": "_superToken",
          "type": "address"
        },
        {
          "internalType": "address",
          "name": "_agreementClass",
          "type": "address"
        },
        {
          "internalType": "bytes32",
          "name": "",
          "type": "bytes32"
        },
        {
          "internalType": "bytes",
          "name": "",
          "type": "bytes"
        },
        {
          "internalType": "bytes",
          "name": "",
          "type": "bytes"
        },
        {
          "internalType": "bytes",
          "name": "ctx",
          "type": "bytes"
        }
      ],
      "name": "afterAgreementUpdated",
      "outputs": [
        {
          "internalType": "bytes",
          "name": "newCtx",
          "type": "bytes"
        }
      ],
      "stateMutability": "nonpayable",
      "type": "function"
    },
    {
      "inputs": [
        {
          "internalType": "contract ISuperToken",
          "name": "",
          "type": "address"
        },
        {
          "internalType": "address",
          "name": "",
          "type": "address"
        },
        {
          "internalType": "bytes32",
          "name": "",
          "type": "bytes32"
        },
        {
          "internalType": "bytes",
          "name": "",
          "type": "bytes"
        },
        {
          "internalType": "bytes",
          "name": "",
          "type": "bytes"
        }
      ],
      "name": "beforeAgreementCreated",
      "outputs": [
        {
          "internalType": "bytes",
          "name": "",
          "type": "bytes"
        }
      ],
      "stateMutability": "view",
      "type": "function"
    },
    {
      "inputs": [
        {
          "internalType": "contract ISuperToken",
          "name": "",
          "type": "address"
        },
        {
          "internalType": "address",
          "name": "",
          "type": "address"
        },
        {
          "internalType": "bytes32",
          "name": "",
          "type": "bytes32"
        },
        {
          "internalType": "bytes",
          "name": "",
          "type": "bytes"
        },
        {
          "internalType": "bytes",
          "name": "",
          "type": "bytes"
        }
      ],
      "name": "beforeAgreementTerminated",
      "outputs": [
        {
          "internalType": "bytes",
          "name": "",
          "type": "bytes"
        }
      ],
      "stateMutability": "view",
      "type": "function"
    },
    {
      "inputs": [
        {
          "internalType": "contract ISuperToken",
          "name": "",
          "type": "address"
        },
        {
          "internalType": "address",
          "name": "",
          "type": "address"
        },
        {
          "internalType": "bytes32",
          "name": "",
          "type": "bytes32"
        },
        {
          "internalType": "bytes",
          "name": "",
          "type": "bytes"
        },
        {
          "internalType": "bytes",
          "name": "",
          "type": "bytes"
        }
      ],
      "name": "beforeAgreementUpdated",
      "outputs": [
        {
          "internalType": "bytes",
          "name": "",
          "type": "bytes"
        }
      ],
      "stateMutability": "view",
      "type": "function"
    },
    {
      "inputs": [],
      "name": "betToken",
      "outputs": [
        {
          "internalType": "contract ISuperToken",
          "name": "",
          "type": "address"
        }
      ],
      "stateMutability": "view",
      "type": "function"
    },
    {
      "inputs": [],
      "name": "buyer",
      "outputs": [
        {
          "internalType": "address",
          "name": "",
          "type": "address"
        }
      ],
      "stateMutability": "view",
      "type": "function"
    },
    {
      "inputs": [],
      "name": "cancelBet",
      "outputs": [],
      "stateMutability": "nonpayable",
      "type": "function"
    },
    {
      "inputs": [],
      "name": "cfaV1",
      "outputs": [
        {
          "internalType": "contract ISuperfluid",
          "name": "host",
          "type": "address"
        },
        {
          "internalType": "contract IConstantFlowAgreementV1",
          "name": "cfa",
          "type": "address"
        }
      ],
      "stateMutability": "view",
      "type": "function"
    },
    {
      "inputs": [],
      "name": "executeBet",
      "outputs": [],
      "stateMutability": "nonpayable",
      "type": "function"
    },
    {
      "inputs": [],
      "name": "freezePeriod",
      "outputs": [
        {
          "internalType": "uint256",
          "name": "",
          "type": "uint256"
        }
      ],
      "stateMutability": "view",
      "type": "function"
    },
    {
      "inputs": [],
      "name": "freezePeriodEnd",
      "outputs": [
        {
          "internalType": "uint256",
          "name": "",
          "type": "uint256"
        }
      ],
      "stateMutability": "view",
      "type": "function"
    },
    {
      "inputs": [],
      "name": "getLatestPrice",
      "outputs": [
        {
          "internalType": "int256",
          "name": "",
          "type": "int256"
        }
      ],
      "stateMutability": "view",
      "type": "function"
    },
    {
      "inputs": [],
      "name": "host",
      "outputs": [
        {
          "internalType": "contract ISuperfluid",
          "name": "",
          "type": "address"
        }
      ],
      "stateMutability": "view",
      "type": "function"
    },
    {
      "inputs": [],
      "name": "isCall",
      "outputs": [
        {
          "internalType": "bool",
          "name": "",
          "type": "bool"
        }
      ],
      "stateMutability": "view",
      "type": "function"
    },
    {
      "inputs": [],
      "name": "minPaymentFlowRate",
      "outputs": [
        {
          "internalType": "int96",
          "name": "",
          "type": "int96"
        }
      ],
      "stateMutability": "view",
      "type": "function"
    },
    {
      "inputs": [],
      "name": "owner",
      "outputs": [
        {
          "internalType": "address",
          "name": "",
          "type": "address"
        }
      ],
      "stateMutability": "view",
      "type": "function"
    },
    {
      "inputs": [],
      "name": "strikePrice",
      "outputs": [
        {
          "internalType": "int256",
          "name": "",
          "type": "int256"
        }
      ],
      "stateMutability": "view",
      "type": "function"
    }
  ],
  "bytecode": "0x60c060405273f2d68898557ccb2cf4c10c3ef2b034b2a69dad0073ffffffffffffffffffffffffffffffffffffffff1660a09073ffffffffffffffffffffffffffffffffffffffff168152503480156200005857600080fd5b50604051620038793803806200387983398181016040528101906200007e91906200053f565b866000806101000a81548173ffffffffffffffffffffffffffffffffffffffff021916908373ffffffffffffffffffffffffffffffffffffffff16021790555085600560146101000a8154816bffffffffffffffffffffffff0219169083600b0b6bffffffffffffffffffffffff16021790555084600660006101000a81548160ff02191690831515021790555083600281905550826004819055508173ffffffffffffffffffffffffffffffffffffffff1660808173ffffffffffffffffffffffffffffffffffffffff168152505080600560006101000a81548173ffffffffffffffffffffffffffffffffffffffff021916908373ffffffffffffffffffffffffffffffffffffffff16021790555060008273ffffffffffffffffffffffffffffffffffffffff1663b6d200de7fa9214cc96615e0085d3bb077758db69497dc2dce3b2b1e97bc93c3d18d83efd36040518263ffffffff1660e01b8152600401620001ec91906200060d565b602060405180830381865afa1580156200020a573d6000803e3d6000fd5b505050506040513d601f19601f820116820180604052508101906200023091906200066f565b905060405180604001604052808473ffffffffffffffffffffffffffffffffffffffff1681526020018273ffffffffffffffffffffffffffffffffffffffff16815250600760008201518160000160006101000a81548173ffffffffffffffffffffffffffffffffffffffff021916908373ffffffffffffffffffffffffffffffffffffffff16021790555060208201518160010160006101000a81548173ffffffffffffffffffffffffffffffffffffffff021916908373ffffffffffffffffffffffffffffffffffffffff1602179055509050506000641000000000640400000000640100000000600117171790508373ffffffffffffffffffffffffffffffffffffffff1663ad3915c8826040518263ffffffff1660e01b81526004016200035c9190620006b2565b600060405180830381600087803b1580156200037757600080fd5b505af11580156200038c573d6000803e3d6000fd5b50505050505050505050505050620006cf565b600080fd5b600073ffffffffffffffffffffffffffffffffffffffff82169050919050565b6000620003d182620003a4565b9050919050565b620003e381620003c4565b8114620003ef57600080fd5b50565b6000815190506200040381620003d8565b92915050565b600081600b0b9050919050565b620004218162000409565b81146200042d57600080fd5b50565b600081519050620004418162000416565b92915050565b60008115159050919050565b6200045e8162000447565b81146200046a57600080fd5b50565b6000815190506200047e8162000453565b92915050565b6000819050919050565b620004998162000484565b8114620004a557600080fd5b50565b600081519050620004b9816200048e565b92915050565b6000819050919050565b620004d481620004bf565b8114620004e057600080fd5b50565b600081519050620004f481620004c9565b92915050565b60006200050782620003c4565b9050919050565b6200051981620004fa565b81146200052557600080fd5b50565b60008151905062000539816200050e565b92915050565b600080600080600080600060e0888a0312156200056157620005606200039f565b5b6000620005718a828b01620003f2565b9750506020620005848a828b0162000430565b9650506040620005978a828b016200046d565b9550506060620005aa8a828b01620004a8565b9450506080620005bd8a828b01620004e3565b93505060a0620005d08a828b0162000528565b92505060c0620005e38a828b01620003f2565b91505092959891949750929550565b6000819050919050565b6200060781620005f2565b82525050565b6000602082019050620006246000830184620005fc565b92915050565b60006200063782620003c4565b9050919050565b62000649816200062a565b81146200065557600080fd5b50565b60008151905062000669816200063e565b92915050565b6000602082840312156200068857620006876200039f565b5b6000620006988482850162000658565b91505092915050565b620006ac8162000484565b82525050565b6000602082019050620006c96000830184620006a1565b92915050565b60805160a0516131146200076560003960008181610564015281816107c701528181610804015281816109500152818161098d01528181610d8c01528181610e7301528181610ea601528181610f030152818161136e0152818161155e015281816116b40152611766015260008181610b8d01528181611390015281816114b901528181611597015261174001526131146000f3fe608060405234801561001057600080fd5b506004361061012c5760003560e01c80637b6d79f1116100ad578063c52987cf11610071578063c52987cf14610325578063cca3ae7214610343578063d3112b2e14610361578063d86ed3e514610380578063f437bc59146103b05761012c565b80637b6d79f114610291578063884d1f401461029b5780638da5cb5b146102cb5780638e15f473146102e95780639ffda977146103075761012c565b806353c11f99116100f457806353c11f99146101d75780635f9e7d77146102075780636d636478146102375780637150d8ae1461025557806378691f16146102735761012c565b80630a3cb66314610131578063215eed021461014f578063230dbd291461016d57806330d9c9151461019d57806337a1705d146101cd575b600080fd5b6101396103ce565b6040516101469190611ca1565b60405180910390f35b6101576103d4565b6040516101649190611cd5565b60405180910390f35b61018760048036038101906101829190611e31565b6103f8565b6040516101949190611fb0565b60405180910390f35b6101b760048036038101906101b29190611fd2565b610670565b6040516101c49190611fb0565b60405180910390f35b6101d56106ad565b005b6101f160048036038101906101ec9190611e31565b610a8a565b6040516101fe9190611fb0565b60405180910390f35b610221600480360381019061021c9190611fd2565b610d14565b60405161022e9190611fb0565b60405180910390f35b61023f610d51565b60405161024c91906120a9565b60405180910390f35b61025d610d64565b60405161026a91906120d3565b60405180910390f35b61027b610d8a565b604051610288919061214d565b60405180910390f35b610299610dae565b005b6102b560048036038101906102b09190611fd2565b610ffe565b6040516102c29190611fb0565b60405180910390f35b6102d361103b565b6040516102e091906120d3565b60405180910390f35b6102f161105f565b6040516102fe9190612181565b60405180910390f35b61030f611100565b60405161031c91906121b8565b60405180910390f35b61032d611113565b60405161033a9190612181565b60405180910390f35b61034b611119565b6040516103589190611ca1565b60405180910390f35b61036961111f565b604051610377929190612215565b60405180910390f35b61039a60048036038101906103959190611e31565b611171565b6040516103a79190611fb0565b60405180910390f35b6103b861173e565b6040516103c5919061223e565b60405180910390f35b60025481565b7fa9214cc96615e0085d3bb077758db69497dc2dce3b2b1e97bc93c3d18d83efd381565b6060898961040582611762565b610444576040517f08c379a000000000000000000000000000000000000000000000000000000000815260040161043b906122b6565b60405180910390fd5b61044d816117ba565b61048c576040517f08c379a000000000000000000000000000000000000000000000000000000000815260040161048390612348565b60405180910390fd5b600760000160009054906101000a900473ffffffffffffffffffffffffffffffffffffffff1673ffffffffffffffffffffffffffffffffffffffff163373ffffffffffffffffffffffffffffffffffffffff161461051f576040517f08c379a0000000000000000000000000000000000000000000000000000000008152600401610516906123b4565b60405180910390fd5b6000600760010160009054906101000a900473ffffffffffffffffffffffffffffffffffffffff1673ffffffffffffffffffffffffffffffffffffffff1663e6a1e8887f000000000000000000000000000000000000000000000000000000000000000030600160009054906101000a900473ffffffffffffffffffffffffffffffffffffffff166040518463ffffffff1660e01b81526004016105c5939291906123d4565b608060405180830381865afa1580156105e2573d6000803e3d6000fd5b505050506040513d601f19601f820116820180604052508101906106069190612463565b5050915050600560149054906101000a90505085858080601f016020809104026020016040519081016040528093929190818152602001838380828437600081840152601f19601f8201169050808301925050505050505093505050509998505050505050505050565b60606040517f08c379a00000000000000000000000000000000000000000000000000000000081526004016106a49061253c565b60405180910390fd5b600160009054906101000a900473ffffffffffffffffffffffffffffffffffffffff1673ffffffffffffffffffffffffffffffffffffffff163373ffffffffffffffffffffffffffffffffffffffff161461073d576040517f08c379a0000000000000000000000000000000000000000000000000000000008152600401610734906125a8565b60405180910390fd5b6000600160009054906101000a900473ffffffffffffffffffffffffffffffffffffffff169050600660009054906101000a900460ff16156109025760045461078461105f565b12156107c5576040517f08c379a00000000000000000000000000000000000000000000000000000000081526004016107bc9061263a565b60405180910390fd5b7f000000000000000000000000000000000000000000000000000000000000000073ffffffffffffffffffffffffffffffffffffffff1663a9059cbb827f000000000000000000000000000000000000000000000000000000000000000073ffffffffffffffffffffffffffffffffffffffff166370a08231306040518263ffffffff1660e01b815260040161085b91906120d3565b602060405180830381865afa158015610878573d6000803e3d6000fd5b505050506040513d601f19601f8201168201806040525081019061089c919061265a565b6040518363ffffffff1660e01b81526004016108b9929190612687565b6020604051808303816000875af11580156108d8573d6000803e3d6000fd5b505050506040513d601f19601f820116820180604052508101906108fc91906126dc565b50610a87565b60045461090d61105f565b131561094e576040517f08c379a00000000000000000000000000000000000000000000000000000000081526004016109459061277b565b60405180910390fd5b7f000000000000000000000000000000000000000000000000000000000000000073ffffffffffffffffffffffffffffffffffffffff1663a9059cbb827f000000000000000000000000000000000000000000000000000000000000000073ffffffffffffffffffffffffffffffffffffffff166370a08231306040518263ffffffff1660e01b81526004016109e491906120d3565b602060405180830381865afa158015610a01573d6000803e3d6000fd5b505050506040513d601f19601f82011682018060405250810190610a25919061265a565b6040518363ffffffff1660e01b8152600401610a42929190612687565b6020604051808303816000875af1158015610a61573d6000803e3d6000fd5b505050506040513d601f19601f82011682018060405250810190610a8591906126dc565b505b50565b6060600760000160009054906101000a900473ffffffffffffffffffffffffffffffffffffffff1673ffffffffffffffffffffffffffffffffffffffff163373ffffffffffffffffffffffffffffffffffffffff1614610b1f576040517f08c379a0000000000000000000000000000000000000000000000000000000008152600401610b16906123b4565b60405180910390fd5b610b28896117ba565b1580610b3a5750610b388a611762565b155b15610b8b5782828080601f016020809104026020016040519081016040528093929190818152602001838380828437600081840152601f19601f820116905080830192505050505050509050610d07565b7f000000000000000000000000000000000000000000000000000000000000000073ffffffffffffffffffffffffffffffffffffffff16633f6c923a84846040518363ffffffff1660e01b8152600401610be69291906127d7565b600060405180830381865afa158015610c03573d6000803e3d6000fd5b505050506040513d6000823e3d601f19601f82011682018060405250810190610c2c9190612b5e565b6060015173ffffffffffffffffffffffffffffffffffffffff16600160009054906101000a900473ffffffffffffffffffffffffffffffffffffffff1673ffffffffffffffffffffffffffffffffffffffff1614610cbf576040517f08c379a0000000000000000000000000000000000000000000000000000000008152600401610cb690612bf3565b60405180910390fd5b82828080601f016020809104026020016040519081016040528093929190818152602001838380828437600081840152601f19601f8201169050808301925050505050505090505b9998505050505050505050565b60606040517f08c379a0000000000000000000000000000000000000000000000000000000008152600401610d4890612c85565b60405180910390fd5b600660009054906101000a900460ff1681565b600160009054906101000a900473ffffffffffffffffffffffffffffffffffffffff1681565b7f000000000000000000000000000000000000000000000000000000000000000081565b60008054906101000a900473ffffffffffffffffffffffffffffffffffffffff1673ffffffffffffffffffffffffffffffffffffffff163373ffffffffffffffffffffffffffffffffffffffff1614610e3c576040517f08c379a0000000000000000000000000000000000000000000000000000000008152600401610e3390612cf1565b60405180910390fd5b6003544211610e4a57600080fd5b610ea4600160009054906101000a900473ffffffffffffffffffffffffffffffffffffffff16307f00000000000000000000000000000000000000000000000000000000000000006007611854909392919063ffffffff16565b7f000000000000000000000000000000000000000000000000000000000000000073ffffffffffffffffffffffffffffffffffffffff1663a9059cbb60008054906101000a900473ffffffffffffffffffffffffffffffffffffffff167f000000000000000000000000000000000000000000000000000000000000000073ffffffffffffffffffffffffffffffffffffffff166370a08231306040518263ffffffff1660e01b8152600401610f5a91906120d3565b602060405180830381865afa158015610f77573d6000803e3d6000fd5b505050506040513d601f19601f82011682018060405250810190610f9b919061265a565b6040518363ffffffff1660e01b8152600401610fb8929190612687565b6020604051808303816000875af1158015610fd7573d6000803e3d6000fd5b505050506040513d601f19601f82011682018060405250810190610ffb91906126dc565b50565b60606040517f08c379a000000000000000000000000000000000000000000000000000000000815260040161103290612d83565b60405180910390fd5b60008054906101000a900473ffffffffffffffffffffffffffffffffffffffff1681565b600080600560009054906101000a900473ffffffffffffffffffffffffffffffffffffffff1673ffffffffffffffffffffffffffffffffffffffff1663feaf968c6040518163ffffffff1660e01b815260040160a060405180830381865afa1580156110cf573d6000803e3d6000fd5b505050506040513d601f19601f820116820180604052508101906110f39190612de5565b5050509150508091505090565b600560149054906101000a9004600b0b81565b60045481565b60035481565b60078060000160009054906101000a900473ffffffffffffffffffffffffffffffffffffffff16908060010160009054906101000a900473ffffffffffffffffffffffffffffffffffffffff16905082565b6060898961117e82611762565b6111bd576040517f08c379a00000000000000000000000000000000000000000000000000000000081526004016111b4906122b6565b60405180910390fd5b6111c6816117ba565b611205576040517f08c379a00000000000000000000000000000000000000000000000000000000081526004016111fc90612348565b60405180910390fd5b600760000160009054906101000a900473ffffffffffffffffffffffffffffffffffffffff1673ffffffffffffffffffffffffffffffffffffffff163373ffffffffffffffffffffffffffffffffffffffff1614611298576040517f08c379a000000000000000000000000000000000000000000000000000000000815260040161128f906123b4565b60405180910390fd5b600073ffffffffffffffffffffffffffffffffffffffff16600160009054906101000a900473ffffffffffffffffffffffffffffffffffffffff1673ffffffffffffffffffffffffffffffffffffffff1614611329576040517f08c379a000000000000000000000000000000000000000000000000000000000815260040161132090612ed2565b60405180910390fd5b6000600760010160009054906101000a900473ffffffffffffffffffffffffffffffffffffffff1673ffffffffffffffffffffffffffffffffffffffff1663e6a1e8887f0000000000000000000000000000000000000000000000000000000000000000307f000000000000000000000000000000000000000000000000000000000000000073ffffffffffffffffffffffffffffffffffffffff16633f6c923a8b8b6040518363ffffffff1660e01b81526004016113e99291906127d7565b600060405180830381865afa158015611406573d6000803e3d6000fd5b505050506040513d6000823e3d601f19601f8201168201806040525081019061142f9190612b5e565b606001516040518463ffffffff1660e01b8152600401611451939291906123d4565b608060405180830381865afa15801561146e573d6000803e3d6000fd5b505050506040513d601f19601f820116820180604052508101906114929190612463565b5050915050600560149054906101000a9004600b0b600b0b81600b0b1215611595576115907f000000000000000000000000000000000000000000000000000000000000000073ffffffffffffffffffffffffffffffffffffffff16633f6c923a88886040518363ffffffff1660e01b81526004016115129291906127d7565b600060405180830381865afa15801561152f573d6000803e3d6000fd5b505050506040513d6000823e3d601f19601f820116820180604052508101906115589190612b5e565b606001517f00000000000000000000000000000000000000000000000000000000000000008360076118b4909392919063ffffffff16565b6116e7565b7f000000000000000000000000000000000000000000000000000000000000000073ffffffffffffffffffffffffffffffffffffffff16633f6c923a87876040518363ffffffff1660e01b81526004016115f09291906127d7565b600060405180830381865afa15801561160d573d6000803e3d6000fd5b505050506040513d6000823e3d601f19601f820116820180604052508101906116369190612b5e565b60600151600160006101000a81548173ffffffffffffffffffffffffffffffffffffffff021916908373ffffffffffffffffffffffffffffffffffffffff160217905550600254426116889190612f21565b6003819055506116e660008054906101000a900473ffffffffffffffffffffffffffffffffffffffff167f00000000000000000000000000000000000000000000000000000000000000008360076118b4909392919063ffffffff16565b5b85858080601f016020809104026020016040519081016040528093929190818152602001838380828437600081840152601f19601f8201169050808301925050505050505093505050509998505050505050505050565b7f000000000000000000000000000000000000000000000000000000000000000081565b60007f000000000000000000000000000000000000000000000000000000000000000073ffffffffffffffffffffffffffffffffffffffff168273ffffffffffffffffffffffffffffffffffffffff16149050919050565b60007fa9214cc96615e0085d3bb077758db69497dc2dce3b2b1e97bc93c3d18d83efd38273ffffffffffffffffffffffffffffffffffffffff16637730599e6040518163ffffffff1660e01b8152600401602060405180830381865afa158015611828573d6000803e3d6000fd5b505050506040513d601f19601f8201168201806040525081019061184c9190612f6a565b149050919050565b6118ae84848484600067ffffffffffffffff81111561187657611875612800565b5b6040519080825280601f01601f1916602001820160405280156118a85781602001600182028036833780820191505090505b50611914565b50505050565b61190e84848484600067ffffffffffffffff8111156118d6576118d5612800565b5b6040519080825280601f01601f1916602001820160405280156119085781602001600182028036833780820191505090505b50611ace565b50505050565b8460000160009054906101000a900473ffffffffffffffffffffffffffffffffffffffff1673ffffffffffffffffffffffffffffffffffffffff166339255d5b8660010160009054906101000a900473ffffffffffffffffffffffffffffffffffffffff168760010160009054906101000a900473ffffffffffffffffffffffffffffffffffffffff1673ffffffffffffffffffffffffffffffffffffffff1663b4b333c6868989600067ffffffffffffffff8111156119d7576119d6612800565b5b6040519080825280601f01601f191660200182016040528015611a095781602001600182028036833780820191505090505b50604051602401611a1d9493929190612fb8565b604051602081830303815290604052915060e01b6020820180517bffffffffffffffffffffffffffffffffffffffffffffffffffffffff8381831617835250505050846040518463ffffffff1660e01b8152600401611a7e93929190613004565b6000604051808303816000875af1158015611a9d573d6000803e3d6000fd5b505050506040513d6000823e3d601f19601f82011682018060405250810190611ac69190613049565b505050505050565b8460000160009054906101000a900473ffffffffffffffffffffffffffffffffffffffff1673ffffffffffffffffffffffffffffffffffffffff166339255d5b8660010160009054906101000a900473ffffffffffffffffffffffffffffffffffffffff168760010160009054906101000a900473ffffffffffffffffffffffffffffffffffffffff1673ffffffffffffffffffffffffffffffffffffffff166362fc305e878988600067ffffffffffffffff811115611b9157611b90612800565b5b6040519080825280601f01601f191660200182016040528015611bc35781602001600182028036833780820191505090505b50604051602401611bd79493929190613092565b604051602081830303815290604052915060e01b6020820180517bffffffffffffffffffffffffffffffffffffffffffffffffffffffff8381831617835250505050846040518463ffffffff1660e01b8152600401611c3893929190613004565b6000604051808303816000875af1158015611c57573d6000803e3d6000fd5b505050506040513d6000823e3d601f19601f82011682018060405250810190611c809190613049565b505050505050565b6000819050919050565b611c9b81611c88565b82525050565b6000602082019050611cb66000830184611c92565b92915050565b6000819050919050565b611ccf81611cbc565b82525050565b6000602082019050611cea6000830184611cc6565b92915050565b6000604051905090565b600080fd5b600080fd5b600073ffffffffffffffffffffffffffffffffffffffff82169050919050565b6000611d2f82611d04565b9050919050565b6000611d4182611d24565b9050919050565b611d5181611d36565b8114611d5c57600080fd5b50565b600081359050611d6e81611d48565b92915050565b611d7d81611d24565b8114611d8857600080fd5b50565b600081359050611d9a81611d74565b92915050565b611da981611cbc565b8114611db457600080fd5b50565b600081359050611dc681611da0565b92915050565b600080fd5b600080fd5b600080fd5b60008083601f840112611df157611df0611dcc565b5b8235905067ffffffffffffffff811115611e0e57611e0d611dd1565b5b602083019150836001820283011115611e2a57611e29611dd6565b5b9250929050565b600080600080600080600080600060c08a8c031215611e5357611e52611cfa565b5b6000611e618c828d01611d5f565b9950506020611e728c828d01611d8b565b9850506040611e838c828d01611db7565b97505060608a013567ffffffffffffffff811115611ea457611ea3611cff565b5b611eb08c828d01611ddb565b965096505060808a013567ffffffffffffffff811115611ed357611ed2611cff565b5b611edf8c828d01611ddb565b945094505060a08a013567ffffffffffffffff811115611f0257611f01611cff565b5b611f0e8c828d01611ddb565b92509250509295985092959850929598565b600081519050919050565b600082825260208201905092915050565b60005b83811015611f5a578082015181840152602081019050611f3f565b60008484015250505050565b6000601f19601f8301169050919050565b6000611f8282611f20565b611f8c8185611f2b565b9350611f9c818560208601611f3c565b611fa581611f66565b840191505092915050565b60006020820190508181036000830152611fca8184611f77565b905092915050565b600080600080600080600060a0888a031215611ff157611ff0611cfa565b5b6000611fff8a828b01611d5f565b97505060206120108a828b01611d8b565b96505060406120218a828b01611db7565b955050606088013567ffffffffffffffff81111561204257612041611cff565b5b61204e8a828b01611ddb565b9450945050608088013567ffffffffffffffff81111561207157612070611cff565b5b61207d8a828b01611ddb565b925092505092959891949750929550565b60008115159050919050565b6120a38161208e565b82525050565b60006020820190506120be600083018461209a565b92915050565b6120cd81611d24565b82525050565b60006020820190506120e860008301846120c4565b92915050565b6000819050919050565b600061211361210e61210984611d04565b6120ee565b611d04565b9050919050565b6000612125826120f8565b9050919050565b60006121378261211a565b9050919050565b6121478161212c565b82525050565b6000602082019050612162600083018461213e565b92915050565b6000819050919050565b61217b81612168565b82525050565b60006020820190506121966000830184612172565b92915050565b600081600b0b9050919050565b6121b28161219c565b82525050565b60006020820190506121cd60008301846121a9565b92915050565b60006121de8261211a565b9050919050565b6121ee816121d3565b82525050565b60006121ff8261211a565b9050919050565b61220f816121f4565b82525050565b600060408201905061222a60008301856121e5565b6122376020830184612206565b9392505050565b600060208201905061225360008301846121e5565b92915050565b600082825260208201905092915050565b7f5265646972656374416c6c3a206e6f7420616363657074656420746f6b656e00600082015250565b60006122a0601f83612259565b91506122ab8261226a565b602082019050919050565b600060208201905081810360008301526122cf81612293565b9050919050565b7f5265646972656374416c6c3a206f6e6c7920434641763120737570706f72746560008201527f6400000000000000000000000000000000000000000000000000000000000000602082015250565b6000612332602183612259565b915061233d826122d6565b604082019050919050565b6000602082019050818103600083015261236181612325565b9050919050565b7f4f6e6c7920686f73742063616e2063616c6c2063616c6c6261636b0000000000600082015250565b600061239e601b83612259565b91506123a982612368565b602082019050919050565b600060208201905081810360008301526123cd81612391565b9050919050565b60006060820190506123e9600083018661213e565b6123f660208301856120c4565b61240360408301846120c4565b949350505050565b61241481611c88565b811461241f57600080fd5b50565b6000815190506124318161240b565b92915050565b6124408161219c565b811461244b57600080fd5b50565b60008151905061245d81612437565b92915050565b6000806000806080858703121561247d5761247c611cfa565b5b600061248b87828801612422565b945050602061249c8782880161244e565b93505060406124ad87828801612422565b92505060606124be87828801612422565b91505092959194509250565b7f556e737570706f727465642063616c6c6261636b202d204265666f726520416760008201527f7265656d656e7420437265617465640000000000000000000000000000000000602082015250565b6000612526602f83612259565b9150612531826124ca565b604082019050919050565b6000602082019050818103600083015261255581612519565b9050919050565b7f4f6e6c792062757965722063616e206578656375746500000000000000000000600082015250565b6000612592601683612259565b915061259d8261255c565b602082019050919050565b600060208201905081810360008301526125c181612585565b9050919050565b7f43757272656e74207072696365206c6f776572207468616e20737472696b652060008201527f7072696365000000000000000000000000000000000000000000000000000000602082015250565b6000612624602583612259565b915061262f826125c8565b604082019050919050565b6000602082019050818103600083015261265381612617565b9050919050565b6000602082840312156126705761266f611cfa565b5b600061267e84828501612422565b91505092915050565b600060408201905061269c60008301856120c4565b6126a96020830184611c92565b9392505050565b6126b98161208e565b81146126c457600080fd5b50565b6000815190506126d6816126b0565b92915050565b6000602082840312156126f2576126f1611cfa565b5b6000612700848285016126c7565b91505092915050565b7f43757272656e7420707269636520686967686572207468616e20737472696b6560008201527f2070726963650000000000000000000000000000000000000000000000000000602082015250565b6000612765602683612259565b915061277082612709565b604082019050919050565b6000602082019050818103600083015261279481612758565b9050919050565b82818337600083830152505050565b60006127b68385611f2b565b93506127c383858461279b565b6127cc83611f66565b840190509392505050565b600060208201905081810360008301526127f28184866127aa565b90509392505050565b600080fd5b7f4e487b7100000000000000000000000000000000000000000000000000000000600052604160045260246000fd5b61283882611f66565b810181811067ffffffffffffffff8211171561285757612856612800565b5b80604052505050565b600061286a611cf0565b9050612876828261282f565b919050565b600080fd5b600060ff82169050919050565b61289681612880565b81146128a157600080fd5b50565b6000815190506128b38161288d565b92915050565b6000815190506128c881611d74565b92915050565b60007fffffffff0000000000000000000000000000000000000000000000000000000082169050919050565b612903816128ce565b811461290e57600080fd5b50565b600081519050612920816128fa565b92915050565b600080fd5b600067ffffffffffffffff82111561294657612945612800565b5b61294f82611f66565b9050602081019050919050565b600061296f61296a8461292b565b612860565b90508281526020810184848401111561298b5761298a612926565b5b612996848285611f3c565b509392505050565b600082601f8301126129b3576129b2611dcc565b5b81516129c384826020860161295c565b91505092915050565b6129d581612168565b81146129e057600080fd5b50565b6000815190506129f2816129cc565b92915050565b6000612a0382611d24565b9050919050565b612a13816129f8565b8114612a1e57600080fd5b50565b600081519050612a3081612a0a565b92915050565b60006101608284031215612a4d57612a4c6127fb565b5b612a58610160612860565b90506000612a68848285016128a4565b6000830152506020612a7c848285016128a4565b6020830152506040612a9084828501612422565b6040830152506060612aa4848285016128b9565b6060830152506080612ab884828501612911565b60808301525060a082015167ffffffffffffffff811115612adc57612adb61287b565b5b612ae88482850161299e565b60a08301525060c0612afc84828501612422565b60c08301525060e0612b1084828501612422565b60e083015250610100612b25848285016129e3565b61010083015250610120612b3b848285016128b9565b61012083015250610140612b5184828501612a21565b6101408301525092915050565b600060208284031215612b7457612b73611cfa565b5b600082015167ffffffffffffffff811115612b9257612b91611cff565b5b612b9e84828501612a36565b91505092915050565b7f4f6e6c792062757965722063616e20636c6f7365207468652073747265616d00600082015250565b6000612bdd601f83612259565b9150612be882612ba7565b602082019050919050565b60006020820190508181036000830152612c0c81612bd0565b9050919050565b7f556e737570706f727465642063616c6c6261636b202d20204265666f7265204160008201527f677265656d656e74205465726d696e6174656400000000000000000000000000602082015250565b6000612c6f603383612259565b9150612c7a82612c13565b604082019050919050565b60006020820190508181036000830152612c9e81612c62565b9050919050565b7f4f6e6c79206f776e65722063616e206578656375746500000000000000000000600082015250565b6000612cdb601683612259565b9150612ce682612ca5565b602082019050919050565b60006020820190508181036000830152612d0a81612cce565b9050919050565b7f556e737570706f727465642063616c6c6261636b202d204265666f726520416760008201527f7265656d656e7420757064617465640000000000000000000000000000000000602082015250565b6000612d6d602f83612259565b9150612d7882612d11565b604082019050919050565b60006020820190508181036000830152612d9c81612d60565b9050919050565b600069ffffffffffffffffffff82169050919050565b612dc281612da3565b8114612dcd57600080fd5b50565b600081519050612ddf81612db9565b92915050565b600080600080600060a08688031215612e0157612e00611cfa565b5b6000612e0f88828901612dd0565b9550506020612e20888289016129e3565b9450506040612e3188828901612422565b9350506060612e4288828901612422565b9250506080612e5388828901612dd0565b9150509295509295909350565b7f42657420616c726561647920736f6c642c20667265657a6520706572696f642060008201527f6e6f74206f766572000000000000000000000000000000000000000000000000602082015250565b6000612ebc602883612259565b9150612ec782612e60565b604082019050919050565b60006020820190508181036000830152612eeb81612eaf565b9050919050565b7f4e487b7100000000000000000000000000000000000000000000000000000000600052601160045260246000fd5b6000612f2c82611c88565b9150612f3783611c88565b9250828201905080821115612f4f57612f4e612ef2565b5b92915050565b600081519050612f6481611da0565b92915050565b600060208284031215612f8057612f7f611cfa565b5b6000612f8e84828501612f55565b91505092915050565b6000612fa28261211a565b9050919050565b612fb281612f97565b82525050565b6000608082019050612fcd6000830187612fa9565b612fda60208301866120c4565b612fe760408301856120c4565b8181036060830152612ff98184611f77565b905095945050505050565b60006060820190506130196000830186612206565b818103602083015261302b8185611f77565b9050818103604083015261303f8184611f77565b9050949350505050565b60006020828403121561305f5761305e611cfa565b5b600082015167ffffffffffffffff81111561307d5761307c611cff565b5b6130898482850161299e565b91505092915050565b60006080820190506130a76000830187612fa9565b6130b460208301866120c4565b6130c160408301856121a9565b81810360608301526130d38184611f77565b90509594505050505056fea264697066735822122092abf4c987cb0ccb241d4773fe7e6ebc385e85fab96a817cc4630ee3d18a869364736f6c63430008100033",
  "linkReferences": {},
  "deployedLinkReferences": {}
}