{
  "_format": "hh-sol-artifact-1",
  "contractName": "BetOffer",
  "sourceName": "contracts/BetOffer.sol",
  "abi": [
    {
      "inputs": [
        {
          "internalType": "address",
          "name": "_owner",
          "type": "address"
        },
        {
          "internalType": "int96",
          "name": "_minPaymentFlowRate",
          "type": "int96"
        },
        {
          "internalType": "bool",
          "name": "_isCall",
          "type": "bool"
        },
        {
          "internalType": "uint256",
          "name": "_freezePeriod",
          "type": "uint256"
        },
        {
          "internalType": "int256",
          "name": "_strikePrice",
          "type": "int256"
        },
        {
          "internalType": "contract ISuperfluid",
          "name": "_host",
          "type": "address"
        },
        {
          "internalType": "address",
          "name": "_chainLinkOracle",
          "type": "address"
        }
      ],
      "stateMutability": "nonpayable",
      "type": "constructor"
    },
    {
      "inputs": [],
      "name": "CFA_ID",
      "outputs": [
        {
          "internalType": "bytes32",
          "name": "",
          "type": "bytes32"
        }
      ],
      "stateMutability": "view",
      "type": "function"
    },
    {
      "inputs": [
        {
          "internalType": "contract ISuperToken",
          "name": "_superToken",
          "type": "address"
        },
        {
          "internalType": "address",
          "name": "_agreementClass",
          "type": "address"
        },
        {
          "internalType": "bytes32",
          "name": "",
          "type": "bytes32"
        },
        {
          "internalType": "bytes",
          "name": "",
          "type": "bytes"
        },
        {
          "internalType": "bytes",
          "name": "",
          "type": "bytes"
        },
        {
          "internalType": "bytes",
          "name": "ctx",
          "type": "bytes"
        }
      ],
      "name": "afterAgreementCreated",
      "outputs": [
        {
          "internalType": "bytes",
          "name": "newCtx",
          "type": "bytes"
        }
      ],
      "stateMutability": "nonpayable",
      "type": "function"
    },
    {
      "inputs": [
        {
          "internalType": "contract ISuperToken",
          "name": "_superToken",
          "type": "address"
        },
        {
          "internalType": "address",
          "name": "_agreementClass",
          "type": "address"
        },
        {
          "internalType": "bytes32",
          "name": "",
          "type": "bytes32"
        },
        {
          "internalType": "bytes",
          "name": "",
          "type": "bytes"
        },
        {
          "internalType": "bytes",
          "name": "",
          "type": "bytes"
        },
        {
          "internalType": "bytes",
          "name": "ctx",
          "type": "bytes"
        }
      ],
      "name": "afterAgreementTerminated",
      "outputs": [
        {
          "internalType": "bytes",
          "name": "newCtx",
          "type": "bytes"
        }
      ],
      "stateMutability": "nonpayable",
      "type": "function"
    },
    {
      "inputs": [
        {
          "internalType": "contract ISuperToken",
          "name": "_superToken",
          "type": "address"
        },
        {
          "internalType": "address",
          "name": "_agreementClass",
          "type": "address"
        },
        {
          "internalType": "bytes32",
          "name": "",
          "type": "bytes32"
        },
        {
          "internalType": "bytes",
          "name": "",
          "type": "bytes"
        },
        {
          "internalType": "bytes",
          "name": "",
          "type": "bytes"
        },
        {
          "internalType": "bytes",
          "name": "ctx",
          "type": "bytes"
        }
      ],
      "name": "afterAgreementUpdated",
      "outputs": [
        {
          "internalType": "bytes",
          "name": "newCtx",
          "type": "bytes"
        }
      ],
      "stateMutability": "nonpayable",
      "type": "function"
    },
    {
      "inputs": [
        {
          "internalType": "contract ISuperToken",
          "name": "",
          "type": "address"
        },
        {
          "internalType": "address",
          "name": "",
          "type": "address"
        },
        {
          "internalType": "bytes32",
          "name": "",
          "type": "bytes32"
        },
        {
          "internalType": "bytes",
          "name": "",
          "type": "bytes"
        },
        {
          "internalType": "bytes",
          "name": "",
          "type": "bytes"
        }
      ],
      "name": "beforeAgreementCreated",
      "outputs": [
        {
          "internalType": "bytes",
          "name": "",
          "type": "bytes"
        }
      ],
      "stateMutability": "view",
      "type": "function"
    },
    {
      "inputs": [
        {
          "internalType": "contract ISuperToken",
          "name": "",
          "type": "address"
        },
        {
          "internalType": "address",
          "name": "",
          "type": "address"
        },
        {
          "internalType": "bytes32",
          "name": "",
          "type": "bytes32"
        },
        {
          "internalType": "bytes",
          "name": "",
          "type": "bytes"
        },
        {
          "internalType": "bytes",
          "name": "",
          "type": "bytes"
        }
      ],
      "name": "beforeAgreementTerminated",
      "outputs": [
        {
          "internalType": "bytes",
          "name": "",
          "type": "bytes"
        }
      ],
      "stateMutability": "view",
      "type": "function"
    },
    {
      "inputs": [
        {
          "internalType": "contract ISuperToken",
          "name": "",
          "type": "address"
        },
        {
          "internalType": "address",
          "name": "",
          "type": "address"
        },
        {
          "internalType": "bytes32",
          "name": "",
          "type": "bytes32"
        },
        {
          "internalType": "bytes",
          "name": "",
          "type": "bytes"
        },
        {
          "internalType": "bytes",
          "name": "",
          "type": "bytes"
        }
      ],
      "name": "beforeAgreementUpdated",
      "outputs": [
        {
          "internalType": "bytes",
          "name": "",
          "type": "bytes"
        }
      ],
      "stateMutability": "view",
      "type": "function"
    },
    {
      "inputs": [],
      "name": "betToken",
      "outputs": [
        {
          "internalType": "contract ISuperToken",
          "name": "",
          "type": "address"
        }
      ],
      "stateMutability": "view",
      "type": "function"
    },
    {
      "inputs": [],
      "name": "buyer",
      "outputs": [
        {
          "internalType": "address",
          "name": "",
          "type": "address"
        }
      ],
      "stateMutability": "view",
      "type": "function"
    },
    {
      "inputs": [],
      "name": "cancelBet",
      "outputs": [],
      "stateMutability": "nonpayable",
      "type": "function"
    },
    {
      "inputs": [],
      "name": "cfaV1",
      "outputs": [
        {
          "internalType": "contract ISuperfluid",
          "name": "host",
          "type": "address"
        },
        {
          "internalType": "contract IConstantFlowAgreementV1",
          "name": "cfa",
          "type": "address"
        }
      ],
      "stateMutability": "view",
      "type": "function"
    },
    {
      "inputs": [],
      "name": "executeBet",
      "outputs": [],
      "stateMutability": "nonpayable",
      "type": "function"
    },
    {
      "inputs": [],
      "name": "freezePeriod",
      "outputs": [
        {
          "internalType": "uint256",
          "name": "",
          "type": "uint256"
        }
      ],
      "stateMutability": "view",
      "type": "function"
    },
    {
      "inputs": [],
      "name": "freezePeriodEnd",
      "outputs": [
        {
          "internalType": "uint256",
          "name": "",
          "type": "uint256"
        }
      ],
      "stateMutability": "view",
      "type": "function"
    },
    {
      "inputs": [],
      "name": "getLatestPrice",
      "outputs": [
        {
          "internalType": "int256",
          "name": "",
          "type": "int256"
        }
      ],
      "stateMutability": "view",
      "type": "function"
    },
    {
      "inputs": [],
      "name": "host",
      "outputs": [
        {
          "internalType": "contract ISuperfluid",
          "name": "",
          "type": "address"
        }
      ],
      "stateMutability": "view",
      "type": "function"
    },
    {
      "inputs": [],
      "name": "isCall",
      "outputs": [
        {
          "internalType": "bool",
          "name": "",
          "type": "bool"
        }
      ],
      "stateMutability": "view",
      "type": "function"
    },
    {
      "inputs": [],
      "name": "minPaymentFlowRate",
      "outputs": [
        {
          "internalType": "int96",
          "name": "",
          "type": "int96"
        }
      ],
      "stateMutability": "view",
      "type": "function"
    },
    {
      "inputs": [],
      "name": "owner",
      "outputs": [
        {
          "internalType": "address",
          "name": "",
          "type": "address"
        }
      ],
      "stateMutability": "view",
      "type": "function"
    },
    {
      "inputs": [],
      "name": "strikePrice",
      "outputs": [
        {
          "internalType": "int256",
          "name": "",
          "type": "int256"
        }
      ],
      "stateMutability": "view",
      "type": "function"
    }
  ],
  "bytecode": "0x60c060405273f2d68898557ccb2cf4c10c3ef2b034b2a69dad0073ffffffffffffffffffffffffffffffffffffffff1660a09073ffffffffffffffffffffffffffffffffffffffff168152503480156200005857600080fd5b5060405162003c0438038062003c0483398181016040528101906200007e91906200053f565b866000806101000a81548173ffffffffffffffffffffffffffffffffffffffff021916908373ffffffffffffffffffffffffffffffffffffffff16021790555085600560146101000a8154816bffffffffffffffffffffffff0219169083600b0b6bffffffffffffffffffffffff16021790555084600660006101000a81548160ff02191690831515021790555083600281905550826004819055508173ffffffffffffffffffffffffffffffffffffffff1660808173ffffffffffffffffffffffffffffffffffffffff168152505080600560006101000a81548173ffffffffffffffffffffffffffffffffffffffff021916908373ffffffffffffffffffffffffffffffffffffffff16021790555060008273ffffffffffffffffffffffffffffffffffffffff1663b6d200de7fa9214cc96615e0085d3bb077758db69497dc2dce3b2b1e97bc93c3d18d83efd36040518263ffffffff1660e01b8152600401620001ec91906200060d565b602060405180830381865afa1580156200020a573d6000803e3d6000fd5b505050506040513d601f19601f820116820180604052508101906200023091906200066f565b905060405180604001604052808473ffffffffffffffffffffffffffffffffffffffff1681526020018273ffffffffffffffffffffffffffffffffffffffff16815250600760008201518160000160006101000a81548173ffffffffffffffffffffffffffffffffffffffff021916908373ffffffffffffffffffffffffffffffffffffffff16021790555060208201518160010160006101000a81548173ffffffffffffffffffffffffffffffffffffffff021916908373ffffffffffffffffffffffffffffffffffffffff1602179055509050506000641000000000640400000000640100000000600117171790508373ffffffffffffffffffffffffffffffffffffffff1663ad3915c8826040518263ffffffff1660e01b81526004016200035c9190620006b2565b600060405180830381600087803b1580156200037757600080fd5b505af11580156200038c573d6000803e3d6000fd5b50505050505050505050505050620006cf565b600080fd5b600073ffffffffffffffffffffffffffffffffffffffff82169050919050565b6000620003d182620003a4565b9050919050565b620003e381620003c4565b8114620003ef57600080fd5b50565b6000815190506200040381620003d8565b92915050565b600081600b0b9050919050565b620004218162000409565b81146200042d57600080fd5b50565b600081519050620004418162000416565b92915050565b60008115159050919050565b6200045e8162000447565b81146200046a57600080fd5b50565b6000815190506200047e8162000453565b92915050565b6000819050919050565b620004998162000484565b8114620004a557600080fd5b50565b600081519050620004b9816200048e565b92915050565b6000819050919050565b620004d481620004bf565b8114620004e057600080fd5b50565b600081519050620004f481620004c9565b92915050565b60006200050782620003c4565b9050919050565b6200051981620004fa565b81146200052557600080fd5b50565b60008151905062000539816200050e565b92915050565b600080600080600080600060e0888a0312156200056157620005606200039f565b5b6000620005718a828b01620003f2565b9750506020620005848a828b0162000430565b9650506040620005978a828b016200046d565b9550506060620005aa8a828b01620004a8565b9450506080620005bd8a828b01620004e3565b93505060a0620005d08a828b0162000528565b92505060c0620005e38a828b01620003f2565b91505092959891949750929550565b6000819050919050565b6200060781620005f2565b82525050565b6000602082019050620006246000830184620005fc565b92915050565b60006200063782620003c4565b9050919050565b62000649816200062a565b81146200065557600080fd5b50565b60008151905062000669816200063e565b92915050565b6000602082840312156200068857620006876200039f565b5b6000620006988482850162000658565b91505092915050565b620006ac8162000484565b82525050565b6000602082019050620006c96000830184620006a1565b92915050565b60805160a0516134a66200075e600039600081816106cc01528181610709015281816108550152818161089201528181610c9e01528181610d6101528181610e4801528181610ea001528181610edb01528181610f38015281816113fa0152818161169b0152611708015260008181610adb0152818161141b0152818161157d01526116e201526134a66000f3fe608060405234801561001057600080fd5b506004361061012c5760003560e01c80637b6d79f1116100ad578063c52987cf11610071578063c52987cf14610325578063cca3ae7214610343578063d3112b2e14610361578063d86ed3e514610380578063f437bc59146103b05761012c565b80637b6d79f114610291578063884d1f401461029b5780638da5cb5b146102cb5780638e15f473146102e95780639ffda977146103075761012c565b806353c11f99116100f457806353c11f99146101d75780635f9e7d77146102075780636d636478146102375780637150d8ae1461025557806378691f16146102735761012c565b80630a3cb66314610131578063215eed021461014f578063230dbd291461016d57806330d9c9151461019d57806337a1705d146101cd575b600080fd5b6101396103ce565b6040516101469190611ecf565b60405180910390f35b6101576103d4565b6040516101649190611f03565b60405180910390f35b6101876004803603810190610182919061205f565b6103f8565b60405161019491906121de565b60405180910390f35b6101b760048036038101906101b29190612200565b610575565b6040516101c491906121de565b60405180910390f35b6101d56105b2565b005b6101f160048036038101906101ec919061205f565b61098f565b6040516101fe91906121de565b60405180910390f35b610221600480360381019061021c9190612200565b610ce9565b60405161022e91906121de565b60405180910390f35b61023f610d26565b60405161024c91906122d7565b60405180910390f35b61025d610d39565b60405161026a9190612301565b60405180910390f35b61027b610d5f565b604051610288919061237b565b60405180910390f35b610299610d83565b005b6102b560048036038101906102b09190612200565b611033565b6040516102c291906121de565b60405180910390f35b6102d3611070565b6040516102e09190612301565b60405180910390f35b6102f1611094565b6040516102fe91906123af565b60405180910390f35b61030f611135565b60405161031c91906123e6565b60405180910390f35b61032d611148565b60405161033a91906123af565b60405180910390f35b61034b61114e565b6040516103589190611ecf565b60405180910390f35b610369611154565b604051610377929190612443565b60405180910390f35b61039a6004803603810190610395919061205f565b6111a6565b6040516103a791906121de565b60405180910390f35b6103b86116e0565b6040516103c5919061246c565b60405180910390f35b60025481565b7fa9214cc96615e0085d3bb077758db69497dc2dce3b2b1e97bc93c3d18d83efd381565b6060898961040582611704565b610444576040517f08c379a000000000000000000000000000000000000000000000000000000000815260040161043b906124e4565b60405180910390fd5b61044d8161175c565b61048c576040517f08c379a000000000000000000000000000000000000000000000000000000000815260040161048390612576565b60405180910390fd5b600760000160009054906101000a900473ffffffffffffffffffffffffffffffffffffffff1673ffffffffffffffffffffffffffffffffffffffff163373ffffffffffffffffffffffffffffffffffffffff161461051f576040517f08c379a0000000000000000000000000000000000000000000000000000000008152600401610516906125e2565b60405180910390fd5b84848080601f016020809104026020016040519081016040528093929190818152602001838380828437600081840152601f19601f82011690508083019250505050505050925050509998505050505050505050565b60606040517f08c379a00000000000000000000000000000000000000000000000000000000081526004016105a990612674565b60405180910390fd5b600160009054906101000a900473ffffffffffffffffffffffffffffffffffffffff1673ffffffffffffffffffffffffffffffffffffffff163373ffffffffffffffffffffffffffffffffffffffff1614610642576040517f08c379a0000000000000000000000000000000000000000000000000000000008152600401610639906126e0565b60405180910390fd5b6000600160009054906101000a900473ffffffffffffffffffffffffffffffffffffffff169050600660009054906101000a900460ff161561080757600454610689611094565b12156106ca576040517f08c379a00000000000000000000000000000000000000000000000000000000081526004016106c190612772565b60405180910390fd5b7f000000000000000000000000000000000000000000000000000000000000000073ffffffffffffffffffffffffffffffffffffffff1663a9059cbb827f000000000000000000000000000000000000000000000000000000000000000073ffffffffffffffffffffffffffffffffffffffff166370a08231306040518263ffffffff1660e01b81526004016107609190612301565b602060405180830381865afa15801561077d573d6000803e3d6000fd5b505050506040513d601f19601f820116820180604052508101906107a191906127be565b6040518363ffffffff1660e01b81526004016107be9291906127eb565b6020604051808303816000875af11580156107dd573d6000803e3d6000fd5b505050506040513d601f19601f820116820180604052508101906108019190612840565b5061098c565b600454610812611094565b1315610853576040517f08c379a000000000000000000000000000000000000000000000000000000000815260040161084a906128df565b60405180910390fd5b7f000000000000000000000000000000000000000000000000000000000000000073ffffffffffffffffffffffffffffffffffffffff1663a9059cbb827f000000000000000000000000000000000000000000000000000000000000000073ffffffffffffffffffffffffffffffffffffffff166370a08231306040518263ffffffff1660e01b81526004016108e99190612301565b602060405180830381865afa158015610906573d6000803e3d6000fd5b505050506040513d601f19601f8201168201806040525081019061092a91906127be565b6040518363ffffffff1660e01b81526004016109479291906127eb565b6020604051808303816000875af1158015610966573d6000803e3d6000fd5b505050506040513d601f19601f8201168201806040525081019061098a9190612840565b505b50565b6060600760000160009054906101000a900473ffffffffffffffffffffffffffffffffffffffff1673ffffffffffffffffffffffffffffffffffffffff163373ffffffffffffffffffffffffffffffffffffffff1614610a24576040517f08c379a0000000000000000000000000000000000000000000000000000000008152600401610a1b906125e2565b60405180910390fd5b610a2d8961175c565b1580610a3f5750610a3d8a611704565b155b15610a905782828080601f016020809104026020016040519081016040528093929190818152602001838380828437600081840152601f19601f820116905080830192505050505050509050610cdc565b82828080601f016020809104026020016040519081016040528093929190818152602001838380828437600081840152601f19601f82011690508083019250505050505050905060007f000000000000000000000000000000000000000000000000000000000000000073ffffffffffffffffffffffffffffffffffffffff16633f6c923a85856040518363ffffffff1660e01b8152600401610b3492919061293b565b600060405180830381865afa158015610b51573d6000803e3d6000fd5b505050506040513d6000823e3d601f19601f82011682018060405250810190610b7a9190612cc2565b606001519050600160009054906101000a900473ffffffffffffffffffffffffffffffffffffffff1673ffffffffffffffffffffffffffffffffffffffff168173ffffffffffffffffffffffffffffffffffffffff16141580610c36575060008054906101000a900473ffffffffffffffffffffffffffffffffffffffff1673ffffffffffffffffffffffffffffffffffffffff168173ffffffffffffffffffffffffffffffffffffffff1614158015610c35575060035442115b5b15610c76576040517f08c379a0000000000000000000000000000000000000000000000000000000008152600401610c6d90612d7d565b60405180910390fd5b610cd0823060008054906101000a900473ffffffffffffffffffffffffffffffffffffffff167f0000000000000000000000000000000000000000000000000000000000000000600761184290949392919063ffffffff16565b9150610cda6117f6565b505b9998505050505050505050565b60606040517f08c379a0000000000000000000000000000000000000000000000000000000008152600401610d1d90612e0f565b60405180910390fd5b600660009054906101000a900460ff1681565b600160009054906101000a900473ffffffffffffffffffffffffffffffffffffffff1681565b7f000000000000000000000000000000000000000000000000000000000000000081565b60008054906101000a900473ffffffffffffffffffffffffffffffffffffffff1673ffffffffffffffffffffffffffffffffffffffff163373ffffffffffffffffffffffffffffffffffffffff1614610e11576040517f08c379a0000000000000000000000000000000000000000000000000000000008152600401610e0890612e7b565b60405180910390fd5b6003544211610e1f57600080fd5b610e79600160009054906101000a900473ffffffffffffffffffffffffffffffffffffffff16307f000000000000000000000000000000000000000000000000000000000000000060076118aa909392919063ffffffff16565b610ed13060008054906101000a900473ffffffffffffffffffffffffffffffffffffffff167f000000000000000000000000000000000000000000000000000000000000000060076118aa909392919063ffffffff16565b610ed96117f6565b7f000000000000000000000000000000000000000000000000000000000000000073ffffffffffffffffffffffffffffffffffffffff1663a9059cbb60008054906101000a900473ffffffffffffffffffffffffffffffffffffffff167f000000000000000000000000000000000000000000000000000000000000000073ffffffffffffffffffffffffffffffffffffffff166370a08231306040518263ffffffff1660e01b8152600401610f8f9190612301565b602060405180830381865afa158015610fac573d6000803e3d6000fd5b505050506040513d601f19601f82011682018060405250810190610fd091906127be565b6040518363ffffffff1660e01b8152600401610fed9291906127eb565b6020604051808303816000875af115801561100c573d6000803e3d6000fd5b505050506040513d601f19601f820116820180604052508101906110309190612840565b50565b60606040517f08c379a000000000000000000000000000000000000000000000000000000000815260040161106790612f0d565b60405180910390fd5b60008054906101000a900473ffffffffffffffffffffffffffffffffffffffff1681565b600080600560009054906101000a900473ffffffffffffffffffffffffffffffffffffffff1673ffffffffffffffffffffffffffffffffffffffff1663feaf968c6040518163ffffffff1660e01b815260040160a060405180830381865afa158015611104573d6000803e3d6000fd5b505050506040513d601f19601f820116820180604052508101906111289190612f6f565b5050509150508091505090565b600560149054906101000a9004600b0b81565b60045481565b60035481565b60078060000160009054906101000a900473ffffffffffffffffffffffffffffffffffffffff16908060010160009054906101000a900473ffffffffffffffffffffffffffffffffffffffff16905082565b606089896111b382611704565b6111f2576040517f08c379a00000000000000000000000000000000000000000000000000000000081526004016111e9906124e4565b60405180910390fd5b6111fb8161175c565b61123a576040517f08c379a000000000000000000000000000000000000000000000000000000000815260040161123190612576565b60405180910390fd5b600760000160009054906101000a900473ffffffffffffffffffffffffffffffffffffffff1673ffffffffffffffffffffffffffffffffffffffff163373ffffffffffffffffffffffffffffffffffffffff16146112cd576040517f08c379a00000000000000000000000000000000000000000000000000000000081526004016112c4906125e2565b60405180910390fd5b600073ffffffffffffffffffffffffffffffffffffffff16600160009054906101000a900473ffffffffffffffffffffffffffffffffffffffff1673ffffffffffffffffffffffffffffffffffffffff161415801561132e57506003544211155b1561136e576040517f08c379a00000000000000000000000000000000000000000000000000000000081526004016113659061305c565b60405180910390fd5b84848080601f016020809104026020016040519081016040528093929190818152602001838380828437600081840152601f19601f8201169050808301925050505050505092506000600760010160009054906101000a900473ffffffffffffffffffffffffffffffffffffffff1673ffffffffffffffffffffffffffffffffffffffff1663e6a1e8887f00000000000000000000000000000000000000000000000000000000000000007f000000000000000000000000000000000000000000000000000000000000000073ffffffffffffffffffffffffffffffffffffffff16633f6c923a8a8a6040518363ffffffff1660e01b815260040161147492919061293b565b600060405180830381865afa158015611491573d6000803e3d6000fd5b505050506040513d6000823e3d601f19601f820116820180604052508101906114ba9190612cc2565b60600151306040518463ffffffff1660e01b81526004016114dd9392919061307c565b608060405180830381865afa1580156114fa573d6000803e3d6000fd5b505050506040513d601f19601f8201168201806040525081019061151e91906130df565b5050915050600560149054906101000a9004600b0b600b0b81600b0b121561157b576040517f08c379a000000000000000000000000000000000000000000000000000000000815260040161157290613192565b60405180910390fd5b7f000000000000000000000000000000000000000000000000000000000000000073ffffffffffffffffffffffffffffffffffffffff16633f6c923a87876040518363ffffffff1660e01b81526004016115d692919061293b565b600060405180830381865afa1580156115f3573d6000803e3d6000fd5b505050506040513d6000823e3d601f19601f8201168201806040525081019061161c9190612cc2565b60600151600160006101000a81548173ffffffffffffffffffffffffffffffffffffffff021916908373ffffffffffffffffffffffffffffffffffffffff1602179055506002544261166e91906131e1565b6003819055506116ce8460008054906101000a900473ffffffffffffffffffffffffffffffffffffffff167f000000000000000000000000000000000000000000000000000000000000000084600761190a90949392919063ffffffff16565b93505050509998505050505050505050565b7f000000000000000000000000000000000000000000000000000000000000000081565b60007f000000000000000000000000000000000000000000000000000000000000000073ffffffffffffffffffffffffffffffffffffffff168273ffffffffffffffffffffffffffffffffffffffff16149050919050565b60007fa9214cc96615e0085d3bb077758db69497dc2dce3b2b1e97bc93c3d18d83efd38273ffffffffffffffffffffffffffffffffffffffff16637730599e6040518163ffffffff1660e01b8152600401602060405180830381865afa1580156117ca573d6000803e3d6000fd5b505050506040513d601f19601f820116820180604052508101906117ee919061322a565b149050919050565b6000600160006101000a81548173ffffffffffffffffffffffffffffffffffffffff021916908373ffffffffffffffffffffffffffffffffffffffff1602179055506000600381905550565b606061189f8686868686600067ffffffffffffffff81111561186757611866612964565b5b6040519080825280601f01601f1916602001820160405280156118995781602001600182028036833780820191505090505b50611972565b905095945050505050565b61190484848484600067ffffffffffffffff8111156118cc576118cb612964565b5b6040519080825280601f01601f1916602001820160405280156118fe5781602001600182028036833780820191505090505b50611b37565b50505050565b60606119678686868686600067ffffffffffffffff81111561192f5761192e612964565b5b6040519080825280601f01601f1916602001820160405280156119615781602001600182028036833780820191505090505b50611cf1565b905095945050505050565b60608660000160009054906101000a900473ffffffffffffffffffffffffffffffffffffffff1673ffffffffffffffffffffffffffffffffffffffff16634329d2938860010160009054906101000a900473ffffffffffffffffffffffffffffffffffffffff168960010160009054906101000a900473ffffffffffffffffffffffffffffffffffffffff1673ffffffffffffffffffffffffffffffffffffffff1663b4b333c6878a8a600067ffffffffffffffff811115611a3757611a36612964565b5b6040519080825280601f01601f191660200182016040528015611a695781602001600182028036833780820191505090505b50604051602401611a7d9493929190613278565b604051602081830303815290604052915060e01b6020820180517bffffffffffffffffffffffffffffffffffffffffffffffffffffffff8381831617835250505050858a6040518563ffffffff1660e01b8152600401611ae094939291906132c4565b6000604051808303816000875af1158015611aff573d6000803e3d6000fd5b505050506040513d6000823e3d601f19601f82011682018060405250810190611b28919061331e565b50809150509695505050505050565b8460000160009054906101000a900473ffffffffffffffffffffffffffffffffffffffff1673ffffffffffffffffffffffffffffffffffffffff166339255d5b8660010160009054906101000a900473ffffffffffffffffffffffffffffffffffffffff168760010160009054906101000a900473ffffffffffffffffffffffffffffffffffffffff1673ffffffffffffffffffffffffffffffffffffffff1663b4b333c6868989600067ffffffffffffffff811115611bfa57611bf9612964565b5b6040519080825280601f01601f191660200182016040528015611c2c5781602001600182028036833780820191505090505b50604051602401611c409493929190613278565b604051602081830303815290604052915060e01b6020820180517bffffffffffffffffffffffffffffffffffffffffffffffffffffffff8381831617835250505050846040518463ffffffff1660e01b8152600401611ca193929190613396565b6000604051808303816000875af1158015611cc0573d6000803e3d6000fd5b505050506040513d6000823e3d601f19601f82011682018060405250810190611ce991906133db565b505050505050565b60608660000160009054906101000a900473ffffffffffffffffffffffffffffffffffffffff1673ffffffffffffffffffffffffffffffffffffffff16634329d2938860010160009054906101000a900473ffffffffffffffffffffffffffffffffffffffff168960010160009054906101000a900473ffffffffffffffffffffffffffffffffffffffff1673ffffffffffffffffffffffffffffffffffffffff166362fc305e888a89600067ffffffffffffffff811115611db657611db5612964565b5b6040519080825280601f01601f191660200182016040528015611de85781602001600182028036833780820191505090505b50604051602401611dfc9493929190613424565b604051602081830303815290604052915060e01b6020820180517bffffffffffffffffffffffffffffffffffffffffffffffffffffffff8381831617835250505050858a6040518563ffffffff1660e01b8152600401611e5f94939291906132c4565b6000604051808303816000875af1158015611e7e573d6000803e3d6000fd5b505050506040513d6000823e3d601f19601f82011682018060405250810190611ea7919061331e565b50809150509695505050505050565b6000819050919050565b611ec981611eb6565b82525050565b6000602082019050611ee46000830184611ec0565b92915050565b6000819050919050565b611efd81611eea565b82525050565b6000602082019050611f186000830184611ef4565b92915050565b6000604051905090565b600080fd5b600080fd5b600073ffffffffffffffffffffffffffffffffffffffff82169050919050565b6000611f5d82611f32565b9050919050565b6000611f6f82611f52565b9050919050565b611f7f81611f64565b8114611f8a57600080fd5b50565b600081359050611f9c81611f76565b92915050565b611fab81611f52565b8114611fb657600080fd5b50565b600081359050611fc881611fa2565b92915050565b611fd781611eea565b8114611fe257600080fd5b50565b600081359050611ff481611fce565b92915050565b600080fd5b600080fd5b600080fd5b60008083601f84011261201f5761201e611ffa565b5b8235905067ffffffffffffffff81111561203c5761203b611fff565b5b60208301915083600182028301111561205857612057612004565b5b9250929050565b600080600080600080600080600060c08a8c03121561208157612080611f28565b5b600061208f8c828d01611f8d565b99505060206120a08c828d01611fb9565b98505060406120b18c828d01611fe5565b97505060608a013567ffffffffffffffff8111156120d2576120d1611f2d565b5b6120de8c828d01612009565b965096505060808a013567ffffffffffffffff81111561210157612100611f2d565b5b61210d8c828d01612009565b945094505060a08a013567ffffffffffffffff8111156121305761212f611f2d565b5b61213c8c828d01612009565b92509250509295985092959850929598565b600081519050919050565b600082825260208201905092915050565b60005b8381101561218857808201518184015260208101905061216d565b60008484015250505050565b6000601f19601f8301169050919050565b60006121b08261214e565b6121ba8185612159565b93506121ca81856020860161216a565b6121d381612194565b840191505092915050565b600060208201905081810360008301526121f881846121a5565b905092915050565b600080600080600080600060a0888a03121561221f5761221e611f28565b5b600061222d8a828b01611f8d565b975050602061223e8a828b01611fb9565b965050604061224f8a828b01611fe5565b955050606088013567ffffffffffffffff8111156122705761226f611f2d565b5b61227c8a828b01612009565b9450945050608088013567ffffffffffffffff81111561229f5761229e611f2d565b5b6122ab8a828b01612009565b925092505092959891949750929550565b60008115159050919050565b6122d1816122bc565b82525050565b60006020820190506122ec60008301846122c8565b92915050565b6122fb81611f52565b82525050565b600060208201905061231660008301846122f2565b92915050565b6000819050919050565b600061234161233c61233784611f32565b61231c565b611f32565b9050919050565b600061235382612326565b9050919050565b600061236582612348565b9050919050565b6123758161235a565b82525050565b6000602082019050612390600083018461236c565b92915050565b6000819050919050565b6123a981612396565b82525050565b60006020820190506123c460008301846123a0565b92915050565b600081600b0b9050919050565b6123e0816123ca565b82525050565b60006020820190506123fb60008301846123d7565b92915050565b600061240c82612348565b9050919050565b61241c81612401565b82525050565b600061242d82612348565b9050919050565b61243d81612422565b82525050565b60006040820190506124586000830185612413565b6124656020830184612434565b9392505050565b60006020820190506124816000830184612413565b92915050565b600082825260208201905092915050565b7f5265646972656374416c6c3a206e6f7420616363657074656420746f6b656e00600082015250565b60006124ce601f83612487565b91506124d982612498565b602082019050919050565b600060208201905081810360008301526124fd816124c1565b9050919050565b7f5265646972656374416c6c3a206f6e6c7920434641763120737570706f72746560008201527f6400000000000000000000000000000000000000000000000000000000000000602082015250565b6000612560602183612487565b915061256b82612504565b604082019050919050565b6000602082019050818103600083015261258f81612553565b9050919050565b7f4f6e6c7920686f73742063616e2063616c6c2063616c6c6261636b0000000000600082015250565b60006125cc601b83612487565b91506125d782612596565b602082019050919050565b600060208201905081810360008301526125fb816125bf565b9050919050565b7f556e737570706f727465642063616c6c6261636b202d204265666f726520416760008201527f7265656d656e7420437265617465640000000000000000000000000000000000602082015250565b600061265e602f83612487565b915061266982612602565b604082019050919050565b6000602082019050818103600083015261268d81612651565b9050919050565b7f4f6e6c792062757965722063616e206578656375746500000000000000000000600082015250565b60006126ca601683612487565b91506126d582612694565b602082019050919050565b600060208201905081810360008301526126f9816126bd565b9050919050565b7f43757272656e74207072696365206c6f776572207468616e20737472696b652060008201527f7072696365000000000000000000000000000000000000000000000000000000602082015250565b600061275c602583612487565b915061276782612700565b604082019050919050565b6000602082019050818103600083015261278b8161274f565b9050919050565b61279b81611eb6565b81146127a657600080fd5b50565b6000815190506127b881612792565b92915050565b6000602082840312156127d4576127d3611f28565b5b60006127e2848285016127a9565b91505092915050565b600060408201905061280060008301856122f2565b61280d6020830184611ec0565b9392505050565b61281d816122bc565b811461282857600080fd5b50565b60008151905061283a81612814565b92915050565b60006020828403121561285657612855611f28565b5b60006128648482850161282b565b91505092915050565b7f43757272656e7420707269636520686967686572207468616e20737472696b6560008201527f2070726963650000000000000000000000000000000000000000000000000000602082015250565b60006128c9602683612487565b91506128d48261286d565b604082019050919050565b600060208201905081810360008301526128f8816128bc565b9050919050565b82818337600083830152505050565b600061291a8385612159565b93506129278385846128ff565b61293083612194565b840190509392505050565b6000602082019050818103600083015261295681848661290e565b90509392505050565b600080fd5b7f4e487b7100000000000000000000000000000000000000000000000000000000600052604160045260246000fd5b61299c82612194565b810181811067ffffffffffffffff821117156129bb576129ba612964565b5b80604052505050565b60006129ce611f1e565b90506129da8282612993565b919050565b600080fd5b600060ff82169050919050565b6129fa816129e4565b8114612a0557600080fd5b50565b600081519050612a17816129f1565b92915050565b600081519050612a2c81611fa2565b92915050565b60007fffffffff0000000000000000000000000000000000000000000000000000000082169050919050565b612a6781612a32565b8114612a7257600080fd5b50565b600081519050612a8481612a5e565b92915050565b600080fd5b600067ffffffffffffffff821115612aaa57612aa9612964565b5b612ab382612194565b9050602081019050919050565b6000612ad3612ace84612a8f565b6129c4565b905082815260208101848484011115612aef57612aee612a8a565b5b612afa84828561216a565b509392505050565b600082601f830112612b1757612b16611ffa565b5b8151612b27848260208601612ac0565b91505092915050565b612b3981612396565b8114612b4457600080fd5b50565b600081519050612b5681612b30565b92915050565b6000612b6782611f52565b9050919050565b612b7781612b5c565b8114612b8257600080fd5b50565b600081519050612b9481612b6e565b92915050565b60006101608284031215612bb157612bb061295f565b5b612bbc6101606129c4565b90506000612bcc84828501612a08565b6000830152506020612be084828501612a08565b6020830152506040612bf4848285016127a9565b6040830152506060612c0884828501612a1d565b6060830152506080612c1c84828501612a75565b60808301525060a082015167ffffffffffffffff811115612c4057612c3f6129df565b5b612c4c84828501612b02565b60a08301525060c0612c60848285016127a9565b60c08301525060e0612c74848285016127a9565b60e083015250610100612c8984828501612b47565b61010083015250610120612c9f84828501612a1d565b61012083015250610140612cb584828501612b85565b6101408301525092915050565b600060208284031215612cd857612cd7611f28565b5b600082015167ffffffffffffffff811115612cf657612cf5611f2d565b5b612d0284828501612b9a565b91505092915050565b7f4f6e6c792062757965722063616e20636c6f7365207468652073747265616d2060008201527f6265666f72652074686520657870697279000000000000000000000000000000602082015250565b6000612d67603183612487565b9150612d7282612d0b565b604082019050919050565b60006020820190508181036000830152612d9681612d5a565b9050919050565b7f556e737570706f727465642063616c6c6261636b202d20204265666f7265204160008201527f677265656d656e74205465726d696e6174656400000000000000000000000000602082015250565b6000612df9603383612487565b9150612e0482612d9d565b604082019050919050565b60006020820190508181036000830152612e2881612dec565b9050919050565b7f4f6e6c79206f776e65722063616e206578656375746500000000000000000000600082015250565b6000612e65601683612487565b9150612e7082612e2f565b602082019050919050565b60006020820190508181036000830152612e9481612e58565b9050919050565b7f556e737570706f727465642063616c6c6261636b202d204265666f726520416760008201527f7265656d656e7420757064617465640000000000000000000000000000000000602082015250565b6000612ef7602f83612487565b9150612f0282612e9b565b604082019050919050565b60006020820190508181036000830152612f2681612eea565b9050919050565b600069ffffffffffffffffffff82169050919050565b612f4c81612f2d565b8114612f5757600080fd5b50565b600081519050612f6981612f43565b92915050565b600080600080600060a08688031215612f8b57612f8a611f28565b5b6000612f9988828901612f5a565b9550506020612faa88828901612b47565b9450506040612fbb888289016127a9565b9350506060612fcc888289016127a9565b9250506080612fdd88828901612f5a565b9150509295509295909350565b7f42657420616c726561647920736f6c642c20667265657a6520706572696f642060008201527f6e6f74206f766572000000000000000000000000000000000000000000000000602082015250565b6000613046602883612487565b915061305182612fea565b604082019050919050565b6000602082019050818103600083015261307581613039565b9050919050565b6000606082019050613091600083018661236c565b61309e60208301856122f2565b6130ab60408301846122f2565b949350505050565b6130bc816123ca565b81146130c757600080fd5b50565b6000815190506130d9816130b3565b92915050565b600080600080608085870312156130f9576130f8611f28565b5b6000613107878288016127a9565b9450506020613118878288016130ca565b9350506040613129878288016127a9565b925050606061313a878288016127a9565b91505092959194509250565b7f5061796d656e7420746f6f20736d616c6c000000000000000000000000000000600082015250565b600061317c601183612487565b915061318782613146565b602082019050919050565b600060208201905081810360008301526131ab8161316f565b9050919050565b7f4e487b7100000000000000000000000000000000000000000000000000000000600052601160045260246000fd5b60006131ec82611eb6565b91506131f783611eb6565b925082820190508082111561320f5761320e6131b2565b5b92915050565b60008151905061322481611fce565b92915050565b6000602082840312156132405761323f611f28565b5b600061324e84828501613215565b91505092915050565b600061326282612348565b9050919050565b61327281613257565b82525050565b600060808201905061328d6000830187613269565b61329a60208301866122f2565b6132a760408301856122f2565b81810360608301526132b981846121a5565b905095945050505050565b60006080820190506132d96000830187612434565b81810360208301526132eb81866121a5565b905081810360408301526132ff81856121a5565b9050818103606083015261331381846121a5565b905095945050505050565b6000806040838503121561333557613334611f28565b5b600083015167ffffffffffffffff81111561335357613352611f2d565b5b61335f85828601612b02565b925050602083015167ffffffffffffffff8111156133805761337f611f2d565b5b61338c85828601612b02565b9150509250929050565b60006060820190506133ab6000830186612434565b81810360208301526133bd81856121a5565b905081810360408301526133d181846121a5565b9050949350505050565b6000602082840312156133f1576133f0611f28565b5b600082015167ffffffffffffffff81111561340f5761340e611f2d565b5b61341b84828501612b02565b91505092915050565b60006080820190506134396000830187613269565b61344660208301866122f2565b61345360408301856123d7565b818103606083015261346581846121a5565b90509594505050505056fea2646970667358221220f2127155f457826d3f447829577b79ef72850595f50c0623388fc90b947fa53464736f6c63430008100033",
  "linkReferences": {},
  "deployedLinkReferences": {}
}