{
  "_format": "hh-sol-artifact-1",
  "contractName": "FlowSplitter",
  "sourceName": "contracts/FlowSplitter.sol",
  "abi": [
    {
      "inputs": [
        {
          "internalType": "address[]",
          "name": "_receivers",
          "type": "address[]"
        },
        {
          "internalType": "int96[]",
          "name": "_flows",
          "type": "int96[]"
        },
        {
          "internalType": "contract ISuperToken",
          "name": "_acceptedSuperToken",
          "type": "address"
        },
        {
          "internalType": "contract ISuperfluid",
          "name": "_host",
          "type": "address"
        }
      ],
      "stateMutability": "nonpayable",
      "type": "constructor"
    },
    {
      "inputs": [],
      "name": "NotAcceptedSuperToken",
      "type": "error"
    },
    {
      "inputs": [],
      "name": "NotImplemented",
      "type": "error"
    },
    {
      "inputs": [],
      "name": "UnauthorizedHost",
      "type": "error"
    },
    {
      "inputs": [],
      "name": "CFAV1_TYPE",
      "outputs": [
        {
          "internalType": "bytes32",
          "name": "",
          "type": "bytes32"
        }
      ],
      "stateMutability": "view",
      "type": "function"
    },
    {
      "inputs": [],
      "name": "acceptedSuperToken",
      "outputs": [
        {
          "internalType": "contract ISuperToken",
          "name": "",
          "type": "address"
        }
      ],
      "stateMutability": "view",
      "type": "function"
    },
    {
      "inputs": [
        {
          "internalType": "contract ISuperToken",
          "name": "superToken",
          "type": "address"
        },
        {
          "internalType": "address",
          "name": "agreementClass",
          "type": "address"
        },
        {
          "internalType": "bytes32",
          "name": "",
          "type": "bytes32"
        },
        {
          "internalType": "bytes",
          "name": "agreementData",
          "type": "bytes"
        },
        {
          "internalType": "bytes",
          "name": "",
          "type": "bytes"
        },
        {
          "internalType": "bytes",
          "name": "ctx",
          "type": "bytes"
        }
      ],
      "name": "afterAgreementCreated",
      "outputs": [
        {
          "internalType": "bytes",
          "name": "newCtx",
          "type": "bytes"
        }
      ],
      "stateMutability": "nonpayable",
      "type": "function"
    },
    {
      "inputs": [
        {
          "internalType": "contract ISuperToken",
          "name": "superToken",
          "type": "address"
        },
        {
          "internalType": "address",
          "name": "agreementClass",
          "type": "address"
        },
        {
          "internalType": "bytes32",
          "name": "",
          "type": "bytes32"
        },
        {
          "internalType": "bytes",
          "name": "agreementData",
          "type": "bytes"
        },
        {
          "internalType": "bytes",
          "name": "cbdata",
          "type": "bytes"
        },
        {
          "internalType": "bytes",
          "name": "ctx",
          "type": "bytes"
        }
      ],
      "name": "afterAgreementTerminated",
      "outputs": [
        {
          "internalType": "bytes",
          "name": "newCtx",
          "type": "bytes"
        }
      ],
      "stateMutability": "nonpayable",
      "type": "function"
    },
    {
      "inputs": [
        {
          "internalType": "contract ISuperToken",
          "name": "superToken",
          "type": "address"
        },
        {
          "internalType": "address",
          "name": "agreementClass",
          "type": "address"
        },
        {
          "internalType": "bytes32",
          "name": "",
          "type": "bytes32"
        },
        {
          "internalType": "bytes",
          "name": "agreementData",
          "type": "bytes"
        },
        {
          "internalType": "bytes",
          "name": "cbdata",
          "type": "bytes"
        },
        {
          "internalType": "bytes",
          "name": "ctx",
          "type": "bytes"
        }
      ],
      "name": "afterAgreementUpdated",
      "outputs": [
        {
          "internalType": "bytes",
          "name": "newCtx",
          "type": "bytes"
        }
      ],
      "stateMutability": "nonpayable",
      "type": "function"
    },
    {
      "inputs": [
        {
          "internalType": "contract ISuperToken",
          "name": "",
          "type": "address"
        },
        {
          "internalType": "address",
          "name": "",
          "type": "address"
        },
        {
          "internalType": "bytes32",
          "name": "",
          "type": "bytes32"
        },
        {
          "internalType": "bytes",
          "name": "",
          "type": "bytes"
        },
        {
          "internalType": "bytes",
          "name": "",
          "type": "bytes"
        }
      ],
      "name": "beforeAgreementCreated",
      "outputs": [
        {
          "internalType": "bytes",
          "name": "",
          "type": "bytes"
        }
      ],
      "stateMutability": "pure",
      "type": "function"
    },
    {
      "inputs": [
        {
          "internalType": "contract ISuperToken",
          "name": "superToken",
          "type": "address"
        },
        {
          "internalType": "address",
          "name": "agreementClass",
          "type": "address"
        },
        {
          "internalType": "bytes32",
          "name": "",
          "type": "bytes32"
        },
        {
          "internalType": "bytes",
          "name": "agreementData",
          "type": "bytes"
        },
        {
          "internalType": "bytes",
          "name": "",
          "type": "bytes"
        }
      ],
      "name": "beforeAgreementTerminated",
      "outputs": [
        {
          "internalType": "bytes",
          "name": "",
          "type": "bytes"
        }
      ],
      "stateMutability": "view",
      "type": "function"
    },
    {
      "inputs": [
        {
          "internalType": "contract ISuperToken",
          "name": "superToken",
          "type": "address"
        },
        {
          "internalType": "address",
          "name": "agreementClass",
          "type": "address"
        },
        {
          "internalType": "bytes32",
          "name": "",
          "type": "bytes32"
        },
        {
          "internalType": "bytes",
          "name": "agreementData",
          "type": "bytes"
        },
        {
          "internalType": "bytes",
          "name": "",
          "type": "bytes"
        }
      ],
      "name": "beforeAgreementUpdated",
      "outputs": [
        {
          "internalType": "bytes",
          "name": "",
          "type": "bytes"
        }
      ],
      "stateMutability": "view",
      "type": "function"
    },
    {
      "inputs": [],
      "name": "calcTotalOutflow",
      "outputs": [
        {
          "internalType": "int96",
          "name": "",
          "type": "int96"
        }
      ],
      "stateMutability": "view",
      "type": "function"
    },
    {
      "inputs": [
        {
          "internalType": "address",
          "name": "receiver",
          "type": "address"
        }
      ],
      "name": "getFlowByReceiver",
      "outputs": [
        {
          "internalType": "int96",
          "name": "flow",
          "type": "int96"
        }
      ],
      "stateMutability": "view",
      "type": "function"
    },
    {
      "inputs": [],
      "name": "getReceivers",
      "outputs": [
        {
          "internalType": "address[]",
          "name": "",
          "type": "address[]"
        }
      ],
      "stateMutability": "view",
      "type": "function"
    },
    {
      "inputs": [],
      "name": "host",
      "outputs": [
        {
          "internalType": "contract ISuperfluid",
          "name": "",
          "type": "address"
        }
      ],
      "stateMutability": "view",
      "type": "function"
    },
    {
      "inputs": [
        {
          "internalType": "contract ISuperToken",
          "name": "superToken",
          "type": "address"
        }
      ],
      "name": "isAcceptedSuperToken",
      "outputs": [
        {
          "internalType": "bool",
          "name": "",
          "type": "bool"
        }
      ],
      "stateMutability": "view",
      "type": "function"
    },
    {
      "inputs": [
        {
          "internalType": "address",
          "name": "",
          "type": "address"
        }
      ],
      "name": "splitterToFlow",
      "outputs": [
        {
          "internalType": "int96",
          "name": "",
          "type": "int96"
        }
      ],
      "stateMutability": "view",
      "type": "function"
    },
    {
      "inputs": [],
      "name": "totalShares",
      "outputs": [
        {
          "internalType": "int96",
          "name": "",
          "type": "int96"
        }
      ],
      "stateMutability": "view",
      "type": "function"
    },
    {
      "inputs": [
        {
          "internalType": "int96",
          "name": "newReceiverPortion",
          "type": "int96"
        },
        {
          "internalType": "address",
          "name": "receiver",
          "type": "address"
        }
      ],
      "name": "updateSplit",
      "outputs": [],
      "stateMutability": "nonpayable",
      "type": "function"
    }
  ],
  "bytecode": "0x60806040523480156200001157600080fd5b506040516200459638038062004596833981810160405281019062000037919062000761565b806001806001836000806101000a81548173ffffffffffffffffffffffffffffffffffffffff021916908373ffffffffffffffffffffffffffffffffffffffff16021790555060006401000000006001179050836200009b57640200000000811790505b82620000b35764080000000064040000000017811790505b81620000cb5764200000000064100000000017811790505b8473ffffffffffffffffffffffffffffffffffffffff1663ad3915c8826040518263ffffffff1660e01b81526004016200010691906200082c565b600060405180830381600087803b1580156200012157600080fd5b505af115801562000136573d6000803e3d6000fd5b505050505050505050825184511462000186576040517f08c379a00000000000000000000000000000000000000000000000000000000081526004016200017d90620008aa565b60405180910390fd5b81600160006101000a81548173ffffffffffffffffffffffffffffffffffffffff021916908373ffffffffffffffffffffffffffffffffffffffff1602179055508360039080519060200190620001df92919062000327565b5060005b84518110156200031c57838181518110620002035762000202620008cc565b5b602002602001015160026000878481518110620002255762000224620008cc565b5b602002602001015173ffffffffffffffffffffffffffffffffffffffff1673ffffffffffffffffffffffffffffffffffffffff16815260200190815260200160002060006101000a8154816bffffffffffffffffffffffff0219169083600b0b6bffffffffffffffffffffffff160217905550838181518110620002ae57620002ad620008cc565b5b6020026020010151600460008282829054906101000a9004600b0b620002d591906200092a565b92506101000a8154816bffffffffffffffffffffffff0219169083600b0b6bffffffffffffffffffffffff1602179055508080620003139062000995565b915050620001e3565b5050505050620009e2565b828054828255906000526020600020908101928215620003a3579160200282015b82811115620003a25782518260006101000a81548173ffffffffffffffffffffffffffffffffffffffff021916908373ffffffffffffffffffffffffffffffffffffffff1602179055509160200191906001019062000348565b5b509050620003b29190620003b6565b5090565b5b80821115620003d1576000816000905550600101620003b7565b5090565b6000604051905090565b600080fd5b600080fd5b600080fd5b6000601f19601f8301169050919050565b7f4e487b7100000000000000000000000000000000000000000000000000000000600052604160045260246000fd5b6200043982620003ee565b810181811067ffffffffffffffff821117156200045b576200045a620003ff565b5b80604052505050565b600062000470620003d5565b90506200047e82826200042e565b919050565b600067ffffffffffffffff821115620004a157620004a0620003ff565b5b602082029050602081019050919050565b600080fd5b600073ffffffffffffffffffffffffffffffffffffffff82169050919050565b6000620004e482620004b7565b9050919050565b620004f681620004d7565b81146200050257600080fd5b50565b6000815190506200051681620004eb565b92915050565b6000620005336200052d8462000483565b62000464565b90508083825260208201905060208402830185811115620005595762000558620004b2565b5b835b8181101562000586578062000571888262000505565b8452602084019350506020810190506200055b565b5050509392505050565b600082601f830112620005a857620005a7620003e9565b5b8151620005ba8482602086016200051c565b91505092915050565b600067ffffffffffffffff821115620005e157620005e0620003ff565b5b602082029050602081019050919050565b600081600b0b9050919050565b6200060a81620005f2565b81146200061657600080fd5b50565b6000815190506200062a81620005ff565b92915050565b6000620006476200064184620005c3565b62000464565b905080838252602082019050602084028301858111156200066d576200066c620004b2565b5b835b818110156200069a578062000685888262000619565b8452602084019350506020810190506200066f565b5050509392505050565b600082601f830112620006bc57620006bb620003e9565b5b8151620006ce84826020860162000630565b91505092915050565b6000620006e482620004d7565b9050919050565b620006f681620006d7565b81146200070257600080fd5b50565b6000815190506200071681620006eb565b92915050565b60006200072982620004d7565b9050919050565b6200073b816200071c565b81146200074757600080fd5b50565b6000815190506200075b8162000730565b92915050565b600080600080608085870312156200077e576200077d620003df565b5b600085015167ffffffffffffffff8111156200079f576200079e620003e4565b5b620007ad8782880162000590565b945050602085015167ffffffffffffffff811115620007d157620007d0620003e4565b5b620007df87828801620006a4565b9350506040620007f28782880162000705565b925050606062000805878288016200074a565b91505092959194509250565b6000819050919050565b620008268162000811565b82525050565b60006020820190506200084360008301846200081b565b92915050565b600082825260208201905092915050565b7f416c6c20726563656976657273206d7573742068617665206120666c6f770000600082015250565b600062000892601e8362000849565b91506200089f826200085a565b602082019050919050565b60006020820190508181036000830152620008c58162000883565b9050919050565b7f4e487b7100000000000000000000000000000000000000000000000000000000600052603260045260246000fd5b7f4e487b7100000000000000000000000000000000000000000000000000000000600052601160045260246000fd5b60006200093782620005f2565b91506200094483620005f2565b925082820190507fffffffffffffffffffffffffffffffffffffffff80000000000000000000000081126b7fffffffffffffffffffffff821317156200098f576200098e620008fb565b5b92915050565b6000620009a28262000811565b91507fffffffffffffffffffffffffffffffffffffffffffffffffffffffffffffffff8203620009d757620009d6620008fb565b5b600182019050919050565b613ba480620009f26000396000f3fe608060405234801561001057600080fd5b50600436106101005760003560e01c806372ca8a3e11610097578063d86ed3e511610066578063d86ed3e5146102fb578063e061646b1461032b578063f437bc5914610349578063f59260911461036757610100565b806372ca8a3e1461024d578063884d1f401461027d578063bcb4546f146102ad578063be59fbe8146102cb57610100565b80633a98ef39116100d35780633a98ef39146101b357806349a74d1e146101d157806353c11f99146101ed5780635f9e7d771461021d57610100565b80630134e06114610105578063230dbd291461012357806330d9c91514610153578063396ef09314610183575b600080fd5b61010d610385565b60405161011a9190612b7c565b60405180910390f35b61013d60048036038101906101389190612ce2565b61044b565b60405161014a9190612e61565b60405180910390f35b61016d60048036038101906101689190612e83565b6105b5565b60405161017a9190612e61565b60405180910390f35b61019d60048036038101906101989190612f3f565b6105fa565b6040516101aa9190612b7c565b60405180910390f35b6101bb61061a565b6040516101c89190612b7c565b60405180910390f35b6101eb60048036038101906101e69190612f98565b61062d565b005b61020760048036038101906102029190612ce2565b610bbd565b6040516102149190612e61565b60405180910390f35b61023760048036038101906102329190612e83565b610cd1565b6040516102449190612e61565b60405180910390f35b61026760048036038101906102629190612fd8565b610e05565b6040516102749190613020565b60405180910390f35b61029760048036038101906102929190612e83565b610e5f565b6040516102a49190612e61565b60405180910390f35b6102b5610fea565b6040516102c2919061304a565b60405180910390f35b6102e560048036038101906102e09190612f3f565b61100e565b6040516102f29190612b7c565b60405180910390f35b61031560048036038101906103109190612ce2565b611064565b6040516103229190612e61565b60405180910390f35b6103336111b4565b6040516103409190613123565b60405180910390f35b610351611242565b60405161035e91906131a4565b60405180910390f35b61036f611266565b60405161037c91906131e0565b60405180910390f35b60008060005b6003805490508110156104435761042330600383815481106103b0576103af6131fb565b5b9060005260206000200160009054906101000a900473ffffffffffffffffffffffffffffffffffffffff16600160009054906101000a900473ffffffffffffffffffffffffffffffffffffffff1673ffffffffffffffffffffffffffffffffffffffff1661128c9092919063ffffffff16565b8261042e9190613259565b9150808061043b906132c7565b91505061038b565b508091505090565b606060008054906101000a900473ffffffffffffffffffffffffffffffffffffffff1673ffffffffffffffffffffffffffffffffffffffff163373ffffffffffffffffffffffffffffffffffffffff16146104d2576040517f2f2d36a700000000000000000000000000000000000000000000000000000000815260040160405180910390fd5b6104db8961132c565b61052b5782828080601f016020809104026020016040519081016040528093929190818152602001838380828437600081840152601f19601f8201169050808301925050505050505090506105a8565b6105348a610e05565b61056a576040517ff512dd5800000000000000000000000000000000000000000000000000000000815260040160405180910390fd5b6000878781019061057b919061334d565b509050600080878781019061059091906133b9565b915091506105a28d8484848a8a61141e565b93505050505b9998505050505050505050565b60606040518060400160405280600281526020017f30780000000000000000000000000000000000000000000000000000000000008152509050979650505050505050565b60026020528060005260406000206000915054906101000a9004600b0b81565b600460009054906101000a9004600b0b81565b6000610637610385565b9050600260008373ffffffffffffffffffffffffffffffffffffffff1673ffffffffffffffffffffffffffffffffffffffff16815260200190815260200160002060009054906101000a9004600b0b8361069191906133f9565b600460008282829054906101000a9004600b0b6106ae9190613259565b92506101000a8154816bffffffffffffffffffffffff0219169083600b0b6bffffffffffffffffffffffff16021790555082600260008473ffffffffffffffffffffffffffffffffffffffff1673ffffffffffffffffffffffffffffffffffffffff16815260200190815260200160002060006101000a8154816bffffffffffffffffffffffff0219169083600b0b6bffffffffffffffffffffffff160217905550600083600b0b036109335760005b6003805490508110156108e3578273ffffffffffffffffffffffffffffffffffffffff1660038281548110610796576107956131fb565b5b9060005260206000200160009054906101000a900473ffffffffffffffffffffffffffffffffffffffff1673ffffffffffffffffffffffffffffffffffffffff16036108d057600360016003805490506107f0919061345d565b81548110610801576108006131fb565b5b9060005260206000200160009054906101000a900473ffffffffffffffffffffffffffffffffffffffff16600382815481106108405761083f6131fb565b5b9060005260206000200160006101000a81548173ffffffffffffffffffffffffffffffffffffffff021916908373ffffffffffffffffffffffffffffffffffffffff160217905550600380548061089a57610899613491565b5b6001900381819060005260206000200160006101000a81549073ffffffffffffffffffffffffffffffffffffffff021916905590555b80806108db906132c7565b91505061075e565b506109313083600160009054906101000a900473ffffffffffffffffffffffffffffffffffffffff1673ffffffffffffffffffffffffffffffffffffffff1661163d9092919063ffffffff16565b505b600080600090505b600380549050811015610ac857610a3e6003828154811061095f5761095e6131fb565b5b9060005260206000200160009054906101000a900473ffffffffffffffffffffffffffffffffffffffff16600460009054906101000a9004600b0b6109e1600385815481106109b1576109b06131fb565b5b9060005260206000200160009054906101000a900473ffffffffffffffffffffffffffffffffffffffff1661100e565b866109ec91906134c0565b6109f6919061352c565b600160009054906101000a900473ffffffffffffffffffffffffffffffffffffffff1673ffffffffffffffffffffffffffffffffffffffff166116a19092919063ffffffff16565b508373ffffffffffffffffffffffffffffffffffffffff1660038281548110610a6a57610a696131fb565b5b9060005260206000200160009054906101000a900473ffffffffffffffffffffffffffffffffffffffff1673ffffffffffffffffffffffffffffffffffffffff1603610ab557600191505b8080610ac0906132c7565b91505061093b565b5080158015610adb5750600084600b0b14155b15610bb757610b5283600460009054906101000a9004600b0b8685610b0091906134c0565b610b0a919061352c565b600160009054906101000a900473ffffffffffffffffffffffffffffffffffffffff1673ffffffffffffffffffffffffffffffffffffffff166117059092919063ffffffff16565b506003839080600181540180825580915050600190039060005260206000200160009091909190916101000a81548173ffffffffffffffffffffffffffffffffffffffff021916908373ffffffffffffffffffffffffffffffffffffffff1602179055505b50505050565b606060008054906101000a900473ffffffffffffffffffffffffffffffffffffffff1673ffffffffffffffffffffffffffffffffffffffff163373ffffffffffffffffffffffffffffffffffffffff16141580610c205750610c1e8961132c565b155b80610c315750610c2f8a610e05565b155b15610c825782828080601f016020809104026020016040519081016040528093929190818152602001838380828437600081840152601f19601f820116905080830192505050505050509050610cc4565b6000808888810190610c94919061334d565b915091506000808888810190610caa9190613596565b91509150610cbd8e858584868c8c611769565b9450505050505b9998505050505050505050565b606060008054906101000a900473ffffffffffffffffffffffffffffffffffffffff1673ffffffffffffffffffffffffffffffffffffffff163373ffffffffffffffffffffffffffffffffffffffff16141580610d345750610d328761132c565b155b80610d455750610d4388610e05565b155b15610d87576040518060400160405280600281526020017f30780000000000000000000000000000000000000000000000000000000000008152509050610dfa565b6000808686810190610d99919061334d565b91509150600080610dcb84848e73ffffffffffffffffffffffffffffffffffffffff166119fa9092919063ffffffff16565b5050915091508181604051602001610de49291906135e5565b6040516020818303038152906040529450505050505b979650505050505050565b6000600160009054906101000a900473ffffffffffffffffffffffffffffffffffffffff1673ffffffffffffffffffffffffffffffffffffffff168273ffffffffffffffffffffffffffffffffffffffff16149050919050565b606060008054906101000a900473ffffffffffffffffffffffffffffffffffffffff1673ffffffffffffffffffffffffffffffffffffffff163373ffffffffffffffffffffffffffffffffffffffff1614610ee6576040517f2f2d36a700000000000000000000000000000000000000000000000000000000815260040160405180910390fd5b610eef8761132c565b610f30576040518060400160405280600281526020017f30780000000000000000000000000000000000000000000000000000000000008152509050610fdf565b610f3988610e05565b610f6f576040517ff512dd5800000000000000000000000000000000000000000000000000000000815260040160405180910390fd5b60008585810190610f80919061334d565b509050600080610fb183308d73ffffffffffffffffffffffffffffffffffffffff166119fa9092919063ffffffff16565b5050915091508082604051602001610fca92919061360e565b60405160208183030381529060405293505050505b979650505050505050565b7fa9214cc96615e0085d3bb077758db69497dc2dce3b2b1e97bc93c3d18d83efd381565b6000600260008373ffffffffffffffffffffffffffffffffffffffff1673ffffffffffffffffffffffffffffffffffffffff16815260200190815260200160002060009054906101000a9004600b0b9050919050565b606060008054906101000a900473ffffffffffffffffffffffffffffffffffffffff1673ffffffffffffffffffffffffffffffffffffffff163373ffffffffffffffffffffffffffffffffffffffff16146110eb576040517f2f2d36a700000000000000000000000000000000000000000000000000000000815260040160405180910390fd5b6110f48961132c565b6111445782828080601f016020809104026020016040519081016040528093929190818152602001838380828437600081840152601f19601f8201169050808301925050505050505090506111a7565b61114d8a610e05565b611183576040517ff512dd5800000000000000000000000000000000000000000000000000000000815260040160405180910390fd5b60008787810190611194919061334d565b5090506111a38b828686611aa6565b9150505b9998505050505050505050565b6060600380548060200260200160405190810160405280929190818152602001828054801561123857602002820191906000526020600020905b8160009054906101000a900473ffffffffffffffffffffffffffffffffffffffff1673ffffffffffffffffffffffffffffffffffffffff16815260200190600101908083116111ee575b5050505050905090565b60008054906101000a900473ffffffffffffffffffffffffffffffffffffffff1681565b600160009054906101000a900473ffffffffffffffffffffffffffffffffffffffff1681565b60008061129885611e2e565b9150508073ffffffffffffffffffffffffffffffffffffffff1663e6a1e8888686866040518463ffffffff1660e01b81526004016112d893929190613646565b608060405180830381865afa1580156112f5573d6000803e3d6000fd5b505050506040513d601f19601f8201168201806040525081019061131991906136a7565b9091925090505080925050509392505050565b60008060009054906101000a900473ffffffffffffffffffffffffffffffffffffffff1673ffffffffffffffffffffffffffffffffffffffff1663b6d200de7fa9214cc96615e0085d3bb077758db69497dc2dce3b2b1e97bc93c3d18d83efd36040518263ffffffff1660e01b81526004016113a8919061304a565b602060405180830381865afa1580156113c5573d6000803e3d6000fd5b505050506040513d601f19601f820116820180604052508101906113e9919061374c565b73ffffffffffffffffffffffffffffffffffffffff168273ffffffffffffffffffffffffffffffffffffffff16149050919050565b606082828080601f016020809104026020016040519081016040528093929190818152602001838380828437600081840152601f19601f82011690508083019250505050505050905060008561149588308b73ffffffffffffffffffffffffffffffffffffffff1661128c9092919063ffffffff16565b61149f91906133f9565b905060005b6003805490508110156116315761161c600382815481106114c8576114c76131fb565b5b9060005260206000200160009054906101000a900473ffffffffffffffffffffffffffffffffffffffff16600460009054906101000a9004600b0b61154a6003858154811061151a576115196131fb565b5b9060005260206000200160009054906101000a900473ffffffffffffffffffffffffffffffffffffffff1661100e565b8561155591906134c0565b61155f919061352c565b6115ea3060038681548110611577576115766131fb565b5b9060005260206000200160009054906101000a900473ffffffffffffffffffffffffffffffffffffffff16600160009054906101000a900473ffffffffffffffffffffffffffffffffffffffff1673ffffffffffffffffffffffffffffffffffffffff1661128c9092919063ffffffff16565b6115f49190613259565b858c73ffffffffffffffffffffffffffffffffffffffff1661206f909392919063ffffffff16565b92508080611629906132c7565b9150506114a4565b50509695505050505050565b6000611698848484600067ffffffffffffffff8111156116605761165f613779565b5b6040519080825280601f01601f1916602001820160405280156116925781602001600182028036833780820191505090505b506121d6565b90509392505050565b60006116fc848484600067ffffffffffffffff8111156116c4576116c3613779565b5b6040519080825280601f01601f1916602001820160405280156116f65781602001600182028036833780820191505090505b5061233d565b90509392505050565b6000611760848484600067ffffffffffffffff81111561172857611727613779565b5b6040519080825280601f01601f19166020018201604052801561175a5781602001600182028036833780820191505090505b506124a4565b90509392505050565b606082828080601f016020809104026020016040519081016040528093929190818152602001838380828437600081840152601f19601f8201169050808301925050505050505090506000856117bd610385565b6117c791906133f9565b90506000600260008973ffffffffffffffffffffffffffffffffffffffff1673ffffffffffffffffffffffffffffffffffffffff16815260200190815260200160002060009054906101000a9004600b0b600b0b146118505761184d8787848c73ffffffffffffffffffffffffffffffffffffffff1661260b909392919063ffffffff16565b91505b600081600b0b136118f15760005b6003805490508110156118eb576118d63060038381548110611883576118826131fb565b5b9060005260206000200160009054906101000a900473ffffffffffffffffffffffffffffffffffffffff16858d73ffffffffffffffffffffffffffffffffffffffff16612772909392919063ffffffff16565b925080806118e3906132c7565b91505061185e565b506119ee565b60005b6003805490508110156119ec576119d760038281548110611918576119176131fb565b5b9060005260206000200160009054906101000a900473ffffffffffffffffffffffffffffffffffffffff16600460009054906101000a9004600b0b61199a6003858154811061196a576119696131fb565b5b9060005260206000200160009054906101000a900473ffffffffffffffffffffffffffffffffffffffff1661100e565b856119a591906134c0565b6119af919061352c565b858d73ffffffffffffffffffffffffffffffffffffffff1661206f909392919063ffffffff16565b925080806119e4906132c7565b9150506118f4565b505b50979650505050505050565b6000806000806000611a0b88611e2e565b9150508073ffffffffffffffffffffffffffffffffffffffff1663e6a1e8888989896040518463ffffffff1660e01b8152600401611a4b93929190613646565b608060405180830381865afa158015611a68573d6000803e3d6000fd5b505050506040513d601f19601f82011682018060405250810190611a8c91906136a7565b809550819650829750839850505050505093509350935093565b606082828080601f016020809104026020016040519081016040528093929190818152602001838380828437600081840152601f19601f8201169050808301925050505050505090506000611b1c85308873ffffffffffffffffffffffffffffffffffffffff1661128c9092919063ffffffff16565b90506000611b8a306003600081548110611b3957611b386131fb565b5b9060005260206000200160009054906101000a900473ffffffffffffffffffffffffffffffffffffffff168973ffffffffffffffffffffffffffffffffffffffff1661128c9092919063ffffffff16565b600b0b03611c935760005b600380549050811015611c8d57611c7860038281548110611bb957611bb86131fb565b5b9060005260206000200160009054906101000a900473ffffffffffffffffffffffffffffffffffffffff16600460009054906101000a9004600b0b611c3b60038581548110611c0b57611c0a6131fb565b5b9060005260206000200160009054906101000a900473ffffffffffffffffffffffffffffffffffffffff1661100e565b85611c4691906134c0565b611c50919061352c565b858a73ffffffffffffffffffffffffffffffffffffffff1661260b909392919063ffffffff16565b92508080611c85906132c7565b915050611b95565b50611e25565b60005b600380549050811015611e2357611e0e60038281548110611cba57611cb96131fb565b5b9060005260206000200160009054906101000a900473ffffffffffffffffffffffffffffffffffffffff16600460009054906101000a9004600b0b611d3c60038581548110611d0c57611d0b6131fb565b5b9060005260206000200160009054906101000a900473ffffffffffffffffffffffffffffffffffffffff1661100e565b85611d4791906134c0565b611d51919061352c565b611ddc3060038681548110611d6957611d686131fb565b5b9060005260206000200160009054906101000a900473ffffffffffffffffffffffffffffffffffffffff16600160009054906101000a900473ffffffffffffffffffffffffffffffffffffffff1673ffffffffffffffffffffffffffffffffffffffff1661128c9092919063ffffffff16565b611de69190613259565b858a73ffffffffffffffffffffffffffffffffffffffff1661206f909392919063ffffffff16565b92508080611e1b906132c7565b915050611c96565b505b50949350505050565b6000807f65599bf746e17a00ea62e3610586992d88101b78eec3cf380706621fb97ea8375491507fb969d79d88acd02d04ed7ee7d43b949e7daf093d363abcfbbc43dfdfd1ce969a549050600073ffffffffffffffffffffffffffffffffffffffff168173ffffffffffffffffffffffffffffffffffffffff1603611ff057600073ffffffffffffffffffffffffffffffffffffffff168273ffffffffffffffffffffffffffffffffffffffff1603611f53578273ffffffffffffffffffffffffffffffffffffffff166320bc44256040518163ffffffff1660e01b8152600401602060405180830381865afa158015611f2c573d6000803e3d6000fd5b505050506040513d601f19601f82011682018060405250810190611f5091906137bd565b91505b8173ffffffffffffffffffffffffffffffffffffffff1663b6d200de7fa9214cc96615e0085d3bb077758db69497dc2dce3b2b1e97bc93c3d18d83efd36040518263ffffffff1660e01b8152600401611fac919061304a565b602060405180830381865afa158015611fc9573d6000803e3d6000fd5b505050506040513d601f19601f82011682018060405250810190611fed919061374c565b90505b600073ffffffffffffffffffffffffffffffffffffffff168273ffffffffffffffffffffffffffffffffffffffff160361202d5761202c6137ea565b5b600073ffffffffffffffffffffffffffffffffffffffff168173ffffffffffffffffffffffffffffffffffffffff160361206a576120696137ea565b5b915091565b606060008061207d876128d9565b915091508173ffffffffffffffffffffffffffffffffffffffff16634329d293828373ffffffffffffffffffffffffffffffffffffffff166350209a628b8b8b600067ffffffffffffffff8111156120d8576120d7613779565b5b6040519080825280601f01601f19166020018201604052801561210a5781602001600182028036833780820191505090505b5060405160240161211e9493929190613819565b604051602081830303815290604052915060e01b6020820180517bffffffffffffffffffffffffffffffffffffffffffffffffffffffff8381831617835250505050876040518463ffffffff1660e01b815260040161217f939291906138d2565b6000604051808303816000875af115801561219e573d6000803e3d6000fd5b505050506040513d6000823e3d601f19601f820116820180604052508101906121c79190613a1c565b50809350505050949350505050565b60008060006121e4876128d9565b915091508173ffffffffffffffffffffffffffffffffffffffff166339255d5b828373ffffffffffffffffffffffffffffffffffffffff1663b4b333c68b8b8b600067ffffffffffffffff81111561223f5761223e613779565b5b6040519080825280601f01601f1916602001820160405280156122715781602001600182028036833780820191505090505b506040516024016122859493929190613a94565b604051602081830303815290604052915060e01b6020820180517bffffffffffffffffffffffffffffffffffffffffffffffffffffffff8381831617835250505050876040518463ffffffff1660e01b81526004016122e693929190613ae0565b6000604051808303816000875af1158015612305573d6000803e3d6000fd5b505050506040513d6000823e3d601f19601f8201168201806040525081019061232e9190613b25565b50600192505050949350505050565b600080600061234b876128d9565b915091508173ffffffffffffffffffffffffffffffffffffffff166339255d5b828373ffffffffffffffffffffffffffffffffffffffff166350209a628b8b8b600067ffffffffffffffff8111156123a6576123a5613779565b5b6040519080825280601f01601f1916602001820160405280156123d85781602001600182028036833780820191505090505b506040516024016123ec9493929190613819565b604051602081830303815290604052915060e01b6020820180517bffffffffffffffffffffffffffffffffffffffffffffffffffffffff8381831617835250505050876040518463ffffffff1660e01b815260040161244d93929190613ae0565b6000604051808303816000875af115801561246c573d6000803e3d6000fd5b505050506040513d6000823e3d601f19601f820116820180604052508101906124959190613b25565b50600192505050949350505050565b60008060006124b2876128d9565b915091508173ffffffffffffffffffffffffffffffffffffffff166339255d5b828373ffffffffffffffffffffffffffffffffffffffff166362fc305e8b8b8b600067ffffffffffffffff81111561250d5761250c613779565b5b6040519080825280601f01601f19166020018201604052801561253f5781602001600182028036833780820191505090505b506040516024016125539493929190613819565b604051602081830303815290604052915060e01b6020820180517bffffffffffffffffffffffffffffffffffffffffffffffffffffffff8381831617835250505050876040518463ffffffff1660e01b81526004016125b493929190613ae0565b6000604051808303816000875af11580156125d3573d6000803e3d6000fd5b505050506040513d6000823e3d601f19601f820116820180604052508101906125fc9190613b25565b50600192505050949350505050565b6060600080612619876128d9565b915091508173ffffffffffffffffffffffffffffffffffffffff16634329d293828373ffffffffffffffffffffffffffffffffffffffff166362fc305e8b8b8b600067ffffffffffffffff81111561267457612673613779565b5b6040519080825280601f01601f1916602001820160405280156126a65781602001600182028036833780820191505090505b506040516024016126ba9493929190613819565b604051602081830303815290604052915060e01b6020820180517bffffffffffffffffffffffffffffffffffffffffffffffffffffffff8381831617835250505050876040518463ffffffff1660e01b815260040161271b939291906138d2565b6000604051808303816000875af115801561273a573d6000803e3d6000fd5b505050506040513d6000823e3d601f19601f820116820180604052508101906127639190613a1c565b50809350505050949350505050565b6060600080612780876128d9565b915091508173ffffffffffffffffffffffffffffffffffffffff16634329d293828373ffffffffffffffffffffffffffffffffffffffff1663b4b333c68b8b8b600067ffffffffffffffff8111156127db576127da613779565b5b6040519080825280601f01601f19166020018201604052801561280d5781602001600182028036833780820191505090505b506040516024016128219493929190613a94565b604051602081830303815290604052915060e01b6020820180517bffffffffffffffffffffffffffffffffffffffffffffffffffffffff8381831617835250505050876040518463ffffffff1660e01b8152600401612882939291906138d2565b6000604051808303816000875af11580156128a1573d6000803e3d6000fd5b505050506040513d6000823e3d601f19601f820116820180604052508101906128ca9190613a1c565b50809350505050949350505050565b6000807f65599bf746e17a00ea62e3610586992d88101b78eec3cf380706621fb97ea8375491507fb969d79d88acd02d04ed7ee7d43b949e7daf093d363abcfbbc43dfdfd1ce969a549050600073ffffffffffffffffffffffffffffffffffffffff168173ffffffffffffffffffffffffffffffffffffffff1603612ae157600073ffffffffffffffffffffffffffffffffffffffff168273ffffffffffffffffffffffffffffffffffffffff16036129fe578273ffffffffffffffffffffffffffffffffffffffff166320bc44256040518163ffffffff1660e01b8152600401602060405180830381865afa1580156129d7573d6000803e3d6000fd5b505050506040513d601f19601f820116820180604052508101906129fb91906137bd565b91505b8173ffffffffffffffffffffffffffffffffffffffff1663b6d200de7fa9214cc96615e0085d3bb077758db69497dc2dce3b2b1e97bc93c3d18d83efd36040518263ffffffff1660e01b8152600401612a57919061304a565b602060405180830381865afa158015612a74573d6000803e3d6000fd5b505050506040513d601f19601f82011682018060405250810190612a98919061374c565b9050817f65599bf746e17a00ea62e3610586992d88101b78eec3cf380706621fb97ea83755807fb969d79d88acd02d04ed7ee7d43b949e7daf093d363abcfbbc43dfdfd1ce969a555b600073ffffffffffffffffffffffffffffffffffffffff168273ffffffffffffffffffffffffffffffffffffffff1603612b1e57612b1d6137ea565b5b600073ffffffffffffffffffffffffffffffffffffffff168173ffffffffffffffffffffffffffffffffffffffff1603612b5b57612b5a6137ea565b5b915091565b600081600b0b9050919050565b612b7681612b60565b82525050565b6000602082019050612b916000830184612b6d565b92915050565b6000604051905090565b600080fd5b600080fd5b600073ffffffffffffffffffffffffffffffffffffffff82169050919050565b6000612bd682612bab565b9050919050565b6000612be882612bcb565b9050919050565b612bf881612bdd565b8114612c0357600080fd5b50565b600081359050612c1581612bef565b92915050565b612c2481612bcb565b8114612c2f57600080fd5b50565b600081359050612c4181612c1b565b92915050565b6000819050919050565b612c5a81612c47565b8114612c6557600080fd5b50565b600081359050612c7781612c51565b92915050565b600080fd5b600080fd5b600080fd5b60008083601f840112612ca257612ca1612c7d565b5b8235905067ffffffffffffffff811115612cbf57612cbe612c82565b5b602083019150836001820283011115612cdb57612cda612c87565b5b9250929050565b600080600080600080600080600060c08a8c031215612d0457612d03612ba1565b5b6000612d128c828d01612c06565b9950506020612d238c828d01612c32565b9850506040612d348c828d01612c68565b97505060608a013567ffffffffffffffff811115612d5557612d54612ba6565b5b612d618c828d01612c8c565b965096505060808a013567ffffffffffffffff811115612d8457612d83612ba6565b5b612d908c828d01612c8c565b945094505060a08a013567ffffffffffffffff811115612db357612db2612ba6565b5b612dbf8c828d01612c8c565b92509250509295985092959850929598565b600081519050919050565b600082825260208201905092915050565b60005b83811015612e0b578082015181840152602081019050612df0565b60008484015250505050565b6000601f19601f8301169050919050565b6000612e3382612dd1565b612e3d8185612ddc565b9350612e4d818560208601612ded565b612e5681612e17565b840191505092915050565b60006020820190508181036000830152612e7b8184612e28565b905092915050565b600080600080600080600060a0888a031215612ea257612ea1612ba1565b5b6000612eb08a828b01612c06565b9750506020612ec18a828b01612c32565b9650506040612ed28a828b01612c68565b955050606088013567ffffffffffffffff811115612ef357612ef2612ba6565b5b612eff8a828b01612c8c565b9450945050608088013567ffffffffffffffff811115612f2257612f21612ba6565b5b612f2e8a828b01612c8c565b925092505092959891949750929550565b600060208284031215612f5557612f54612ba1565b5b6000612f6384828501612c32565b91505092915050565b612f7581612b60565b8114612f8057600080fd5b50565b600081359050612f9281612f6c565b92915050565b60008060408385031215612faf57612fae612ba1565b5b6000612fbd85828601612f83565b9250506020612fce85828601612c32565b9150509250929050565b600060208284031215612fee57612fed612ba1565b5b6000612ffc84828501612c06565b91505092915050565b60008115159050919050565b61301a81613005565b82525050565b60006020820190506130356000830184613011565b92915050565b61304481612c47565b82525050565b600060208201905061305f600083018461303b565b92915050565b600081519050919050565b600082825260208201905092915050565b6000819050602082019050919050565b61309a81612bcb565b82525050565b60006130ac8383613091565b60208301905092915050565b6000602082019050919050565b60006130d082613065565b6130da8185613070565b93506130e583613081565b8060005b838110156131165781516130fd88826130a0565b9750613108836130b8565b9250506001810190506130e9565b5085935050505092915050565b6000602082019050818103600083015261313d81846130c5565b905092915050565b6000819050919050565b600061316a61316561316084612bab565b613145565b612bab565b9050919050565b600061317c8261314f565b9050919050565b600061318e82613171565b9050919050565b61319e81613183565b82525050565b60006020820190506131b96000830184613195565b92915050565b60006131ca82613171565b9050919050565b6131da816131bf565b82525050565b60006020820190506131f560008301846131d1565b92915050565b7f4e487b7100000000000000000000000000000000000000000000000000000000600052603260045260246000fd5b7f4e487b7100000000000000000000000000000000000000000000000000000000600052601160045260246000fd5b600061326482612b60565b915061326f83612b60565b925082820190507fffffffffffffffffffffffffffffffffffffffff80000000000000000000000081126b7fffffffffffffffffffffff821317156132b7576132b661322a565b5b92915050565b6000819050919050565b60006132d2826132bd565b91507fffffffffffffffffffffffffffffffffffffffffffffffffffffffffffffffff82036133045761330361322a565b5b600182019050919050565b600061331a82612bab565b9050919050565b61332a8161330f565b811461333557600080fd5b50565b60008135905061334781613321565b92915050565b6000806040838503121561336457613363612ba1565b5b600061337285828601613338565b925050602061338385828601613338565b9150509250929050565b613396816132bd565b81146133a157600080fd5b50565b6000813590506133b38161338d565b92915050565b600080604083850312156133d0576133cf612ba1565b5b60006133de85828601612f83565b92505060206133ef858286016133a4565b9150509250929050565b600061340482612b60565b915061340f83612b60565b925082820390506b7fffffffffffffffffffffff81137fffffffffffffffffffffffffffffffffffffffff800000000000000000000000821217156134575761345661322a565b5b92915050565b6000613468826132bd565b9150613473836132bd565b925082820390508181111561348b5761348a61322a565b5b92915050565b7f4e487b7100000000000000000000000000000000000000000000000000000000600052603160045260246000fd5b60006134cb82612b60565b91506134d683612b60565b92508282026134e481612b60565b91508082146134f6576134f561322a565b5b5092915050565b7f4e487b7100000000000000000000000000000000000000000000000000000000600052601260045260246000fd5b600061353782612b60565b915061354283612b60565b925082613552576135516134fd565b5b600160000383147fffffffffffffffffffffffffffffffffffffffff8000000000000000000000008314161561358b5761358a61322a565b5b828205905092915050565b600080604083850312156135ad576135ac612ba1565b5b60006135bb858286016133a4565b92505060206135cc85828601612f83565b9150509250929050565b6135df816132bd565b82525050565b60006040820190506135fa60008301856135d6565b6136076020830184612b6d565b9392505050565b60006040820190506136236000830185612b6d565b61363060208301846135d6565b9392505050565b61364081612bcb565b82525050565b600060608201905061365b60008301866131d1565b6136686020830185613637565b6136756040830184613637565b949350505050565b60008151905061368c8161338d565b92915050565b6000815190506136a181612f6c565b92915050565b600080600080608085870312156136c1576136c0612ba1565b5b60006136cf8782880161367d565b94505060206136e087828801613692565b93505060406136f18782880161367d565b92505060606137028782880161367d565b91505092959194509250565b600061371982612bcb565b9050919050565b6137298161370e565b811461373457600080fd5b50565b60008151905061374681613720565b92915050565b60006020828403121561376257613761612ba1565b5b600061377084828501613737565b91505092915050565b7f4e487b7100000000000000000000000000000000000000000000000000000000600052604160045260246000fd5b6000815190506137b781612c1b565b92915050565b6000602082840312156137d3576137d2612ba1565b5b60006137e1848285016137a8565b91505092915050565b7f4e487b7100000000000000000000000000000000000000000000000000000000600052600160045260246000fd5b600060808201905061382e60008301876131d1565b61383b6020830186613637565b6138486040830185612b6d565b818103606083015261385a8184612e28565b905095945050505050565b600061387082613171565b9050919050565b61388081613865565b82525050565b7f3078000000000000000000000000000000000000000000000000000000000000600082015250565b60006138bc600283612ddc565b91506138c782613886565b602082019050919050565b60006080820190506138e76000830186613877565b81810360208301526138f98185612e28565b9050818103604083015261390c816138af565b905081810360608301526139208184612e28565b9050949350505050565b600080fd5b61393882612e17565b810181811067ffffffffffffffff8211171561395757613956613779565b5b80604052505050565b600061396a612b97565b9050613976828261392f565b919050565b600067ffffffffffffffff82111561399657613995613779565b5b61399f82612e17565b9050602081019050919050565b60006139bf6139ba8461397b565b613960565b9050828152602081018484840111156139db576139da61392a565b5b6139e6848285612ded565b509392505050565b600082601f830112613a0357613a02612c7d565b5b8151613a138482602086016139ac565b91505092915050565b60008060408385031215613a3357613a32612ba1565b5b600083015167ffffffffffffffff811115613a5157613a50612ba6565b5b613a5d858286016139ee565b925050602083015167ffffffffffffffff811115613a7e57613a7d612ba6565b5b613a8a858286016139ee565b9150509250929050565b6000608082019050613aa960008301876131d1565b613ab66020830186613637565b613ac36040830185613637565b8181036060830152613ad58184612e28565b905095945050505050565b6000606082019050613af56000830186613877565b8181036020830152613b078185612e28565b90508181036040830152613b1b8184612e28565b9050949350505050565b600060208284031215613b3b57613b3a612ba1565b5b600082015167ffffffffffffffff811115613b5957613b58612ba6565b5b613b65848285016139ee565b9150509291505056fea2646970667358221220b144ae43bc7ed33f3c93a4402d0b9b5677818d8db111625ee1037c944507c9be64736f6c63430008120033",
  "linkReferences": {},
  "deployedLinkReferences": {}
}