{
  "_format": "hh-sol-artifact-1",
  "contractName": "FlowSplitter",
  "sourceName": "contracts/FlowSplitter.sol",
  "abi": [
    {
      "inputs": [
        {
          "internalType": "address[]",
          "name": "_receivers",
          "type": "address[]"
        },
        {
          "internalType": "int96[]",
          "name": "_flows",
          "type": "int96[]"
        },
        {
          "internalType": "contract ISuperToken",
          "name": "_acceptedSuperToken",
          "type": "address"
        },
        {
          "internalType": "contract ISuperfluid",
          "name": "_host",
          "type": "address"
        }
      ],
      "stateMutability": "nonpayable",
      "type": "constructor"
    },
    {
      "inputs": [],
      "name": "NotAcceptedSuperToken",
      "type": "error"
    },
    {
      "inputs": [],
      "name": "NotImplemented",
      "type": "error"
    },
    {
      "inputs": [],
      "name": "UnauthorizedHost",
      "type": "error"
    },
    {
      "inputs": [],
      "name": "CFAV1_TYPE",
      "outputs": [
        {
          "internalType": "bytes32",
          "name": "",
          "type": "bytes32"
        }
      ],
      "stateMutability": "view",
      "type": "function"
    },
    {
      "inputs": [],
      "name": "acceptedSuperToken",
      "outputs": [
        {
          "internalType": "contract ISuperToken",
          "name": "",
          "type": "address"
        }
      ],
      "stateMutability": "view",
      "type": "function"
    },
    {
      "inputs": [
        {
          "internalType": "contract ISuperToken",
          "name": "superToken",
          "type": "address"
        },
        {
          "internalType": "address",
          "name": "agreementClass",
          "type": "address"
        },
        {
          "internalType": "bytes32",
          "name": "",
          "type": "bytes32"
        },
        {
          "internalType": "bytes",
          "name": "agreementData",
          "type": "bytes"
        },
        {
          "internalType": "bytes",
          "name": "",
          "type": "bytes"
        },
        {
          "internalType": "bytes",
          "name": "ctx",
          "type": "bytes"
        }
      ],
      "name": "afterAgreementCreated",
      "outputs": [
        {
          "internalType": "bytes",
          "name": "newCtx",
          "type": "bytes"
        }
      ],
      "stateMutability": "nonpayable",
      "type": "function"
    },
    {
      "inputs": [
        {
          "internalType": "contract ISuperToken",
          "name": "superToken",
          "type": "address"
        },
        {
          "internalType": "address",
          "name": "agreementClass",
          "type": "address"
        },
        {
          "internalType": "bytes32",
          "name": "",
          "type": "bytes32"
        },
        {
          "internalType": "bytes",
          "name": "agreementData",
          "type": "bytes"
        },
        {
          "internalType": "bytes",
          "name": "cbdata",
          "type": "bytes"
        },
        {
          "internalType": "bytes",
          "name": "ctx",
          "type": "bytes"
        }
      ],
      "name": "afterAgreementTerminated",
      "outputs": [
        {
          "internalType": "bytes",
          "name": "newCtx",
          "type": "bytes"
        }
      ],
      "stateMutability": "nonpayable",
      "type": "function"
    },
    {
      "inputs": [
        {
          "internalType": "contract ISuperToken",
          "name": "superToken",
          "type": "address"
        },
        {
          "internalType": "address",
          "name": "agreementClass",
          "type": "address"
        },
        {
          "internalType": "bytes32",
          "name": "",
          "type": "bytes32"
        },
        {
          "internalType": "bytes",
          "name": "agreementData",
          "type": "bytes"
        },
        {
          "internalType": "bytes",
          "name": "cbdata",
          "type": "bytes"
        },
        {
          "internalType": "bytes",
          "name": "ctx",
          "type": "bytes"
        }
      ],
      "name": "afterAgreementUpdated",
      "outputs": [
        {
          "internalType": "bytes",
          "name": "newCtx",
          "type": "bytes"
        }
      ],
      "stateMutability": "nonpayable",
      "type": "function"
    },
    {
      "inputs": [
        {
          "internalType": "contract ISuperToken",
          "name": "",
          "type": "address"
        },
        {
          "internalType": "address",
          "name": "",
          "type": "address"
        },
        {
          "internalType": "bytes32",
          "name": "",
          "type": "bytes32"
        },
        {
          "internalType": "bytes",
          "name": "",
          "type": "bytes"
        },
        {
          "internalType": "bytes",
          "name": "",
          "type": "bytes"
        }
      ],
      "name": "beforeAgreementCreated",
      "outputs": [
        {
          "internalType": "bytes",
          "name": "",
          "type": "bytes"
        }
      ],
      "stateMutability": "pure",
      "type": "function"
    },
    {
      "inputs": [
        {
          "internalType": "contract ISuperToken",
          "name": "superToken",
          "type": "address"
        },
        {
          "internalType": "address",
          "name": "agreementClass",
          "type": "address"
        },
        {
          "internalType": "bytes32",
          "name": "",
          "type": "bytes32"
        },
        {
          "internalType": "bytes",
          "name": "agreementData",
          "type": "bytes"
        },
        {
          "internalType": "bytes",
          "name": "",
          "type": "bytes"
        }
      ],
      "name": "beforeAgreementTerminated",
      "outputs": [
        {
          "internalType": "bytes",
          "name": "",
          "type": "bytes"
        }
      ],
      "stateMutability": "view",
      "type": "function"
    },
    {
      "inputs": [
        {
          "internalType": "contract ISuperToken",
          "name": "superToken",
          "type": "address"
        },
        {
          "internalType": "address",
          "name": "agreementClass",
          "type": "address"
        },
        {
          "internalType": "bytes32",
          "name": "",
          "type": "bytes32"
        },
        {
          "internalType": "bytes",
          "name": "agreementData",
          "type": "bytes"
        },
        {
          "internalType": "bytes",
          "name": "",
          "type": "bytes"
        }
      ],
      "name": "beforeAgreementUpdated",
      "outputs": [
        {
          "internalType": "bytes",
          "name": "",
          "type": "bytes"
        }
      ],
      "stateMutability": "view",
      "type": "function"
    },
    {
      "inputs": [],
      "name": "calcTotalOutflow",
      "outputs": [
        {
          "internalType": "int96",
          "name": "",
          "type": "int96"
        }
      ],
      "stateMutability": "view",
      "type": "function"
    },
    {
      "inputs": [
        {
          "internalType": "address",
          "name": "receiver",
          "type": "address"
        }
      ],
      "name": "getFlowByReceiver",
      "outputs": [
        {
          "internalType": "int96",
          "name": "flow",
          "type": "int96"
        }
      ],
      "stateMutability": "view",
      "type": "function"
    },
    {
      "inputs": [],
      "name": "getReceivers",
      "outputs": [
        {
          "internalType": "address[]",
          "name": "",
          "type": "address[]"
        }
      ],
      "stateMutability": "view",
      "type": "function"
    },
    {
      "inputs": [],
      "name": "host",
      "outputs": [
        {
          "internalType": "contract ISuperfluid",
          "name": "",
          "type": "address"
        }
      ],
      "stateMutability": "view",
      "type": "function"
    },
    {
      "inputs": [
        {
          "internalType": "contract ISuperToken",
          "name": "superToken",
          "type": "address"
        }
      ],
      "name": "isAcceptedSuperToken",
      "outputs": [
        {
          "internalType": "bool",
          "name": "",
          "type": "bool"
        }
      ],
      "stateMutability": "view",
      "type": "function"
    },
    {
      "inputs": [
        {
          "internalType": "address",
          "name": "",
          "type": "address"
        }
      ],
      "name": "splitterToFlow",
      "outputs": [
        {
          "internalType": "int96",
          "name": "",
          "type": "int96"
        }
      ],
      "stateMutability": "view",
      "type": "function"
    },
    {
      "inputs": [],
      "name": "totalShares",
      "outputs": [
        {
          "internalType": "int96",
          "name": "",
          "type": "int96"
        }
      ],
      "stateMutability": "view",
      "type": "function"
    },
    {
      "inputs": [
        {
          "internalType": "int96",
          "name": "newReceiverPortion",
          "type": "int96"
        },
        {
          "internalType": "address",
          "name": "receiver",
          "type": "address"
        }
      ],
      "name": "updateSplit",
      "outputs": [],
      "stateMutability": "nonpayable",
      "type": "function"
    }
  ],
  "bytecode": "0x60806040523480156200001157600080fd5b50604051620045bd380380620045bd833981810160405281019062000037919062000761565b806001806001836000806101000a81548173ffffffffffffffffffffffffffffffffffffffff021916908373ffffffffffffffffffffffffffffffffffffffff16021790555060006401000000006001179050836200009b57640200000000811790505b82620000b35764080000000064040000000017811790505b81620000cb5764200000000064100000000017811790505b8473ffffffffffffffffffffffffffffffffffffffff1663ad3915c8826040518263ffffffff1660e01b81526004016200010691906200082c565b600060405180830381600087803b1580156200012157600080fd5b505af115801562000136573d6000803e3d6000fd5b505050505050505050825184511462000186576040517f08c379a00000000000000000000000000000000000000000000000000000000081526004016200017d90620008aa565b60405180910390fd5b81600160006101000a81548173ffffffffffffffffffffffffffffffffffffffff021916908373ffffffffffffffffffffffffffffffffffffffff1602179055508360039080519060200190620001df92919062000327565b5060005b84518110156200031c57838181518110620002035762000202620008cc565b5b602002602001015160026000878481518110620002255762000224620008cc565b5b602002602001015173ffffffffffffffffffffffffffffffffffffffff1673ffffffffffffffffffffffffffffffffffffffff16815260200190815260200160002060006101000a8154816bffffffffffffffffffffffff0219169083600b0b6bffffffffffffffffffffffff160217905550838181518110620002ae57620002ad620008cc565b5b6020026020010151600460008282829054906101000a9004600b0b620002d591906200092a565b92506101000a8154816bffffffffffffffffffffffff0219169083600b0b6bffffffffffffffffffffffff1602179055508080620003139062000995565b915050620001e3565b5050505050620009e2565b828054828255906000526020600020908101928215620003a3579160200282015b82811115620003a25782518260006101000a81548173ffffffffffffffffffffffffffffffffffffffff021916908373ffffffffffffffffffffffffffffffffffffffff1602179055509160200191906001019062000348565b5b509050620003b29190620003b6565b5090565b5b80821115620003d1576000816000905550600101620003b7565b5090565b6000604051905090565b600080fd5b600080fd5b600080fd5b6000601f19601f8301169050919050565b7f4e487b7100000000000000000000000000000000000000000000000000000000600052604160045260246000fd5b6200043982620003ee565b810181811067ffffffffffffffff821117156200045b576200045a620003ff565b5b80604052505050565b600062000470620003d5565b90506200047e82826200042e565b919050565b600067ffffffffffffffff821115620004a157620004a0620003ff565b5b602082029050602081019050919050565b600080fd5b600073ffffffffffffffffffffffffffffffffffffffff82169050919050565b6000620004e482620004b7565b9050919050565b620004f681620004d7565b81146200050257600080fd5b50565b6000815190506200051681620004eb565b92915050565b6000620005336200052d8462000483565b62000464565b90508083825260208201905060208402830185811115620005595762000558620004b2565b5b835b8181101562000586578062000571888262000505565b8452602084019350506020810190506200055b565b5050509392505050565b600082601f830112620005a857620005a7620003e9565b5b8151620005ba8482602086016200051c565b91505092915050565b600067ffffffffffffffff821115620005e157620005e0620003ff565b5b602082029050602081019050919050565b600081600b0b9050919050565b6200060a81620005f2565b81146200061657600080fd5b50565b6000815190506200062a81620005ff565b92915050565b6000620006476200064184620005c3565b62000464565b905080838252602082019050602084028301858111156200066d576200066c620004b2565b5b835b818110156200069a578062000685888262000619565b8452602084019350506020810190506200066f565b5050509392505050565b600082601f830112620006bc57620006bb620003e9565b5b8151620006ce84826020860162000630565b91505092915050565b6000620006e482620004d7565b9050919050565b620006f681620006d7565b81146200070257600080fd5b50565b6000815190506200071681620006eb565b92915050565b60006200072982620004d7565b9050919050565b6200073b816200071c565b81146200074757600080fd5b50565b6000815190506200075b8162000730565b92915050565b600080600080608085870312156200077e576200077d620003df565b5b600085015167ffffffffffffffff8111156200079f576200079e620003e4565b5b620007ad8782880162000590565b945050602085015167ffffffffffffffff811115620007d157620007d0620003e4565b5b620007df87828801620006a4565b9350506040620007f28782880162000705565b925050606062000805878288016200074a565b91505092959194509250565b6000819050919050565b620008268162000811565b82525050565b60006020820190506200084360008301846200081b565b92915050565b600082825260208201905092915050565b7f416c6c20726563656976657273206d7573742068617665206120666c6f770000600082015250565b600062000892601e8362000849565b91506200089f826200085a565b602082019050919050565b60006020820190508181036000830152620008c58162000883565b9050919050565b7f4e487b7100000000000000000000000000000000000000000000000000000000600052603260045260246000fd5b7f4e487b7100000000000000000000000000000000000000000000000000000000600052601160045260246000fd5b60006200093782620005f2565b91506200094483620005f2565b925082820190507fffffffffffffffffffffffffffffffffffffffff80000000000000000000000081126b7fffffffffffffffffffffff821317156200098f576200098e620008fb565b5b92915050565b6000620009a28262000811565b91507fffffffffffffffffffffffffffffffffffffffffffffffffffffffffffffffff8203620009d757620009d6620008fb565b5b600182019050919050565b613bcb80620009f26000396000f3fe608060405234801561001057600080fd5b50600436106101005760003560e01c806372ca8a3e11610097578063d86ed3e511610066578063d86ed3e5146102fb578063e061646b1461032b578063f437bc5914610349578063f59260911461036757610100565b806372ca8a3e1461024d578063884d1f401461027d578063bcb4546f146102ad578063be59fbe8146102cb57610100565b80633a98ef39116100d35780633a98ef39146101b357806349a74d1e146101d157806353c11f99146101ed5780635f9e7d771461021d57610100565b80630134e06114610105578063230dbd291461012357806330d9c91514610153578063396ef09314610183575b600080fd5b61010d610385565b60405161011a9190612ba3565b60405180910390f35b61013d60048036038101906101389190612d09565b61044b565b60405161014a9190612e88565b60405180910390f35b61016d60048036038101906101689190612eaa565b6105b5565b60405161017a9190612e88565b60405180910390f35b61019d60048036038101906101989190612f66565b6105fa565b6040516101aa9190612ba3565b60405180910390f35b6101bb61061a565b6040516101c89190612ba3565b60405180910390f35b6101eb60048036038101906101e69190612fbf565b61062d565b005b61020760048036038101906102029190612d09565b610be4565b6040516102149190612e88565b60405180910390f35b61023760048036038101906102329190612eaa565b610cf8565b6040516102449190612e88565b60405180910390f35b61026760048036038101906102629190612fff565b610e2c565b6040516102749190613047565b60405180910390f35b61029760048036038101906102929190612eaa565b610e86565b6040516102a49190612e88565b60405180910390f35b6102b5611011565b6040516102c29190613071565b60405180910390f35b6102e560048036038101906102e09190612f66565b611035565b6040516102f29190612ba3565b60405180910390f35b61031560048036038101906103109190612d09565b61108b565b6040516103229190612e88565b60405180910390f35b6103336111db565b604051610340919061314a565b60405180910390f35b610351611269565b60405161035e91906131cb565b60405180910390f35b61036f61128d565b60405161037c9190613207565b60405180910390f35b60008060005b6003805490508110156104435761042330600383815481106103b0576103af613222565b5b9060005260206000200160009054906101000a900473ffffffffffffffffffffffffffffffffffffffff16600160009054906101000a900473ffffffffffffffffffffffffffffffffffffffff1673ffffffffffffffffffffffffffffffffffffffff166112b39092919063ffffffff16565b8261042e9190613280565b9150808061043b906132ee565b91505061038b565b508091505090565b606060008054906101000a900473ffffffffffffffffffffffffffffffffffffffff1673ffffffffffffffffffffffffffffffffffffffff163373ffffffffffffffffffffffffffffffffffffffff16146104d2576040517f2f2d36a700000000000000000000000000000000000000000000000000000000815260040160405180910390fd5b6104db89611353565b61052b5782828080601f016020809104026020016040519081016040528093929190818152602001838380828437600081840152601f19601f8201169050808301925050505050505090506105a8565b6105348a610e2c565b61056a576040517ff512dd5800000000000000000000000000000000000000000000000000000000815260040160405180910390fd5b6000878781019061057b9190613374565b509050600080878781019061059091906133e0565b915091506105a28d8484848a8a611445565b93505050505b9998505050505050505050565b60606040518060400160405280600281526020017f30780000000000000000000000000000000000000000000000000000000000008152509050979650505050505050565b60026020528060005260406000206000915054906101000a9004600b0b81565b600460009054906101000a9004600b0b81565b6000610637610385565b9050600260008373ffffffffffffffffffffffffffffffffffffffff1673ffffffffffffffffffffffffffffffffffffffff16815260200190815260200160002060009054906101000a9004600b0b836106919190613420565b600460008282829054906101000a9004600b0b6106ae9190613280565b92506101000a8154816bffffffffffffffffffffffff0219169083600b0b6bffffffffffffffffffffffff16021790555082600260008473ffffffffffffffffffffffffffffffffffffffff1673ffffffffffffffffffffffffffffffffffffffff16815260200190815260200160002060006101000a8154816bffffffffffffffffffffffff0219169083600b0b6bffffffffffffffffffffffff160217905550600083600b0b036109405760005b6003805490508110156108e3578273ffffffffffffffffffffffffffffffffffffffff166003828154811061079657610795613222565b5b9060005260206000200160009054906101000a900473ffffffffffffffffffffffffffffffffffffffff1673ffffffffffffffffffffffffffffffffffffffff16036108d057600360016003805490506107f09190613484565b8154811061080157610800613222565b5b9060005260206000200160009054906101000a900473ffffffffffffffffffffffffffffffffffffffff16600382815481106108405761083f613222565b5b9060005260206000200160006101000a81548173ffffffffffffffffffffffffffffffffffffffff021916908373ffffffffffffffffffffffffffffffffffffffff160217905550600380548061089a576108996134b8565b5b6001900381819060005260206000200160006101000a81549073ffffffffffffffffffffffffffffffffffffffff021916905590555b80806108db906132ee565b91505061075e565b50600081600b0b131561093f5761093d3083600160009054906101000a900473ffffffffffffffffffffffffffffffffffffffff1673ffffffffffffffffffffffffffffffffffffffff166116649092919063ffffffff16565b505b5b600080600090505b600380549050811015610ae257600083600b0b1315610a5957610a576003828154811061097857610977613222565b5b9060005260206000200160009054906101000a900473ffffffffffffffffffffffffffffffffffffffff16600460009054906101000a9004600b0b6109fa600385815481106109ca576109c9613222565b5b9060005260206000200160009054906101000a900473ffffffffffffffffffffffffffffffffffffffff16611035565b86610a0591906134e7565b610a0f9190613553565b600160009054906101000a900473ffffffffffffffffffffffffffffffffffffffff1673ffffffffffffffffffffffffffffffffffffffff166116c89092919063ffffffff16565b505b8373ffffffffffffffffffffffffffffffffffffffff1660038281548110610a8457610a83613222565b5b9060005260206000200160009054906101000a900473ffffffffffffffffffffffffffffffffffffffff1673ffffffffffffffffffffffffffffffffffffffff1603610acf57600191505b8080610ada906132ee565b915050610948565b5080158015610af55750600084600b0b14155b15610bde57600082600b0b1315610b7a57610b7883600460009054906101000a9004600b0b8685610b2691906134e7565b610b309190613553565b600160009054906101000a900473ffffffffffffffffffffffffffffffffffffffff1673ffffffffffffffffffffffffffffffffffffffff1661172c9092919063ffffffff16565b505b6003839080600181540180825580915050600190039060005260206000200160009091909190916101000a81548173ffffffffffffffffffffffffffffffffffffffff021916908373ffffffffffffffffffffffffffffffffffffffff1602179055505b50505050565b606060008054906101000a900473ffffffffffffffffffffffffffffffffffffffff1673ffffffffffffffffffffffffffffffffffffffff163373ffffffffffffffffffffffffffffffffffffffff16141580610c475750610c4589611353565b155b80610c585750610c568a610e2c565b155b15610ca95782828080601f016020809104026020016040519081016040528093929190818152602001838380828437600081840152601f19601f820116905080830192505050505050509050610ceb565b6000808888810190610cbb9190613374565b915091506000808888810190610cd191906135bd565b91509150610ce48e858584868c8c611790565b9450505050505b9998505050505050505050565b606060008054906101000a900473ffffffffffffffffffffffffffffffffffffffff1673ffffffffffffffffffffffffffffffffffffffff163373ffffffffffffffffffffffffffffffffffffffff16141580610d5b5750610d5987611353565b155b80610d6c5750610d6a88610e2c565b155b15610dae576040518060400160405280600281526020017f30780000000000000000000000000000000000000000000000000000000000008152509050610e21565b6000808686810190610dc09190613374565b91509150600080610df284848e73ffffffffffffffffffffffffffffffffffffffff16611a219092919063ffffffff16565b5050915091508181604051602001610e0b92919061360c565b6040516020818303038152906040529450505050505b979650505050505050565b6000600160009054906101000a900473ffffffffffffffffffffffffffffffffffffffff1673ffffffffffffffffffffffffffffffffffffffff168273ffffffffffffffffffffffffffffffffffffffff16149050919050565b606060008054906101000a900473ffffffffffffffffffffffffffffffffffffffff1673ffffffffffffffffffffffffffffffffffffffff163373ffffffffffffffffffffffffffffffffffffffff1614610f0d576040517f2f2d36a700000000000000000000000000000000000000000000000000000000815260040160405180910390fd5b610f1687611353565b610f57576040518060400160405280600281526020017f30780000000000000000000000000000000000000000000000000000000000008152509050611006565b610f6088610e2c565b610f96576040517ff512dd5800000000000000000000000000000000000000000000000000000000815260040160405180910390fd5b60008585810190610fa79190613374565b509050600080610fd883308d73ffffffffffffffffffffffffffffffffffffffff16611a219092919063ffffffff16565b5050915091508082604051602001610ff1929190613635565b60405160208183030381529060405293505050505b979650505050505050565b7fa9214cc96615e0085d3bb077758db69497dc2dce3b2b1e97bc93c3d18d83efd381565b6000600260008373ffffffffffffffffffffffffffffffffffffffff1673ffffffffffffffffffffffffffffffffffffffff16815260200190815260200160002060009054906101000a9004600b0b9050919050565b606060008054906101000a900473ffffffffffffffffffffffffffffffffffffffff1673ffffffffffffffffffffffffffffffffffffffff163373ffffffffffffffffffffffffffffffffffffffff1614611112576040517f2f2d36a700000000000000000000000000000000000000000000000000000000815260040160405180910390fd5b61111b89611353565b61116b5782828080601f016020809104026020016040519081016040528093929190818152602001838380828437600081840152601f19601f8201169050808301925050505050505090506111ce565b6111748a610e2c565b6111aa576040517ff512dd5800000000000000000000000000000000000000000000000000000000815260040160405180910390fd5b600087878101906111bb9190613374565b5090506111ca8b828686611acd565b9150505b9998505050505050505050565b6060600380548060200260200160405190810160405280929190818152602001828054801561125f57602002820191906000526020600020905b8160009054906101000a900473ffffffffffffffffffffffffffffffffffffffff1673ffffffffffffffffffffffffffffffffffffffff1681526020019060010190808311611215575b5050505050905090565b60008054906101000a900473ffffffffffffffffffffffffffffffffffffffff1681565b600160009054906101000a900473ffffffffffffffffffffffffffffffffffffffff1681565b6000806112bf85611e55565b9150508073ffffffffffffffffffffffffffffffffffffffff1663e6a1e8888686866040518463ffffffff1660e01b81526004016112ff9392919061366d565b608060405180830381865afa15801561131c573d6000803e3d6000fd5b505050506040513d601f19601f8201168201806040525081019061134091906136ce565b9091925090505080925050509392505050565b60008060009054906101000a900473ffffffffffffffffffffffffffffffffffffffff1673ffffffffffffffffffffffffffffffffffffffff1663b6d200de7fa9214cc96615e0085d3bb077758db69497dc2dce3b2b1e97bc93c3d18d83efd36040518263ffffffff1660e01b81526004016113cf9190613071565b602060405180830381865afa1580156113ec573d6000803e3d6000fd5b505050506040513d601f19601f820116820180604052508101906114109190613773565b73ffffffffffffffffffffffffffffffffffffffff168273ffffffffffffffffffffffffffffffffffffffff16149050919050565b606082828080601f016020809104026020016040519081016040528093929190818152602001838380828437600081840152601f19601f8201169050808301925050505050505090506000856114bc88308b73ffffffffffffffffffffffffffffffffffffffff166112b39092919063ffffffff16565b6114c69190613420565b905060005b60038054905081101561165857611643600382815481106114ef576114ee613222565b5b9060005260206000200160009054906101000a900473ffffffffffffffffffffffffffffffffffffffff16600460009054906101000a9004600b0b6115716003858154811061154157611540613222565b5b9060005260206000200160009054906101000a900473ffffffffffffffffffffffffffffffffffffffff16611035565b8561157c91906134e7565b6115869190613553565b611611306003868154811061159e5761159d613222565b5b9060005260206000200160009054906101000a900473ffffffffffffffffffffffffffffffffffffffff16600160009054906101000a900473ffffffffffffffffffffffffffffffffffffffff1673ffffffffffffffffffffffffffffffffffffffff166112b39092919063ffffffff16565b61161b9190613280565b858c73ffffffffffffffffffffffffffffffffffffffff16612096909392919063ffffffff16565b92508080611650906132ee565b9150506114cb565b50509695505050505050565b60006116bf848484600067ffffffffffffffff811115611687576116866137a0565b5b6040519080825280601f01601f1916602001820160405280156116b95781602001600182028036833780820191505090505b506121fd565b90509392505050565b6000611723848484600067ffffffffffffffff8111156116eb576116ea6137a0565b5b6040519080825280601f01601f19166020018201604052801561171d5781602001600182028036833780820191505090505b50612364565b90509392505050565b6000611787848484600067ffffffffffffffff81111561174f5761174e6137a0565b5b6040519080825280601f01601f1916602001820160405280156117815781602001600182028036833780820191505090505b506124cb565b90509392505050565b606082828080601f016020809104026020016040519081016040528093929190818152602001838380828437600081840152601f19601f8201169050808301925050505050505090506000856117e4610385565b6117ee9190613420565b90506000600260008973ffffffffffffffffffffffffffffffffffffffff1673ffffffffffffffffffffffffffffffffffffffff16815260200190815260200160002060009054906101000a9004600b0b600b0b14611877576118748787848c73ffffffffffffffffffffffffffffffffffffffff16612632909392919063ffffffff16565b91505b600081600b0b136119185760005b600380549050811015611912576118fd30600383815481106118aa576118a9613222565b5b9060005260206000200160009054906101000a900473ffffffffffffffffffffffffffffffffffffffff16858d73ffffffffffffffffffffffffffffffffffffffff16612799909392919063ffffffff16565b9250808061190a906132ee565b915050611885565b50611a15565b60005b600380549050811015611a13576119fe6003828154811061193f5761193e613222565b5b9060005260206000200160009054906101000a900473ffffffffffffffffffffffffffffffffffffffff16600460009054906101000a9004600b0b6119c16003858154811061199157611990613222565b5b9060005260206000200160009054906101000a900473ffffffffffffffffffffffffffffffffffffffff16611035565b856119cc91906134e7565b6119d69190613553565b858d73ffffffffffffffffffffffffffffffffffffffff16612096909392919063ffffffff16565b92508080611a0b906132ee565b91505061191b565b505b50979650505050505050565b6000806000806000611a3288611e55565b9150508073ffffffffffffffffffffffffffffffffffffffff1663e6a1e8888989896040518463ffffffff1660e01b8152600401611a729392919061366d565b608060405180830381865afa158015611a8f573d6000803e3d6000fd5b505050506040513d601f19601f82011682018060405250810190611ab391906136ce565b809550819650829750839850505050505093509350935093565b606082828080601f016020809104026020016040519081016040528093929190818152602001838380828437600081840152601f19601f8201169050808301925050505050505090506000611b4385308873ffffffffffffffffffffffffffffffffffffffff166112b39092919063ffffffff16565b90506000611bb1306003600081548110611b6057611b5f613222565b5b9060005260206000200160009054906101000a900473ffffffffffffffffffffffffffffffffffffffff168973ffffffffffffffffffffffffffffffffffffffff166112b39092919063ffffffff16565b600b0b03611cba5760005b600380549050811015611cb457611c9f60038281548110611be057611bdf613222565b5b9060005260206000200160009054906101000a900473ffffffffffffffffffffffffffffffffffffffff16600460009054906101000a9004600b0b611c6260038581548110611c3257611c31613222565b5b9060005260206000200160009054906101000a900473ffffffffffffffffffffffffffffffffffffffff16611035565b85611c6d91906134e7565b611c779190613553565b858a73ffffffffffffffffffffffffffffffffffffffff16612632909392919063ffffffff16565b92508080611cac906132ee565b915050611bbc565b50611e4c565b60005b600380549050811015611e4a57611e3560038281548110611ce157611ce0613222565b5b9060005260206000200160009054906101000a900473ffffffffffffffffffffffffffffffffffffffff16600460009054906101000a9004600b0b611d6360038581548110611d3357611d32613222565b5b9060005260206000200160009054906101000a900473ffffffffffffffffffffffffffffffffffffffff16611035565b85611d6e91906134e7565b611d789190613553565b611e033060038681548110611d9057611d8f613222565b5b9060005260206000200160009054906101000a900473ffffffffffffffffffffffffffffffffffffffff16600160009054906101000a900473ffffffffffffffffffffffffffffffffffffffff1673ffffffffffffffffffffffffffffffffffffffff166112b39092919063ffffffff16565b611e0d9190613280565b858a73ffffffffffffffffffffffffffffffffffffffff16612096909392919063ffffffff16565b92508080611e42906132ee565b915050611cbd565b505b50949350505050565b6000807f65599bf746e17a00ea62e3610586992d88101b78eec3cf380706621fb97ea8375491507fb969d79d88acd02d04ed7ee7d43b949e7daf093d363abcfbbc43dfdfd1ce969a549050600073ffffffffffffffffffffffffffffffffffffffff168173ffffffffffffffffffffffffffffffffffffffff160361201757600073ffffffffffffffffffffffffffffffffffffffff168273ffffffffffffffffffffffffffffffffffffffff1603611f7a578273ffffffffffffffffffffffffffffffffffffffff166320bc44256040518163ffffffff1660e01b8152600401602060405180830381865afa158015611f53573d6000803e3d6000fd5b505050506040513d601f19601f82011682018060405250810190611f7791906137e4565b91505b8173ffffffffffffffffffffffffffffffffffffffff1663b6d200de7fa9214cc96615e0085d3bb077758db69497dc2dce3b2b1e97bc93c3d18d83efd36040518263ffffffff1660e01b8152600401611fd39190613071565b602060405180830381865afa158015611ff0573d6000803e3d6000fd5b505050506040513d601f19601f820116820180604052508101906120149190613773565b90505b600073ffffffffffffffffffffffffffffffffffffffff168273ffffffffffffffffffffffffffffffffffffffff160361205457612053613811565b5b600073ffffffffffffffffffffffffffffffffffffffff168173ffffffffffffffffffffffffffffffffffffffff160361209157612090613811565b5b915091565b60606000806120a487612900565b915091508173ffffffffffffffffffffffffffffffffffffffff16634329d293828373ffffffffffffffffffffffffffffffffffffffff166350209a628b8b8b600067ffffffffffffffff8111156120ff576120fe6137a0565b5b6040519080825280601f01601f1916602001820160405280156121315781602001600182028036833780820191505090505b506040516024016121459493929190613840565b604051602081830303815290604052915060e01b6020820180517bffffffffffffffffffffffffffffffffffffffffffffffffffffffff8381831617835250505050876040518463ffffffff1660e01b81526004016121a6939291906138f9565b6000604051808303816000875af11580156121c5573d6000803e3d6000fd5b505050506040513d6000823e3d601f19601f820116820180604052508101906121ee9190613a43565b50809350505050949350505050565b600080600061220b87612900565b915091508173ffffffffffffffffffffffffffffffffffffffff166339255d5b828373ffffffffffffffffffffffffffffffffffffffff1663b4b333c68b8b8b600067ffffffffffffffff811115612266576122656137a0565b5b6040519080825280601f01601f1916602001820160405280156122985781602001600182028036833780820191505090505b506040516024016122ac9493929190613abb565b604051602081830303815290604052915060e01b6020820180517bffffffffffffffffffffffffffffffffffffffffffffffffffffffff8381831617835250505050876040518463ffffffff1660e01b815260040161230d93929190613b07565b6000604051808303816000875af115801561232c573d6000803e3d6000fd5b505050506040513d6000823e3d601f19601f820116820180604052508101906123559190613b4c565b50600192505050949350505050565b600080600061237287612900565b915091508173ffffffffffffffffffffffffffffffffffffffff166339255d5b828373ffffffffffffffffffffffffffffffffffffffff166350209a628b8b8b600067ffffffffffffffff8111156123cd576123cc6137a0565b5b6040519080825280601f01601f1916602001820160405280156123ff5781602001600182028036833780820191505090505b506040516024016124139493929190613840565b604051602081830303815290604052915060e01b6020820180517bffffffffffffffffffffffffffffffffffffffffffffffffffffffff8381831617835250505050876040518463ffffffff1660e01b815260040161247493929190613b07565b6000604051808303816000875af1158015612493573d6000803e3d6000fd5b505050506040513d6000823e3d601f19601f820116820180604052508101906124bc9190613b4c565b50600192505050949350505050565b60008060006124d987612900565b915091508173ffffffffffffffffffffffffffffffffffffffff166339255d5b828373ffffffffffffffffffffffffffffffffffffffff166362fc305e8b8b8b600067ffffffffffffffff811115612534576125336137a0565b5b6040519080825280601f01601f1916602001820160405280156125665781602001600182028036833780820191505090505b5060405160240161257a9493929190613840565b604051602081830303815290604052915060e01b6020820180517bffffffffffffffffffffffffffffffffffffffffffffffffffffffff8381831617835250505050876040518463ffffffff1660e01b81526004016125db93929190613b07565b6000604051808303816000875af11580156125fa573d6000803e3d6000fd5b505050506040513d6000823e3d601f19601f820116820180604052508101906126239190613b4c565b50600192505050949350505050565b606060008061264087612900565b915091508173ffffffffffffffffffffffffffffffffffffffff16634329d293828373ffffffffffffffffffffffffffffffffffffffff166362fc305e8b8b8b600067ffffffffffffffff81111561269b5761269a6137a0565b5b6040519080825280601f01601f1916602001820160405280156126cd5781602001600182028036833780820191505090505b506040516024016126e19493929190613840565b604051602081830303815290604052915060e01b6020820180517bffffffffffffffffffffffffffffffffffffffffffffffffffffffff8381831617835250505050876040518463ffffffff1660e01b8152600401612742939291906138f9565b6000604051808303816000875af1158015612761573d6000803e3d6000fd5b505050506040513d6000823e3d601f19601f8201168201806040525081019061278a9190613a43565b50809350505050949350505050565b60606000806127a787612900565b915091508173ffffffffffffffffffffffffffffffffffffffff16634329d293828373ffffffffffffffffffffffffffffffffffffffff1663b4b333c68b8b8b600067ffffffffffffffff811115612802576128016137a0565b5b6040519080825280601f01601f1916602001820160405280156128345781602001600182028036833780820191505090505b506040516024016128489493929190613abb565b604051602081830303815290604052915060e01b6020820180517bffffffffffffffffffffffffffffffffffffffffffffffffffffffff8381831617835250505050876040518463ffffffff1660e01b81526004016128a9939291906138f9565b6000604051808303816000875af11580156128c8573d6000803e3d6000fd5b505050506040513d6000823e3d601f19601f820116820180604052508101906128f19190613a43565b50809350505050949350505050565b6000807f65599bf746e17a00ea62e3610586992d88101b78eec3cf380706621fb97ea8375491507fb969d79d88acd02d04ed7ee7d43b949e7daf093d363abcfbbc43dfdfd1ce969a549050600073ffffffffffffffffffffffffffffffffffffffff168173ffffffffffffffffffffffffffffffffffffffff1603612b0857600073ffffffffffffffffffffffffffffffffffffffff168273ffffffffffffffffffffffffffffffffffffffff1603612a25578273ffffffffffffffffffffffffffffffffffffffff166320bc44256040518163ffffffff1660e01b8152600401602060405180830381865afa1580156129fe573d6000803e3d6000fd5b505050506040513d601f19601f82011682018060405250810190612a2291906137e4565b91505b8173ffffffffffffffffffffffffffffffffffffffff1663b6d200de7fa9214cc96615e0085d3bb077758db69497dc2dce3b2b1e97bc93c3d18d83efd36040518263ffffffff1660e01b8152600401612a7e9190613071565b602060405180830381865afa158015612a9b573d6000803e3d6000fd5b505050506040513d601f19601f82011682018060405250810190612abf9190613773565b9050817f65599bf746e17a00ea62e3610586992d88101b78eec3cf380706621fb97ea83755807fb969d79d88acd02d04ed7ee7d43b949e7daf093d363abcfbbc43dfdfd1ce969a555b600073ffffffffffffffffffffffffffffffffffffffff168273ffffffffffffffffffffffffffffffffffffffff1603612b4557612b44613811565b5b600073ffffffffffffffffffffffffffffffffffffffff168173ffffffffffffffffffffffffffffffffffffffff1603612b8257612b81613811565b5b915091565b600081600b0b9050919050565b612b9d81612b87565b82525050565b6000602082019050612bb86000830184612b94565b92915050565b6000604051905090565b600080fd5b600080fd5b600073ffffffffffffffffffffffffffffffffffffffff82169050919050565b6000612bfd82612bd2565b9050919050565b6000612c0f82612bf2565b9050919050565b612c1f81612c04565b8114612c2a57600080fd5b50565b600081359050612c3c81612c16565b92915050565b612c4b81612bf2565b8114612c5657600080fd5b50565b600081359050612c6881612c42565b92915050565b6000819050919050565b612c8181612c6e565b8114612c8c57600080fd5b50565b600081359050612c9e81612c78565b92915050565b600080fd5b600080fd5b600080fd5b60008083601f840112612cc957612cc8612ca4565b5b8235905067ffffffffffffffff811115612ce657612ce5612ca9565b5b602083019150836001820283011115612d0257612d01612cae565b5b9250929050565b600080600080600080600080600060c08a8c031215612d2b57612d2a612bc8565b5b6000612d398c828d01612c2d565b9950506020612d4a8c828d01612c59565b9850506040612d5b8c828d01612c8f565b97505060608a013567ffffffffffffffff811115612d7c57612d7b612bcd565b5b612d888c828d01612cb3565b965096505060808a013567ffffffffffffffff811115612dab57612daa612bcd565b5b612db78c828d01612cb3565b945094505060a08a013567ffffffffffffffff811115612dda57612dd9612bcd565b5b612de68c828d01612cb3565b92509250509295985092959850929598565b600081519050919050565b600082825260208201905092915050565b60005b83811015612e32578082015181840152602081019050612e17565b60008484015250505050565b6000601f19601f8301169050919050565b6000612e5a82612df8565b612e648185612e03565b9350612e74818560208601612e14565b612e7d81612e3e565b840191505092915050565b60006020820190508181036000830152612ea28184612e4f565b905092915050565b600080600080600080600060a0888a031215612ec957612ec8612bc8565b5b6000612ed78a828b01612c2d565b9750506020612ee88a828b01612c59565b9650506040612ef98a828b01612c8f565b955050606088013567ffffffffffffffff811115612f1a57612f19612bcd565b5b612f268a828b01612cb3565b9450945050608088013567ffffffffffffffff811115612f4957612f48612bcd565b5b612f558a828b01612cb3565b925092505092959891949750929550565b600060208284031215612f7c57612f7b612bc8565b5b6000612f8a84828501612c59565b91505092915050565b612f9c81612b87565b8114612fa757600080fd5b50565b600081359050612fb981612f93565b92915050565b60008060408385031215612fd657612fd5612bc8565b5b6000612fe485828601612faa565b9250506020612ff585828601612c59565b9150509250929050565b60006020828403121561301557613014612bc8565b5b600061302384828501612c2d565b91505092915050565b60008115159050919050565b6130418161302c565b82525050565b600060208201905061305c6000830184613038565b92915050565b61306b81612c6e565b82525050565b60006020820190506130866000830184613062565b92915050565b600081519050919050565b600082825260208201905092915050565b6000819050602082019050919050565b6130c181612bf2565b82525050565b60006130d383836130b8565b60208301905092915050565b6000602082019050919050565b60006130f78261308c565b6131018185613097565b935061310c836130a8565b8060005b8381101561313d57815161312488826130c7565b975061312f836130df565b925050600181019050613110565b5085935050505092915050565b6000602082019050818103600083015261316481846130ec565b905092915050565b6000819050919050565b600061319161318c61318784612bd2565b61316c565b612bd2565b9050919050565b60006131a382613176565b9050919050565b60006131b582613198565b9050919050565b6131c5816131aa565b82525050565b60006020820190506131e060008301846131bc565b92915050565b60006131f182613198565b9050919050565b613201816131e6565b82525050565b600060208201905061321c60008301846131f8565b92915050565b7f4e487b7100000000000000000000000000000000000000000000000000000000600052603260045260246000fd5b7f4e487b7100000000000000000000000000000000000000000000000000000000600052601160045260246000fd5b600061328b82612b87565b915061329683612b87565b925082820190507fffffffffffffffffffffffffffffffffffffffff80000000000000000000000081126b7fffffffffffffffffffffff821317156132de576132dd613251565b5b92915050565b6000819050919050565b60006132f9826132e4565b91507fffffffffffffffffffffffffffffffffffffffffffffffffffffffffffffffff820361332b5761332a613251565b5b600182019050919050565b600061334182612bd2565b9050919050565b61335181613336565b811461335c57600080fd5b50565b60008135905061336e81613348565b92915050565b6000806040838503121561338b5761338a612bc8565b5b60006133998582860161335f565b92505060206133aa8582860161335f565b9150509250929050565b6133bd816132e4565b81146133c857600080fd5b50565b6000813590506133da816133b4565b92915050565b600080604083850312156133f7576133f6612bc8565b5b600061340585828601612faa565b9250506020613416858286016133cb565b9150509250929050565b600061342b82612b87565b915061343683612b87565b925082820390506b7fffffffffffffffffffffff81137fffffffffffffffffffffffffffffffffffffffff8000000000000000000000008212171561347e5761347d613251565b5b92915050565b600061348f826132e4565b915061349a836132e4565b92508282039050818111156134b2576134b1613251565b5b92915050565b7f4e487b7100000000000000000000000000000000000000000000000000000000600052603160045260246000fd5b60006134f282612b87565b91506134fd83612b87565b925082820261350b81612b87565b915080821461351d5761351c613251565b5b5092915050565b7f4e487b7100000000000000000000000000000000000000000000000000000000600052601260045260246000fd5b600061355e82612b87565b915061356983612b87565b92508261357957613578613524565b5b600160000383147fffffffffffffffffffffffffffffffffffffffff800000000000000000000000831416156135b2576135b1613251565b5b828205905092915050565b600080604083850312156135d4576135d3612bc8565b5b60006135e2858286016133cb565b92505060206135f385828601612faa565b9150509250929050565b613606816132e4565b82525050565b600060408201905061362160008301856135fd565b61362e6020830184612b94565b9392505050565b600060408201905061364a6000830185612b94565b61365760208301846135fd565b9392505050565b61366781612bf2565b82525050565b600060608201905061368260008301866131f8565b61368f602083018561365e565b61369c604083018461365e565b949350505050565b6000815190506136b3816133b4565b92915050565b6000815190506136c881612f93565b92915050565b600080600080608085870312156136e8576136e7612bc8565b5b60006136f6878288016136a4565b9450506020613707878288016136b9565b9350506040613718878288016136a4565b9250506060613729878288016136a4565b91505092959194509250565b600061374082612bf2565b9050919050565b61375081613735565b811461375b57600080fd5b50565b60008151905061376d81613747565b92915050565b60006020828403121561378957613788612bc8565b5b60006137978482850161375e565b91505092915050565b7f4e487b7100000000000000000000000000000000000000000000000000000000600052604160045260246000fd5b6000815190506137de81612c42565b92915050565b6000602082840312156137fa576137f9612bc8565b5b6000613808848285016137cf565b91505092915050565b7f4e487b7100000000000000000000000000000000000000000000000000000000600052600160045260246000fd5b600060808201905061385560008301876131f8565b613862602083018661365e565b61386f6040830185612b94565b81810360608301526138818184612e4f565b905095945050505050565b600061389782613198565b9050919050565b6138a78161388c565b82525050565b7f3078000000000000000000000000000000000000000000000000000000000000600082015250565b60006138e3600283612e03565b91506138ee826138ad565b602082019050919050565b600060808201905061390e600083018661389e565b81810360208301526139208185612e4f565b90508181036040830152613933816138d6565b905081810360608301526139478184612e4f565b9050949350505050565b600080fd5b61395f82612e3e565b810181811067ffffffffffffffff8211171561397e5761397d6137a0565b5b80604052505050565b6000613991612bbe565b905061399d8282613956565b919050565b600067ffffffffffffffff8211156139bd576139bc6137a0565b5b6139c682612e3e565b9050602081019050919050565b60006139e66139e1846139a2565b613987565b905082815260208101848484011115613a0257613a01613951565b5b613a0d848285612e14565b509392505050565b600082601f830112613a2a57613a29612ca4565b5b8151613a3a8482602086016139d3565b91505092915050565b60008060408385031215613a5a57613a59612bc8565b5b600083015167ffffffffffffffff811115613a7857613a77612bcd565b5b613a8485828601613a15565b925050602083015167ffffffffffffffff811115613aa557613aa4612bcd565b5b613ab185828601613a15565b9150509250929050565b6000608082019050613ad060008301876131f8565b613add602083018661365e565b613aea604083018561365e565b8181036060830152613afc8184612e4f565b905095945050505050565b6000606082019050613b1c600083018661389e565b8181036020830152613b2e8185612e4f565b90508181036040830152613b428184612e4f565b9050949350505050565b600060208284031215613b6257613b61612bc8565b5b600082015167ffffffffffffffff811115613b8057613b7f612bcd565b5b613b8c84828501613a15565b9150509291505056fea26469706673582212202adeec31ccf4f22b7224f0f5716324e6001872204ea182a0b4a209acb2b3867a64736f6c63430008120033",
  "linkReferences": {},
  "deployedLinkReferences": {}
}