{
  "_format": "hh-sol-artifact-1",
  "contractName": "FlowSplitter",
  "sourceName": "contracts/FlowSplitter.sol",
  "abi": [
    {
      "inputs": [
        {
          "internalType": "address",
          "name": "_mainReceiver",
          "type": "address"
        },
        {
          "internalType": "address",
          "name": "_sideReceiver",
          "type": "address"
        },
        {
          "internalType": "int96",
          "name": "_sideReceiverPortion",
          "type": "int96"
        },
        {
          "internalType": "contract ISuperToken",
          "name": "_acceptedSuperToken",
          "type": "address"
        },
        {
          "internalType": "contract ISuperfluid",
          "name": "_host",
          "type": "address"
        }
      ],
      "stateMutability": "nonpayable",
      "type": "constructor"
    },
    {
      "inputs": [],
      "name": "NotAcceptedSuperToken",
      "type": "error"
    },
    {
      "inputs": [],
      "name": "NotImplemented",
      "type": "error"
    },
    {
      "inputs": [],
      "name": "UnauthorizedHost",
      "type": "error"
    },
    {
      "inputs": [],
      "name": "CFAV1_TYPE",
      "outputs": [
        {
          "internalType": "bytes32",
          "name": "",
          "type": "bytes32"
        }
      ],
      "stateMutability": "view",
      "type": "function"
    },
    {
      "inputs": [],
      "name": "acceptedSuperToken",
      "outputs": [
        {
          "internalType": "contract ISuperToken",
          "name": "",
          "type": "address"
        }
      ],
      "stateMutability": "view",
      "type": "function"
    },
    {
      "inputs": [
        {
          "internalType": "contract ISuperToken",
          "name": "superToken",
          "type": "address"
        },
        {
          "internalType": "address",
          "name": "agreementClass",
          "type": "address"
        },
        {
          "internalType": "bytes32",
          "name": "",
          "type": "bytes32"
        },
        {
          "internalType": "bytes",
          "name": "agreementData",
          "type": "bytes"
        },
        {
          "internalType": "bytes",
          "name": "",
          "type": "bytes"
        },
        {
          "internalType": "bytes",
          "name": "ctx",
          "type": "bytes"
        }
      ],
      "name": "afterAgreementCreated",
      "outputs": [
        {
          "internalType": "bytes",
          "name": "newCtx",
          "type": "bytes"
        }
      ],
      "stateMutability": "nonpayable",
      "type": "function"
    },
    {
      "inputs": [
        {
          "internalType": "contract ISuperToken",
          "name": "superToken",
          "type": "address"
        },
        {
          "internalType": "address",
          "name": "agreementClass",
          "type": "address"
        },
        {
          "internalType": "bytes32",
          "name": "",
          "type": "bytes32"
        },
        {
          "internalType": "bytes",
          "name": "agreementData",
          "type": "bytes"
        },
        {
          "internalType": "bytes",
          "name": "cbdata",
          "type": "bytes"
        },
        {
          "internalType": "bytes",
          "name": "ctx",
          "type": "bytes"
        }
      ],
      "name": "afterAgreementTerminated",
      "outputs": [
        {
          "internalType": "bytes",
          "name": "newCtx",
          "type": "bytes"
        }
      ],
      "stateMutability": "nonpayable",
      "type": "function"
    },
    {
      "inputs": [
        {
          "internalType": "contract ISuperToken",
          "name": "superToken",
          "type": "address"
        },
        {
          "internalType": "address",
          "name": "agreementClass",
          "type": "address"
        },
        {
          "internalType": "bytes32",
          "name": "",
          "type": "bytes32"
        },
        {
          "internalType": "bytes",
          "name": "agreementData",
          "type": "bytes"
        },
        {
          "internalType": "bytes",
          "name": "cbdata",
          "type": "bytes"
        },
        {
          "internalType": "bytes",
          "name": "ctx",
          "type": "bytes"
        }
      ],
      "name": "afterAgreementUpdated",
      "outputs": [
        {
          "internalType": "bytes",
          "name": "newCtx",
          "type": "bytes"
        }
      ],
      "stateMutability": "nonpayable",
      "type": "function"
    },
    {
      "inputs": [
        {
          "internalType": "contract ISuperToken",
          "name": "",
          "type": "address"
        },
        {
          "internalType": "address",
          "name": "",
          "type": "address"
        },
        {
          "internalType": "bytes32",
          "name": "",
          "type": "bytes32"
        },
        {
          "internalType": "bytes",
          "name": "",
          "type": "bytes"
        },
        {
          "internalType": "bytes",
          "name": "",
          "type": "bytes"
        }
      ],
      "name": "beforeAgreementCreated",
      "outputs": [
        {
          "internalType": "bytes",
          "name": "",
          "type": "bytes"
        }
      ],
      "stateMutability": "pure",
      "type": "function"
    },
    {
      "inputs": [
        {
          "internalType": "contract ISuperToken",
          "name": "superToken",
          "type": "address"
        },
        {
          "internalType": "address",
          "name": "agreementClass",
          "type": "address"
        },
        {
          "internalType": "bytes32",
          "name": "",
          "type": "bytes32"
        },
        {
          "internalType": "bytes",
          "name": "agreementData",
          "type": "bytes"
        },
        {
          "internalType": "bytes",
          "name": "",
          "type": "bytes"
        }
      ],
      "name": "beforeAgreementTerminated",
      "outputs": [
        {
          "internalType": "bytes",
          "name": "",
          "type": "bytes"
        }
      ],
      "stateMutability": "view",
      "type": "function"
    },
    {
      "inputs": [
        {
          "internalType": "contract ISuperToken",
          "name": "superToken",
          "type": "address"
        },
        {
          "internalType": "address",
          "name": "agreementClass",
          "type": "address"
        },
        {
          "internalType": "bytes32",
          "name": "",
          "type": "bytes32"
        },
        {
          "internalType": "bytes",
          "name": "agreementData",
          "type": "bytes"
        },
        {
          "internalType": "bytes",
          "name": "",
          "type": "bytes"
        }
      ],
      "name": "beforeAgreementUpdated",
      "outputs": [
        {
          "internalType": "bytes",
          "name": "",
          "type": "bytes"
        }
      ],
      "stateMutability": "view",
      "type": "function"
    },
    {
      "inputs": [],
      "name": "host",
      "outputs": [
        {
          "internalType": "contract ISuperfluid",
          "name": "",
          "type": "address"
        }
      ],
      "stateMutability": "view",
      "type": "function"
    },
    {
      "inputs": [
        {
          "internalType": "contract ISuperToken",
          "name": "superToken",
          "type": "address"
        }
      ],
      "name": "isAcceptedSuperToken",
      "outputs": [
        {
          "internalType": "bool",
          "name": "",
          "type": "bool"
        }
      ],
      "stateMutability": "view",
      "type": "function"
    },
    {
      "inputs": [],
      "name": "mainReceiver",
      "outputs": [
        {
          "internalType": "address",
          "name": "",
          "type": "address"
        }
      ],
      "stateMutability": "view",
      "type": "function"
    },
    {
      "inputs": [],
      "name": "sideReceiver",
      "outputs": [
        {
          "internalType": "address",
          "name": "",
          "type": "address"
        }
      ],
      "stateMutability": "view",
      "type": "function"
    },
    {
      "inputs": [],
      "name": "sideReceiverPortion",
      "outputs": [
        {
          "internalType": "int96",
          "name": "",
          "type": "int96"
        }
      ],
      "stateMutability": "view",
      "type": "function"
    },
    {
      "inputs": [
        {
          "internalType": "int96",
          "name": "newSideReceiverPortion",
          "type": "int96"
        }
      ],
      "name": "updateSplit",
      "outputs": [],
      "stateMutability": "nonpayable",
      "type": "function"
    }
  ],
  "bytecode": "0x60806040523480156200001157600080fd5b506040516200371838038062003718833981810160405281019062000037919062000373565b806001806001836000806101000a81548173ffffffffffffffffffffffffffffffffffffffff021916908373ffffffffffffffffffffffffffffffffffffffff16021790555060006401000000006001179050836200009b57640200000000811790505b82620000b35764080000000064040000000017811790505b81620000cb5764200000000064100000000017811790505b8473ffffffffffffffffffffffffffffffffffffffff1663ad3915c8826040518263ffffffff1660e01b815260040162000106919062000416565b600060405180830381600087803b1580156200012157600080fd5b505af115801562000136573d6000803e3d6000fd5b50505050505050505084600160006101000a81548173ffffffffffffffffffffffffffffffffffffffff021916908373ffffffffffffffffffffffffffffffffffffffff16021790555083600260006101000a81548173ffffffffffffffffffffffffffffffffffffffff021916908373ffffffffffffffffffffffffffffffffffffffff16021790555082600260146101000a8154816bffffffffffffffffffffffff0219169083600b0b6bffffffffffffffffffffffff16021790555081600360006101000a81548173ffffffffffffffffffffffffffffffffffffffff021916908373ffffffffffffffffffffffffffffffffffffffff160217905550505050505062000433565b600080fd5b600073ffffffffffffffffffffffffffffffffffffffff82169050919050565b6000620002738262000246565b9050919050565b620002858162000266565b81146200029157600080fd5b50565b600081519050620002a5816200027a565b92915050565b600081600b0b9050919050565b620002c381620002ab565b8114620002cf57600080fd5b50565b600081519050620002e381620002b8565b92915050565b6000620002f68262000266565b9050919050565b6200030881620002e9565b81146200031457600080fd5b50565b6000815190506200032881620002fd565b92915050565b60006200033b8262000266565b9050919050565b6200034d816200032e565b81146200035957600080fd5b50565b6000815190506200036d8162000342565b92915050565b600080600080600060a0868803121562000392576200039162000241565b5b6000620003a28882890162000294565b9550506020620003b58882890162000294565b9450506040620003c888828901620002d2565b9350506060620003db8882890162000317565b9250506080620003ee888289016200035c565b9150509295509295909350565b6000819050919050565b6200041081620003fb565b82525050565b60006020820190506200042d600083018462000405565b92915050565b6132d580620004436000396000f3fe608060405234801561001057600080fd5b50600436106100ea5760003560e01c8063884d1f401161008c578063d7d5865011610066578063d7d5865014610285578063d86ed3e5146102a3578063f437bc59146102d3578063f5926091146102f1576100ea565b8063884d1f401461021b578063b22e97291461024b578063bcb4546f14610267576100ea565b806353c11f99116100c857806353c11f991461016d5780635f9e7d771461019d578063726fd508146101cd57806372ca8a3e146101eb576100ea565b8063230dbd29146100ef57806330d9c9151461011f57806339ab9f8e1461014f575b600080fd5b610109600480360381019061010491906125bb565b61030f565b604051610116919061273a565b60405180910390f35b6101396004803603810190610134919061275c565b610479565b604051610146919061273a565b60405180910390f35b6101576104be565b6040516101649190612827565b60405180910390f35b610187600480360381019061018291906125bb565b6104e4565b604051610194919061273a565b60405180910390f35b6101b760048036038101906101b2919061275c565b6105f8565b6040516101c4919061273a565b60405180910390f35b6101d561072c565b6040516101e29190612827565b60405180910390f35b61020560048036038101906102009190612842565b610752565b604051610212919061288a565b60405180910390f35b6102356004803603810190610230919061275c565b6107ac565b604051610242919061273a565b60405180910390f35b610265600480360381019061026091906128de565b610937565b005b61026f610b78565b60405161027c919061291a565b60405180910390f35b61028d610b9c565b60405161029a9190612944565b60405180910390f35b6102bd60048036038101906102b891906125bb565b610baf565b6040516102ca919061273a565b60405180910390f35b6102db610cff565b6040516102e891906129be565b60405180910390f35b6102f9610d23565b60405161030691906129fa565b60405180910390f35b606060008054906101000a900473ffffffffffffffffffffffffffffffffffffffff1673ffffffffffffffffffffffffffffffffffffffff163373ffffffffffffffffffffffffffffffffffffffff1614610396576040517f2f2d36a700000000000000000000000000000000000000000000000000000000815260040160405180910390fd5b61039f89610d49565b6103ef5782828080601f016020809104026020016040519081016040528093929190818152602001838380828437600081840152601f19601f82011690508083019250505050505050905061046c565b6103f88a610752565b61042e576040517ff512dd5800000000000000000000000000000000000000000000000000000000815260040160405180910390fd5b6000878781019061043f9190612a53565b50905060008087878101906104549190612ac9565b915091506104668d8484848a8a610e3b565b93505050505b9998505050505050505050565b60606040518060400160405280600281526020017f30780000000000000000000000000000000000000000000000000000000000008152509050979650505050505050565b600160009054906101000a900473ffffffffffffffffffffffffffffffffffffffff1681565b606060008054906101000a900473ffffffffffffffffffffffffffffffffffffffff1673ffffffffffffffffffffffffffffffffffffffff163373ffffffffffffffffffffffffffffffffffffffff16141580610547575061054589610d49565b155b8061055857506105568a610752565b155b156105a95782828080601f016020809104026020016040519081016040528093929190818152602001838380828437600081840152601f19601f8201169050808301925050505050505090506105eb565b60008088888101906105bb9190612a53565b9150915060008088888101906105d19190612b09565b915091506105e48e858584868c8c6110b8565b9450505050505b9998505050505050505050565b606060008054906101000a900473ffffffffffffffffffffffffffffffffffffffff1673ffffffffffffffffffffffffffffffffffffffff163373ffffffffffffffffffffffffffffffffffffffff1614158061065b575061065987610d49565b155b8061066c575061066a88610752565b155b156106ae576040518060400160405280600281526020017f30780000000000000000000000000000000000000000000000000000000000008152509050610721565b60008086868101906106c09190612a53565b915091506000806106f284848e73ffffffffffffffffffffffffffffffffffffffff166114929092919063ffffffff16565b505091509150818160405160200161070b929190612b58565b6040516020818303038152906040529450505050505b979650505050505050565b600260009054906101000a900473ffffffffffffffffffffffffffffffffffffffff1681565b6000600360009054906101000a900473ffffffffffffffffffffffffffffffffffffffff1673ffffffffffffffffffffffffffffffffffffffff168273ffffffffffffffffffffffffffffffffffffffff16149050919050565b606060008054906101000a900473ffffffffffffffffffffffffffffffffffffffff1673ffffffffffffffffffffffffffffffffffffffff163373ffffffffffffffffffffffffffffffffffffffff1614610833576040517f2f2d36a700000000000000000000000000000000000000000000000000000000815260040160405180910390fd5b61083c87610d49565b61087d576040518060400160405280600281526020017f3078000000000000000000000000000000000000000000000000000000000000815250905061092c565b61088688610752565b6108bc576040517ff512dd5800000000000000000000000000000000000000000000000000000000815260040160405180910390fd5b600085858101906108cd9190612a53565b5090506000806108fe83308d73ffffffffffffffffffffffffffffffffffffffff166114929092919063ffffffff16565b5050915091508082604051602001610917929190612b81565b60405160208183030381529060405293505050505b979650505050505050565b80600260146101000a8154816bffffffffffffffffffffffff0219169083600b0b6bffffffffffffffffffffffff16021790555060006109dc30600260009054906101000a900473ffffffffffffffffffffffffffffffffffffffff16600360009054906101000a900473ffffffffffffffffffffffffffffffffffffffff1673ffffffffffffffffffffffffffffffffffffffff1661153e9092919063ffffffff16565b610a4b30600160009054906101000a900473ffffffffffffffffffffffffffffffffffffffff16600360009054906101000a900473ffffffffffffffffffffffffffffffffffffffff1673ffffffffffffffffffffffffffffffffffffffff1661153e9092919063ffffffff16565b610a559190612bd9565b9050610aeb600160009054906101000a900473ffffffffffffffffffffffffffffffffffffffff166103e8846103e8610a8e9190612c3d565b84610a999190612ca1565b610aa39190612d0d565b600360009054906101000a900473ffffffffffffffffffffffffffffffffffffffff1673ffffffffffffffffffffffffffffffffffffffff166115de9092919063ffffffff16565b50610b73600260009054906101000a900473ffffffffffffffffffffffffffffffffffffffff166103e88484610b219190612ca1565b610b2b9190612d0d565b600360009054906101000a900473ffffffffffffffffffffffffffffffffffffffff1673ffffffffffffffffffffffffffffffffffffffff166115de9092919063ffffffff16565b505050565b7fa9214cc96615e0085d3bb077758db69497dc2dce3b2b1e97bc93c3d18d83efd381565b600260149054906101000a9004600b0b81565b606060008054906101000a900473ffffffffffffffffffffffffffffffffffffffff1673ffffffffffffffffffffffffffffffffffffffff163373ffffffffffffffffffffffffffffffffffffffff1614610c36576040517f2f2d36a700000000000000000000000000000000000000000000000000000000815260040160405180910390fd5b610c3f89610d49565b610c8f5782828080601f016020809104026020016040519081016040528093929190818152602001838380828437600081840152601f19601f820116905080830192505050505050509050610cf2565b610c988a610752565b610cce576040517ff512dd5800000000000000000000000000000000000000000000000000000000815260040160405180910390fd5b60008787810190610cdf9190612a53565b509050610cee8b828686611642565b9150505b9998505050505050505050565b60008054906101000a900473ffffffffffffffffffffffffffffffffffffffff1681565b600360009054906101000a900473ffffffffffffffffffffffffffffffffffffffff1681565b60008060009054906101000a900473ffffffffffffffffffffffffffffffffffffffff1673ffffffffffffffffffffffffffffffffffffffff1663b6d200de7fa9214cc96615e0085d3bb077758db69497dc2dce3b2b1e97bc93c3d18d83efd36040518263ffffffff1660e01b8152600401610dc5919061291a565b602060405180830381865afa158015610de2573d6000803e3d6000fd5b505050506040513d601f19601f82011682018060405250810190610e069190612db5565b73ffffffffffffffffffffffffffffffffffffffff168273ffffffffffffffffffffffffffffffffffffffff16149050919050565b606082828080601f016020809104026020016040519081016040528093929190818152602001838380828437600081840152601f19601f820116905080830192505050505050509050600085610eb288308b73ffffffffffffffffffffffffffffffffffffffff1661153e9092919063ffffffff16565b610ebc9190612c3d565b9050610fba600160009054906101000a900473ffffffffffffffffffffffffffffffffffffffff166103e8600260149054906101000a9004600b0b6103e8610f049190612c3d565b84610f0f9190612ca1565b610f199190612d0d565b610f8830600160009054906101000a900473ffffffffffffffffffffffffffffffffffffffff16600360009054906101000a900473ffffffffffffffffffffffffffffffffffffffff1673ffffffffffffffffffffffffffffffffffffffff1661153e9092919063ffffffff16565b610f929190612bd9565b848b73ffffffffffffffffffffffffffffffffffffffff16611a0c909392919063ffffffff16565b91506110ab600260009054906101000a900473ffffffffffffffffffffffffffffffffffffffff166103e8600260149054906101000a9004600b0b846110009190612ca1565b61100a9190612d0d565b61107930600260009054906101000a900473ffffffffffffffffffffffffffffffffffffffff16600360009054906101000a900473ffffffffffffffffffffffffffffffffffffffff1673ffffffffffffffffffffffffffffffffffffffff1661153e9092919063ffffffff16565b6110839190612bd9565b848b73ffffffffffffffffffffffffffffffffffffffff16611a0c909392919063ffffffff16565b9150509695505050505050565b606082828080601f016020809104026020016040519081016040528093929190818152602001838380828437600081840152601f19601f82011690508083019250505050505050905060008561117330600260009054906101000a900473ffffffffffffffffffffffffffffffffffffffff16600360009054906101000a900473ffffffffffffffffffffffffffffffffffffffff1673ffffffffffffffffffffffffffffffffffffffff1661153e9092919063ffffffff16565b6111e230600160009054906101000a900473ffffffffffffffffffffffffffffffffffffffff16600360009054906101000a900473ffffffffffffffffffffffffffffffffffffffff1673ffffffffffffffffffffffffffffffffffffffff1661153e9092919063ffffffff16565b6111ec9190612bd9565b6111f69190612c3d565b9050600160009054906101000a900473ffffffffffffffffffffffffffffffffffffffff1673ffffffffffffffffffffffffffffffffffffffff168773ffffffffffffffffffffffffffffffffffffffff1614806112a15750600260009054906101000a900473ffffffffffffffffffffffffffffffffffffffff1673ffffffffffffffffffffffffffffffffffffffff168773ffffffffffffffffffffffffffffffffffffffff16145b156112d6576112d38787848c73ffffffffffffffffffffffffffffffffffffffff16611b73909392919063ffffffff16565b91505b600081600b0b136113885761133030600160009054906101000a900473ffffffffffffffffffffffffffffffffffffffff16848c73ffffffffffffffffffffffffffffffffffffffff16611cda909392919063ffffffff16565b915061138130600260009054906101000a900473ffffffffffffffffffffffffffffffffffffffff16848c73ffffffffffffffffffffffffffffffffffffffff16611cda909392919063ffffffff16565b9150611486565b61140b600160009054906101000a900473ffffffffffffffffffffffffffffffffffffffff166103e8600260149054906101000a9004600b0b6103e86113ce9190612c3d565b846113d99190612ca1565b6113e39190612d0d565b848c73ffffffffffffffffffffffffffffffffffffffff16611a0c909392919063ffffffff16565b9150611483600260009054906101000a900473ffffffffffffffffffffffffffffffffffffffff166103e8600260149054906101000a9004600b0b846114519190612ca1565b61145b9190612d0d565b848c73ffffffffffffffffffffffffffffffffffffffff16611a0c909392919063ffffffff16565b91505b50979650505050505050565b60008060008060006114a388611e41565b9150508073ffffffffffffffffffffffffffffffffffffffff1663e6a1e8888989896040518463ffffffff1660e01b81526004016114e393929190612de2565b608060405180830381865afa158015611500573d6000803e3d6000fd5b505050506040513d601f19601f820116820180604052508101906115249190612e43565b809550819650829750839850505050505093509350935093565b60008061154a85611e41565b9150508073ffffffffffffffffffffffffffffffffffffffff1663e6a1e8888686866040518463ffffffff1660e01b815260040161158a93929190612de2565b608060405180830381865afa1580156115a7573d6000803e3d6000fd5b505050506040513d601f19601f820116820180604052508101906115cb9190612e43565b9091925090505080925050509392505050565b6000611639848484600067ffffffffffffffff81111561160157611600612eaa565b5b6040519080825280601f01601f1916602001820160405280156116335781602001600182028036833780820191505090505b50612082565b90509392505050565b606082828080601f016020809104026020016040519081016040528093929190818152602001838380828437600081840152601f19601f82011690508083019250505050505050905060006116b885308873ffffffffffffffffffffffffffffffffffffffff1661153e9092919063ffffffff16565b9050600061170930600160009054906101000a900473ffffffffffffffffffffffffffffffffffffffff168973ffffffffffffffffffffffffffffffffffffffff1661153e9092919063ffffffff16565b600b0b0361181357611794600160009054906101000a900473ffffffffffffffffffffffffffffffffffffffff166103e8600260149054906101000a9004600b0b6103e86117579190612c3d565b846117629190612ca1565b61176c9190612d0d565b848973ffffffffffffffffffffffffffffffffffffffff16611b73909392919063ffffffff16565b915061180c600260009054906101000a900473ffffffffffffffffffffffffffffffffffffffff166103e8600260149054906101000a9004600b0b846117da9190612ca1565b6117e49190612d0d565b848973ffffffffffffffffffffffffffffffffffffffff16611b73909392919063ffffffff16565b9150611a03565b61190f600160009054906101000a900473ffffffffffffffffffffffffffffffffffffffff166103e8600260149054906101000a9004600b0b6103e86118599190612c3d565b846118649190612ca1565b61186e9190612d0d565b6118dd30600160009054906101000a900473ffffffffffffffffffffffffffffffffffffffff16600360009054906101000a900473ffffffffffffffffffffffffffffffffffffffff1673ffffffffffffffffffffffffffffffffffffffff1661153e9092919063ffffffff16565b6118e79190612bd9565b848973ffffffffffffffffffffffffffffffffffffffff16611a0c909392919063ffffffff16565b9150611a00600260009054906101000a900473ffffffffffffffffffffffffffffffffffffffff166103e8600260149054906101000a9004600b0b846119559190612ca1565b61195f9190612d0d565b6119ce30600260009054906101000a900473ffffffffffffffffffffffffffffffffffffffff16600360009054906101000a900473ffffffffffffffffffffffffffffffffffffffff1673ffffffffffffffffffffffffffffffffffffffff1661153e9092919063ffffffff16565b6119d89190612bd9565b848973ffffffffffffffffffffffffffffffffffffffff16611a0c909392919063ffffffff16565b91505b50949350505050565b6060600080611a1a876121e9565b915091508173ffffffffffffffffffffffffffffffffffffffff16634329d293828373ffffffffffffffffffffffffffffffffffffffff166350209a628b8b8b600067ffffffffffffffff811115611a7557611a74612eaa565b5b6040519080825280601f01601f191660200182016040528015611aa75781602001600182028036833780820191505090505b50604051602401611abb9493929190612ed9565b604051602081830303815290604052915060e01b6020820180517bffffffffffffffffffffffffffffffffffffffffffffffffffffffff8381831617835250505050876040518463ffffffff1660e01b8152600401611b1c93929190612f92565b6000604051808303816000875af1158015611b3b573d6000803e3d6000fd5b505050506040513d6000823e3d601f19601f82011682018060405250810190611b6491906130dc565b50809350505050949350505050565b6060600080611b81876121e9565b915091508173ffffffffffffffffffffffffffffffffffffffff16634329d293828373ffffffffffffffffffffffffffffffffffffffff166362fc305e8b8b8b600067ffffffffffffffff811115611bdc57611bdb612eaa565b5b6040519080825280601f01601f191660200182016040528015611c0e5781602001600182028036833780820191505090505b50604051602401611c229493929190612ed9565b604051602081830303815290604052915060e01b6020820180517bffffffffffffffffffffffffffffffffffffffffffffffffffffffff8381831617835250505050876040518463ffffffff1660e01b8152600401611c8393929190612f92565b6000604051808303816000875af1158015611ca2573d6000803e3d6000fd5b505050506040513d6000823e3d601f19601f82011682018060405250810190611ccb91906130dc565b50809350505050949350505050565b6060600080611ce8876121e9565b915091508173ffffffffffffffffffffffffffffffffffffffff16634329d293828373ffffffffffffffffffffffffffffffffffffffff1663b4b333c68b8b8b600067ffffffffffffffff811115611d4357611d42612eaa565b5b6040519080825280601f01601f191660200182016040528015611d755781602001600182028036833780820191505090505b50604051602401611d899493929190613154565b604051602081830303815290604052915060e01b6020820180517bffffffffffffffffffffffffffffffffffffffffffffffffffffffff8381831617835250505050876040518463ffffffff1660e01b8152600401611dea93929190612f92565b6000604051808303816000875af1158015611e09573d6000803e3d6000fd5b505050506040513d6000823e3d601f19601f82011682018060405250810190611e3291906130dc565b50809350505050949350505050565b6000807f65599bf746e17a00ea62e3610586992d88101b78eec3cf380706621fb97ea8375491507fb969d79d88acd02d04ed7ee7d43b949e7daf093d363abcfbbc43dfdfd1ce969a549050600073ffffffffffffffffffffffffffffffffffffffff168173ffffffffffffffffffffffffffffffffffffffff160361200357600073ffffffffffffffffffffffffffffffffffffffff168273ffffffffffffffffffffffffffffffffffffffff1603611f66578273ffffffffffffffffffffffffffffffffffffffff166320bc44256040518163ffffffff1660e01b8152600401602060405180830381865afa158015611f3f573d6000803e3d6000fd5b505050506040513d601f19601f82011682018060405250810190611f6391906131b5565b91505b8173ffffffffffffffffffffffffffffffffffffffff1663b6d200de7fa9214cc96615e0085d3bb077758db69497dc2dce3b2b1e97bc93c3d18d83efd36040518263ffffffff1660e01b8152600401611fbf919061291a565b602060405180830381865afa158015611fdc573d6000803e3d6000fd5b505050506040513d601f19601f820116820180604052508101906120009190612db5565b90505b600073ffffffffffffffffffffffffffffffffffffffff168273ffffffffffffffffffffffffffffffffffffffff16036120405761203f6131e2565b5b600073ffffffffffffffffffffffffffffffffffffffff168173ffffffffffffffffffffffffffffffffffffffff160361207d5761207c6131e2565b5b915091565b6000806000612090876121e9565b915091508173ffffffffffffffffffffffffffffffffffffffff166339255d5b828373ffffffffffffffffffffffffffffffffffffffff166350209a628b8b8b600067ffffffffffffffff8111156120eb576120ea612eaa565b5b6040519080825280601f01601f19166020018201604052801561211d5781602001600182028036833780820191505090505b506040516024016121319493929190612ed9565b604051602081830303815290604052915060e01b6020820180517bffffffffffffffffffffffffffffffffffffffffffffffffffffffff8381831617835250505050876040518463ffffffff1660e01b815260040161219293929190613211565b6000604051808303816000875af11580156121b1573d6000803e3d6000fd5b505050506040513d6000823e3d601f19601f820116820180604052508101906121da9190613256565b50600192505050949350505050565b6000807f65599bf746e17a00ea62e3610586992d88101b78eec3cf380706621fb97ea8375491507fb969d79d88acd02d04ed7ee7d43b949e7daf093d363abcfbbc43dfdfd1ce969a549050600073ffffffffffffffffffffffffffffffffffffffff168173ffffffffffffffffffffffffffffffffffffffff16036123f157600073ffffffffffffffffffffffffffffffffffffffff168273ffffffffffffffffffffffffffffffffffffffff160361230e578273ffffffffffffffffffffffffffffffffffffffff166320bc44256040518163ffffffff1660e01b8152600401602060405180830381865afa1580156122e7573d6000803e3d6000fd5b505050506040513d601f19601f8201168201806040525081019061230b91906131b5565b91505b8173ffffffffffffffffffffffffffffffffffffffff1663b6d200de7fa9214cc96615e0085d3bb077758db69497dc2dce3b2b1e97bc93c3d18d83efd36040518263ffffffff1660e01b8152600401612367919061291a565b602060405180830381865afa158015612384573d6000803e3d6000fd5b505050506040513d601f19601f820116820180604052508101906123a89190612db5565b9050817f65599bf746e17a00ea62e3610586992d88101b78eec3cf380706621fb97ea83755807fb969d79d88acd02d04ed7ee7d43b949e7daf093d363abcfbbc43dfdfd1ce969a555b600073ffffffffffffffffffffffffffffffffffffffff168273ffffffffffffffffffffffffffffffffffffffff160361242e5761242d6131e2565b5b600073ffffffffffffffffffffffffffffffffffffffff168173ffffffffffffffffffffffffffffffffffffffff160361246b5761246a6131e2565b5b915091565b6000604051905090565b600080fd5b600080fd5b600073ffffffffffffffffffffffffffffffffffffffff82169050919050565b60006124af82612484565b9050919050565b60006124c1826124a4565b9050919050565b6124d1816124b6565b81146124dc57600080fd5b50565b6000813590506124ee816124c8565b92915050565b6124fd816124a4565b811461250857600080fd5b50565b60008135905061251a816124f4565b92915050565b6000819050919050565b61253381612520565b811461253e57600080fd5b50565b6000813590506125508161252a565b92915050565b600080fd5b600080fd5b600080fd5b60008083601f84011261257b5761257a612556565b5b8235905067ffffffffffffffff8111156125985761259761255b565b5b6020830191508360018202830111156125b4576125b3612560565b5b9250929050565b600080600080600080600080600060c08a8c0312156125dd576125dc61247a565b5b60006125eb8c828d016124df565b99505060206125fc8c828d0161250b565b985050604061260d8c828d01612541565b97505060608a013567ffffffffffffffff81111561262e5761262d61247f565b5b61263a8c828d01612565565b965096505060808a013567ffffffffffffffff81111561265d5761265c61247f565b5b6126698c828d01612565565b945094505060a08a013567ffffffffffffffff81111561268c5761268b61247f565b5b6126988c828d01612565565b92509250509295985092959850929598565b600081519050919050565b600082825260208201905092915050565b60005b838110156126e45780820151818401526020810190506126c9565b60008484015250505050565b6000601f19601f8301169050919050565b600061270c826126aa565b61271681856126b5565b93506127268185602086016126c6565b61272f816126f0565b840191505092915050565b600060208201905081810360008301526127548184612701565b905092915050565b600080600080600080600060a0888a03121561277b5761277a61247a565b5b60006127898a828b016124df565b975050602061279a8a828b0161250b565b96505060406127ab8a828b01612541565b955050606088013567ffffffffffffffff8111156127cc576127cb61247f565b5b6127d88a828b01612565565b9450945050608088013567ffffffffffffffff8111156127fb576127fa61247f565b5b6128078a828b01612565565b925092505092959891949750929550565b612821816124a4565b82525050565b600060208201905061283c6000830184612818565b92915050565b6000602082840312156128585761285761247a565b5b6000612866848285016124df565b91505092915050565b60008115159050919050565b6128848161286f565b82525050565b600060208201905061289f600083018461287b565b92915050565b600081600b0b9050919050565b6128bb816128a5565b81146128c657600080fd5b50565b6000813590506128d8816128b2565b92915050565b6000602082840312156128f4576128f361247a565b5b6000612902848285016128c9565b91505092915050565b61291481612520565b82525050565b600060208201905061292f600083018461290b565b92915050565b61293e816128a5565b82525050565b60006020820190506129596000830184612935565b92915050565b6000819050919050565b600061298461297f61297a84612484565b61295f565b612484565b9050919050565b600061299682612969565b9050919050565b60006129a88261298b565b9050919050565b6129b88161299d565b82525050565b60006020820190506129d360008301846129af565b92915050565b60006129e48261298b565b9050919050565b6129f4816129d9565b82525050565b6000602082019050612a0f60008301846129eb565b92915050565b6000612a2082612484565b9050919050565b612a3081612a15565b8114612a3b57600080fd5b50565b600081359050612a4d81612a27565b92915050565b60008060408385031215612a6a57612a6961247a565b5b6000612a7885828601612a3e565b9250506020612a8985828601612a3e565b9150509250929050565b6000819050919050565b612aa681612a93565b8114612ab157600080fd5b50565b600081359050612ac381612a9d565b92915050565b60008060408385031215612ae057612adf61247a565b5b6000612aee858286016128c9565b9250506020612aff85828601612ab4565b9150509250929050565b60008060408385031215612b2057612b1f61247a565b5b6000612b2e85828601612ab4565b9250506020612b3f858286016128c9565b9150509250929050565b612b5281612a93565b82525050565b6000604082019050612b6d6000830185612b49565b612b7a6020830184612935565b9392505050565b6000604082019050612b966000830185612935565b612ba36020830184612b49565b9392505050565b7f4e487b7100000000000000000000000000000000000000000000000000000000600052601160045260246000fd5b6000612be4826128a5565b9150612bef836128a5565b925082820190507fffffffffffffffffffffffffffffffffffffffff80000000000000000000000081126b7fffffffffffffffffffffff82131715612c3757612c36612baa565b5b92915050565b6000612c48826128a5565b9150612c53836128a5565b925082820390506b7fffffffffffffffffffffff81137fffffffffffffffffffffffffffffffffffffffff80000000000000000000000082121715612c9b57612c9a612baa565b5b92915050565b6000612cac826128a5565b9150612cb7836128a5565b9250828202612cc5816128a5565b9150808214612cd757612cd6612baa565b5b5092915050565b7f4e487b7100000000000000000000000000000000000000000000000000000000600052601260045260246000fd5b6000612d18826128a5565b9150612d23836128a5565b925082612d3357612d32612cde565b5b600160000383147fffffffffffffffffffffffffffffffffffffffff80000000000000000000000083141615612d6c57612d6b612baa565b5b828205905092915050565b6000612d82826124a4565b9050919050565b612d9281612d77565b8114612d9d57600080fd5b50565b600081519050612daf81612d89565b92915050565b600060208284031215612dcb57612dca61247a565b5b6000612dd984828501612da0565b91505092915050565b6000606082019050612df760008301866129eb565b612e046020830185612818565b612e116040830184612818565b949350505050565b600081519050612e2881612a9d565b92915050565b600081519050612e3d816128b2565b92915050565b60008060008060808587031215612e5d57612e5c61247a565b5b6000612e6b87828801612e19565b9450506020612e7c87828801612e2e565b9350506040612e8d87828801612e19565b9250506060612e9e87828801612e19565b91505092959194509250565b7f4e487b7100000000000000000000000000000000000000000000000000000000600052604160045260246000fd5b6000608082019050612eee60008301876129eb565b612efb6020830186612818565b612f086040830185612935565b8181036060830152612f1a8184612701565b905095945050505050565b6000612f308261298b565b9050919050565b612f4081612f25565b82525050565b7f3078000000000000000000000000000000000000000000000000000000000000600082015250565b6000612f7c6002836126b5565b9150612f8782612f46565b602082019050919050565b6000608082019050612fa76000830186612f37565b8181036020830152612fb98185612701565b90508181036040830152612fcc81612f6f565b90508181036060830152612fe08184612701565b9050949350505050565b600080fd5b612ff8826126f0565b810181811067ffffffffffffffff8211171561301757613016612eaa565b5b80604052505050565b600061302a612470565b90506130368282612fef565b919050565b600067ffffffffffffffff82111561305657613055612eaa565b5b61305f826126f0565b9050602081019050919050565b600061307f61307a8461303b565b613020565b90508281526020810184848401111561309b5761309a612fea565b5b6130a68482856126c6565b509392505050565b600082601f8301126130c3576130c2612556565b5b81516130d384826020860161306c565b91505092915050565b600080604083850312156130f3576130f261247a565b5b600083015167ffffffffffffffff8111156131115761311061247f565b5b61311d858286016130ae565b925050602083015167ffffffffffffffff81111561313e5761313d61247f565b5b61314a858286016130ae565b9150509250929050565b600060808201905061316960008301876129eb565b6131766020830186612818565b6131836040830185612818565b81810360608301526131958184612701565b905095945050505050565b6000815190506131af816124f4565b92915050565b6000602082840312156131cb576131ca61247a565b5b60006131d9848285016131a0565b91505092915050565b7f4e487b7100000000000000000000000000000000000000000000000000000000600052600160045260246000fd5b60006060820190506132266000830186612f37565b81810360208301526132388185612701565b9050818103604083015261324c8184612701565b9050949350505050565b60006020828403121561326c5761326b61247a565b5b600082015167ffffffffffffffff81111561328a5761328961247f565b5b613296848285016130ae565b9150509291505056fea26469706673582212208e8dc4536ca1e5fad03c5b4d91bee87e524af9a795e8d93041c477225a6798bc64736f6c63430008120033",
  "linkReferences": {},
  "deployedLinkReferences": {}
}