{
  "_format": "hh-sol-artifact-1",
  "contractName": "EmploymentLoan",
  "sourceName": "contracts/EmploymentLoan.sol",
  "abi": [
    {
      "inputs": [
        {
          "internalType": "int256",
          "name": "_borrowAmount",
          "type": "int256"
        },
        {
          "internalType": "int8",
          "name": "_interestRate",
          "type": "int8"
        },
        {
          "internalType": "int256",
          "name": "_paybackMonths",
          "type": "int256"
        },
        {
          "internalType": "address",
          "name": "_employer",
          "type": "address"
        },
        {
          "internalType": "address",
          "name": "_borrower",
          "type": "address"
        },
        {
          "internalType": "contract ISuperToken",
          "name": "_borrowToken",
          "type": "address"
        },
        {
          "internalType": "contract ISuperfluid",
          "name": "_host",
          "type": "address"
        }
      ],
      "stateMutability": "nonpayable",
      "type": "constructor"
    },
    {
      "inputs": [],
      "name": "CFA_ID",
      "outputs": [
        {
          "internalType": "bytes32",
          "name": "",
          "type": "bytes32"
        }
      ],
      "stateMutability": "view",
      "type": "function"
    },
    {
      "inputs": [
        {
          "internalType": "contract ISuperToken",
          "name": "_superToken",
          "type": "address"
        },
        {
          "internalType": "address",
          "name": "_agreementClass",
          "type": "address"
        },
        {
          "internalType": "bytes32",
          "name": "",
          "type": "bytes32"
        },
        {
          "internalType": "bytes",
          "name": "",
          "type": "bytes"
        },
        {
          "internalType": "bytes",
          "name": "",
          "type": "bytes"
        },
        {
          "internalType": "bytes",
          "name": "ctx",
          "type": "bytes"
        }
      ],
      "name": "afterAgreementCreated",
      "outputs": [
        {
          "internalType": "bytes",
          "name": "newCtx",
          "type": "bytes"
        }
      ],
      "stateMutability": "nonpayable",
      "type": "function"
    },
    {
      "inputs": [
        {
          "internalType": "contract ISuperToken",
          "name": "_superToken",
          "type": "address"
        },
        {
          "internalType": "address",
          "name": "_agreementClass",
          "type": "address"
        },
        {
          "internalType": "bytes32",
          "name": "",
          "type": "bytes32"
        },
        {
          "internalType": "bytes",
          "name": "",
          "type": "bytes"
        },
        {
          "internalType": "bytes",
          "name": "",
          "type": "bytes"
        },
        {
          "internalType": "bytes",
          "name": "ctx",
          "type": "bytes"
        }
      ],
      "name": "afterAgreementTerminated",
      "outputs": [
        {
          "internalType": "bytes",
          "name": "newCtx",
          "type": "bytes"
        }
      ],
      "stateMutability": "nonpayable",
      "type": "function"
    },
    {
      "inputs": [
        {
          "internalType": "contract ISuperToken",
          "name": "_superToken",
          "type": "address"
        },
        {
          "internalType": "address",
          "name": "_agreementClass",
          "type": "address"
        },
        {
          "internalType": "bytes32",
          "name": "",
          "type": "bytes32"
        },
        {
          "internalType": "bytes",
          "name": "",
          "type": "bytes"
        },
        {
          "internalType": "bytes",
          "name": "",
          "type": "bytes"
        },
        {
          "internalType": "bytes",
          "name": "ctx",
          "type": "bytes"
        }
      ],
      "name": "afterAgreementUpdated",
      "outputs": [
        {
          "internalType": "bytes",
          "name": "newCtx",
          "type": "bytes"
        }
      ],
      "stateMutability": "nonpayable",
      "type": "function"
    },
    {
      "inputs": [
        {
          "internalType": "contract ISuperToken",
          "name": "",
          "type": "address"
        },
        {
          "internalType": "address",
          "name": "",
          "type": "address"
        },
        {
          "internalType": "bytes32",
          "name": "",
          "type": "bytes32"
        },
        {
          "internalType": "bytes",
          "name": "",
          "type": "bytes"
        },
        {
          "internalType": "bytes",
          "name": "",
          "type": "bytes"
        }
      ],
      "name": "beforeAgreementCreated",
      "outputs": [
        {
          "internalType": "bytes",
          "name": "",
          "type": "bytes"
        }
      ],
      "stateMutability": "view",
      "type": "function"
    },
    {
      "inputs": [
        {
          "internalType": "contract ISuperToken",
          "name": "",
          "type": "address"
        },
        {
          "internalType": "address",
          "name": "",
          "type": "address"
        },
        {
          "internalType": "bytes32",
          "name": "",
          "type": "bytes32"
        },
        {
          "internalType": "bytes",
          "name": "",
          "type": "bytes"
        },
        {
          "internalType": "bytes",
          "name": "",
          "type": "bytes"
        }
      ],
      "name": "beforeAgreementTerminated",
      "outputs": [
        {
          "internalType": "bytes",
          "name": "",
          "type": "bytes"
        }
      ],
      "stateMutability": "view",
      "type": "function"
    },
    {
      "inputs": [
        {
          "internalType": "contract ISuperToken",
          "name": "",
          "type": "address"
        },
        {
          "internalType": "address",
          "name": "",
          "type": "address"
        },
        {
          "internalType": "bytes32",
          "name": "",
          "type": "bytes32"
        },
        {
          "internalType": "bytes",
          "name": "",
          "type": "bytes"
        },
        {
          "internalType": "bytes",
          "name": "",
          "type": "bytes"
        }
      ],
      "name": "beforeAgreementUpdated",
      "outputs": [
        {
          "internalType": "bytes",
          "name": "",
          "type": "bytes"
        }
      ],
      "stateMutability": "view",
      "type": "function"
    },
    {
      "inputs": [],
      "name": "borrowAmount",
      "outputs": [
        {
          "internalType": "int256",
          "name": "",
          "type": "int256"
        }
      ],
      "stateMutability": "view",
      "type": "function"
    },
    {
      "inputs": [],
      "name": "borrowToken",
      "outputs": [
        {
          "internalType": "contract ISuperToken",
          "name": "",
          "type": "address"
        }
      ],
      "stateMutability": "view",
      "type": "function"
    },
    {
      "inputs": [],
      "name": "borrower",
      "outputs": [
        {
          "internalType": "address",
          "name": "",
          "type": "address"
        }
      ],
      "stateMutability": "view",
      "type": "function"
    },
    {
      "inputs": [],
      "name": "cfaV1",
      "outputs": [
        {
          "internalType": "contract ISuperfluid",
          "name": "host",
          "type": "address"
        },
        {
          "internalType": "contract IConstantFlowAgreementV1",
          "name": "cfa",
          "type": "address"
        }
      ],
      "stateMutability": "view",
      "type": "function"
    },
    {
      "inputs": [],
      "name": "closeCompletedLoan",
      "outputs": [],
      "stateMutability": "nonpayable",
      "type": "function"
    },
    {
      "inputs": [
        {
          "internalType": "uint256",
          "name": "amountForPayoff",
          "type": "uint256"
        }
      ],
      "name": "closeOpenLoan",
      "outputs": [],
      "stateMutability": "nonpayable",
      "type": "function"
    },
    {
      "inputs": [],
      "name": "employer",
      "outputs": [
        {
          "internalType": "address",
          "name": "",
          "type": "address"
        }
      ],
      "stateMutability": "view",
      "type": "function"
    },
    {
      "inputs": [],
      "name": "getPaymentFlowRate",
      "outputs": [
        {
          "internalType": "int96",
          "name": "paymentFlowRate",
          "type": "int96"
        }
      ],
      "stateMutability": "view",
      "type": "function"
    },
    {
      "inputs": [],
      "name": "getTotalAmountRemaining",
      "outputs": [
        {
          "internalType": "uint256",
          "name": "",
          "type": "uint256"
        }
      ],
      "stateMutability": "view",
      "type": "function"
    },
    {
      "inputs": [],
      "name": "host",
      "outputs": [
        {
          "internalType": "contract ISuperfluid",
          "name": "",
          "type": "address"
        }
      ],
      "stateMutability": "view",
      "type": "function"
    },
    {
      "inputs": [],
      "name": "interestRate",
      "outputs": [
        {
          "internalType": "int8",
          "name": "",
          "type": "int8"
        }
      ],
      "stateMutability": "view",
      "type": "function"
    },
    {
      "inputs": [],
      "name": "isClosed",
      "outputs": [
        {
          "internalType": "bool",
          "name": "",
          "type": "bool"
        }
      ],
      "stateMutability": "view",
      "type": "function"
    },
    {
      "inputs": [],
      "name": "lend",
      "outputs": [],
      "stateMutability": "nonpayable",
      "type": "function"
    },
    {
      "inputs": [],
      "name": "lender",
      "outputs": [
        {
          "internalType": "address",
          "name": "",
          "type": "address"
        }
      ],
      "stateMutability": "view",
      "type": "function"
    },
    {
      "inputs": [],
      "name": "loanOpen",
      "outputs": [
        {
          "internalType": "bool",
          "name": "",
          "type": "bool"
        }
      ],
      "stateMutability": "view",
      "type": "function"
    },
    {
      "inputs": [],
      "name": "loanStartTime",
      "outputs": [
        {
          "internalType": "uint256",
          "name": "",
          "type": "uint256"
        }
      ],
      "stateMutability": "view",
      "type": "function"
    },
    {
      "inputs": [],
      "name": "paybackMonths",
      "outputs": [
        {
          "internalType": "int256",
          "name": "",
          "type": "int256"
        }
      ],
      "stateMutability": "view",
      "type": "function"
    }
  ],
  "bytecode": "0x6101606040523480156200001257600080fd5b50604051620054c3380380620054c38339818101604052810190620000389190620004db565b86608081815250508560000b60a08160000b815250508460c081815250508373ffffffffffffffffffffffffffffffffffffffff1660e08173ffffffffffffffffffffffffffffffffffffffff16815250508273ffffffffffffffffffffffffffffffffffffffff166101008173ffffffffffffffffffffffffffffffffffffffff16815250508173ffffffffffffffffffffffffffffffffffffffff166101408173ffffffffffffffffffffffffffffffffffffffff16815250508073ffffffffffffffffffffffffffffffffffffffff166101208173ffffffffffffffffffffffffffffffffffffffff16815250506000600260146101000a81548160ff0219169083151502179055506000600460006101000a81548160ff02191690831515021790555060008173ffffffffffffffffffffffffffffffffffffffff1663b6d200de7fa9214cc96615e0085d3bb077758db69497dc2dce3b2b1e97bc93c3d18d83efd36040518263ffffffff1660e01b8152600401620001bc9190620005a9565b602060405180830381865afa158015620001da573d6000803e3d6000fd5b505050506040513d601f19601f820116820180604052508101906200020091906200060b565b905060405180604001604052808373ffffffffffffffffffffffffffffffffffffffff1681526020018273ffffffffffffffffffffffffffffffffffffffff168152506000808201518160000160006101000a81548173ffffffffffffffffffffffffffffffffffffffff021916908373ffffffffffffffffffffffffffffffffffffffff16021790555060208201518160010160006101000a81548173ffffffffffffffffffffffffffffffffffffffff021916908373ffffffffffffffffffffffffffffffffffffffff1602179055509050506000641000000000640400000000640100000000600117171790508273ffffffffffffffffffffffffffffffffffffffff1663ad3915c8826040518263ffffffff1660e01b81526004016200032b919062000658565b600060405180830381600087803b1580156200034657600080fd5b505af11580156200035b573d6000803e3d6000fd5b5050505050505050505050505062000675565b600080fd5b6000819050919050565b620003888162000373565b81146200039457600080fd5b50565b600081519050620003a8816200037d565b92915050565b60008160000b9050919050565b620003c681620003ae565b8114620003d257600080fd5b50565b600081519050620003e681620003bb565b92915050565b600073ffffffffffffffffffffffffffffffffffffffff82169050919050565b60006200041982620003ec565b9050919050565b6200042b816200040c565b81146200043757600080fd5b50565b6000815190506200044b8162000420565b92915050565b60006200045e826200040c565b9050919050565b620004708162000451565b81146200047c57600080fd5b50565b600081519050620004908162000465565b92915050565b6000620004a3826200040c565b9050919050565b620004b58162000496565b8114620004c157600080fd5b50565b600081519050620004d581620004aa565b92915050565b600080600080600080600060e0888a031215620004fd57620004fc6200036e565b5b60006200050d8a828b0162000397565b9750506020620005208a828b01620003d5565b9650506040620005338a828b0162000397565b9550506060620005468a828b016200043a565b9450506080620005598a828b016200043a565b93505060a06200056c8a828b016200047f565b92505060c06200057f8a828b01620004c4565b91505092959891949750929550565b6000819050919050565b620005a3816200058e565b82525050565b6000602082019050620005c0600083018462000598565b92915050565b6000620005d3826200040c565b9050919050565b620005e581620005c6565b8114620005f157600080fd5b50565b6000815190506200060581620005da565b92915050565b6000602082840312156200062457620006236200036e565b5b60006200063484828501620005f4565b91505092915050565b6000819050919050565b62000652816200063d565b82525050565b60006020820190506200066f600083018462000647565b92915050565b60805160a05160c05160e051610100516101205161014051614c486200087b600039600081816106270152818161093501528181610a2c01528181610b4f01528181610c1301528181610cde01528181610d5e01528181610f630152818161104e01528181611171015281816111c8015281816112d6015281816113c001528181611417015281816116a001528181611770015281816117e5015281816118b00152818161192b01528181611ab201528181611b7601528181611c6101528181611f5e01528181611fbb015281816120830152818161217e015281816121ea01528181612254015281816122b50152818161234b015281816123a8015281816124090152818161260d0152818161267601526126d7015260008181611625015261249801526000818161088c01528181610a6901528181610c3501528181610cbd01528181611070015281816111a7015281816113f6015281816118070152818161188f01528181611c8301528181611f9a015281816120a50152818161215d015281816121c9015281816122940152818161232a015281816123e8015281816125ec01526126b601526000818161095601528181610e7c015261253f01526000818161076b01528181610e160152610ea001526000818161078e01526108680152600081816107b2015281816107e701528181610a8a0152610ec40152614c486000f3fe608060405234801561001057600080fd5b50600436106101585760003560e01c806397dffc61116100c3578063c2b6b58c1161007c578063c2b6b58c146103bf578063d116eb5b146103dd578063d3112b2e146103f9578063d86ed3e514610418578063f437bc5914610448578063fea7b5931461046657610158565b806397dffc611461031f5780639ed53f7a14610329578063ae200e7914610347578063ae5a023414610365578063b7dd32aa14610383578063bcead63e146103a157610158565b80635e084a41116101155780635e084a41146102475780635f9e7d77146102655780637c3a00fd146102955780637df1f1b9146102b3578063850c4ca0146102d1578063884d1f40146102ef57610158565b8063215eed021461015d578063230dbd291461017b57806330d9c915146101ab5780633cf4d1f8146101db578063456dc17a146101f957806353c11f9914610217575b600080fd5b610165610470565b60405161017291906132e4565b60405180910390f35b61019560048036038101906101909190613440565b610494565b6040516101a291906135c8565b60405180910390f35b6101c560048036038101906101c091906135ea565b6105d5565b6040516101d291906135c8565b60405180910390f35b6101e3610612565b6040516101f091906136c1565b60405180910390f35b610201610625565b60405161020e919061373b565b60405180910390f35b610231600480360381019061022c9190613440565b610649565b60405161023e91906135c8565b60405180910390f35b61024f610763565b60405161025c9190613772565b60405180910390f35b61027f600480360381019061027a91906135ea565b610829565b60405161028c91906135c8565b60405180910390f35b61029d610866565b6040516102aa91906137a9565b60405180910390f35b6102bb61088a565b6040516102c891906137d3565b60405180910390f35b6102d96108ae565b6040516102e69190613807565b60405180910390f35b610309600480360381019061030491906135ea565b6108b4565b60405161031691906135c8565b60405180910390f35b6103276108f1565b005b610331610dff565b60405161033e9190613807565b60405180910390f35b61034f610e7a565b60405161035c91906137d3565b60405180910390f35b61036d610e9e565b60405161037a919061383b565b60405180910390f35b61038b610ec2565b604051610398919061383b565b60405180910390f35b6103a9610ee6565b6040516103b691906137d3565b60405180910390f35b6103c7610f0c565b6040516103d491906136c1565b60405180910390f35b6103f760048036038101906103f29190613882565b610f1f565b005b610401611490565b60405161040f9291906138f1565b60405180910390f35b610432600480360381019061042d9190613440565b6114e2565b60405161043f91906135c8565b60405180910390f35b610450611623565b60405161045d919061391a565b60405180910390f35b61046e611647565b005b7fa9214cc96615e0085d3bb077758db69497dc2dce3b2b1e97bc93c3d18d83efd381565b606089896104a182611927565b6104e0576040517f08c379a00000000000000000000000000000000000000000000000000000000081526004016104d790613992565b60405180910390fd5b6104e98161197f565b610528576040517f08c379a000000000000000000000000000000000000000000000000000000000815260040161051f90613a24565b60405180910390fd5b6000800160009054906101000a900473ffffffffffffffffffffffffffffffffffffffff1673ffffffffffffffffffffffffffffffffffffffff163373ffffffffffffffffffffffffffffffffffffffff16146105ba576040517f08c379a00000000000000000000000000000000000000000000000000000000081526004016105b190613a90565b60405180910390fd5b6105c48585611a19565b925050509998505050505050505050565b60606040517f08c379a000000000000000000000000000000000000000000000000000000000815260040161060990613b22565b60405180910390fd5b600260149054906101000a900460ff1681565b7f000000000000000000000000000000000000000000000000000000000000000081565b60606000800160009054906101000a900473ffffffffffffffffffffffffffffffffffffffff1673ffffffffffffffffffffffffffffffffffffffff163373ffffffffffffffffffffffffffffffffffffffff16146106dd576040517f08c379a00000000000000000000000000000000000000000000000000000000081526004016106d490613a90565b60405180910390fd5b6106e68961197f565b15806106f857506106f68a611927565b155b156107495782828080601f016020809104026020016040519081016040528093929190818152602001838380828437600081840152601f19601f820116905080830192505050505050509050610756565b6107538383611a19565b90505b9998505050505050505050565b6000622819a07f000000000000000000000000000000000000000000000000000000000000000060647f000000000000000000000000000000000000000000000000000000000000000060000b7f00000000000000000000000000000000000000000000000000000000000000006107db9190613b71565b6107e59190613cb7565b7f00000000000000000000000000000000000000000000000000000000000000006108109190613d21565b61081a9190613cb7565b6108249190613cb7565b905090565b60606040517f08c379a000000000000000000000000000000000000000000000000000000000815260040161085d90613e27565b60405180910390fd5b7f000000000000000000000000000000000000000000000000000000000000000081565b7f000000000000000000000000000000000000000000000000000000000000000081565b60035481565b60606040517f08c379a00000000000000000000000000000000000000000000000000000000081526004016108e890613eb9565b60405180910390fd5b60008060010160009054906101000a900473ffffffffffffffffffffffffffffffffffffffff1673ffffffffffffffffffffffffffffffffffffffff1663e6a1e8887f00000000000000000000000000000000000000000000000000000000000000007f0000000000000000000000000000000000000000000000000000000000000000306040518463ffffffff1660e01b815260040161099493929190613ed9565b608060405180830381865afa1580156109b1573d6000803e3d6000fd5b505050506040513d601f19601f820116820180604052508101906109d59190613f51565b50509150506109e2610763565b600b0b81600b0b1215610a2a576040517f08c379a0000000000000000000000000000000000000000000000000000000008152600401610a2190614004565b60405180910390fd5b7f000000000000000000000000000000000000000000000000000000000000000073ffffffffffffffffffffffffffffffffffffffff166323b872dd337f00000000000000000000000000000000000000000000000000000000000000007f00000000000000000000000000000000000000000000000000000000000000006040518463ffffffff1660e01b8152600401610ac793929190614024565b6020604051808303816000875af1158015610ae6573d6000803e3d6000fd5b505050506040513d601f19601f82011682018060405250810190610b0a9190614087565b5060008060010160009054906101000a900473ffffffffffffffffffffffffffffffffffffffff1673ffffffffffffffffffffffffffffffffffffffff1663e8e7e2d17f0000000000000000000000000000000000000000000000000000000000000000306040518363ffffffff1660e01b8152600401610b8c9291906140b4565b602060405180830381865afa158015610ba9573d6000803e3d6000fd5b505050506040513d601f19601f82011682018060405250810190610bcd91906140dd565b905060008060010160009054906101000a900473ffffffffffffffffffffffffffffffffffffffff1673ffffffffffffffffffffffffffffffffffffffff1663e6a1e8887f0000000000000000000000000000000000000000000000000000000000000000307f00000000000000000000000000000000000000000000000000000000000000006040518463ffffffff1660e01b8152600401610c7293929190613ed9565b608060405180830381865afa158015610c8f573d6000803e3d6000fd5b505050506040513d601f19601f82011682018060405250810190610cb39190613f51565b5050915050610d587f00000000000000000000000000000000000000000000000000000000000000007f0000000000000000000000000000000000000000000000000000000000000000610d05610763565b7fffffffffffffffffffffffffffffffffffffffffffffffffffffffffffffffff8587610d32919061410a565b610d3c919061418a565b610d46919061410a565b6000611dbf909392919063ffffffff16565b610d97337f0000000000000000000000000000000000000000000000000000000000000000610d85610763565b6000611e1f909392919063ffffffff16565b6001600260146101000a81548160ff02191690831515021790555033600260006101000a81548173ffffffffffffffffffffffffffffffffffffffff021916908373ffffffffffffffffffffffffffffffffffffffff16021790555042600381905550505050565b60008060035442610e109190614279565b622819a07f0000000000000000000000000000000000000000000000000000000000000000610e3f9190613b71565b610e4991906142ad565b905060008113610e5d576000915050610e77565b610e65610763565b600b0b81610e739190614341565b9150505b90565b7f000000000000000000000000000000000000000000000000000000000000000081565b7f000000000000000000000000000000000000000000000000000000000000000081565b7f000000000000000000000000000000000000000000000000000000000000000081565b600260009054906101000a900473ffffffffffffffffffffffffffffffffffffffff1681565b600460009054906101000a900460ff1681565b60008060010160009054906101000a900473ffffffffffffffffffffffffffffffffffffffff1673ffffffffffffffffffffffffffffffffffffffff1663e6a1e8887f000000000000000000000000000000000000000000000000000000000000000030600260009054906101000a900473ffffffffffffffffffffffffffffffffffffffff166040518463ffffffff1660e01b8152600401610fc493929190613ed9565b608060405180830381865afa158015610fe1573d6000803e3d6000fd5b505050506040513d601f19601f820116820180604052508101906110059190613f51565b505091505060008060010160009054906101000a900473ffffffffffffffffffffffffffffffffffffffff1673ffffffffffffffffffffffffffffffffffffffff1663e6a1e8887f0000000000000000000000000000000000000000000000000000000000000000307f00000000000000000000000000000000000000000000000000000000000000006040518463ffffffff1660e01b81526004016110ad93929190613ed9565b608060405180830381865afa1580156110ca573d6000803e3d6000fd5b505050506040513d601f19601f820116820180604052508101906110ee9190613f51565b5050915050600260009054906101000a900473ffffffffffffffffffffffffffffffffffffffff1673ffffffffffffffffffffffffffffffffffffffff163373ffffffffffffffffffffffffffffffffffffffff1603611240576111a230600260009054906101000a900473ffffffffffffffffffffffffffffffffffffffff167f00000000000000000000000000000000000000000000000000000000000000006000611e7f909392919063ffffffff16565b6112057f00000000000000000000000000000000000000000000000000000000000000007f000000000000000000000000000000000000000000000000000000000000000084846111f3919061439b565b6000611dbf909392919063ffffffff16565b6000600260146101000a81548160ff0219169083151502179055506001600460006101000a81548160ff02191690831515021790555061148b565b611248610dff565b83101561128a576040517f08c379a000000000000000000000000000000000000000000000000000000000815260040161128190614467565b60405180910390fd5b6000611294610dff565b116112d4576040517f08c379a00000000000000000000000000000000000000000000000000000000081526004016112cb906144f9565b60405180910390fd5b7f000000000000000000000000000000000000000000000000000000000000000073ffffffffffffffffffffffffffffffffffffffff166323b872dd33600260009054906101000a900473ffffffffffffffffffffffffffffffffffffffff16866040518463ffffffff1660e01b815260040161135393929190614024565b6020604051808303816000875af1158015611372573d6000803e3d6000fd5b505050506040513d601f19601f820116820180604052508101906113969190614087565b506113f130600260009054906101000a900473ffffffffffffffffffffffffffffffffffffffff167f00000000000000000000000000000000000000000000000000000000000000006000611e7f909392919063ffffffff16565b6114547f00000000000000000000000000000000000000000000000000000000000000007f00000000000000000000000000000000000000000000000000000000000000008484611442919061439b565b6000611dbf909392919063ffffffff16565b6000600260146101000a81548160ff0219169083151502179055506001600460006101000a81548160ff0219169083151502179055505b505050565b60008060000160009054906101000a900473ffffffffffffffffffffffffffffffffffffffff16908060010160009054906101000a900473ffffffffffffffffffffffffffffffffffffffff16905082565b606089896114ef82611927565b61152e576040517f08c379a000000000000000000000000000000000000000000000000000000000815260040161152590613992565b60405180910390fd5b6115378161197f565b611576576040517f08c379a000000000000000000000000000000000000000000000000000000000815260040161156d90613a24565b60405180910390fd5b6000800160009054906101000a900473ffffffffffffffffffffffffffffffffffffffff1673ffffffffffffffffffffffffffffffffffffffff163373ffffffffffffffffffffffffffffffffffffffff1614611608576040517f08c379a00000000000000000000000000000000000000000000000000000000081526004016115ff90613a90565b60405180910390fd5b6116128585611a19565b925050509998505050505050505050565b7f000000000000000000000000000000000000000000000000000000000000000081565b6000611651610dff565b111561165c57600080fd5b60008060010160009054906101000a900473ffffffffffffffffffffffffffffffffffffffff1673ffffffffffffffffffffffffffffffffffffffff1663e6a1e8887f000000000000000000000000000000000000000000000000000000000000000030600260009054906101000a900473ffffffffffffffffffffffffffffffffffffffff166040518463ffffffff1660e01b815260040161170193929190613ed9565b608060405180830381865afa15801561171e573d6000803e3d6000fd5b505050506040513d601f19601f820116820180604052508101906117429190613f51565b50509150506117a130600260009054906101000a900473ffffffffffffffffffffffffffffffffffffffff167f00000000000000000000000000000000000000000000000000000000000000006000611e7f909392919063ffffffff16565b60008060010160009054906101000a900473ffffffffffffffffffffffffffffffffffffffff1673ffffffffffffffffffffffffffffffffffffffff1663e6a1e8887f0000000000000000000000000000000000000000000000000000000000000000307f00000000000000000000000000000000000000000000000000000000000000006040518463ffffffff1660e01b815260040161184493929190613ed9565b608060405180830381865afa158015611861573d6000803e3d6000fd5b505050506040513d601f19601f820116820180604052508101906118859190613f51565b50509150506118ed7f00000000000000000000000000000000000000000000000000000000000000007f000000000000000000000000000000000000000000000000000000000000000084846118db919061439b565b6000611dbf909392919063ffffffff16565b6000600260146101000a81548160ff0219169083151502179055506001600460006101000a81548160ff0219169083151502179055505050565b60007f000000000000000000000000000000000000000000000000000000000000000073ffffffffffffffffffffffffffffffffffffffff168273ffffffffffffffffffffffffffffffffffffffff16149050919050565b60007fa9214cc96615e0085d3bb077758db69497dc2dce3b2b1e97bc93c3d18d83efd38273ffffffffffffffffffffffffffffffffffffffff16637730599e6040518163ffffffff1660e01b8152600401602060405180830381865afa1580156119ed573d6000803e3d6000fd5b505050506040513d601f19601f82011682018060405250810190611a11919061452e565b149050919050565b606082828080601f016020809104026020016040519081016040528093929190818152602001838380828437600081840152601f19601f8201169050808301925050505050505090506000611a6c610763565b905060008060010160009054906101000a900473ffffffffffffffffffffffffffffffffffffffff1673ffffffffffffffffffffffffffffffffffffffff1663e8e7e2d17f0000000000000000000000000000000000000000000000000000000000000000306040518363ffffffff1660e01b8152600401611aef9291906140b4565b602060405180830381865afa158015611b0c573d6000803e3d6000fd5b505050506040513d601f19601f82011682018060405250810190611b3091906140dd565b905060008060010160009054906101000a900473ffffffffffffffffffffffffffffffffffffffff1673ffffffffffffffffffffffffffffffffffffffff1663e6a1e8887f000000000000000000000000000000000000000000000000000000000000000030600260009054906101000a900473ffffffffffffffffffffffffffffffffffffffff166040518463ffffffff1660e01b8152600401611bd793929190613ed9565b608060405180830381865afa158015611bf4573d6000803e3d6000fd5b505050506040513d601f19601f82011682018060405250810190611c189190613f51565b505091505060008060010160009054906101000a900473ffffffffffffffffffffffffffffffffffffffff1673ffffffffffffffffffffffffffffffffffffffff1663e6a1e8887f0000000000000000000000000000000000000000000000000000000000000000307f00000000000000000000000000000000000000000000000000000000000000006040518463ffffffff1660e01b8152600401611cc093929190613ed9565b608060405180830381865afa158015611cdd573d6000803e3d6000fd5b505050506040513d601f19601f82011682018060405250810190611d019190613f51565b505091505060008183611d14919061439b565b905060008185611d24919061439b565b9050600081600b0b1215611d61577fffffffffffffffffffffffffffffffffffffffffffffffffffffffffffffffff81611d5e919061418a565b90505b6000600b0b81600b0b03611d8157611d7a898986611edf565b9650611db3565b6000600b0b82600b0b14611da357611d9c8989888785611ff6565b9650611db2565b611daf8989888461244b565b96505b5b50505050505092915050565b611e1984848484600067ffffffffffffffff811115611de157611de061455b565b5b6040519080825280601f01601f191660200182016040528015611e135781602001600182028036833780820191505090505b50612716565b50505050565b611e7984848484600067ffffffffffffffff811115611e4157611e4061455b565b5b6040519080825280601f01601f191660200182016040528015611e735781602001600182028036833780820191505090505b506128d0565b50505050565b611ed984848484600067ffffffffffffffff811115611ea157611ea061455b565b5b6040519080825280601f01601f191660200182016040528015611ed35781602001600182028036833780820191505090505b50612a8a565b50505050565b606083838080601f016020809104026020016040519081016040528093929190818152602001838380828437600081840152601f19601f820116905080830192505050505050509050600082600b0b1315611f9357611f908130600260009054906101000a900473ffffffffffffffffffffffffffffffffffffffff167f00000000000000000000000000000000000000000000000000000000000000006000612c4490949392919063ffffffff16565b90505b611fed81307f00000000000000000000000000000000000000000000000000000000000000007f00000000000000000000000000000000000000000000000000000000000000006000612c4490949392919063ffffffff16565b90509392505050565b606085858080601f016020809104026020016040519081016040528093929190818152602001838380828437600081840152601f19601f82011690508083019250505050505050905060008060010160009054906101000a900473ffffffffffffffffffffffffffffffffffffffff1673ffffffffffffffffffffffffffffffffffffffff1663e6a1e8887f0000000000000000000000000000000000000000000000000000000000000000307f00000000000000000000000000000000000000000000000000000000000000006040518463ffffffff1660e01b81526004016120e293929190613ed9565b608060405180830381865afa1580156120ff573d6000803e3d6000fd5b505050506040513d601f19601f820116820180604052508101906121239190613f51565b505091505060008584612136919061410a565b600b0b13156122f057600084600b0b131561228e57600081600b0b13156121c3576121bc827f00000000000000000000000000000000000000000000000000000000000000007f000000000000000000000000000000000000000000000000000000000000000088876121a9919061410a565b6000612cac90949392919063ffffffff16565b915061222b565b612228827f00000000000000000000000000000000000000000000000000000000000000007f00000000000000000000000000000000000000000000000000000000000000008887612215919061410a565b6000612d1490949392919063ffffffff16565b91505b61228782600260009054906101000a900473ffffffffffffffffffffffffffffffffffffffff167f0000000000000000000000000000000000000000000000000000000000000000886000612cac90949392919063ffffffff16565b91506122eb565b6122e8827f00000000000000000000000000000000000000000000000000000000000000007f0000000000000000000000000000000000000000000000000000000000000000866000612cac90949392919063ffffffff16565b91505b612441565b600085846122fe919061410a565b600b0b131580156123125750600083600b0b135b1561244057600084600b0b13156123e25761237d82307f00000000000000000000000000000000000000000000000000000000000000007f00000000000000000000000000000000000000000000000000000000000000006000612c4490949392919063ffffffff16565b91506123db82600260009054906101000a900473ffffffffffffffffffffffffffffffffffffffff167f0000000000000000000000000000000000000000000000000000000000000000866000612cac90949392919063ffffffff16565b915061243f565b61243c827f00000000000000000000000000000000000000000000000000000000000000007f0000000000000000000000000000000000000000000000000000000000000000866000612cac90949392919063ffffffff16565b91505b5b5b5095945050505050565b606084848080601f016020809104026020016040519081016040528093929190818152602001838380828437600081840152601f19601f82011690508083019250505050505050905060007f000000000000000000000000000000000000000000000000000000000000000073ffffffffffffffffffffffffffffffffffffffff16633f6c923a87876040518363ffffffff1660e01b81526004016124f19291906145c6565b600060405180830381865afa15801561250e573d6000803e3d6000fd5b505050506040513d6000823e3d601f19601f82011682018060405250810190612537919061491e565b6060015190507f000000000000000000000000000000000000000000000000000000000000000073ffffffffffffffffffffffffffffffffffffffff168173ffffffffffffffffffffffffffffffffffffffff16146125cb576040517f08c379a00000000000000000000000000000000000000000000000000000000081526004016125c2906149d9565b60405180910390fd5b60011515600260149054906101000a900460ff161515036126b05761264b827f00000000000000000000000000000000000000000000000000000000000000007f00000000000000000000000000000000000000000000000000000000000000008787612638919061410a565b6000612d1490949392919063ffffffff16565b91506126a982600260009054906101000a900473ffffffffffffffffffffffffffffffffffffffff167f0000000000000000000000000000000000000000000000000000000000000000876000612d1490949392919063ffffffff16565b915061270d565b61270a827f00000000000000000000000000000000000000000000000000000000000000007f0000000000000000000000000000000000000000000000000000000000000000866000612d1490949392919063ffffffff16565b91505b50949350505050565b8460000160009054906101000a900473ffffffffffffffffffffffffffffffffffffffff1673ffffffffffffffffffffffffffffffffffffffff166339255d5b8660010160009054906101000a900473ffffffffffffffffffffffffffffffffffffffff168760010160009054906101000a900473ffffffffffffffffffffffffffffffffffffffff1673ffffffffffffffffffffffffffffffffffffffff166350209a62878988600067ffffffffffffffff8111156127d9576127d861455b565b5b6040519080825280601f01601f19166020018201604052801561280b5781602001600182028036833780820191505090505b5060405160240161281f9493929190614a1a565b604051602081830303815290604052915060e01b6020820180517bffffffffffffffffffffffffffffffffffffffffffffffffffffffff8381831617835250505050846040518463ffffffff1660e01b815260040161288093929190614a66565b6000604051808303816000875af115801561289f573d6000803e3d6000fd5b505050506040513d6000823e3d601f19601f820116820180604052508101906128c89190614aab565b505050505050565b8460000160009054906101000a900473ffffffffffffffffffffffffffffffffffffffff1673ffffffffffffffffffffffffffffffffffffffff166339255d5b8660010160009054906101000a900473ffffffffffffffffffffffffffffffffffffffff168760010160009054906101000a900473ffffffffffffffffffffffffffffffffffffffff1673ffffffffffffffffffffffffffffffffffffffff166362fc305e878988600067ffffffffffffffff8111156129935761299261455b565b5b6040519080825280601f01601f1916602001820160405280156129c55781602001600182028036833780820191505090505b506040516024016129d99493929190614a1a565b604051602081830303815290604052915060e01b6020820180517bffffffffffffffffffffffffffffffffffffffffffffffffffffffff8381831617835250505050846040518463ffffffff1660e01b8152600401612a3a93929190614a66565b6000604051808303816000875af1158015612a59573d6000803e3d6000fd5b505050506040513d6000823e3d601f19601f82011682018060405250810190612a829190614aab565b505050505050565b8460000160009054906101000a900473ffffffffffffffffffffffffffffffffffffffff1673ffffffffffffffffffffffffffffffffffffffff166339255d5b8660010160009054906101000a900473ffffffffffffffffffffffffffffffffffffffff168760010160009054906101000a900473ffffffffffffffffffffffffffffffffffffffff1673ffffffffffffffffffffffffffffffffffffffff1663b4b333c6868989600067ffffffffffffffff811115612b4d57612b4c61455b565b5b6040519080825280601f01601f191660200182016040528015612b7f5781602001600182028036833780820191505090505b50604051602401612b939493929190614af4565b604051602081830303815290604052915060e01b6020820180517bffffffffffffffffffffffffffffffffffffffffffffffffffffffff8381831617835250505050846040518463ffffffff1660e01b8152600401612bf493929190614a66565b6000604051808303816000875af1158015612c13573d6000803e3d6000fd5b505050506040513d6000823e3d601f19601f82011682018060405250810190612c3c9190614aab565b505050505050565b6060612ca18686868686600067ffffffffffffffff811115612c6957612c6861455b565b5b6040519080825280601f01601f191660200182016040528015612c9b5781602001600182028036833780820191505090505b50612d7c565b905095945050505050565b6060612d098686868686600067ffffffffffffffff811115612cd157612cd061455b565b5b6040519080825280601f01601f191660200182016040528015612d035781602001600182028036833780820191505090505b50612f41565b905095945050505050565b6060612d718686868686600067ffffffffffffffff811115612d3957612d3861455b565b5b6040519080825280601f01601f191660200182016040528015612d6b5781602001600182028036833780820191505090505b50613106565b905095945050505050565b60608660000160009054906101000a900473ffffffffffffffffffffffffffffffffffffffff1673ffffffffffffffffffffffffffffffffffffffff16634329d2938860010160009054906101000a900473ffffffffffffffffffffffffffffffffffffffff168960010160009054906101000a900473ffffffffffffffffffffffffffffffffffffffff1673ffffffffffffffffffffffffffffffffffffffff1663b4b333c6878a8a600067ffffffffffffffff811115612e4157612e4061455b565b5b6040519080825280601f01601f191660200182016040528015612e735781602001600182028036833780820191505090505b50604051602401612e879493929190614af4565b604051602081830303815290604052915060e01b6020820180517bffffffffffffffffffffffffffffffffffffffffffffffffffffffff8381831617835250505050858a6040518563ffffffff1660e01b8152600401612eea9493929190614b40565b6000604051808303816000875af1158015612f09573d6000803e3d6000fd5b505050506040513d6000823e3d601f19601f82011682018060405250810190612f329190614b9a565b50809150509695505050505050565b60608660000160009054906101000a900473ffffffffffffffffffffffffffffffffffffffff1673ffffffffffffffffffffffffffffffffffffffff16634329d2938860010160009054906101000a900473ffffffffffffffffffffffffffffffffffffffff168960010160009054906101000a900473ffffffffffffffffffffffffffffffffffffffff1673ffffffffffffffffffffffffffffffffffffffff166350209a62888a89600067ffffffffffffffff8111156130065761300561455b565b5b6040519080825280601f01601f1916602001820160405280156130385781602001600182028036833780820191505090505b5060405160240161304c9493929190614a1a565b604051602081830303815290604052915060e01b6020820180517bffffffffffffffffffffffffffffffffffffffffffffffffffffffff8381831617835250505050858a6040518563ffffffff1660e01b81526004016130af9493929190614b40565b6000604051808303816000875af11580156130ce573d6000803e3d6000fd5b505050506040513d6000823e3d601f19601f820116820180604052508101906130f79190614b9a565b50809150509695505050505050565b60608660000160009054906101000a900473ffffffffffffffffffffffffffffffffffffffff1673ffffffffffffffffffffffffffffffffffffffff16634329d2938860010160009054906101000a900473ffffffffffffffffffffffffffffffffffffffff168960010160009054906101000a900473ffffffffffffffffffffffffffffffffffffffff1673ffffffffffffffffffffffffffffffffffffffff166362fc305e888a89600067ffffffffffffffff8111156131cb576131ca61455b565b5b6040519080825280601f01601f1916602001820160405280156131fd5781602001600182028036833780820191505090505b506040516024016132119493929190614a1a565b604051602081830303815290604052915060e01b6020820180517bffffffffffffffffffffffffffffffffffffffffffffffffffffffff8381831617835250505050858a6040518563ffffffff1660e01b81526004016132749493929190614b40565b6000604051808303816000875af1158015613293573d6000803e3d6000fd5b505050506040513d6000823e3d601f19601f820116820180604052508101906132bc9190614b9a565b50809150509695505050505050565b6000819050919050565b6132de816132cb565b82525050565b60006020820190506132f960008301846132d5565b92915050565b6000604051905090565b600080fd5b600080fd5b600073ffffffffffffffffffffffffffffffffffffffff82169050919050565b600061333e82613313565b9050919050565b600061335082613333565b9050919050565b61336081613345565b811461336b57600080fd5b50565b60008135905061337d81613357565b92915050565b61338c81613333565b811461339757600080fd5b50565b6000813590506133a981613383565b92915050565b6133b8816132cb565b81146133c357600080fd5b50565b6000813590506133d5816133af565b92915050565b600080fd5b600080fd5b600080fd5b60008083601f840112613400576133ff6133db565b5b8235905067ffffffffffffffff81111561341d5761341c6133e0565b5b602083019150836001820283011115613439576134386133e5565b5b9250929050565b600080600080600080600080600060c08a8c03121561346257613461613309565b5b60006134708c828d0161336e565b99505060206134818c828d0161339a565b98505060406134928c828d016133c6565b97505060608a013567ffffffffffffffff8111156134b3576134b261330e565b5b6134bf8c828d016133ea565b965096505060808a013567ffffffffffffffff8111156134e2576134e161330e565b5b6134ee8c828d016133ea565b945094505060a08a013567ffffffffffffffff8111156135115761351061330e565b5b61351d8c828d016133ea565b92509250509295985092959850929598565b600081519050919050565b600082825260208201905092915050565b60005b8381101561356957808201518184015260208101905061354e565b83811115613578576000848401525b50505050565b6000601f19601f8301169050919050565b600061359a8261352f565b6135a4818561353a565b93506135b481856020860161354b565b6135bd8161357e565b840191505092915050565b600060208201905081810360008301526135e2818461358f565b905092915050565b600080600080600080600060a0888a03121561360957613608613309565b5b60006136178a828b0161336e565b97505060206136288a828b0161339a565b96505060406136398a828b016133c6565b955050606088013567ffffffffffffffff81111561365a5761365961330e565b5b6136668a828b016133ea565b9450945050608088013567ffffffffffffffff8111156136895761368861330e565b5b6136958a828b016133ea565b925092505092959891949750929550565b60008115159050919050565b6136bb816136a6565b82525050565b60006020820190506136d660008301846136b2565b92915050565b6000819050919050565b60006137016136fc6136f784613313565b6136dc565b613313565b9050919050565b6000613713826136e6565b9050919050565b600061372582613708565b9050919050565b6137358161371a565b82525050565b6000602082019050613750600083018461372c565b92915050565b600081600b0b9050919050565b61376c81613756565b82525050565b60006020820190506137876000830184613763565b92915050565b60008160000b9050919050565b6137a38161378d565b82525050565b60006020820190506137be600083018461379a565b92915050565b6137cd81613333565b82525050565b60006020820190506137e860008301846137c4565b92915050565b6000819050919050565b613801816137ee565b82525050565b600060208201905061381c60008301846137f8565b92915050565b6000819050919050565b61383581613822565b82525050565b6000602082019050613850600083018461382c565b92915050565b61385f816137ee565b811461386a57600080fd5b50565b60008135905061387c81613856565b92915050565b60006020828403121561389857613897613309565b5b60006138a68482850161386d565b91505092915050565b60006138ba82613708565b9050919050565b6138ca816138af565b82525050565b60006138db82613708565b9050919050565b6138eb816138d0565b82525050565b600060408201905061390660008301856138c1565b61391360208301846138e2565b9392505050565b600060208201905061392f60008301846138c1565b92915050565b600082825260208201905092915050565b7f5265646972656374416c6c3a206e6f7420616363657074656420746f6b656e00600082015250565b600061397c601f83613935565b915061398782613946565b602082019050919050565b600060208201905081810360008301526139ab8161396f565b9050919050565b7f5265646972656374416c6c3a206f6e6c7920434641763120737570706f72746560008201527f6400000000000000000000000000000000000000000000000000000000000000602082015250565b6000613a0e602183613935565b9150613a19826139b2565b604082019050919050565b60006020820190508181036000830152613a3d81613a01565b9050919050565b7f4f6e6c7920686f73742063616e2063616c6c2063616c6c6261636b0000000000600082015250565b6000613a7a601b83613935565b9150613a8582613a44565b602082019050919050565b60006020820190508181036000830152613aa981613a6d565b9050919050565b7f556e737570706f727465642063616c6c6261636b202d204265666f726520416760008201527f7265656d656e7420437265617465640000000000000000000000000000000000602082015250565b6000613b0c602f83613935565b9150613b1782613ab0565b604082019050919050565b60006020820190508181036000830152613b3b81613aff565b9050919050565b7f4e487b7100000000000000000000000000000000000000000000000000000000600052601160045260246000fd5b6000613b7c82613822565b9150613b8783613822565b9250827f7fffffffffffffffffffffffffffffffffffffffffffffffffffffffffffffff0482116000841360008413161615613bc657613bc5613b42565b5b817f80000000000000000000000000000000000000000000000000000000000000000583126000841260008413161615613c0357613c02613b42565b5b827f80000000000000000000000000000000000000000000000000000000000000000582126000841360008412161615613c4057613c3f613b42565b5b827f7fffffffffffffffffffffffffffffffffffffffffffffffffffffffffffffff0582126000841260008412161615613c7d57613c7c613b42565b5b828202905092915050565b7f4e487b7100000000000000000000000000000000000000000000000000000000600052601260045260246000fd5b6000613cc282613822565b9150613ccd83613822565b925082613cdd57613cdc613c88565b5b600160000383147f800000000000000000000000000000000000000000000000000000000000000083141615613d1657613d15613b42565b5b828205905092915050565b6000613d2c82613822565b9150613d3783613822565b9250817f7fffffffffffffffffffffffffffffffffffffffffffffffffffffffffffffff03831360008312151615613d7257613d71613b42565b5b817f8000000000000000000000000000000000000000000000000000000000000000038312600083121615613daa57613da9613b42565b5b828201905092915050565b7f556e737570706f727465642063616c6c6261636b202d20204265666f7265204160008201527f677265656d656e74205465726d696e6174656400000000000000000000000000602082015250565b6000613e11603383613935565b9150613e1c82613db5565b604082019050919050565b60006020820190508181036000830152613e4081613e04565b9050919050565b7f556e737570706f727465642063616c6c6261636b202d204265666f726520416760008201527f7265656d656e7420757064617465640000000000000000000000000000000000602082015250565b6000613ea3602f83613935565b9150613eae82613e47565b604082019050919050565b60006020820190508181036000830152613ed281613e96565b9050919050565b6000606082019050613eee600083018661372c565b613efb60208301856137c4565b613f0860408301846137c4565b949350505050565b600081519050613f1f81613856565b92915050565b613f2e81613756565b8114613f3957600080fd5b50565b600081519050613f4b81613f25565b92915050565b60008060008060808587031215613f6b57613f6a613309565b5b6000613f7987828801613f10565b9450506020613f8a87828801613f3c565b9350506040613f9b87828801613f10565b9250506060613fac87828801613f10565b91505092959194509250565b7f696e73756666696369656e7420666c6f77526174650000000000000000000000600082015250565b6000613fee601583613935565b9150613ff982613fb8565b602082019050919050565b6000602082019050818103600083015261401d81613fe1565b9050919050565b600060608201905061403960008301866137c4565b61404660208301856137c4565b61405360408301846137f8565b949350505050565b614064816136a6565b811461406f57600080fd5b50565b6000815190506140818161405b565b92915050565b60006020828403121561409d5761409c613309565b5b60006140ab84828501614072565b91505092915050565b60006040820190506140c9600083018561372c565b6140d660208301846137c4565b9392505050565b6000602082840312156140f3576140f2613309565b5b600061410184828501613f3c565b91505092915050565b600061411582613756565b915061412083613756565b9250827fffffffffffffffffffffffffffffffffffffffff8000000000000000000000000182126000841215161561415b5761415a613b42565b5b826b7fffffffffffffffffffffff01821360008412161561417f5761417e613b42565b5b828203905092915050565b600061419582613756565b91506141a083613756565b9250826b7fffffffffffffffffffffff04821160008413600084131616156141cb576141ca613b42565b5b817fffffffffffffffffffffffffffffffffffffffff800000000000000000000000058312600084126000841316161561420857614207613b42565b5b827fffffffffffffffffffffffffffffffffffffffff800000000000000000000000058212600084136000841216161561424557614244613b42565b5b826b7fffffffffffffffffffffff058212600084126000841216161561426e5761426d613b42565b5b828202905092915050565b6000614284826137ee565b915061428f836137ee565b9250828210156142a2576142a1613b42565b5b828203905092915050565b60006142b882613822565b91506142c383613822565b9250827f8000000000000000000000000000000000000000000000000000000000000000018212600084121516156142fe576142fd613b42565b5b827f7fffffffffffffffffffffffffffffffffffffffffffffffffffffffffffffff01821360008412161561433657614335613b42565b5b828203905092915050565b600061434c826137ee565b9150614357836137ee565b9250817fffffffffffffffffffffffffffffffffffffffffffffffffffffffffffffffff04831182151516156143905761438f613b42565b5b828202905092915050565b60006143a682613756565b91506143b183613756565b9250816b7fffffffffffffffffffffff038313600083121516156143d8576143d7613b42565b5b817fffffffffffffffffffffffffffffffffffffffff8000000000000000000000000383126000831216156144105761440f613b42565b5b828201905092915050565b7f696e7375662066756e6473000000000000000000000000000000000000000000600082015250565b6000614451600b83613935565b915061445c8261441b565b602082019050919050565b6000602082019050818103600083015261448081614444565b9050919050565b7f796f752073686f756c642063616c6c20636c6f73654f70656e4c6f616e28292060008201527f696e737465616400000000000000000000000000000000000000000000000000602082015250565b60006144e3602783613935565b91506144ee82614487565b604082019050919050565b60006020820190508181036000830152614512816144d6565b9050919050565b600081519050614528816133af565b92915050565b60006020828403121561454457614543613309565b5b600061455284828501614519565b91505092915050565b7f4e487b7100000000000000000000000000000000000000000000000000000000600052604160045260246000fd5b82818337600083830152505050565b60006145a5838561353a565b93506145b283858461458a565b6145bb8361357e565b840190509392505050565b600060208201905081810360008301526145e1818486614599565b90509392505050565b600080fd5b6145f88261357e565b810181811067ffffffffffffffff821117156146175761461661455b565b5b80604052505050565b600061462a6132ff565b905061463682826145ef565b919050565b600080fd5b600060ff82169050919050565b61465681614640565b811461466157600080fd5b50565b6000815190506146738161464d565b92915050565b60008151905061468881613383565b92915050565b60007fffffffff0000000000000000000000000000000000000000000000000000000082169050919050565b6146c38161468e565b81146146ce57600080fd5b50565b6000815190506146e0816146ba565b92915050565b600080fd5b600067ffffffffffffffff8211156147065761470561455b565b5b61470f8261357e565b9050602081019050919050565b600061472f61472a846146eb565b614620565b90508281526020810184848401111561474b5761474a6146e6565b5b61475684828561354b565b509392505050565b600082601f830112614773576147726133db565b5b815161478384826020860161471c565b91505092915050565b61479581613822565b81146147a057600080fd5b50565b6000815190506147b28161478c565b92915050565b60006147c382613333565b9050919050565b6147d3816147b8565b81146147de57600080fd5b50565b6000815190506147f0816147ca565b92915050565b6000610160828403121561480d5761480c6145ea565b5b614818610160614620565b9050600061482884828501614664565b600083015250602061483c84828501614664565b602083015250604061485084828501613f10565b604083015250606061486484828501614679565b6060830152506080614878848285016146d1565b60808301525060a082015167ffffffffffffffff81111561489c5761489b61463b565b5b6148a88482850161475e565b60a08301525060c06148bc84828501613f10565b60c08301525060e06148d084828501613f10565b60e0830152506101006148e5848285016147a3565b610100830152506101206148fb84828501614679565b61012083015250610140614911848285016147e1565b6101408301525092915050565b60006020828403121561493457614933613309565b5b600082015167ffffffffffffffff8111156149525761495161330e565b5b61495e848285016147f6565b91505092915050565b7f73656e646572206f6620666c6f77206d7573742062652074686520656d706c6f60008201527f7965720000000000000000000000000000000000000000000000000000000000602082015250565b60006149c3602383613935565b91506149ce82614967565b604082019050919050565b600060208201905081810360008301526149f2816149b6565b9050919050565b6000614a0482613708565b9050919050565b614a14816149f9565b82525050565b6000608082019050614a2f6000830187614a0b565b614a3c60208301866137c4565b614a496040830185613763565b8181036060830152614a5b818461358f565b905095945050505050565b6000606082019050614a7b60008301866138e2565b8181036020830152614a8d818561358f565b90508181036040830152614aa1818461358f565b9050949350505050565b600060208284031215614ac157614ac0613309565b5b600082015167ffffffffffffffff811115614adf57614ade61330e565b5b614aeb8482850161475e565b91505092915050565b6000608082019050614b096000830187614a0b565b614b1660208301866137c4565b614b2360408301856137c4565b8181036060830152614b35818461358f565b905095945050505050565b6000608082019050614b5560008301876138e2565b8181036020830152614b67818661358f565b90508181036040830152614b7b818561358f565b90508181036060830152614b8f818461358f565b905095945050505050565b60008060408385031215614bb157614bb0613309565b5b600083015167ffffffffffffffff811115614bcf57614bce61330e565b5b614bdb8582860161475e565b925050602083015167ffffffffffffffff811115614bfc57614bfb61330e565b5b614c088582860161475e565b915050925092905056fea2646970667358221220e214e102bc4fd8ce1f891f2dfc0114f596236dd438d54a1d4fa0a819dd4406e964736f6c634300080e0033",
  "linkReferences": {},
  "deployedLinkReferences": {}
}