{
  "_format": "hh-sol-artifact-1",
  "contractName": "TOGA",
  "sourceName": "@superfluid-finance/ethereum-contracts/contracts/utils/TOGA.sol",
  "abi": [
    {
      "inputs": [
        {
          "internalType": "contract ISuperfluid",
          "name": "host_",
          "type": "address"
        },
        {
          "internalType": "uint256",
          "name": "minBondDuration_",
          "type": "uint256"
        }
      ],
      "stateMutability": "nonpayable",
      "type": "constructor"
    },
    {
      "anonymous": false,
      "inputs": [
        {
          "indexed": true,
          "internalType": "contract ISuperToken",
          "name": "token",
          "type": "address"
        },
        {
          "indexed": false,
          "internalType": "uint256",
          "name": "additionalBond",
          "type": "uint256"
        }
      ],
      "name": "BondIncreased",
      "type": "event"
    },
    {
      "anonymous": false,
      "inputs": [
        {
          "indexed": true,
          "internalType": "contract ISuperToken",
          "name": "token",
          "type": "address"
        },
        {
          "indexed": false,
          "internalType": "int96",
          "name": "exitRate",
          "type": "int96"
        }
      ],
      "name": "ExitRateChanged",
      "type": "event"
    },
    {
      "anonymous": false,
      "inputs": [
        {
          "indexed": true,
          "internalType": "contract ISuperToken",
          "name": "token",
          "type": "address"
        },
        {
          "indexed": false,
          "internalType": "address",
          "name": "pic",
          "type": "address"
        },
        {
          "indexed": false,
          "internalType": "uint256",
          "name": "bond",
          "type": "uint256"
        },
        {
          "indexed": false,
          "internalType": "int96",
          "name": "exitRate",
          "type": "int96"
        }
      ],
      "name": "NewPIC",
      "type": "event"
    },
    {
      "inputs": [
        {
          "internalType": "contract ISuperToken",
          "name": "token",
          "type": "address"
        },
        {
          "internalType": "int96",
          "name": "newExitRate",
          "type": "int96"
        }
      ],
      "name": "changeExitRate",
      "outputs": [],
      "stateMutability": "nonpayable",
      "type": "function"
    },
    {
      "inputs": [
        {
          "internalType": "contract ISuperToken",
          "name": "token",
          "type": "address"
        }
      ],
      "name": "getCurrentPIC",
      "outputs": [
        {
          "internalType": "address",
          "name": "pic",
          "type": "address"
        }
      ],
      "stateMutability": "view",
      "type": "function"
    },
    {
      "inputs": [
        {
          "internalType": "contract ISuperToken",
          "name": "token",
          "type": "address"
        }
      ],
      "name": "getCurrentPICInfo",
      "outputs": [
        {
          "internalType": "address",
          "name": "pic",
          "type": "address"
        },
        {
          "internalType": "uint256",
          "name": "bond",
          "type": "uint256"
        },
        {
          "internalType": "int96",
          "name": "exitRate",
          "type": "int96"
        }
      ],
      "stateMutability": "view",
      "type": "function"
    },
    {
      "inputs": [
        {
          "internalType": "contract ISuperToken",
          "name": "",
          "type": "address"
        },
        {
          "internalType": "uint256",
          "name": "bondAmount",
          "type": "uint256"
        }
      ],
      "name": "getDefaultExitRateFor",
      "outputs": [
        {
          "internalType": "int96",
          "name": "exitRate",
          "type": "int96"
        }
      ],
      "stateMutability": "view",
      "type": "function"
    },
    {
      "inputs": [
        {
          "internalType": "contract ISuperToken",
          "name": "",
          "type": "address"
        },
        {
          "internalType": "uint256",
          "name": "bondAmount",
          "type": "uint256"
        }
      ],
      "name": "getMaxExitRateFor",
      "outputs": [
        {
          "internalType": "int96",
          "name": "exitRate",
          "type": "int96"
        }
      ],
      "stateMutability": "view",
      "type": "function"
    },
    {
      "inputs": [],
      "name": "minBondDuration",
      "outputs": [
        {
          "internalType": "uint256",
          "name": "",
          "type": "uint256"
        }
      ],
      "stateMutability": "view",
      "type": "function"
    },
    {
      "inputs": [
        {
          "internalType": "address",
          "name": "",
          "type": "address"
        },
        {
          "internalType": "address",
          "name": "from",
          "type": "address"
        },
        {
          "internalType": "address",
          "name": "",
          "type": "address"
        },
        {
          "internalType": "uint256",
          "name": "amount",
          "type": "uint256"
        },
        {
          "internalType": "bytes",
          "name": "userData",
          "type": "bytes"
        },
        {
          "internalType": "bytes",
          "name": "",
          "type": "bytes"
        }
      ],
      "name": "tokensReceived",
      "outputs": [],
      "stateMutability": "nonpayable",
      "type": "function"
    }
  ],
  "bytecode": "0x60e06040523480156200001157600080fd5b5060405162002aec38038062002aec833981810160405281019062000037919062000401565b8173ffffffffffffffffffffffffffffffffffffffff1660808173ffffffffffffffffffffffffffffffffffffffff16815250508060c081815250508173ffffffffffffffffffffffffffffffffffffffff1663b6d200de7fa9214cc96615e0085d3bb077758db69497dc2dce3b2b1e97bc93c3d18d83efd36040518263ffffffff1660e01b8152600401620000ce919062000463565b602060405180830381865afa158015620000ec573d6000803e3d6000fd5b505050506040513d601f19601f82011682018060405250810190620001129190620004c5565b73ffffffffffffffffffffffffffffffffffffffff1660a08173ffffffffffffffffffffffffffffffffffffffff168152505060007fb281fc8c12954d22544db45de3159a39272895b169a852b314f9cc762e44c53b9050731820a4b7618bde71dce8cdc73aab6c95905fad2473ffffffffffffffffffffffffffffffffffffffff166329965a1d3083306040518463ffffffff1660e01b8152600401620001bd9392919062000508565b600060405180830381600087803b158015620001d857600080fd5b505af1158015620001ed573d6000803e3d6000fd5b50505050731820a4b7618bde71dce8cdc73aab6c95905fad2473ffffffffffffffffffffffffffffffffffffffff166329965a1d307fece6fc2bcfc93e4c34c28aeaa114be1a6161decb8268f79cbe7c3c7f31b1e8c6306040518463ffffffff1660e01b8152600401620002649392919062000508565b600060405180830381600087803b1580156200027f57600080fd5b505af115801562000294573d6000803e3d6000fd5b50505050731820a4b7618bde71dce8cdc73aab6c95905fad2473ffffffffffffffffffffffffffffffffffffffff166329965a1d307fca6323f8f0faf3d4f41f2397ee46c8d85bed576d54aadeb20b6cf7b45b3a6964306040518463ffffffff1660e01b81526004016200030b9392919062000508565b600060405180830381600087803b1580156200032657600080fd5b505af11580156200033b573d6000803e3d6000fd5b5050505050505062000545565b600080fd5b600073ffffffffffffffffffffffffffffffffffffffff82169050919050565b60006200037a826200034d565b9050919050565b60006200038e826200036d565b9050919050565b620003a08162000381565b8114620003ac57600080fd5b50565b600081519050620003c08162000395565b92915050565b6000819050919050565b620003db81620003c6565b8114620003e757600080fd5b50565b600081519050620003fb81620003d0565b92915050565b600080604083850312156200041b576200041a62000348565b5b60006200042b85828601620003af565b92505060206200043e85828601620003ea565b9150509250929050565b6000819050919050565b6200045d8162000448565b82525050565b60006020820190506200047a600083018462000452565b92915050565b60006200048d826200036d565b9050919050565b6200049f8162000480565b8114620004ab57600080fd5b50565b600081519050620004bf8162000494565b92915050565b600060208284031215620004de57620004dd62000348565b5b6000620004ee84828501620004ae565b91505092915050565b62000502816200036d565b82525050565b60006060820190506200051f6000830186620004f7565b6200052e602083018562000452565b6200053d6040830184620004f7565b949350505050565b60805160a05160c0516124eb62000601600039600081816103f101528181610ab101528181610b6401528181610b900152610e2a0152600081816104630152818161055d0152818161057e0152818161072201528181610743015281816108e70152818161090801528181610bd301528181610fb6015281816110a1015281816110c20152818161138701526113a8015260008181610521015281816106e6015281816108ab01528181611065015261134b01526124eb6000f3fe608060405234801561001057600080fd5b506004361061007c5760003560e01c8063362910631161005b57806336291063146100e957806360dfa69514610119578063b8a1403314610137578063bf8903dd146101675761007c565b806223de291461008157806302f3c6c51461009d57806316e23b9f146100b9575b600080fd5b61009b60048036038101906100969190611806565b610199565b005b6100b760048036038101906100b2919061194c565b6102cb565b005b6100d360048036038101906100ce919061198c565b610aa5565b6040516100e091906119db565b60405180910390f35b61010360048036038101906100fe91906119f6565b610af7565b6040516101109190611a32565b60405180910390f35b610121610b62565b60405161012e9190611a5c565b60405180910390f35b610151600480360381019061014c919061198c565b610b86565b60405161015e91906119db565b60405180910390f35b610181600480360381019061017c91906119f6565b610bcc565b60405161019093929190611a77565b60405180910390f35b60003390506000808273ffffffffffffffffffffffffffffffffffffffff1673ffffffffffffffffffffffffffffffffffffffff16815260200190815260200160002060000160009054906101000a900473ffffffffffffffffffffffffffffffffffffffff1673ffffffffffffffffffffffffffffffffffffffff168873ffffffffffffffffffffffffffffffffffffffff161461027157600080868690501461025257858581019061024d9190611aae565b61025d565b61025c8288610aa5565b5b905061026b828a8984610d51565b506102c0565b8073ffffffffffffffffffffffffffffffffffffffff167fb9c1b85a7ee70d95c61aca7cda03ef957abc5265a191ca74cc335faf59409566876040516102b79190611a5c565b60405180910390a25b505050505050505050565b60008060008473ffffffffffffffffffffffffffffffffffffffff1673ffffffffffffffffffffffffffffffffffffffff16815260200190815260200160002060000160009054906101000a900473ffffffffffffffffffffffffffffffffffffffff1690508073ffffffffffffffffffffffffffffffffffffffff163373ffffffffffffffffffffffffffffffffffffffff161461039f576040517f08c379a000000000000000000000000000000000000000000000000000000000815260040161039690611b38565b60405180910390fd5b600082600b0b12156103e6576040517f08c379a00000000000000000000000000000000000000000000000000000000081526004016103dd90611bca565b60405180910390fd5b6103ef836115a4565b7f000000000000000000000000000000000000000000000000000000000000000083600b0b61041e9190611c19565b111561045f576040517f08c379a000000000000000000000000000000000000000000000000000000000815260040161045690611cbf565b60405180910390fd5b60007f000000000000000000000000000000000000000000000000000000000000000073ffffffffffffffffffffffffffffffffffffffff1663e6a1e8888530856040518463ffffffff1660e01b81526004016104be93929190611d3e565b608060405180830381865afa1580156104db573d6000803e3d6000fd5b505050506040513d601f19601f820116820180604052508101906104ff9190611d9f565b5050915050600081600b0b13801561051a5750600083600b0b135b156106c9577f000000000000000000000000000000000000000000000000000000000000000073ffffffffffffffffffffffffffffffffffffffff166339255d5b7f00000000000000000000000000000000000000000000000000000000000000007f000000000000000000000000000000000000000000000000000000000000000073ffffffffffffffffffffffffffffffffffffffff166350209a62888789600067ffffffffffffffff8111156105d6576105d5611e06565b5b6040519080825280601f01601f1916602001820160405280156106085781602001600182028036833780820191505090505b5060405160240161061c9493929190611ec5565b604051602081830303815290604052915060e01b6020820180517bffffffffffffffffffffffffffffffffffffffffffffffffffffffff83818316178352505050506040518363ffffffff1660e01b815260040161067b929190611f7e565b6000604051808303816000875af115801561069a573d6000803e3d6000fd5b505050506040513d6000823e3d601f19601f820116820180604052508101906106c391906120b3565b50610a51565b600081600b0b1480156106df5750600083600b0b135b1561088e577f000000000000000000000000000000000000000000000000000000000000000073ffffffffffffffffffffffffffffffffffffffff166339255d5b7f00000000000000000000000000000000000000000000000000000000000000007f000000000000000000000000000000000000000000000000000000000000000073ffffffffffffffffffffffffffffffffffffffff166362fc305e888789600067ffffffffffffffff81111561079b5761079a611e06565b5b6040519080825280601f01601f1916602001820160405280156107cd5781602001600182028036833780820191505090505b506040516024016107e19493929190611ec5565b604051602081830303815290604052915060e01b6020820180517bffffffffffffffffffffffffffffffffffffffffffffffffffffffff83818316178352505050506040518363ffffffff1660e01b8152600401610840929190611f7e565b6000604051808303816000875af115801561085f573d6000803e3d6000fd5b505050506040513d6000823e3d601f19601f8201168201806040525081019061088891906120b3565b50610a50565b600081600b0b1380156108a45750600083600b0b145b15610a4f577f000000000000000000000000000000000000000000000000000000000000000073ffffffffffffffffffffffffffffffffffffffff166339255d5b7f00000000000000000000000000000000000000000000000000000000000000007f000000000000000000000000000000000000000000000000000000000000000073ffffffffffffffffffffffffffffffffffffffff1663b4b333c6883088600067ffffffffffffffff8111156109605761095f611e06565b5b6040519080825280601f01601f1916602001820160405280156109925781602001600182028036833780820191505090505b506040516024016109a694939291906120fc565b604051602081830303815290604052915060e01b6020820180517bffffffffffffffffffffffffffffffffffffffffffffffffffffffff83818316178352505050506040518363ffffffff1660e01b8152600401610a05929190611f7e565b6000604051808303816000875af1158015610a24573d6000803e3d6000fd5b505050506040513d6000823e3d601f19601f82011682018060405250810190610a4d91906120b3565b505b5b5b8373ffffffffffffffffffffffffffffffffffffffff167f0988aefa675e81e1db7fca08264db5dc2a1cc2a604f2a78d902a9747146a567184604051610a9791906119db565b60405180910390a250505050565b6000610aef610aea60047f0000000000000000000000000000000000000000000000000000000000000000610ada9190611c19565b84610ae59190612177565b611659565b6116c6565b905092915050565b60008060008373ffffffffffffffffffffffffffffffffffffffff1673ffffffffffffffffffffffffffffffffffffffff16815260200190815260200160002060000160009054906101000a900473ffffffffffffffffffffffffffffffffffffffff169050919050565b7f000000000000000000000000000000000000000000000000000000000000000081565b6000610bc4610bbf7f000000000000000000000000000000000000000000000000000000000000000084610bba9190612177565b611659565b6116c6565b905092915050565b60008060007f000000000000000000000000000000000000000000000000000000000000000073ffffffffffffffffffffffffffffffffffffffff1663e6a1e88885306000808973ffffffffffffffffffffffffffffffffffffffff1673ffffffffffffffffffffffffffffffffffffffff16815260200190815260200160002060000160009054906101000a900473ffffffffffffffffffffffffffffffffffffffff166040518463ffffffff1660e01b8152600401610c8f93929190611d3e565b608060405180830381865afa158015610cac573d6000803e3d6000fd5b505050506040513d601f19601f82011682018060405250810190610cd09190611d9f565b90919250905050809150506000808573ffffffffffffffffffffffffffffffffffffffff1673ffffffffffffffffffffffffffffffffffffffff16815260200190815260200160002060000160009054906101000a900473ffffffffffffffffffffffffffffffffffffffff16610d46856115a4565b925092509193909250565b6000808573ffffffffffffffffffffffffffffffffffffffff1673ffffffffffffffffffffffffffffffffffffffff16815260200190815260200160002060000160149054906101000a900460ff1615610de0576040517f08c379a0000000000000000000000000000000000000000000000000000000008152600401610dd7906121f4565b60405180910390fd5b600081600b0b1215610e27576040517f08c379a0000000000000000000000000000000000000000000000000000000008152600401610e1e90611bca565b60405180910390fd5b817f000000000000000000000000000000000000000000000000000000000000000082600b0b610e579190611c19565b1115610e98576040517f08c379a0000000000000000000000000000000000000000000000000000000008152600401610e8f90611cbf565b60405180910390fd5b600082610ea4866115a4565b610eae9190612214565b9050808311610ef2576040517f08c379a0000000000000000000000000000000000000000000000000000000008152600401610ee990612294565b60405180910390fd5b60008060008773ffffffffffffffffffffffffffffffffffffffff1673ffffffffffffffffffffffffffffffffffffffff16815260200190815260200160002060000160009054906101000a900473ffffffffffffffffffffffffffffffffffffffff16905060016000808873ffffffffffffffffffffffffffffffffffffffff1673ffffffffffffffffffffffffffffffffffffffff16815260200190815260200160002060000160146101000a81548160ff02191690831515021790555060007f000000000000000000000000000000000000000000000000000000000000000073ffffffffffffffffffffffffffffffffffffffff1663e6a1e8888830856040518463ffffffff1660e01b815260040161101193929190611d3e565b608060405180830381865afa15801561102e573d6000803e3d6000fd5b505050506040513d601f19601f820116820180604052508101906110529190611d9f565b5050915050600081600b0b1315611209577f000000000000000000000000000000000000000000000000000000000000000073ffffffffffffffffffffffffffffffffffffffff166339255d5b7f00000000000000000000000000000000000000000000000000000000000000007f000000000000000000000000000000000000000000000000000000000000000073ffffffffffffffffffffffffffffffffffffffff1663b4b333c68b3088600067ffffffffffffffff81111561111a57611119611e06565b5b6040519080825280601f01601f19166020018201604052801561114c5781602001600182028036833780820191505090505b5060405160240161116094939291906120fc565b604051602081830303815290604052915060e01b6020820180517bffffffffffffffffffffffffffffffffffffffffffffffffffffffff83818316178352505050506040518363ffffffff1660e01b81526004016111bf929190611f7e565b6000604051808303816000875af11580156111de573d6000803e3d6000fd5b505050506040513d6000823e3d601f19601f8201168201806040525081019061120791906120b3565b505b600073ffffffffffffffffffffffffffffffffffffffff168273ffffffffffffffffffffffffffffffffffffffff16146112bd578673ffffffffffffffffffffffffffffffffffffffff1663a9059cbb83856040518363ffffffff1660e01b81526004016112789291906122b4565b6020604051808303816000875af1158015611297573d6000803e3d6000fd5b505050506040513d601f19601f820116820180604052508101906112bb9190612315565b505b856000808973ffffffffffffffffffffffffffffffffffffffff1673ffffffffffffffffffffffffffffffffffffffff16815260200190815260200160002060000160006101000a81548173ffffffffffffffffffffffffffffffffffffffff021916908373ffffffffffffffffffffffffffffffffffffffff160217905550600084600b0b13156114ef577f000000000000000000000000000000000000000000000000000000000000000073ffffffffffffffffffffffffffffffffffffffff166339255d5b7f00000000000000000000000000000000000000000000000000000000000000007f000000000000000000000000000000000000000000000000000000000000000073ffffffffffffffffffffffffffffffffffffffff166362fc305e8b8b8a600067ffffffffffffffff811115611400576113ff611e06565b5b6040519080825280601f01601f1916602001820160405280156114325781602001600182028036833780820191505090505b506040516024016114469493929190611ec5565b604051602081830303815290604052915060e01b6020820180517bffffffffffffffffffffffffffffffffffffffffffffffffffffffff83818316178352505050506040518363ffffffff1660e01b81526004016114a5929190611f7e565b6000604051808303816000875af11580156114c4573d6000803e3d6000fd5b505050506040513d6000823e3d601f19601f820116820180604052508101906114ed91906120b3565b505b60008060008973ffffffffffffffffffffffffffffffffffffffff1673ffffffffffffffffffffffffffffffffffffffff16815260200190815260200160002060000160146101000a81548160ff0219169083151502179055508673ffffffffffffffffffffffffffffffffffffffff167f836808e57755d5535898b7203c7d68b1bfb2701b1943ecb133c675e0d007801587878760405161159393929190611a77565b60405180910390a250505050505050565b60008060008373ffffffffffffffffffffffffffffffffffffffff16632ec8eec7306040518263ffffffff1660e01b81526004016115e29190611a32565b608060405180830381865afa1580156115ff573d6000803e3d6000fd5b505050506040513d601f19601f820116820180604052508101906116239190612378565b5050915091506000818361163791906123df565b13611643576000611650565b808261164f91906123df565b5b92505050919050565b60007f7fffffffffffffffffffffffffffffffffffffffffffffffffffffffffffffff8211156116be576040517f08c379a00000000000000000000000000000000000000000000000000000000081526004016116b590612495565b60405180910390fd5b819050919050565b60006b7fffffffffffffffffffffff600b0b82126116f0576b7fffffffffffffffffffffff6116f2565b815b9050919050565b6000604051905090565b600080fd5b600080fd5b600073ffffffffffffffffffffffffffffffffffffffff82169050919050565b60006117388261170d565b9050919050565b6117488161172d565b811461175357600080fd5b50565b6000813590506117658161173f565b92915050565b6000819050919050565b61177e8161176b565b811461178957600080fd5b50565b60008135905061179b81611775565b92915050565b600080fd5b600080fd5b600080fd5b60008083601f8401126117c6576117c56117a1565b5b8235905067ffffffffffffffff8111156117e3576117e26117a6565b5b6020830191508360018202830111156117ff576117fe6117ab565b5b9250929050565b60008060008060008060008060c0898b03121561182657611825611703565b5b60006118348b828c01611756565b98505060206118458b828c01611756565b97505060406118568b828c01611756565b96505060606118678b828c0161178c565b955050608089013567ffffffffffffffff81111561188857611887611708565b5b6118948b828c016117b0565b945094505060a089013567ffffffffffffffff8111156118b7576118b6611708565b5b6118c38b828c016117b0565b92509250509295985092959890939650565b60006118e08261172d565b9050919050565b6118f0816118d5565b81146118fb57600080fd5b50565b60008135905061190d816118e7565b92915050565b600081600b0b9050919050565b61192981611913565b811461193457600080fd5b50565b60008135905061194681611920565b92915050565b6000806040838503121561196357611962611703565b5b6000611971858286016118fe565b925050602061198285828601611937565b9150509250929050565b600080604083850312156119a3576119a2611703565b5b60006119b1858286016118fe565b92505060206119c28582860161178c565b9150509250929050565b6119d581611913565b82525050565b60006020820190506119f060008301846119cc565b92915050565b600060208284031215611a0c57611a0b611703565b5b6000611a1a848285016118fe565b91505092915050565b611a2c8161172d565b82525050565b6000602082019050611a476000830184611a23565b92915050565b611a568161176b565b82525050565b6000602082019050611a716000830184611a4d565b92915050565b6000606082019050611a8c6000830186611a23565b611a996020830185611a4d565b611aa660408301846119cc565b949350505050565b600060208284031215611ac457611ac3611703565b5b6000611ad284828501611937565b91505092915050565b600082825260208201905092915050565b7f544f47413a206f6e6c792050494320616c6c6f77656400000000000000000000600082015250565b6000611b22601683611adb565b9150611b2d82611aec565b602082019050919050565b60006020820190508181036000830152611b5181611b15565b9050919050565b7f544f47413a206e65676174697665206578697452617465206e6f7420616c6c6f60008201527f7765640000000000000000000000000000000000000000000000000000000000602082015250565b6000611bb4602383611adb565b9150611bbf82611b58565b604082019050919050565b60006020820190508181036000830152611be381611ba7565b9050919050565b7f4e487b7100000000000000000000000000000000000000000000000000000000600052601160045260246000fd5b6000611c248261176b565b9150611c2f8361176b565b9250817fffffffffffffffffffffffffffffffffffffffffffffffffffffffffffffffff0483118215151615611c6857611c67611bea565b5b828202905092915050565b7f544f47413a20657869745261746520746f6f2068696768000000000000000000600082015250565b6000611ca9601783611adb565b9150611cb482611c73565b602082019050919050565b60006020820190508181036000830152611cd881611c9c565b9050919050565b6000819050919050565b6000611d04611cff611cfa8461170d565b611cdf565b61170d565b9050919050565b6000611d1682611ce9565b9050919050565b6000611d2882611d0b565b9050919050565b611d3881611d1d565b82525050565b6000606082019050611d536000830186611d2f565b611d606020830185611a23565b611d6d6040830184611a23565b949350505050565b600081519050611d8481611775565b92915050565b600081519050611d9981611920565b92915050565b60008060008060808587031215611db957611db8611703565b5b6000611dc787828801611d75565b9450506020611dd887828801611d8a565b9350506040611de987828801611d75565b9250506060611dfa87828801611d75565b91505092959194509250565b7f4e487b7100000000000000000000000000000000000000000000000000000000600052604160045260246000fd5b600081519050919050565b600082825260208201905092915050565b60005b83811015611e6f578082015181840152602081019050611e54565b60008484015250505050565b6000601f19601f8301169050919050565b6000611e9782611e35565b611ea18185611e40565b9350611eb1818560208601611e51565b611eba81611e7b565b840191505092915050565b6000608082019050611eda6000830187611d2f565b611ee76020830186611a23565b611ef460408301856119cc565b8181036060830152611f068184611e8c565b905095945050505050565b6000611f1c82611d0b565b9050919050565b611f2c81611f11565b82525050565b7f3078000000000000000000000000000000000000000000000000000000000000600082015250565b6000611f68600283611e40565b9150611f7382611f32565b602082019050919050565b6000606082019050611f936000830185611f23565b8181036020830152611fa58184611e8c565b90508181036040830152611fb881611f5b565b90509392505050565b600080fd5b611fcf82611e7b565b810181811067ffffffffffffffff82111715611fee57611fed611e06565b5b80604052505050565b60006120016116f9565b905061200d8282611fc6565b919050565b600067ffffffffffffffff82111561202d5761202c611e06565b5b61203682611e7b565b9050602081019050919050565b600061205661205184612012565b611ff7565b90508281526020810184848401111561207257612071611fc1565b5b61207d848285611e51565b509392505050565b600082601f83011261209a576120996117a1565b5b81516120aa848260208601612043565b91505092915050565b6000602082840312156120c9576120c8611703565b5b600082015167ffffffffffffffff8111156120e7576120e6611708565b5b6120f384828501612085565b91505092915050565b60006080820190506121116000830187611d2f565b61211e6020830186611a23565b61212b6040830185611a23565b818103606083015261213d8184611e8c565b905095945050505050565b7f4e487b7100000000000000000000000000000000000000000000000000000000600052601260045260246000fd5b60006121828261176b565b915061218d8361176b565b92508261219d5761219c612148565b5b828204905092915050565b7f544f47413a207265656e7472616e6379206e6f7420616c6c6f77656400000000600082015250565b60006121de601c83611adb565b91506121e9826121a8565b602082019050919050565b6000602082019050818103600083015261220d816121d1565b9050919050565b600061221f8261176b565b915061222a8361176b565b925082820390508181111561224257612241611bea565b5b92915050565b7f544f47413a2062696420746f6f206c6f77000000000000000000000000000000600082015250565b600061227e601183611adb565b915061228982612248565b602082019050919050565b600060208201905081810360008301526122ad81612271565b9050919050565b60006040820190506122c96000830185611a23565b6122d66020830184611a4d565b9392505050565b60008115159050919050565b6122f2816122dd565b81146122fd57600080fd5b50565b60008151905061230f816122e9565b92915050565b60006020828403121561232b5761232a611703565b5b600061233984828501612300565b91505092915050565b6000819050919050565b61235581612342565b811461236057600080fd5b50565b6000815190506123728161234c565b92915050565b6000806000806080858703121561239257612391611703565b5b60006123a087828801612363565b94505060206123b187828801611d75565b93505060406123c287828801611d75565b92505060606123d387828801611d75565b91505092959194509250565b60006123ea82612342565b91506123f583612342565b92508282019050828112156000831216838212600084121516171561241d5761241c611bea565b5b92915050565b7f53616665436173743a2076616c756520646f65736e27742066697420696e206160008201527f6e20696e74323536000000000000000000000000000000000000000000000000602082015250565b600061247f602883611adb565b915061248a82612423565b604082019050919050565b600060208201905081810360008301526124ae81612472565b905091905056fea2646970667358221220c9ed1d586e023ec26eb891c79ffbe62fc6061809999f549ed90de31c15b7362b64736f6c63430008100033",
  "linkReferences": {},
  "deployedLinkReferences": {}
}