{
  "_format": "hh-sol-artifact-1",
  "contractName": "LoanFactory",
  "sourceName": "contracts/LoanFactory.sol",
  "abi": [
    {
      "inputs": [
        {
          "internalType": "int256",
          "name": "_borrowAmount",
          "type": "int256"
        },
        {
          "internalType": "int8",
          "name": "_interestRate",
          "type": "int8"
        },
        {
          "internalType": "int8",
          "name": "_paybackMonths",
          "type": "int8"
        },
        {
          "internalType": "address",
          "name": "_employer",
          "type": "address"
        },
        {
          "internalType": "address",
          "name": "_borrower",
          "type": "address"
        },
        {
          "internalType": "contract ISuperToken",
          "name": "_borrowToken",
          "type": "address"
        },
        {
          "internalType": "contract ISuperfluid",
          "name": "_host",
          "type": "address"
        }
      ],
      "name": "createNewLoan",
      "outputs": [
        {
          "internalType": "uint256",
          "name": "",
          "type": "uint256"
        }
      ],
      "stateMutability": "nonpayable",
      "type": "function"
    },
    {
      "inputs": [
        {
          "internalType": "address",
          "name": "",
          "type": "address"
        }
      ],
      "name": "employmentLoanOwners",
      "outputs": [
        {
          "internalType": "uint256",
          "name": "",
          "type": "uint256"
        }
      ],
      "stateMutability": "view",
      "type": "function"
    },
    {
      "inputs": [
        {
          "internalType": "uint256",
          "name": "",
          "type": "uint256"
        }
      ],
      "name": "idToLoan",
      "outputs": [
        {
          "internalType": "contract EmploymentLoan",
          "name": "",
          "type": "address"
        }
      ],
      "stateMutability": "view",
      "type": "function"
    },
    {
      "inputs": [],
      "name": "loanId",
      "outputs": [
        {
          "internalType": "uint256",
          "name": "",
          "type": "uint256"
        }
      ],
      "stateMutability": "view",
      "type": "function"
    }
  ],
  "bytecode": "0x608060405234801561001057600080fd5b50615bfc806100206000396000f3fe60806040523480156200001157600080fd5b5060043610620000525760003560e01c806327ef06541462000057578063614da4ac146200008d578063c95669a514620000c3578063eee2662714620000e5575b600080fd5b6200007560048036038101906200006f9190620003f4565b6200011b565b604051620000849190620004c2565b60405180910390f35b620000ab6004803603810190620000a5919062000510565b62000228565b604051620000ba9190620005ad565b60405180910390f35b620000cd6200025b565b604051620000dc9190620004c2565b60405180910390f35b620001036004803603810190620000fd9190620005ca565b62000261565b604051620001129190620004c2565b60405180910390f35b60008088888888888888604051620001339062000279565b620001459796959493929190620006b2565b604051809103906000f08015801562000162573d6000803e3d6000fd5b50905060008081548092919062000179906200075e565b919050555080600160008054815260200190815260200160002060006101000a81548173ffffffffffffffffffffffffffffffffffffffff021916908373ffffffffffffffffffffffffffffffffffffffff160217905550600054600260003373ffffffffffffffffffffffffffffffffffffffff1673ffffffffffffffffffffffffffffffffffffffff16815260200190815260200160002081905550600054915050979650505050505050565b60016020528060005260406000206000915054906101000a900473ffffffffffffffffffffffffffffffffffffffff1681565b60005481565b60026020528060005260406000206000915090505481565b61541b80620007ac83390190565b600080fd5b6000819050919050565b620002a1816200028c565b8114620002ad57600080fd5b50565b600081359050620002c18162000296565b92915050565b60008160000b9050919050565b620002df81620002c7565b8114620002eb57600080fd5b50565b600081359050620002ff81620002d4565b92915050565b600073ffffffffffffffffffffffffffffffffffffffff82169050919050565b6000620003328262000305565b9050919050565b620003448162000325565b81146200035057600080fd5b50565b600081359050620003648162000339565b92915050565b6000620003778262000325565b9050919050565b62000389816200036a565b81146200039557600080fd5b50565b600081359050620003a9816200037e565b92915050565b6000620003bc8262000325565b9050919050565b620003ce81620003af565b8114620003da57600080fd5b50565b600081359050620003ee81620003c3565b92915050565b600080600080600080600060e0888a03121562000416576200041562000287565b5b6000620004268a828b01620002b0565b9750506020620004398a828b01620002ee565b96505060406200044c8a828b01620002ee565b95505060606200045f8a828b0162000353565b9450506080620004728a828b0162000353565b93505060a0620004858a828b0162000398565b92505060c0620004988a828b01620003dd565b91505092959891949750929550565b6000819050919050565b620004bc81620004a7565b82525050565b6000602082019050620004d96000830184620004b1565b92915050565b620004ea81620004a7565b8114620004f657600080fd5b50565b6000813590506200050a81620004df565b92915050565b60006020828403121562000529576200052862000287565b5b60006200053984828501620004f9565b91505092915050565b6000819050919050565b60006200056d62000567620005618462000305565b62000542565b62000305565b9050919050565b600062000581826200054c565b9050919050565b6000620005958262000574565b9050919050565b620005a78162000588565b82525050565b6000602082019050620005c460008301846200059c565b92915050565b600060208284031215620005e357620005e262000287565b5b6000620005f38482850162000353565b91505092915050565b62000607816200028c565b82525050565b6200061881620002c7565b82525050565b60006200063f620006396200063384620002c7565b62000542565b6200028c565b9050919050565b62000651816200061e565b82525050565b620006628162000325565b82525050565b6000620006758262000574565b9050919050565b620006878162000668565b82525050565b60006200069a8262000574565b9050919050565b620006ac816200068d565b82525050565b600060e082019050620006c9600083018a620005fc565b620006d860208301896200060d565b620006e7604083018862000646565b620006f6606083018762000657565b62000705608083018662000657565b6200071460a08301856200067c565b6200072360c0830184620006a1565b98975050505050505050565b7f4e487b7100000000000000000000000000000000000000000000000000000000600052601160045260246000fd5b60006200076b82620004a7565b91507fffffffffffffffffffffffffffffffffffffffffffffffffffffffffffffffff8203620007a0576200079f6200072f565b5b60018201905091905056fe6101606040523480156200001257600080fd5b506040516200541b3803806200541b8339818101604052810190620000389190620004c0565b86608081815250508560000b60a08160000b815250508460c081815250508373ffffffffffffffffffffffffffffffffffffffff1660e08173ffffffffffffffffffffffffffffffffffffffff16815250508273ffffffffffffffffffffffffffffffffffffffff166101008173ffffffffffffffffffffffffffffffffffffffff16815250508173ffffffffffffffffffffffffffffffffffffffff166101408173ffffffffffffffffffffffffffffffffffffffff16815250508073ffffffffffffffffffffffffffffffffffffffff166101208173ffffffffffffffffffffffffffffffffffffffff16815250506000600260146101000a81548160ff02191690831515021790555060008173ffffffffffffffffffffffffffffffffffffffff1663b6d200de7fa9214cc96615e0085d3bb077758db69497dc2dce3b2b1e97bc93c3d18d83efd36040518263ffffffff1660e01b8152600401620001a191906200058e565b602060405180830381865afa158015620001bf573d6000803e3d6000fd5b505050506040513d601f19601f82011682018060405250810190620001e59190620005f0565b905060405180604001604052808373ffffffffffffffffffffffffffffffffffffffff1681526020018273ffffffffffffffffffffffffffffffffffffffff168152506000808201518160000160006101000a81548173ffffffffffffffffffffffffffffffffffffffff021916908373ffffffffffffffffffffffffffffffffffffffff16021790555060208201518160010160006101000a81548173ffffffffffffffffffffffffffffffffffffffff021916908373ffffffffffffffffffffffffffffffffffffffff1602179055509050506000641000000000640400000000640100000000600117171790508273ffffffffffffffffffffffffffffffffffffffff1663ad3915c8826040518263ffffffff1660e01b81526004016200031091906200063d565b600060405180830381600087803b1580156200032b57600080fd5b505af115801562000340573d6000803e3d6000fd5b505050505050505050505050506200065a565b600080fd5b6000819050919050565b6200036d8162000358565b81146200037957600080fd5b50565b6000815190506200038d8162000362565b92915050565b60008160000b9050919050565b620003ab8162000393565b8114620003b757600080fd5b50565b600081519050620003cb81620003a0565b92915050565b600073ffffffffffffffffffffffffffffffffffffffff82169050919050565b6000620003fe82620003d1565b9050919050565b6200041081620003f1565b81146200041c57600080fd5b50565b600081519050620004308162000405565b92915050565b60006200044382620003f1565b9050919050565b620004558162000436565b81146200046157600080fd5b50565b60008151905062000475816200044a565b92915050565b60006200048882620003f1565b9050919050565b6200049a816200047b565b8114620004a657600080fd5b50565b600081519050620004ba816200048f565b92915050565b600080600080600080600060e0888a031215620004e257620004e162000353565b5b6000620004f28a828b016200037c565b9750506020620005058a828b01620003ba565b9650506040620005188a828b016200037c565b95505060606200052b8a828b016200041f565b94505060806200053e8a828b016200041f565b93505060a0620005518a828b0162000464565b92505060c0620005648a828b01620004a9565b91505092959891949750929550565b6000819050919050565b620005888162000573565b82525050565b6000602082019050620005a560008301846200057d565b92915050565b6000620005b882620003f1565b9050919050565b620005ca81620005ab565b8114620005d657600080fd5b50565b600081519050620005ea81620005bf565b92915050565b60006020828403121562000609576200060862000353565b5b60006200061984828501620005d9565b91505092915050565b6000819050919050565b620006378162000622565b82525050565b60006020820190506200065460008301846200062c565b92915050565b60805160a05160c05160e051610100516101205161014051614bbb62000860600039600081816105fe0152818161090c01528181610a0301528181610b2601528181610bea01528181610cb501528181610d3501528181610f2701528181611012015281816111350152818161118c0152818161127f01528181611369015281816113c00152818161162e015281816116fe015281816117730152818161183e0152818161189e01528181611a2501528181611ae901528181611bd401528181611ed101528181611f2e01528181611ff6015281816120f10152818161215d015281816121c701528181612228015281816122be0152818161231b0152818161237c01528181612580015281816125e9015261264a0152600081816115b3015261240b01526000818161086301528181610a4001528181610c0c01528181610c94015281816110340152818161116b0152818161139f015281816117950152818161181d01528181611bf601528181611f0d01528181612018015281816120d00152818161213c015281816122070152818161229d0152818161235b0152818161255f015261262901526000818161092d01528181610e5301526124b201526000818161074201528181610ded0152610e77015260008181610765015261083f015260008181610789015281816107be01528181610a610152610e9b0152614bbb6000f3fe608060405234801561001057600080fd5b506004361061014d5760003560e01c8063884d1f40116100c3578063bcead63e1161007c578063bcead63e14610396578063d116eb5b146103b4578063d3112b2e146103d0578063d86ed3e5146103ef578063f437bc591461041f578063fea7b5931461043d5761014d565b8063884d1f40146102e457806397dffc61146103145780639ed53f7a1461031e578063ae200e791461033c578063ae5a02341461035a578063b7dd32aa146103785761014d565b806353c11f991161011557806353c11f991461020c5780635e084a411461023c5780635f9e7d771461025a5780637c3a00fd1461028a5780637df1f1b9146102a8578063850c4ca0146102c65761014d565b8063215eed0214610152578063230dbd291461017057806330d9c915146101a05780633cf4d1f8146101d0578063456dc17a146101ee575b600080fd5b61015a610447565b6040516101679190613257565b60405180910390f35b61018a600480360381019061018591906133b3565b61046b565b604051610197919061353b565b60405180910390f35b6101ba60048036038101906101b5919061355d565b6105ac565b6040516101c7919061353b565b60405180910390f35b6101d86105e9565b6040516101e59190613634565b60405180910390f35b6101f66105fc565b60405161020391906136ae565b60405180910390f35b610226600480360381019061022191906133b3565b610620565b604051610233919061353b565b60405180910390f35b61024461073a565b60405161025191906136e5565b60405180910390f35b610274600480360381019061026f919061355d565b610800565b604051610281919061353b565b60405180910390f35b61029261083d565b60405161029f919061371c565b60405180910390f35b6102b0610861565b6040516102bd9190613746565b60405180910390f35b6102ce610885565b6040516102db919061377a565b60405180910390f35b6102fe60048036038101906102f9919061355d565b61088b565b60405161030b919061353b565b60405180910390f35b61031c6108c8565b005b610326610dd6565b604051610333919061377a565b60405180910390f35b610344610e51565b6040516103519190613746565b60405180910390f35b610362610e75565b60405161036f91906137ae565b60405180910390f35b610380610e99565b60405161038d91906137ae565b60405180910390f35b61039e610ebd565b6040516103ab9190613746565b60405180910390f35b6103ce60048036038101906103c991906137f5565b610ee3565b005b6103d861141e565b6040516103e6929190613864565b60405180910390f35b610409600480360381019061040491906133b3565b611470565b604051610416919061353b565b60405180910390f35b6104276115b1565b604051610434919061388d565b60405180910390f35b6104456115d5565b005b7fa9214cc96615e0085d3bb077758db69497dc2dce3b2b1e97bc93c3d18d83efd381565b606089896104788261189a565b6104b7576040517f08c379a00000000000000000000000000000000000000000000000000000000081526004016104ae90613905565b60405180910390fd5b6104c0816118f2565b6104ff576040517f08c379a00000000000000000000000000000000000000000000000000000000081526004016104f690613997565b60405180910390fd5b6000800160009054906101000a900473ffffffffffffffffffffffffffffffffffffffff1673ffffffffffffffffffffffffffffffffffffffff163373ffffffffffffffffffffffffffffffffffffffff1614610591576040517f08c379a000000000000000000000000000000000000000000000000000000000815260040161058890613a03565b60405180910390fd5b61059b858561198c565b925050509998505050505050505050565b60606040517f08c379a00000000000000000000000000000000000000000000000000000000081526004016105e090613a95565b60405180910390fd5b600260149054906101000a900460ff1681565b7f000000000000000000000000000000000000000000000000000000000000000081565b60606000800160009054906101000a900473ffffffffffffffffffffffffffffffffffffffff1673ffffffffffffffffffffffffffffffffffffffff163373ffffffffffffffffffffffffffffffffffffffff16146106b4576040517f08c379a00000000000000000000000000000000000000000000000000000000081526004016106ab90613a03565b60405180910390fd5b6106bd896118f2565b15806106cf57506106cd8a61189a565b155b156107205782828080601f016020809104026020016040519081016040528093929190818152602001838380828437600081840152601f19601f82011690508083019250505050505050905061072d565b61072a838361198c565b90505b9998505050505050505050565b6000622819a07f000000000000000000000000000000000000000000000000000000000000000060647f000000000000000000000000000000000000000000000000000000000000000060000b7f00000000000000000000000000000000000000000000000000000000000000006107b29190613ae4565b6107bc9190613c2a565b7f00000000000000000000000000000000000000000000000000000000000000006107e79190613c94565b6107f19190613c2a565b6107fb9190613c2a565b905090565b60606040517f08c379a000000000000000000000000000000000000000000000000000000000815260040161083490613d9a565b60405180910390fd5b7f000000000000000000000000000000000000000000000000000000000000000081565b7f000000000000000000000000000000000000000000000000000000000000000081565b60035481565b60606040517f08c379a00000000000000000000000000000000000000000000000000000000081526004016108bf90613e2c565b60405180910390fd5b60008060010160009054906101000a900473ffffffffffffffffffffffffffffffffffffffff1673ffffffffffffffffffffffffffffffffffffffff1663e6a1e8887f00000000000000000000000000000000000000000000000000000000000000007f0000000000000000000000000000000000000000000000000000000000000000306040518463ffffffff1660e01b815260040161096b93929190613e4c565b608060405180830381865afa158015610988573d6000803e3d6000fd5b505050506040513d601f19601f820116820180604052508101906109ac9190613ec4565b50509150506109b961073a565b600b0b81600b0b1215610a01576040517f08c379a00000000000000000000000000000000000000000000000000000000081526004016109f890613f77565b60405180910390fd5b7f000000000000000000000000000000000000000000000000000000000000000073ffffffffffffffffffffffffffffffffffffffff166323b872dd337f00000000000000000000000000000000000000000000000000000000000000007f00000000000000000000000000000000000000000000000000000000000000006040518463ffffffff1660e01b8152600401610a9e93929190613f97565b6020604051808303816000875af1158015610abd573d6000803e3d6000fd5b505050506040513d601f19601f82011682018060405250810190610ae19190613ffa565b5060008060010160009054906101000a900473ffffffffffffffffffffffffffffffffffffffff1673ffffffffffffffffffffffffffffffffffffffff1663e8e7e2d17f0000000000000000000000000000000000000000000000000000000000000000306040518363ffffffff1660e01b8152600401610b63929190614027565b602060405180830381865afa158015610b80573d6000803e3d6000fd5b505050506040513d601f19601f82011682018060405250810190610ba49190614050565b905060008060010160009054906101000a900473ffffffffffffffffffffffffffffffffffffffff1673ffffffffffffffffffffffffffffffffffffffff1663e6a1e8887f0000000000000000000000000000000000000000000000000000000000000000307f00000000000000000000000000000000000000000000000000000000000000006040518463ffffffff1660e01b8152600401610c4993929190613e4c565b608060405180830381865afa158015610c66573d6000803e3d6000fd5b505050506040513d601f19601f82011682018060405250810190610c8a9190613ec4565b5050915050610d2f7f00000000000000000000000000000000000000000000000000000000000000007f0000000000000000000000000000000000000000000000000000000000000000610cdc61073a565b7fffffffffffffffffffffffffffffffffffffffffffffffffffffffffffffffff8587610d09919061407d565b610d1391906140fd565b610d1d919061407d565b6000611d32909392919063ffffffff16565b610d6e337f0000000000000000000000000000000000000000000000000000000000000000610d5c61073a565b6000611d92909392919063ffffffff16565b6001600260146101000a81548160ff02191690831515021790555033600260006101000a81548173ffffffffffffffffffffffffffffffffffffffff021916908373ffffffffffffffffffffffffffffffffffffffff16021790555042600381905550505050565b60008060035442610de791906141ec565b622819a07f0000000000000000000000000000000000000000000000000000000000000000610e169190613ae4565b610e209190614220565b905060008113610e34576000915050610e4e565b610e3c61073a565b600b0b81610e4a91906142b4565b9150505b90565b7f000000000000000000000000000000000000000000000000000000000000000081565b7f000000000000000000000000000000000000000000000000000000000000000081565b7f000000000000000000000000000000000000000000000000000000000000000081565b600260009054906101000a900473ffffffffffffffffffffffffffffffffffffffff1681565b60008060010160009054906101000a900473ffffffffffffffffffffffffffffffffffffffff1673ffffffffffffffffffffffffffffffffffffffff1663e6a1e8887f000000000000000000000000000000000000000000000000000000000000000030600260009054906101000a900473ffffffffffffffffffffffffffffffffffffffff166040518463ffffffff1660e01b8152600401610f8893929190613e4c565b608060405180830381865afa158015610fa5573d6000803e3d6000fd5b505050506040513d601f19601f82011682018060405250810190610fc99190613ec4565b505091505060008060010160009054906101000a900473ffffffffffffffffffffffffffffffffffffffff1673ffffffffffffffffffffffffffffffffffffffff1663e6a1e8887f0000000000000000000000000000000000000000000000000000000000000000307f00000000000000000000000000000000000000000000000000000000000000006040518463ffffffff1660e01b815260040161107193929190613e4c565b608060405180830381865afa15801561108e573d6000803e3d6000fd5b505050506040513d601f19601f820116820180604052508101906110b29190613ec4565b5050915050600260009054906101000a900473ffffffffffffffffffffffffffffffffffffffff1673ffffffffffffffffffffffffffffffffffffffff163373ffffffffffffffffffffffffffffffffffffffff16036111e95761116630600260009054906101000a900473ffffffffffffffffffffffffffffffffffffffff167f00000000000000000000000000000000000000000000000000000000000000006000611df2909392919063ffffffff16565b6111c97f00000000000000000000000000000000000000000000000000000000000000007f000000000000000000000000000000000000000000000000000000000000000084846111b7919061430e565b6000611d32909392919063ffffffff16565b6000600260146101000a81548160ff021916908315150217905550611419565b6111f1610dd6565b831015611233576040517f08c379a000000000000000000000000000000000000000000000000000000000815260040161122a906143da565b60405180910390fd5b600061123d610dd6565b1161127d576040517f08c379a00000000000000000000000000000000000000000000000000000000081526004016112749061446c565b60405180910390fd5b7f000000000000000000000000000000000000000000000000000000000000000073ffffffffffffffffffffffffffffffffffffffff166323b872dd33600260009054906101000a900473ffffffffffffffffffffffffffffffffffffffff16866040518463ffffffff1660e01b81526004016112fc93929190613f97565b6020604051808303816000875af115801561131b573d6000803e3d6000fd5b505050506040513d601f19601f8201168201806040525081019061133f9190613ffa565b5061139a30600260009054906101000a900473ffffffffffffffffffffffffffffffffffffffff167f00000000000000000000000000000000000000000000000000000000000000006000611df2909392919063ffffffff16565b6113fd7f00000000000000000000000000000000000000000000000000000000000000007f000000000000000000000000000000000000000000000000000000000000000084846113eb919061430e565b6000611d32909392919063ffffffff16565b6000600260146101000a81548160ff0219169083151502179055505b505050565b60008060000160009054906101000a900473ffffffffffffffffffffffffffffffffffffffff16908060010160009054906101000a900473ffffffffffffffffffffffffffffffffffffffff16905082565b6060898961147d8261189a565b6114bc576040517f08c379a00000000000000000000000000000000000000000000000000000000081526004016114b390613905565b60405180910390fd5b6114c5816118f2565b611504576040517f08c379a00000000000000000000000000000000000000000000000000000000081526004016114fb90613997565b60405180910390fd5b6000800160009054906101000a900473ffffffffffffffffffffffffffffffffffffffff1673ffffffffffffffffffffffffffffffffffffffff163373ffffffffffffffffffffffffffffffffffffffff1614611596576040517f08c379a000000000000000000000000000000000000000000000000000000000815260040161158d90613a03565b60405180910390fd5b6115a0858561198c565b925050509998505050505050505050565b7f000000000000000000000000000000000000000000000000000000000000000081565b60006115df610dd6565b11156115ea57600080fd5b60008060010160009054906101000a900473ffffffffffffffffffffffffffffffffffffffff1673ffffffffffffffffffffffffffffffffffffffff1663e6a1e8887f000000000000000000000000000000000000000000000000000000000000000030600260009054906101000a900473ffffffffffffffffffffffffffffffffffffffff166040518463ffffffff1660e01b815260040161168f93929190613e4c565b608060405180830381865afa1580156116ac573d6000803e3d6000fd5b505050506040513d601f19601f820116820180604052508101906116d09190613ec4565b505091505061172f30600260009054906101000a900473ffffffffffffffffffffffffffffffffffffffff167f00000000000000000000000000000000000000000000000000000000000000006000611df2909392919063ffffffff16565b60008060010160009054906101000a900473ffffffffffffffffffffffffffffffffffffffff1673ffffffffffffffffffffffffffffffffffffffff1663e6a1e8887f0000000000000000000000000000000000000000000000000000000000000000307f00000000000000000000000000000000000000000000000000000000000000006040518463ffffffff1660e01b81526004016117d293929190613e4c565b608060405180830381865afa1580156117ef573d6000803e3d6000fd5b505050506040513d601f19601f820116820180604052508101906118139190613ec4565b505091505061187b7f00000000000000000000000000000000000000000000000000000000000000007f00000000000000000000000000000000000000000000000000000000000000008484611869919061430e565b6000611d32909392919063ffffffff16565b6000600260146101000a81548160ff0219169083151502179055505050565b60007f000000000000000000000000000000000000000000000000000000000000000073ffffffffffffffffffffffffffffffffffffffff168273ffffffffffffffffffffffffffffffffffffffff16149050919050565b60007fa9214cc96615e0085d3bb077758db69497dc2dce3b2b1e97bc93c3d18d83efd38273ffffffffffffffffffffffffffffffffffffffff16637730599e6040518163ffffffff1660e01b8152600401602060405180830381865afa158015611960573d6000803e3d6000fd5b505050506040513d601f19601f8201168201806040525081019061198491906144a1565b149050919050565b606082828080601f016020809104026020016040519081016040528093929190818152602001838380828437600081840152601f19601f82011690508083019250505050505050905060006119df61073a565b905060008060010160009054906101000a900473ffffffffffffffffffffffffffffffffffffffff1673ffffffffffffffffffffffffffffffffffffffff1663e8e7e2d17f0000000000000000000000000000000000000000000000000000000000000000306040518363ffffffff1660e01b8152600401611a62929190614027565b602060405180830381865afa158015611a7f573d6000803e3d6000fd5b505050506040513d601f19601f82011682018060405250810190611aa39190614050565b905060008060010160009054906101000a900473ffffffffffffffffffffffffffffffffffffffff1673ffffffffffffffffffffffffffffffffffffffff1663e6a1e8887f000000000000000000000000000000000000000000000000000000000000000030600260009054906101000a900473ffffffffffffffffffffffffffffffffffffffff166040518463ffffffff1660e01b8152600401611b4a93929190613e4c565b608060405180830381865afa158015611b67573d6000803e3d6000fd5b505050506040513d601f19601f82011682018060405250810190611b8b9190613ec4565b505091505060008060010160009054906101000a900473ffffffffffffffffffffffffffffffffffffffff1673ffffffffffffffffffffffffffffffffffffffff1663e6a1e8887f0000000000000000000000000000000000000000000000000000000000000000307f00000000000000000000000000000000000000000000000000000000000000006040518463ffffffff1660e01b8152600401611c3393929190613e4c565b608060405180830381865afa158015611c50573d6000803e3d6000fd5b505050506040513d601f19601f82011682018060405250810190611c749190613ec4565b505091505060008183611c87919061430e565b905060008185611c97919061430e565b9050600081600b0b1215611cd4577fffffffffffffffffffffffffffffffffffffffffffffffffffffffffffffffff81611cd191906140fd565b90505b6000600b0b81600b0b03611cf457611ced898986611e52565b9650611d26565b6000600b0b82600b0b14611d1657611d0f8989888785611f69565b9650611d25565b611d22898988846123be565b96505b5b50505050505092915050565b611d8c84848484600067ffffffffffffffff811115611d5457611d536144ce565b5b6040519080825280601f01601f191660200182016040528015611d865781602001600182028036833780820191505090505b50612689565b50505050565b611dec84848484600067ffffffffffffffff811115611db457611db36144ce565b5b6040519080825280601f01601f191660200182016040528015611de65781602001600182028036833780820191505090505b50612843565b50505050565b611e4c84848484600067ffffffffffffffff811115611e1457611e136144ce565b5b6040519080825280601f01601f191660200182016040528015611e465781602001600182028036833780820191505090505b506129fd565b50505050565b606083838080601f016020809104026020016040519081016040528093929190818152602001838380828437600081840152601f19601f820116905080830192505050505050509050600082600b0b1315611f0657611f038130600260009054906101000a900473ffffffffffffffffffffffffffffffffffffffff167f00000000000000000000000000000000000000000000000000000000000000006000612bb790949392919063ffffffff16565b90505b611f6081307f00000000000000000000000000000000000000000000000000000000000000007f00000000000000000000000000000000000000000000000000000000000000006000612bb790949392919063ffffffff16565b90509392505050565b606085858080601f016020809104026020016040519081016040528093929190818152602001838380828437600081840152601f19601f82011690508083019250505050505050905060008060010160009054906101000a900473ffffffffffffffffffffffffffffffffffffffff1673ffffffffffffffffffffffffffffffffffffffff1663e6a1e8887f0000000000000000000000000000000000000000000000000000000000000000307f00000000000000000000000000000000000000000000000000000000000000006040518463ffffffff1660e01b815260040161205593929190613e4c565b608060405180830381865afa158015612072573d6000803e3d6000fd5b505050506040513d601f19601f820116820180604052508101906120969190613ec4565b5050915050600085846120a9919061407d565b600b0b131561226357600084600b0b131561220157600081600b0b13156121365761212f827f00000000000000000000000000000000000000000000000000000000000000007f0000000000000000000000000000000000000000000000000000000000000000888761211c919061407d565b6000612c1f90949392919063ffffffff16565b915061219e565b61219b827f00000000000000000000000000000000000000000000000000000000000000007f00000000000000000000000000000000000000000000000000000000000000008887612188919061407d565b6000612c8790949392919063ffffffff16565b91505b6121fa82600260009054906101000a900473ffffffffffffffffffffffffffffffffffffffff167f0000000000000000000000000000000000000000000000000000000000000000886000612c1f90949392919063ffffffff16565b915061225e565b61225b827f00000000000000000000000000000000000000000000000000000000000000007f0000000000000000000000000000000000000000000000000000000000000000866000612c1f90949392919063ffffffff16565b91505b6123b4565b60008584612271919061407d565b600b0b131580156122855750600083600b0b135b156123b357600084600b0b1315612355576122f082307f00000000000000000000000000000000000000000000000000000000000000007f00000000000000000000000000000000000000000000000000000000000000006000612bb790949392919063ffffffff16565b915061234e82600260009054906101000a900473ffffffffffffffffffffffffffffffffffffffff167f0000000000000000000000000000000000000000000000000000000000000000866000612c1f90949392919063ffffffff16565b91506123b2565b6123af827f00000000000000000000000000000000000000000000000000000000000000007f0000000000000000000000000000000000000000000000000000000000000000866000612c1f90949392919063ffffffff16565b91505b5b5b5095945050505050565b606084848080601f016020809104026020016040519081016040528093929190818152602001838380828437600081840152601f19601f82011690508083019250505050505050905060007f000000000000000000000000000000000000000000000000000000000000000073ffffffffffffffffffffffffffffffffffffffff16633f6c923a87876040518363ffffffff1660e01b8152600401612464929190614539565b600060405180830381865afa158015612481573d6000803e3d6000fd5b505050506040513d6000823e3d601f19601f820116820180604052508101906124aa9190614891565b6060015190507f000000000000000000000000000000000000000000000000000000000000000073ffffffffffffffffffffffffffffffffffffffff168173ffffffffffffffffffffffffffffffffffffffff161461253e576040517f08c379a00000000000000000000000000000000000000000000000000000000081526004016125359061494c565b60405180910390fd5b60011515600260149054906101000a900460ff16151503612623576125be827f00000000000000000000000000000000000000000000000000000000000000007f000000000000000000000000000000000000000000000000000000000000000087876125ab919061407d565b6000612c8790949392919063ffffffff16565b915061261c82600260009054906101000a900473ffffffffffffffffffffffffffffffffffffffff167f0000000000000000000000000000000000000000000000000000000000000000876000612c8790949392919063ffffffff16565b9150612680565b61267d827f00000000000000000000000000000000000000000000000000000000000000007f0000000000000000000000000000000000000000000000000000000000000000866000612c8790949392919063ffffffff16565b91505b50949350505050565b8460000160009054906101000a900473ffffffffffffffffffffffffffffffffffffffff1673ffffffffffffffffffffffffffffffffffffffff166339255d5b8660010160009054906101000a900473ffffffffffffffffffffffffffffffffffffffff168760010160009054906101000a900473ffffffffffffffffffffffffffffffffffffffff1673ffffffffffffffffffffffffffffffffffffffff166350209a62878988600067ffffffffffffffff81111561274c5761274b6144ce565b5b6040519080825280601f01601f19166020018201604052801561277e5781602001600182028036833780820191505090505b50604051602401612792949392919061498d565b604051602081830303815290604052915060e01b6020820180517bffffffffffffffffffffffffffffffffffffffffffffffffffffffff8381831617835250505050846040518463ffffffff1660e01b81526004016127f3939291906149d9565b6000604051808303816000875af1158015612812573d6000803e3d6000fd5b505050506040513d6000823e3d601f19601f8201168201806040525081019061283b9190614a1e565b505050505050565b8460000160009054906101000a900473ffffffffffffffffffffffffffffffffffffffff1673ffffffffffffffffffffffffffffffffffffffff166339255d5b8660010160009054906101000a900473ffffffffffffffffffffffffffffffffffffffff168760010160009054906101000a900473ffffffffffffffffffffffffffffffffffffffff1673ffffffffffffffffffffffffffffffffffffffff166362fc305e878988600067ffffffffffffffff811115612906576129056144ce565b5b6040519080825280601f01601f1916602001820160405280156129385781602001600182028036833780820191505090505b5060405160240161294c949392919061498d565b604051602081830303815290604052915060e01b6020820180517bffffffffffffffffffffffffffffffffffffffffffffffffffffffff8381831617835250505050846040518463ffffffff1660e01b81526004016129ad939291906149d9565b6000604051808303816000875af11580156129cc573d6000803e3d6000fd5b505050506040513d6000823e3d601f19601f820116820180604052508101906129f59190614a1e565b505050505050565b8460000160009054906101000a900473ffffffffffffffffffffffffffffffffffffffff1673ffffffffffffffffffffffffffffffffffffffff166339255d5b8660010160009054906101000a900473ffffffffffffffffffffffffffffffffffffffff168760010160009054906101000a900473ffffffffffffffffffffffffffffffffffffffff1673ffffffffffffffffffffffffffffffffffffffff1663b4b333c6868989600067ffffffffffffffff811115612ac057612abf6144ce565b5b6040519080825280601f01601f191660200182016040528015612af25781602001600182028036833780820191505090505b50604051602401612b069493929190614a67565b604051602081830303815290604052915060e01b6020820180517bffffffffffffffffffffffffffffffffffffffffffffffffffffffff8381831617835250505050846040518463ffffffff1660e01b8152600401612b67939291906149d9565b6000604051808303816000875af1158015612b86573d6000803e3d6000fd5b505050506040513d6000823e3d601f19601f82011682018060405250810190612baf9190614a1e565b505050505050565b6060612c148686868686600067ffffffffffffffff811115612bdc57612bdb6144ce565b5b6040519080825280601f01601f191660200182016040528015612c0e5781602001600182028036833780820191505090505b50612cef565b905095945050505050565b6060612c7c8686868686600067ffffffffffffffff811115612c4457612c436144ce565b5b6040519080825280601f01601f191660200182016040528015612c765781602001600182028036833780820191505090505b50612eb4565b905095945050505050565b6060612ce48686868686600067ffffffffffffffff811115612cac57612cab6144ce565b5b6040519080825280601f01601f191660200182016040528015612cde5781602001600182028036833780820191505090505b50613079565b905095945050505050565b60608660000160009054906101000a900473ffffffffffffffffffffffffffffffffffffffff1673ffffffffffffffffffffffffffffffffffffffff16634329d2938860010160009054906101000a900473ffffffffffffffffffffffffffffffffffffffff168960010160009054906101000a900473ffffffffffffffffffffffffffffffffffffffff1673ffffffffffffffffffffffffffffffffffffffff1663b4b333c6878a8a600067ffffffffffffffff811115612db457612db36144ce565b5b6040519080825280601f01601f191660200182016040528015612de65781602001600182028036833780820191505090505b50604051602401612dfa9493929190614a67565b604051602081830303815290604052915060e01b6020820180517bffffffffffffffffffffffffffffffffffffffffffffffffffffffff8381831617835250505050858a6040518563ffffffff1660e01b8152600401612e5d9493929190614ab3565b6000604051808303816000875af1158015612e7c573d6000803e3d6000fd5b505050506040513d6000823e3d601f19601f82011682018060405250810190612ea59190614b0d565b50809150509695505050505050565b60608660000160009054906101000a900473ffffffffffffffffffffffffffffffffffffffff1673ffffffffffffffffffffffffffffffffffffffff16634329d2938860010160009054906101000a900473ffffffffffffffffffffffffffffffffffffffff168960010160009054906101000a900473ffffffffffffffffffffffffffffffffffffffff1673ffffffffffffffffffffffffffffffffffffffff166350209a62888a89600067ffffffffffffffff811115612f7957612f786144ce565b5b6040519080825280601f01601f191660200182016040528015612fab5781602001600182028036833780820191505090505b50604051602401612fbf949392919061498d565b604051602081830303815290604052915060e01b6020820180517bffffffffffffffffffffffffffffffffffffffffffffffffffffffff8381831617835250505050858a6040518563ffffffff1660e01b81526004016130229493929190614ab3565b6000604051808303816000875af1158015613041573d6000803e3d6000fd5b505050506040513d6000823e3d601f19601f8201168201806040525081019061306a9190614b0d565b50809150509695505050505050565b60608660000160009054906101000a900473ffffffffffffffffffffffffffffffffffffffff1673ffffffffffffffffffffffffffffffffffffffff16634329d2938860010160009054906101000a900473ffffffffffffffffffffffffffffffffffffffff168960010160009054906101000a900473ffffffffffffffffffffffffffffffffffffffff1673ffffffffffffffffffffffffffffffffffffffff166362fc305e888a89600067ffffffffffffffff81111561313e5761313d6144ce565b5b6040519080825280601f01601f1916602001820160405280156131705781602001600182028036833780820191505090505b50604051602401613184949392919061498d565b604051602081830303815290604052915060e01b6020820180517bffffffffffffffffffffffffffffffffffffffffffffffffffffffff8381831617835250505050858a6040518563ffffffff1660e01b81526004016131e79493929190614ab3565b6000604051808303816000875af1158015613206573d6000803e3d6000fd5b505050506040513d6000823e3d601f19601f8201168201806040525081019061322f9190614b0d565b50809150509695505050505050565b6000819050919050565b6132518161323e565b82525050565b600060208201905061326c6000830184613248565b92915050565b6000604051905090565b600080fd5b600080fd5b600073ffffffffffffffffffffffffffffffffffffffff82169050919050565b60006132b182613286565b9050919050565b60006132c3826132a6565b9050919050565b6132d3816132b8565b81146132de57600080fd5b50565b6000813590506132f0816132ca565b92915050565b6132ff816132a6565b811461330a57600080fd5b50565b60008135905061331c816132f6565b92915050565b61332b8161323e565b811461333657600080fd5b50565b60008135905061334881613322565b92915050565b600080fd5b600080fd5b600080fd5b60008083601f8401126133735761337261334e565b5b8235905067ffffffffffffffff8111156133905761338f613353565b5b6020830191508360018202830111156133ac576133ab613358565b5b9250929050565b600080600080600080600080600060c08a8c0312156133d5576133d461327c565b5b60006133e38c828d016132e1565b99505060206133f48c828d0161330d565b98505060406134058c828d01613339565b97505060608a013567ffffffffffffffff81111561342657613425613281565b5b6134328c828d0161335d565b965096505060808a013567ffffffffffffffff81111561345557613454613281565b5b6134618c828d0161335d565b945094505060a08a013567ffffffffffffffff81111561348457613483613281565b5b6134908c828d0161335d565b92509250509295985092959850929598565b600081519050919050565b600082825260208201905092915050565b60005b838110156134dc5780820151818401526020810190506134c1565b838111156134eb576000848401525b50505050565b6000601f19601f8301169050919050565b600061350d826134a2565b61351781856134ad565b93506135278185602086016134be565b613530816134f1565b840191505092915050565b600060208201905081810360008301526135558184613502565b905092915050565b600080600080600080600060a0888a03121561357c5761357b61327c565b5b600061358a8a828b016132e1565b975050602061359b8a828b0161330d565b96505060406135ac8a828b01613339565b955050606088013567ffffffffffffffff8111156135cd576135cc613281565b5b6135d98a828b0161335d565b9450945050608088013567ffffffffffffffff8111156135fc576135fb613281565b5b6136088a828b0161335d565b925092505092959891949750929550565b60008115159050919050565b61362e81613619565b82525050565b60006020820190506136496000830184613625565b92915050565b6000819050919050565b600061367461366f61366a84613286565b61364f565b613286565b9050919050565b600061368682613659565b9050919050565b60006136988261367b565b9050919050565b6136a88161368d565b82525050565b60006020820190506136c3600083018461369f565b92915050565b600081600b0b9050919050565b6136df816136c9565b82525050565b60006020820190506136fa60008301846136d6565b92915050565b60008160000b9050919050565b61371681613700565b82525050565b6000602082019050613731600083018461370d565b92915050565b613740816132a6565b82525050565b600060208201905061375b6000830184613737565b92915050565b6000819050919050565b61377481613761565b82525050565b600060208201905061378f600083018461376b565b92915050565b6000819050919050565b6137a881613795565b82525050565b60006020820190506137c3600083018461379f565b92915050565b6137d281613761565b81146137dd57600080fd5b50565b6000813590506137ef816137c9565b92915050565b60006020828403121561380b5761380a61327c565b5b6000613819848285016137e0565b91505092915050565b600061382d8261367b565b9050919050565b61383d81613822565b82525050565b600061384e8261367b565b9050919050565b61385e81613843565b82525050565b60006040820190506138796000830185613834565b6138866020830184613855565b9392505050565b60006020820190506138a26000830184613834565b92915050565b600082825260208201905092915050565b7f5265646972656374416c6c3a206e6f7420616363657074656420746f6b656e00600082015250565b60006138ef601f836138a8565b91506138fa826138b9565b602082019050919050565b6000602082019050818103600083015261391e816138e2565b9050919050565b7f5265646972656374416c6c3a206f6e6c7920434641763120737570706f72746560008201527f6400000000000000000000000000000000000000000000000000000000000000602082015250565b60006139816021836138a8565b915061398c82613925565b604082019050919050565b600060208201905081810360008301526139b081613974565b9050919050565b7f4f6e6c7920686f73742063616e2063616c6c2063616c6c6261636b0000000000600082015250565b60006139ed601b836138a8565b91506139f8826139b7565b602082019050919050565b60006020820190508181036000830152613a1c816139e0565b9050919050565b7f556e737570706f727465642063616c6c6261636b202d204265666f726520416760008201527f7265656d656e7420437265617465640000000000000000000000000000000000602082015250565b6000613a7f602f836138a8565b9150613a8a82613a23565b604082019050919050565b60006020820190508181036000830152613aae81613a72565b9050919050565b7f4e487b7100000000000000000000000000000000000000000000000000000000600052601160045260246000fd5b6000613aef82613795565b9150613afa83613795565b9250827f7fffffffffffffffffffffffffffffffffffffffffffffffffffffffffffffff0482116000841360008413161615613b3957613b38613ab5565b5b817f80000000000000000000000000000000000000000000000000000000000000000583126000841260008413161615613b7657613b75613ab5565b5b827f80000000000000000000000000000000000000000000000000000000000000000582126000841360008412161615613bb357613bb2613ab5565b5b827f7fffffffffffffffffffffffffffffffffffffffffffffffffffffffffffffff0582126000841260008412161615613bf057613bef613ab5565b5b828202905092915050565b7f4e487b7100000000000000000000000000000000000000000000000000000000600052601260045260246000fd5b6000613c3582613795565b9150613c4083613795565b925082613c5057613c4f613bfb565b5b600160000383147f800000000000000000000000000000000000000000000000000000000000000083141615613c8957613c88613ab5565b5b828205905092915050565b6000613c9f82613795565b9150613caa83613795565b9250817f7fffffffffffffffffffffffffffffffffffffffffffffffffffffffffffffff03831360008312151615613ce557613ce4613ab5565b5b817f8000000000000000000000000000000000000000000000000000000000000000038312600083121615613d1d57613d1c613ab5565b5b828201905092915050565b7f556e737570706f727465642063616c6c6261636b202d20204265666f7265204160008201527f677265656d656e74205465726d696e6174656400000000000000000000000000602082015250565b6000613d846033836138a8565b9150613d8f82613d28565b604082019050919050565b60006020820190508181036000830152613db381613d77565b9050919050565b7f556e737570706f727465642063616c6c6261636b202d204265666f726520416760008201527f7265656d656e7420757064617465640000000000000000000000000000000000602082015250565b6000613e16602f836138a8565b9150613e2182613dba565b604082019050919050565b60006020820190508181036000830152613e4581613e09565b9050919050565b6000606082019050613e61600083018661369f565b613e6e6020830185613737565b613e7b6040830184613737565b949350505050565b600081519050613e92816137c9565b92915050565b613ea1816136c9565b8114613eac57600080fd5b50565b600081519050613ebe81613e98565b92915050565b60008060008060808587031215613ede57613edd61327c565b5b6000613eec87828801613e83565b9450506020613efd87828801613eaf565b9350506040613f0e87828801613e83565b9250506060613f1f87828801613e83565b91505092959194509250565b7f696e73756666696369656e7420666c6f77526174650000000000000000000000600082015250565b6000613f616015836138a8565b9150613f6c82613f2b565b602082019050919050565b60006020820190508181036000830152613f9081613f54565b9050919050565b6000606082019050613fac6000830186613737565b613fb96020830185613737565b613fc6604083018461376b565b949350505050565b613fd781613619565b8114613fe257600080fd5b50565b600081519050613ff481613fce565b92915050565b6000602082840312156140105761400f61327c565b5b600061401e84828501613fe5565b91505092915050565b600060408201905061403c600083018561369f565b6140496020830184613737565b9392505050565b6000602082840312156140665761406561327c565b5b600061407484828501613eaf565b91505092915050565b6000614088826136c9565b9150614093836136c9565b9250827fffffffffffffffffffffffffffffffffffffffff800000000000000000000000018212600084121516156140ce576140cd613ab5565b5b826b7fffffffffffffffffffffff0182136000841216156140f2576140f1613ab5565b5b828203905092915050565b6000614108826136c9565b9150614113836136c9565b9250826b7fffffffffffffffffffffff048211600084136000841316161561413e5761413d613ab5565b5b817fffffffffffffffffffffffffffffffffffffffff800000000000000000000000058312600084126000841316161561417b5761417a613ab5565b5b827fffffffffffffffffffffffffffffffffffffffff80000000000000000000000005821260008413600084121616156141b8576141b7613ab5565b5b826b7fffffffffffffffffffffff05821260008412600084121616156141e1576141e0613ab5565b5b828202905092915050565b60006141f782613761565b915061420283613761565b92508282101561421557614214613ab5565b5b828203905092915050565b600061422b82613795565b915061423683613795565b9250827f80000000000000000000000000000000000000000000000000000000000000000182126000841215161561427157614270613ab5565b5b827f7fffffffffffffffffffffffffffffffffffffffffffffffffffffffffffffff0182136000841216156142a9576142a8613ab5565b5b828203905092915050565b60006142bf82613761565b91506142ca83613761565b9250817fffffffffffffffffffffffffffffffffffffffffffffffffffffffffffffffff048311821515161561430357614302613ab5565b5b828202905092915050565b6000614319826136c9565b9150614324836136c9565b9250816b7fffffffffffffffffffffff0383136000831215161561434b5761434a613ab5565b5b817fffffffffffffffffffffffffffffffffffffffff80000000000000000000000003831260008312161561438357614382613ab5565b5b828201905092915050565b7f696e7375662066756e6473000000000000000000000000000000000000000000600082015250565b60006143c4600b836138a8565b91506143cf8261438e565b602082019050919050565b600060208201905081810360008301526143f3816143b7565b9050919050565b7f796f752073686f756c642063616c6c20636c6f73654f70656e4c6f616e28292060008201527f696e737465616400000000000000000000000000000000000000000000000000602082015250565b60006144566027836138a8565b9150614461826143fa565b604082019050919050565b6000602082019050818103600083015261448581614449565b9050919050565b60008151905061449b81613322565b92915050565b6000602082840312156144b7576144b661327c565b5b60006144c58482850161448c565b91505092915050565b7f4e487b7100000000000000000000000000000000000000000000000000000000600052604160045260246000fd5b82818337600083830152505050565b600061451883856134ad565b93506145258385846144fd565b61452e836134f1565b840190509392505050565b6000602082019050818103600083015261455481848661450c565b90509392505050565b600080fd5b61456b826134f1565b810181811067ffffffffffffffff8211171561458a576145896144ce565b5b80604052505050565b600061459d613272565b90506145a98282614562565b919050565b600080fd5b600060ff82169050919050565b6145c9816145b3565b81146145d457600080fd5b50565b6000815190506145e6816145c0565b92915050565b6000815190506145fb816132f6565b92915050565b60007fffffffff0000000000000000000000000000000000000000000000000000000082169050919050565b61463681614601565b811461464157600080fd5b50565b6000815190506146538161462d565b92915050565b600080fd5b600067ffffffffffffffff821115614679576146786144ce565b5b614682826134f1565b9050602081019050919050565b60006146a261469d8461465e565b614593565b9050828152602081018484840111156146be576146bd614659565b5b6146c98482856134be565b509392505050565b600082601f8301126146e6576146e561334e565b5b81516146f684826020860161468f565b91505092915050565b61470881613795565b811461471357600080fd5b50565b600081519050614725816146ff565b92915050565b6000614736826132a6565b9050919050565b6147468161472b565b811461475157600080fd5b50565b6000815190506147638161473d565b92915050565b600061016082840312156147805761477f61455d565b5b61478b610160614593565b9050600061479b848285016145d7565b60008301525060206147af848285016145d7565b60208301525060406147c384828501613e83565b60408301525060606147d7848285016145ec565b60608301525060806147eb84828501614644565b60808301525060a082015167ffffffffffffffff81111561480f5761480e6145ae565b5b61481b848285016146d1565b60a08301525060c061482f84828501613e83565b60c08301525060e061484384828501613e83565b60e08301525061010061485884828501614716565b6101008301525061012061486e848285016145ec565b6101208301525061014061488484828501614754565b6101408301525092915050565b6000602082840312156148a7576148a661327c565b5b600082015167ffffffffffffffff8111156148c5576148c4613281565b5b6148d184828501614769565b91505092915050565b7f73656e646572206f6620666c6f77206d7573742062652074686520656d706c6f60008201527f7965720000000000000000000000000000000000000000000000000000000000602082015250565b60006149366023836138a8565b9150614941826148da565b604082019050919050565b6000602082019050818103600083015261496581614929565b9050919050565b60006149778261367b565b9050919050565b6149878161496c565b82525050565b60006080820190506149a2600083018761497e565b6149af6020830186613737565b6149bc60408301856136d6565b81810360608301526149ce8184613502565b905095945050505050565b60006060820190506149ee6000830186613855565b8181036020830152614a008185613502565b90508181036040830152614a148184613502565b9050949350505050565b600060208284031215614a3457614a3361327c565b5b600082015167ffffffffffffffff811115614a5257614a51613281565b5b614a5e848285016146d1565b91505092915050565b6000608082019050614a7c600083018761497e565b614a896020830186613737565b614a966040830185613737565b8181036060830152614aa88184613502565b905095945050505050565b6000608082019050614ac86000830187613855565b8181036020830152614ada8186613502565b90508181036040830152614aee8185613502565b90508181036060830152614b028184613502565b905095945050505050565b60008060408385031215614b2457614b2361327c565b5b600083015167ffffffffffffffff811115614b4257614b41613281565b5b614b4e858286016146d1565b925050602083015167ffffffffffffffff811115614b6f57614b6e613281565b5b614b7b858286016146d1565b915050925092905056fea264697066735822122022530b99782534acf1952a4e888edb8a5afdd329522d0a206cba8acb0d4f702164736f6c634300080e0033a2646970667358221220e8b2a3d8d50f529e5ad7014811c191baa4e7799fdb75b0d94d6dadf266cd10c164736f6c634300080e0033",
  "linkReferences": {},
  "deployedLinkReferences": {}
}