{
  "_format": "hh-sol-artifact-1",
  "contractName": "PIC",
  "sourceName": "contracts/PIC.sol",
  "abi": [
    {
      "inputs": [],
      "name": "amIPIC",
      "outputs": [
        {
          "internalType": "bool",
          "name": "",
          "type": "bool"
        }
      ],
      "stateMutability": "view",
      "type": "function"
    },
    {
      "inputs": [
        {
          "internalType": "uint256",
          "name": "amount",
          "type": "uint256"
        },
        {
          "internalType": "bytes",
          "name": "data",
          "type": "bytes"
        }
      ],
      "name": "becomePIC",
      "outputs": [],
      "stateMutability": "nonpayable",
      "type": "function"
    },
    {
      "inputs": [],
      "name": "calculateSdtWorth",
      "outputs": [
        {
          "internalType": "uint256",
          "name": "worth",
          "type": "uint256"
        }
      ],
      "stateMutability": "view",
      "type": "function"
    },
    {
      "inputs": [
        {
          "internalType": "uint256",
          "name": "amount",
          "type": "uint256"
        }
      ],
      "name": "fundPIC",
      "outputs": [],
      "stateMutability": "nonpayable",
      "type": "function"
    },
    {
      "inputs": [
        {
          "internalType": "uint256",
          "name": "amount",
          "type": "uint256"
        }
      ],
      "name": "redeemFunds",
      "outputs": [],
      "stateMutability": "nonpayable",
      "type": "function"
    },
    {
      "inputs": [],
      "name": "redeemPICStake",
      "outputs": [],
      "stateMutability": "nonpayable",
      "type": "function"
    },
    {
      "inputs": [],
      "name": "sentinelDaoToken",
      "outputs": [
        {
          "internalType": "contract SentinelDaoToken",
          "name": "",
          "type": "address"
        }
      ],
      "stateMutability": "view",
      "type": "function"
    },
    {
      "inputs": [],
      "name": "stakeAndBalance",
      "outputs": [
        {
          "internalType": "uint256",
          "name": "",
          "type": "uint256"
        }
      ],
      "stateMutability": "view",
      "type": "function"
    },
    {
      "inputs": [],
      "name": "superToken",
      "outputs": [
        {
          "internalType": "contract ISuperToken",
          "name": "",
          "type": "address"
        }
      ],
      "stateMutability": "view",
      "type": "function"
    },
    {
      "inputs": [],
      "name": "toga",
      "outputs": [
        {
          "internalType": "contract TOGA",
          "name": "",
          "type": "address"
        }
      ],
      "stateMutability": "view",
      "type": "function"
    },
    {
      "inputs": [],
      "name": "togaV2",
      "outputs": [
        {
          "internalType": "contract ITOGAv2_",
          "name": "",
          "type": "address"
        }
      ],
      "stateMutability": "view",
      "type": "function"
    },
    {
      "inputs": [],
      "name": "withdrawFromCustody",
      "outputs": [],
      "stateMutability": "nonpayable",
      "type": "function"
    }
  ],
  "bytecode": "0x60e060405273f2d68898557ccb2cf4c10c3ef2b034b2a69dad0073ffffffffffffffffffffffffffffffffffffffff1660809073ffffffffffffffffffffffffffffffffffffffff1681525073a54fc15fc75693447d70a57262f37a70b614721b73ffffffffffffffffffffffffffffffffffffffff1660a09073ffffffffffffffffffffffffffffffffffffffff1681525073a54fc15fc75693447d70a57262f37a70b614721b73ffffffffffffffffffffffffffffffffffffffff1660c09073ffffffffffffffffffffffffffffffffffffffff16815250736cef75d2ac140dc0bfe87b771afa32a06c1c89766000806101000a81548173ffffffffffffffffffffffffffffffffffffffff021916908373ffffffffffffffffffffffffffffffffffffffff16021790555034801561013957600080fd5b5060805160a05160c051611d396101fc600039600081816108ac015261102a0152600081816102190152818161024c0152818161073e0152818161096801528181610c6d01528181610eb901528181610f16015281816110ae01526111280152600081816101f501528181610288015281816105370152818161077a01528181610802015281816108e8015281816109a401528181610a6e01528181610ca901528181610ef501528181610f520152818161107201526111640152611d396000f3fe608060405234801561001057600080fd5b50600436106100b45760003560e01c8063bc07b77911610071578063bc07b77914610157578063c12797d914610173578063c3f8d12a14610191578063d48116a61461019b578063e888229c146101b9578063f29797e7146101d7576100b4565b80632b4116f7146100b9578063456c1594146100d7578063786aaac5146100f55780639639ebd9146101115780639af737411461012f578063a5ef42571461014d575b600080fd5b6100c16101f3565b6040516100ce919061126a565b60405180910390f35b6100df610217565b6040516100ec91906112a6565b60405180910390f35b61010f600480360381019061010a919061130b565b61023b565b005b6101196105da565b6040516101269190611347565b60405180910390f35b610137610728565b6040516101449190611347565b60405180910390f35b6101556108aa565b005b610171600480360381019061016c919061130b565b610957565b005b61017b610c52565b604051610188919061137d565b60405180910390f35b610199610d41565b005b6101a3611028565b6040516101b091906113b9565b60405180910390f35b6101c161104c565b6040516101ce91906113f5565b60405180910390f35b6101f160048036038101906101ec9190611556565b611070565b005b7f000000000000000000000000000000000000000000000000000000000000000081565b7f000000000000000000000000000000000000000000000000000000000000000081565b610243610c52565b156103505760007f000000000000000000000000000000000000000000000000000000000000000073ffffffffffffffffffffffffffffffffffffffff1663bf8903dd7f00000000000000000000000000000000000000000000000000000000000000006040518263ffffffff1660e01b81526004016102c3919061126a565b606060405180830381865afa1580156102e0573d6000803e3d6000fd5b505050506040513d601f19601f82011682018060405250810190610304919061163e565b92505050600081600b0b1461034e576040517f08c379a0000000000000000000000000000000000000000000000000000000008152600401610345906116ee565b60405180910390fd5b505b600081905060008060009054906101000a900473ffffffffffffffffffffffffffffffffffffffff1673ffffffffffffffffffffffffffffffffffffffff166318160ddd6040518163ffffffff1660e01b8152600401602060405180830381865afa1580156103c3573d6000803e3d6000fd5b505050506040513d601f19601f820116820180604052508101906103e7919061170e565b11156104a8576103f56105da565b60008054906101000a900473ffffffffffffffffffffffffffffffffffffffff1673ffffffffffffffffffffffffffffffffffffffff1663313ce5676040518163ffffffff1660e01b8152600401602060405180830381865afa158015610460573d6000803e3d6000fd5b505050506040513d601f19601f820116820180604052508101906104849190611774565b600a6104909190611903565b8361049b919061194e565b6104a591906119d7565b90505b60008054906101000a900473ffffffffffffffffffffffffffffffffffffffff1673ffffffffffffffffffffffffffffffffffffffff166340c10f1933836040518363ffffffff1660e01b8152600401610503929190611a17565b600060405180830381600087803b15801561051d57600080fd5b505af1158015610531573d6000803e3d6000fd5b505050507f000000000000000000000000000000000000000000000000000000000000000073ffffffffffffffffffffffffffffffffffffffff166323b872dd3330856040518463ffffffff1660e01b815260040161059293929190611a40565b6020604051808303816000875af11580156105b1573d6000803e3d6000fd5b505050506040513d601f19601f820116820180604052508101906105d59190611aa3565b505050565b60008060009054906101000a900473ffffffffffffffffffffffffffffffffffffffff1673ffffffffffffffffffffffffffffffffffffffff166318160ddd6040518163ffffffff1660e01b8152600401602060405180830381865afa158015610648573d6000803e3d6000fd5b505050506040513d601f19601f8201168201806040525081019061066c919061170e565b60008054906101000a900473ffffffffffffffffffffffffffffffffffffffff1673ffffffffffffffffffffffffffffffffffffffff1663313ce5676040518163ffffffff1660e01b8152600401602060405180830381865afa1580156106d7573d6000803e3d6000fd5b505050506040513d601f19601f820116820180604052508101906106fb9190611774565b600a6107079190611903565b61070f610728565b610719919061194e565b61072391906119d7565b905090565b60008060009050610737610c52565b156107ff577f000000000000000000000000000000000000000000000000000000000000000073ffffffffffffffffffffffffffffffffffffffff1663bf8903dd7f00000000000000000000000000000000000000000000000000000000000000006040518263ffffffff1660e01b81526004016107b5919061126a565b606060405180830381865afa1580156107d2573d6000803e3d6000fd5b505050506040513d601f19601f820116820180604052508101906107f6919061163e565b90915050809150505b807f000000000000000000000000000000000000000000000000000000000000000073ffffffffffffffffffffffffffffffffffffffff166370a08231306040518263ffffffff1660e01b81526004016108599190611ad0565b602060405180830381865afa158015610876573d6000803e3d6000fd5b505050506040513d601f19601f8201168201806040525081019061089a919061170e565b6108a49190611aeb565b91505090565b7f000000000000000000000000000000000000000000000000000000000000000073ffffffffffffffffffffffffffffffffffffffff16636da8d0547f00000000000000000000000000000000000000000000000000000000000000006040518263ffffffff1660e01b8152600401610923919061126a565b600060405180830381600087803b15801561093d57600080fd5b505af1158015610951573d6000803e3d6000fd5b50505050565b61095f610c52565b15610a6c5760007f000000000000000000000000000000000000000000000000000000000000000073ffffffffffffffffffffffffffffffffffffffff1663bf8903dd7f00000000000000000000000000000000000000000000000000000000000000006040518263ffffffff1660e01b81526004016109df919061126a565b606060405180830381865afa1580156109fc573d6000803e3d6000fd5b505050506040513d601f19601f82011682018060405250810190610a20919061163e565b92505050600081600b0b14610a6a576040517f08c379a0000000000000000000000000000000000000000000000000000000008152600401610a61906116ee565b60405180910390fd5b505b7f000000000000000000000000000000000000000000000000000000000000000073ffffffffffffffffffffffffffffffffffffffff1663a9059cbb3360008054906101000a900473ffffffffffffffffffffffffffffffffffffffff1673ffffffffffffffffffffffffffffffffffffffff1663313ce5676040518163ffffffff1660e01b8152600401602060405180830381865afa158015610b14573d6000803e3d6000fd5b505050506040513d601f19601f82011682018060405250810190610b389190611774565b600a610b449190611903565b610b4c6105da565b85610b57919061194e565b610b6191906119d7565b6040518363ffffffff1660e01b8152600401610b7e929190611a17565b6020604051808303816000875af1158015610b9d573d6000803e3d6000fd5b505050506040513d601f19601f82011682018060405250810190610bc19190611aa3565b5060008054906101000a900473ffffffffffffffffffffffffffffffffffffffff1673ffffffffffffffffffffffffffffffffffffffff16639dc29fac33836040518363ffffffff1660e01b8152600401610c1d929190611a17565b600060405180830381600087803b158015610c3757600080fd5b505af1158015610c4b573d6000803e3d6000fd5b5050505050565b60003073ffffffffffffffffffffffffffffffffffffffff167f000000000000000000000000000000000000000000000000000000000000000073ffffffffffffffffffffffffffffffffffffffff1663362910637f00000000000000000000000000000000000000000000000000000000000000006040518263ffffffff1660e01b8152600401610ce4919061126a565b602060405180830381865afa158015610d01573d6000803e3d6000fd5b505050506040513d601f19601f82011682018060405250810190610d259190611b1f565b73ffffffffffffffffffffffffffffffffffffffff1614905090565b600a60008054906101000a900473ffffffffffffffffffffffffffffffffffffffff1673ffffffffffffffffffffffffffffffffffffffff166318160ddd6040518163ffffffff1660e01b8152600401602060405180830381865afa158015610dae573d6000803e3d6000fd5b505050506040513d601f19601f82011682018060405250810190610dd2919061170e565b610ddc91906119d7565b60008054906101000a900473ffffffffffffffffffffffffffffffffffffffff1673ffffffffffffffffffffffffffffffffffffffff166370a08231336040518263ffffffff1660e01b8152600401610e359190611ad0565b602060405180830381865afa158015610e52573d6000803e3d6000fd5b505050506040513d601f19601f82011682018060405250810190610e76919061170e565b1015610eb7576040517f08c379a0000000000000000000000000000000000000000000000000000000008152600401610eae90611b98565b60405180910390fd5b7f000000000000000000000000000000000000000000000000000000000000000073ffffffffffffffffffffffffffffffffffffffff166302f3c6c57f00000000000000000000000000000000000000000000000000000000000000007f000000000000000000000000000000000000000000000000000000000000000073ffffffffffffffffffffffffffffffffffffffff1663b8a140337f0000000000000000000000000000000000000000000000000000000000000000610f79611123565b6040518363ffffffff1660e01b8152600401610f96929190611bb8565b602060405180830381865afa158015610fb3573d6000803e3d6000fd5b505050506040513d601f19601f82011682018060405250810190610fd79190611be1565b6040518363ffffffff1660e01b8152600401610ff4929190611c1d565b600060405180830381600087803b15801561100e57600080fd5b505af1158015611022573d6000803e3d6000fd5b50505050565b7f000000000000000000000000000000000000000000000000000000000000000081565b60008054906101000a900473ffffffffffffffffffffffffffffffffffffffff1681565b7f000000000000000000000000000000000000000000000000000000000000000073ffffffffffffffffffffffffffffffffffffffff16639bd9bbc67f000000000000000000000000000000000000000000000000000000000000000084846040518463ffffffff1660e01b81526004016110ed93929190611cc5565b600060405180830381600087803b15801561110757600080fd5b505af115801561111b573d6000803e3d6000fd5b505050505050565b6000807f000000000000000000000000000000000000000000000000000000000000000073ffffffffffffffffffffffffffffffffffffffff1663bf8903dd7f00000000000000000000000000000000000000000000000000000000000000006040518263ffffffff1660e01b815260040161119f919061126a565b606060405180830381865afa1580156111bc573d6000803e3d6000fd5b505050506040513d601f19601f820116820180604052508101906111e0919061163e565b509150508091505090565b600073ffffffffffffffffffffffffffffffffffffffff82169050919050565b6000819050919050565b600061123061122b611226846111eb565b61120b565b6111eb565b9050919050565b600061124282611215565b9050919050565b600061125482611237565b9050919050565b61126481611249565b82525050565b600060208201905061127f600083018461125b565b92915050565b600061129082611237565b9050919050565b6112a081611285565b82525050565b60006020820190506112bb6000830184611297565b92915050565b6000604051905090565b600080fd5b600080fd5b6000819050919050565b6112e8816112d5565b81146112f357600080fd5b50565b600081359050611305816112df565b92915050565b600060208284031215611321576113206112cb565b5b600061132f848285016112f6565b91505092915050565b611341816112d5565b82525050565b600060208201905061135c6000830184611338565b92915050565b60008115159050919050565b61137781611362565b82525050565b6000602082019050611392600083018461136e565b92915050565b60006113a382611237565b9050919050565b6113b381611398565b82525050565b60006020820190506113ce60008301846113aa565b92915050565b60006113df82611237565b9050919050565b6113ef816113d4565b82525050565b600060208201905061140a60008301846113e6565b92915050565b600080fd5b600080fd5b6000601f19601f8301169050919050565b7f4e487b7100000000000000000000000000000000000000000000000000000000600052604160045260246000fd5b6114638261141a565b810181811067ffffffffffffffff821117156114825761148161142b565b5b80604052505050565b60006114956112c1565b90506114a1828261145a565b919050565b600067ffffffffffffffff8211156114c1576114c061142b565b5b6114ca8261141a565b9050602081019050919050565b82818337600083830152505050565b60006114f96114f4846114a6565b61148b565b90508281526020810184848401111561151557611514611415565b5b6115208482856114d7565b509392505050565b600082601f83011261153d5761153c611410565b5b813561154d8482602086016114e6565b91505092915050565b6000806040838503121561156d5761156c6112cb565b5b600061157b858286016112f6565b925050602083013567ffffffffffffffff81111561159c5761159b6112d0565b5b6115a885828601611528565b9150509250929050565b60006115bd826111eb565b9050919050565b6115cd816115b2565b81146115d857600080fd5b50565b6000815190506115ea816115c4565b92915050565b6000815190506115ff816112df565b92915050565b600081600b0b9050919050565b61161b81611605565b811461162657600080fd5b50565b60008151905061163881611612565b92915050565b600080600060608486031215611657576116566112cb565b5b6000611665868287016115db565b9350506020611676868287016115f0565b925050604061168786828701611629565b9150509250925092565b600082825260208201905092915050565b7f5374616b6520726564656d7074696f6e206f6e676f696e670000000000000000600082015250565b60006116d8601883611691565b91506116e3826116a2565b602082019050919050565b60006020820190508181036000830152611707816116cb565b9050919050565b600060208284031215611724576117236112cb565b5b6000611732848285016115f0565b91505092915050565b600060ff82169050919050565b6117518161173b565b811461175c57600080fd5b50565b60008151905061176e81611748565b92915050565b60006020828403121561178a576117896112cb565b5b60006117988482850161175f565b91505092915050565b7f4e487b7100000000000000000000000000000000000000000000000000000000600052601160045260246000fd5b60008160011c9050919050565b6000808291508390505b600185111561182757808604811115611803576118026117a1565b5b60018516156118125780820291505b8081029050611820856117d0565b94506117e7565b94509492505050565b60008261184057600190506118fc565b8161184e57600090506118fc565b8160018114611864576002811461186e5761189d565b60019150506118fc565b60ff8411156118805761187f6117a1565b5b8360020a915084821115611897576118966117a1565b5b506118fc565b5060208310610133831016604e8410600b84101617156118d25782820a9050838111156118cd576118cc6117a1565b5b6118fc565b6118df84848460016117dd565b925090508184048111156118f6576118f56117a1565b5b81810290505b9392505050565b600061190e826112d5565b91506119198361173b565b92506119467fffffffffffffffffffffffffffffffffffffffffffffffffffffffffffffffff8484611830565b905092915050565b6000611959826112d5565b9150611964836112d5565b9250817fffffffffffffffffffffffffffffffffffffffffffffffffffffffffffffffff048311821515161561199d5761199c6117a1565b5b828202905092915050565b7f4e487b7100000000000000000000000000000000000000000000000000000000600052601260045260246000fd5b60006119e2826112d5565b91506119ed836112d5565b9250826119fd576119fc6119a8565b5b828204905092915050565b611a11816115b2565b82525050565b6000604082019050611a2c6000830185611a08565b611a396020830184611338565b9392505050565b6000606082019050611a556000830186611a08565b611a626020830185611a08565b611a6f6040830184611338565b949350505050565b611a8081611362565b8114611a8b57600080fd5b50565b600081519050611a9d81611a77565b92915050565b600060208284031215611ab957611ab86112cb565b5b6000611ac784828501611a8e565b91505092915050565b6000602082019050611ae56000830184611a08565b92915050565b6000611af6826112d5565b9150611b01836112d5565b9250828201905080821115611b1957611b186117a1565b5b92915050565b600060208284031215611b3557611b346112cb565b5b6000611b43848285016115db565b91505092915050565b7f4174206c6561737420313025206f6620616c6c2053454e5473206e6565646564600082015250565b6000611b82602083611691565b9150611b8d82611b4c565b602082019050919050565b60006020820190508181036000830152611bb181611b75565b9050919050565b6000604082019050611bcd600083018561125b565b611bda6020830184611338565b9392505050565b600060208284031215611bf757611bf66112cb565b5b6000611c0584828501611629565b91505092915050565b611c1781611605565b82525050565b6000604082019050611c32600083018561125b565b611c3f6020830184611c0e565b9392505050565b600081519050919050565b600082825260208201905092915050565b60005b83811015611c80578082015181840152602081019050611c65565b60008484015250505050565b6000611c9782611c46565b611ca18185611c51565b9350611cb1818560208601611c62565b611cba8161141a565b840191505092915050565b6000606082019050611cda6000830186611a08565b611ce76020830185611338565b8181036040830152611cf98184611c8c565b905094935050505056fea2646970667358221220ac64ef029620e7895ba7efd46bc3900d9e4a455a07ebc9b8f0feb5a2a5d1bf7864736f6c63430008100033",
  "linkReferences": {},
  "deployedLinkReferences": {}
}