{
  "_format": "hh-sol-artifact-1",
  "contractName": "PIC",
  "sourceName": "contracts/PIC.sol",
  "abi": [
    {
      "inputs": [],
      "name": "amIPIC",
      "outputs": [
        {
          "internalType": "bool",
          "name": "",
          "type": "bool"
        }
      ],
      "stateMutability": "view",
      "type": "function"
    },
    {
      "inputs": [
        {
          "internalType": "uint256",
          "name": "amount",
          "type": "uint256"
        },
        {
          "internalType": "bytes",
          "name": "data",
          "type": "bytes"
        }
      ],
      "name": "becomePIC",
      "outputs": [],
      "stateMutability": "nonpayable",
      "type": "function"
    },
    {
      "inputs": [],
      "name": "calculateSdtWorth",
      "outputs": [
        {
          "internalType": "uint256",
          "name": "worth",
          "type": "uint256"
        }
      ],
      "stateMutability": "view",
      "type": "function"
    },
    {
      "inputs": [
        {
          "internalType": "uint256",
          "name": "amount",
          "type": "uint256"
        }
      ],
      "name": "fundPIC",
      "outputs": [],
      "stateMutability": "nonpayable",
      "type": "function"
    },
    {
      "inputs": [
        {
          "internalType": "uint256",
          "name": "amount",
          "type": "uint256"
        }
      ],
      "name": "redeemFunds",
      "outputs": [],
      "stateMutability": "nonpayable",
      "type": "function"
    },
    {
      "inputs": [],
      "name": "redeemPICStake",
      "outputs": [],
      "stateMutability": "nonpayable",
      "type": "function"
    },
    {
      "inputs": [],
      "name": "sentinelDaoToken",
      "outputs": [
        {
          "internalType": "contract CustomERC20",
          "name": "",
          "type": "address"
        }
      ],
      "stateMutability": "view",
      "type": "function"
    },
    {
      "inputs": [
        {
          "internalType": "uint256",
          "name": "rewards",
          "type": "uint256"
        }
      ],
      "name": "simulateLiquidationsRewards",
      "outputs": [],
      "stateMutability": "nonpayable",
      "type": "function"
    },
    {
      "inputs": [],
      "name": "stakeAndBalance",
      "outputs": [
        {
          "internalType": "uint256",
          "name": "",
          "type": "uint256"
        }
      ],
      "stateMutability": "view",
      "type": "function"
    },
    {
      "inputs": [],
      "name": "superToken",
      "outputs": [
        {
          "internalType": "contract ISuperToken",
          "name": "",
          "type": "address"
        }
      ],
      "stateMutability": "view",
      "type": "function"
    },
    {
      "inputs": [],
      "name": "toga",
      "outputs": [
        {
          "internalType": "contract TOGA",
          "name": "",
          "type": "address"
        }
      ],
      "stateMutability": "view",
      "type": "function"
    }
  ],
  "bytecode": "0x60c060405273f2d68898557ccb2cf4c10c3ef2b034b2a69dad0073ffffffffffffffffffffffffffffffffffffffff1660809073ffffffffffffffffffffffffffffffffffffffff1681525073a54fc15fc75693447d70a57262f37a70b614721b73ffffffffffffffffffffffffffffffffffffffff1660a09073ffffffffffffffffffffffffffffffffffffffff16815250736cef75d2ac140dc0bfe87b771afa32a06c1c89766000806101000a81548173ffffffffffffffffffffffffffffffffffffffff021916908373ffffffffffffffffffffffffffffffffffffffff1602179055503480156100f257600080fd5b5060805160a051611e436101b260003960008181610202015281816104630152818161095501528181610ad201528181610dd70152818161102301528181611080015281816111f4015261126e0152600081816101de0152818161022801528181610342015281816103c50152818161049f0152818161074e0152818161099101528181610a1901528181610b0e01528181610bd801528181610e130152818161105f015281816110bc015281816111b801526112aa0152611e436000f3fe608060405234801561001057600080fd5b50600436106100a95760003560e01c80639af73741116100715780639af7374114610140578063bc07b7791461015e578063c12797d91461017a578063c3f8d12a14610198578063e888229c146101a2578063f29797e7146101c0576100a9565b80632b4116f7146100ae578063456c1594146100cc57806371801f4d146100ea578063786aaac5146101065780639639ebd914610122575b600080fd5b6100b66101dc565b6040516100c391906113b0565b60405180910390f35b6100d4610200565b6040516100e191906113ec565b60405180910390f35b61010460048036038101906100ff9190611451565b610224565b005b610120600480360381019061011b9190611451565b610452565b005b61012a6107f1565b604051610137919061148d565b60405180910390f35b61014861093f565b604051610155919061148d565b60405180910390f35b61017860048036038101906101739190611451565b610ac1565b005b610182610dbc565b60405161018f91906114c3565b60405180910390f35b6101a0610eab565b005b6101aa611192565b6040516101b791906114ff565b60405180910390f35b6101da60048036038101906101d59190611660565b6111b6565b005b7f000000000000000000000000000000000000000000000000000000000000000081565b7f000000000000000000000000000000000000000000000000000000000000000081565b60007f000000000000000000000000000000000000000000000000000000000000000073ffffffffffffffffffffffffffffffffffffffff1663ee719bc86040518163ffffffff1660e01b8152600401602060405180830381865afa158015610291573d6000803e3d6000fd5b505050506040513d601f19601f820116820180604052508101906102b591906116fa565b90508073ffffffffffffffffffffffffffffffffffffffff166340c10f1930846040518363ffffffff1660e01b81526004016102f2929190611736565b600060405180830381600087803b15801561030c57600080fd5b505af1158015610320573d6000803e3d6000fd5b505050508073ffffffffffffffffffffffffffffffffffffffff1663095ea7b37f0000000000000000000000000000000000000000000000000000000000000000846040518363ffffffff1660e01b815260040161037f929190611736565b6020604051808303816000875af115801561039e573d6000803e3d6000fd5b505050506040513d601f19601f820116820180604052508101906103c2919061178b565b507f000000000000000000000000000000000000000000000000000000000000000073ffffffffffffffffffffffffffffffffffffffff166345977d03836040518263ffffffff1660e01b815260040161041c919061148d565b600060405180830381600087803b15801561043657600080fd5b505af115801561044a573d6000803e3d6000fd5b505050505050565b61045a610dbc565b156105675760007f000000000000000000000000000000000000000000000000000000000000000073ffffffffffffffffffffffffffffffffffffffff1663bf8903dd7f00000000000000000000000000000000000000000000000000000000000000006040518263ffffffff1660e01b81526004016104da91906113b0565b606060405180830381865afa1580156104f7573d6000803e3d6000fd5b505050506040513d601f19601f8201168201806040525081019061051b9190611806565b92505050600081600b0b14610565576040517f08c379a000000000000000000000000000000000000000000000000000000000815260040161055c906118b6565b60405180910390fd5b505b600081905060008060009054906101000a900473ffffffffffffffffffffffffffffffffffffffff1673ffffffffffffffffffffffffffffffffffffffff166318160ddd6040518163ffffffff1660e01b8152600401602060405180830381865afa1580156105da573d6000803e3d6000fd5b505050506040513d601f19601f820116820180604052508101906105fe91906118d6565b11156106bf5761060c6107f1565b60008054906101000a900473ffffffffffffffffffffffffffffffffffffffff1673ffffffffffffffffffffffffffffffffffffffff1663313ce5676040518163ffffffff1660e01b8152600401602060405180830381865afa158015610677573d6000803e3d6000fd5b505050506040513d601f19601f8201168201806040525081019061069b919061193c565b600a6106a79190611acb565b836106b29190611b16565b6106bc9190611b9f565b90505b60008054906101000a900473ffffffffffffffffffffffffffffffffffffffff1673ffffffffffffffffffffffffffffffffffffffff166340c10f1933836040518363ffffffff1660e01b815260040161071a929190611736565b600060405180830381600087803b15801561073457600080fd5b505af1158015610748573d6000803e3d6000fd5b505050507f000000000000000000000000000000000000000000000000000000000000000073ffffffffffffffffffffffffffffffffffffffff166323b872dd3330856040518463ffffffff1660e01b81526004016107a993929190611bd0565b6020604051808303816000875af11580156107c8573d6000803e3d6000fd5b505050506040513d601f19601f820116820180604052508101906107ec919061178b565b505050565b60008060009054906101000a900473ffffffffffffffffffffffffffffffffffffffff1673ffffffffffffffffffffffffffffffffffffffff166318160ddd6040518163ffffffff1660e01b8152600401602060405180830381865afa15801561085f573d6000803e3d6000fd5b505050506040513d601f19601f8201168201806040525081019061088391906118d6565b60008054906101000a900473ffffffffffffffffffffffffffffffffffffffff1673ffffffffffffffffffffffffffffffffffffffff1663313ce5676040518163ffffffff1660e01b8152600401602060405180830381865afa1580156108ee573d6000803e3d6000fd5b505050506040513d601f19601f82011682018060405250810190610912919061193c565b600a61091e9190611acb565b61092661093f565b6109309190611b16565b61093a9190611b9f565b905090565b6000806000905061094e610dbc565b15610a16577f000000000000000000000000000000000000000000000000000000000000000073ffffffffffffffffffffffffffffffffffffffff1663bf8903dd7f00000000000000000000000000000000000000000000000000000000000000006040518263ffffffff1660e01b81526004016109cc91906113b0565b606060405180830381865afa1580156109e9573d6000803e3d6000fd5b505050506040513d601f19601f82011682018060405250810190610a0d9190611806565b90915050809150505b807f000000000000000000000000000000000000000000000000000000000000000073ffffffffffffffffffffffffffffffffffffffff166370a08231306040518263ffffffff1660e01b8152600401610a709190611c07565b602060405180830381865afa158015610a8d573d6000803e3d6000fd5b505050506040513d601f19601f82011682018060405250810190610ab191906118d6565b610abb9190611c22565b91505090565b610ac9610dbc565b15610bd65760007f000000000000000000000000000000000000000000000000000000000000000073ffffffffffffffffffffffffffffffffffffffff1663bf8903dd7f00000000000000000000000000000000000000000000000000000000000000006040518263ffffffff1660e01b8152600401610b4991906113b0565b606060405180830381865afa158015610b66573d6000803e3d6000fd5b505050506040513d601f19601f82011682018060405250810190610b8a9190611806565b92505050600081600b0b14610bd4576040517f08c379a0000000000000000000000000000000000000000000000000000000008152600401610bcb906118b6565b60405180910390fd5b505b7f000000000000000000000000000000000000000000000000000000000000000073ffffffffffffffffffffffffffffffffffffffff1663a9059cbb3360008054906101000a900473ffffffffffffffffffffffffffffffffffffffff1673ffffffffffffffffffffffffffffffffffffffff1663313ce5676040518163ffffffff1660e01b8152600401602060405180830381865afa158015610c7e573d6000803e3d6000fd5b505050506040513d601f19601f82011682018060405250810190610ca2919061193c565b600a610cae9190611acb565b610cb66107f1565b85610cc19190611b16565b610ccb9190611b9f565b6040518363ffffffff1660e01b8152600401610ce8929190611736565b6020604051808303816000875af1158015610d07573d6000803e3d6000fd5b505050506040513d601f19601f82011682018060405250810190610d2b919061178b565b5060008054906101000a900473ffffffffffffffffffffffffffffffffffffffff1673ffffffffffffffffffffffffffffffffffffffff16639dc29fac33836040518363ffffffff1660e01b8152600401610d87929190611736565b600060405180830381600087803b158015610da157600080fd5b505af1158015610db5573d6000803e3d6000fd5b5050505050565b60003073ffffffffffffffffffffffffffffffffffffffff167f000000000000000000000000000000000000000000000000000000000000000073ffffffffffffffffffffffffffffffffffffffff1663362910637f00000000000000000000000000000000000000000000000000000000000000006040518263ffffffff1660e01b8152600401610e4e91906113b0565b602060405180830381865afa158015610e6b573d6000803e3d6000fd5b505050506040513d601f19601f82011682018060405250810190610e8f91906116fa565b73ffffffffffffffffffffffffffffffffffffffff1614905090565b600a60008054906101000a900473ffffffffffffffffffffffffffffffffffffffff1673ffffffffffffffffffffffffffffffffffffffff166318160ddd6040518163ffffffff1660e01b8152600401602060405180830381865afa158015610f18573d6000803e3d6000fd5b505050506040513d601f19601f82011682018060405250810190610f3c91906118d6565b610f469190611b9f565b60008054906101000a900473ffffffffffffffffffffffffffffffffffffffff1673ffffffffffffffffffffffffffffffffffffffff166370a08231336040518263ffffffff1660e01b8152600401610f9f9190611c07565b602060405180830381865afa158015610fbc573d6000803e3d6000fd5b505050506040513d601f19601f82011682018060405250810190610fe091906118d6565b1015611021576040517f08c379a000000000000000000000000000000000000000000000000000000000815260040161101890611ca2565b60405180910390fd5b7f000000000000000000000000000000000000000000000000000000000000000073ffffffffffffffffffffffffffffffffffffffff166302f3c6c57f00000000000000000000000000000000000000000000000000000000000000007f000000000000000000000000000000000000000000000000000000000000000073ffffffffffffffffffffffffffffffffffffffff1663b8a140337f00000000000000000000000000000000000000000000000000000000000000006110e3611269565b6040518363ffffffff1660e01b8152600401611100929190611cc2565b602060405180830381865afa15801561111d573d6000803e3d6000fd5b505050506040513d601f19601f820116820180604052508101906111419190611ceb565b6040518363ffffffff1660e01b815260040161115e929190611d27565b600060405180830381600087803b15801561117857600080fd5b505af115801561118c573d6000803e3d6000fd5b50505050565b60008054906101000a900473ffffffffffffffffffffffffffffffffffffffff1681565b7f000000000000000000000000000000000000000000000000000000000000000073ffffffffffffffffffffffffffffffffffffffff16639bd9bbc67f000000000000000000000000000000000000000000000000000000000000000084846040518463ffffffff1660e01b815260040161123393929190611dcf565b600060405180830381600087803b15801561124d57600080fd5b505af1158015611261573d6000803e3d6000fd5b505050505050565b6000807f000000000000000000000000000000000000000000000000000000000000000073ffffffffffffffffffffffffffffffffffffffff1663bf8903dd7f00000000000000000000000000000000000000000000000000000000000000006040518263ffffffff1660e01b81526004016112e591906113b0565b606060405180830381865afa158015611302573d6000803e3d6000fd5b505050506040513d601f19601f820116820180604052508101906113269190611806565b509150508091505090565b600073ffffffffffffffffffffffffffffffffffffffff82169050919050565b6000819050919050565b600061137661137161136c84611331565b611351565b611331565b9050919050565b60006113888261135b565b9050919050565b600061139a8261137d565b9050919050565b6113aa8161138f565b82525050565b60006020820190506113c560008301846113a1565b92915050565b60006113d68261137d565b9050919050565b6113e6816113cb565b82525050565b600060208201905061140160008301846113dd565b92915050565b6000604051905090565b600080fd5b600080fd5b6000819050919050565b61142e8161141b565b811461143957600080fd5b50565b60008135905061144b81611425565b92915050565b60006020828403121561146757611466611411565b5b60006114758482850161143c565b91505092915050565b6114878161141b565b82525050565b60006020820190506114a2600083018461147e565b92915050565b60008115159050919050565b6114bd816114a8565b82525050565b60006020820190506114d860008301846114b4565b92915050565b60006114e98261137d565b9050919050565b6114f9816114de565b82525050565b600060208201905061151460008301846114f0565b92915050565b600080fd5b600080fd5b6000601f19601f8301169050919050565b7f4e487b7100000000000000000000000000000000000000000000000000000000600052604160045260246000fd5b61156d82611524565b810181811067ffffffffffffffff8211171561158c5761158b611535565b5b80604052505050565b600061159f611407565b90506115ab8282611564565b919050565b600067ffffffffffffffff8211156115cb576115ca611535565b5b6115d482611524565b9050602081019050919050565b82818337600083830152505050565b60006116036115fe846115b0565b611595565b90508281526020810184848401111561161f5761161e61151f565b5b61162a8482856115e1565b509392505050565b600082601f8301126116475761164661151a565b5b81356116578482602086016115f0565b91505092915050565b6000806040838503121561167757611676611411565b5b60006116858582860161143c565b925050602083013567ffffffffffffffff8111156116a6576116a5611416565b5b6116b285828601611632565b9150509250929050565b60006116c782611331565b9050919050565b6116d7816116bc565b81146116e257600080fd5b50565b6000815190506116f4816116ce565b92915050565b6000602082840312156117105761170f611411565b5b600061171e848285016116e5565b91505092915050565b611730816116bc565b82525050565b600060408201905061174b6000830185611727565b611758602083018461147e565b9392505050565b611768816114a8565b811461177357600080fd5b50565b6000815190506117858161175f565b92915050565b6000602082840312156117a1576117a0611411565b5b60006117af84828501611776565b91505092915050565b6000815190506117c781611425565b92915050565b600081600b0b9050919050565b6117e3816117cd565b81146117ee57600080fd5b50565b600081519050611800816117da565b92915050565b60008060006060848603121561181f5761181e611411565b5b600061182d868287016116e5565b935050602061183e868287016117b8565b925050604061184f868287016117f1565b9150509250925092565b600082825260208201905092915050565b7f5374616b6520726564656d7074696f6e206f6e676f696e670000000000000000600082015250565b60006118a0601883611859565b91506118ab8261186a565b602082019050919050565b600060208201905081810360008301526118cf81611893565b9050919050565b6000602082840312156118ec576118eb611411565b5b60006118fa848285016117b8565b91505092915050565b600060ff82169050919050565b61191981611903565b811461192457600080fd5b50565b60008151905061193681611910565b92915050565b60006020828403121561195257611951611411565b5b600061196084828501611927565b91505092915050565b7f4e487b7100000000000000000000000000000000000000000000000000000000600052601160045260246000fd5b60008160011c9050919050565b6000808291508390505b60018511156119ef578086048111156119cb576119ca611969565b5b60018516156119da5780820291505b80810290506119e885611998565b94506119af565b94509492505050565b600082611a085760019050611ac4565b81611a165760009050611ac4565b8160018114611a2c5760028114611a3657611a65565b6001915050611ac4565b60ff841115611a4857611a47611969565b5b8360020a915084821115611a5f57611a5e611969565b5b50611ac4565b5060208310610133831016604e8410600b8410161715611a9a5782820a905083811115611a9557611a94611969565b5b611ac4565b611aa784848460016119a5565b92509050818404811115611abe57611abd611969565b5b81810290505b9392505050565b6000611ad68261141b565b9150611ae183611903565b9250611b0e7fffffffffffffffffffffffffffffffffffffffffffffffffffffffffffffffff84846119f8565b905092915050565b6000611b218261141b565b9150611b2c8361141b565b9250817fffffffffffffffffffffffffffffffffffffffffffffffffffffffffffffffff0483118215151615611b6557611b64611969565b5b828202905092915050565b7f4e487b7100000000000000000000000000000000000000000000000000000000600052601260045260246000fd5b6000611baa8261141b565b9150611bb58361141b565b925082611bc557611bc4611b70565b5b828204905092915050565b6000606082019050611be56000830186611727565b611bf26020830185611727565b611bff604083018461147e565b949350505050565b6000602082019050611c1c6000830184611727565b92915050565b6000611c2d8261141b565b9150611c388361141b565b9250828201905080821115611c5057611c4f611969565b5b92915050565b7f4174206c6561737420313025206f6620616c6c2053454e5473206e6565646564600082015250565b6000611c8c602083611859565b9150611c9782611c56565b602082019050919050565b60006020820190508181036000830152611cbb81611c7f565b9050919050565b6000604082019050611cd760008301856113a1565b611ce4602083018461147e565b9392505050565b600060208284031215611d0157611d00611411565b5b6000611d0f848285016117f1565b91505092915050565b611d21816117cd565b82525050565b6000604082019050611d3c60008301856113a1565b611d496020830184611d18565b9392505050565b600081519050919050565b600082825260208201905092915050565b60005b83811015611d8a578082015181840152602081019050611d6f565b60008484015250505050565b6000611da182611d50565b611dab8185611d5b565b9350611dbb818560208601611d6c565b611dc481611524565b840191505092915050565b6000606082019050611de46000830186611727565b611df1602083018561147e565b8181036040830152611e038184611d96565b905094935050505056fea26469706673582212203b5a7e676c68dd294926dc4553cc6d98f98ab66cbec26f0ac56f107526e557d264736f6c63430008100033",
  "linkReferences": {},
  "deployedLinkReferences": {}
}