{
  "_format": "hh-sol-artifact-1",
  "contractName": "SpreaderFactory",
  "sourceName": "contracts/SpreaderFactory.sol",
  "abi": [
    {
      "inputs": [
        {
          "internalType": "contract ISuperfluid",
          "name": "_host",
          "type": "address"
        },
        {
          "internalType": "contract ISuperToken",
          "name": "_borrowToken",
          "type": "address"
        }
      ],
      "name": "createNewSpreader",
      "outputs": [],
      "stateMutability": "nonpayable",
      "type": "function"
    },
    {
      "inputs": [
        {
          "internalType": "address",
          "name": "owner",
          "type": "address"
        }
      ],
      "name": "getOwnerSpreaders",
      "outputs": [
        {
          "internalType": "contract TokenSpreader[]",
          "name": "",
          "type": "address[]"
        }
      ],
      "stateMutability": "view",
      "type": "function"
    },
    {
      "inputs": [],
      "name": "id",
      "outputs": [
        {
          "internalType": "uint256",
          "name": "",
          "type": "uint256"
        }
      ],
      "stateMutability": "view",
      "type": "function"
    },
    {
      "inputs": [
        {
          "internalType": "address",
          "name": "",
          "type": "address"
        },
        {
          "internalType": "uint256",
          "name": "",
          "type": "uint256"
        }
      ],
      "name": "ownerToSpreaders",
      "outputs": [
        {
          "internalType": "contract TokenSpreader",
          "name": "",
          "type": "address"
        }
      ],
      "stateMutability": "view",
      "type": "function"
    }
  ],
  "bytecode": "0x608060405234801561001057600080fd5b506129b2806100206000396000f3fe60806040523480156200001157600080fd5b5060043610620000525760003560e01c80631323f18b14620000575780639069a828146200008d578063af640d0f14620000c3578063f6a203ca14620000e5575b600080fd5b6200007560048036038101906200006f919062000387565b62000105565b604051620000849190620004e1565b60405180910390f35b620000ab6004803603810190620000a5919062000540565b620001d4565b604051620000ba919062000598565b60405180910390f35b620000cd62000223565b604051620000dc9190620005c6565b60405180910390f35b620001036004803603810190620000fd91906200066d565b62000229565b005b6060600160008373ffffffffffffffffffffffffffffffffffffffff1673ffffffffffffffffffffffffffffffffffffffff168152602001908152602001600020805480602002602001604051908101604052809291908181526020018280548015620001c857602002820191906000526020600020905b8160009054906101000a900473ffffffffffffffffffffffffffffffffffffffff1673ffffffffffffffffffffffffffffffffffffffff16815260200190600101908083116200017d575b50505050509050919050565b60016020528160005260406000208181548110620001f157600080fd5b906000526020600020016000915091509054906101000a900473ffffffffffffffffffffffffffffffffffffffff1681565b60005481565b60008282336040516200023c906200030f565b6200024a939291906200070f565b604051809103906000f08015801562000267573d6000803e3d6000fd5b509050600160003373ffffffffffffffffffffffffffffffffffffffff1673ffffffffffffffffffffffffffffffffffffffff168152602001908152602001600020819080600181540180825580915050600190039060005260206000200160009091909190916101000a81548173ffffffffffffffffffffffffffffffffffffffff021916908373ffffffffffffffffffffffffffffffffffffffff160217905550505050565b612230806200074d83390190565b600080fd5b600073ffffffffffffffffffffffffffffffffffffffff82169050919050565b60006200034f8262000322565b9050919050565b620003618162000342565b81146200036d57600080fd5b50565b600081359050620003818162000356565b92915050565b600060208284031215620003a0576200039f6200031d565b5b6000620003b08482850162000370565b91505092915050565b600081519050919050565b600082825260208201905092915050565b6000819050602082019050919050565b6000819050919050565b6000620004106200040a620004048462000322565b620003e5565b62000322565b9050919050565b60006200042482620003ef565b9050919050565b6000620004388262000417565b9050919050565b6200044a816200042b565b82525050565b60006200045e83836200043f565b60208301905092915050565b6000602082019050919050565b60006200048482620003b9565b620004908185620003c4565b93506200049d83620003d5565b8060005b83811015620004d4578151620004b8888262000450565b9750620004c5836200046a565b925050600181019050620004a1565b5085935050505092915050565b60006020820190508181036000830152620004fd818462000477565b905092915050565b6000819050919050565b6200051a8162000505565b81146200052657600080fd5b50565b6000813590506200053a816200050f565b92915050565b600080604083850312156200055a57620005596200031d565b5b60006200056a8582860162000370565b92505060206200057d8582860162000529565b9150509250929050565b62000592816200042b565b82525050565b6000602082019050620005af600083018462000587565b92915050565b620005c08162000505565b82525050565b6000602082019050620005dd6000830184620005b5565b92915050565b6000620005f08262000342565b9050919050565b6200060281620005e3565b81146200060e57600080fd5b50565b6000813590506200062281620005f7565b92915050565b6000620006358262000342565b9050919050565b620006478162000628565b81146200065357600080fd5b50565b60008135905062000667816200063c565b92915050565b600080604083850312156200068757620006866200031d565b5b6000620006978582860162000611565b9250506020620006aa8582860162000656565b9150509250929050565b6000620006c18262000417565b9050919050565b620006d381620006b4565b82525050565b6000620006e68262000417565b9050919050565b620006f881620006d9565b82525050565b620007098162000342565b82525050565b6000606082019050620007266000830186620006c8565b620007356020830185620006ed565b620007446040830184620006fe565b94935050505056fe60806040523480156200001157600080fd5b506040516200223038038062002230833981810160405281019062000037919062000580565b81600160006101000a81548173ffffffffffffffffffffffffffffffffffffffff021916908373ffffffffffffffffffffffffffffffffffffffff16021790555060405180604001604052808473ffffffffffffffffffffffffffffffffffffffff1681526020018473ffffffffffffffffffffffffffffffffffffffff1663b6d200de7f8aedc3b5d4bf031e11a7e2940f7251c005698405d58e02e1c247fed3b1b3a6746040518263ffffffff1660e01b8152600401620000fa9190620005f7565b602060405180830381865afa15801562000118573d6000803e3d6000fd5b505050506040513d601f19601f820116820180604052508101906200013e919062000659565b73ffffffffffffffffffffffffffffffffffffffff16815250600260008201518160000160006101000a81548173ffffffffffffffffffffffffffffffffffffffff021916908373ffffffffffffffffffffffffffffffffffffffff16021790555060208201518160010160006101000a81548173ffffffffffffffffffffffffffffffffffffffff021916908373ffffffffffffffffffffffffffffffffffffffff1602179055509050506200020882600060026200025160201b620004c9179092919060201c565b806000806101000a81548173ffffffffffffffffffffffffffffffffffffffff021916908373ffffffffffffffffffffffffffffffffffffffff16021790555050505062000a02565b620002b6838383600067ffffffffffffffff8111156200027657620002756200068b565b5b6040519080825280601f01601f191660200182016040528015620002a95781602001600182028036833780820191505090505b50620002bb60201b60201c565b505050565b8360000160009054906101000a900473ffffffffffffffffffffffffffffffffffffffff1673ffffffffffffffffffffffffffffffffffffffff166339255d5b8560010160009054906101000a900473ffffffffffffffffffffffffffffffffffffffff168660010160009054906101000a900473ffffffffffffffffffffffffffffffffffffffff1673ffffffffffffffffffffffffffffffffffffffff1663d787840a8787600067ffffffffffffffff81111562000380576200037f6200068b565b5b6040519080825280601f01601f191660200182016040528015620003b35781602001600182028036833780820191505090505b50604051602401620003c893929190620007ea565b604051602081830303815290604052915060e01b6020820180517bffffffffffffffffffffffffffffffffffffffffffffffffffffffff8381831617835250505050846040518463ffffffff1660e01b81526004016200042b9392919062000853565b6000604051808303816000875af11580156200044b573d6000803e3d6000fd5b505050506040513d6000823e3d601f19601f82011682018060405250810190620004769190620009b1565b5050505050565b6000604051905090565b600080fd5b600080fd5b600073ffffffffffffffffffffffffffffffffffffffff82169050919050565b6000620004be8262000491565b9050919050565b6000620004d282620004b1565b9050919050565b620004e481620004c5565b8114620004f057600080fd5b50565b6000815190506200050481620004d9565b92915050565b60006200051782620004b1565b9050919050565b62000529816200050a565b81146200053557600080fd5b50565b60008151905062000549816200051e565b92915050565b6200055a81620004b1565b81146200056657600080fd5b50565b6000815190506200057a816200054f565b92915050565b6000806000606084860312156200059c576200059b62000487565b5b6000620005ac86828701620004f3565b9350506020620005bf8682870162000538565b9250506040620005d28682870162000569565b9150509250925092565b6000819050919050565b620005f181620005dc565b82525050565b60006020820190506200060e6000830184620005e6565b92915050565b60006200062182620004b1565b9050919050565b620006338162000614565b81146200063f57600080fd5b50565b600081519050620006538162000628565b92915050565b60006020828403121562000672576200067162000487565b5b6000620006828482850162000642565b91505092915050565b7f4e487b7100000000000000000000000000000000000000000000000000000000600052604160045260246000fd5b6000819050919050565b6000620006e5620006df620006d98462000491565b620006ba565b62000491565b9050919050565b6000620006f982620006c4565b9050919050565b60006200070d82620006ec565b9050919050565b6200071f8162000700565b82525050565b600063ffffffff82169050919050565b620007408162000725565b82525050565b600081519050919050565b600082825260208201905092915050565b60005b838110156200078257808201518184015260208101905062000765565b8381111562000792576000848401525b50505050565b6000601f19601f8301169050919050565b6000620007b68262000746565b620007c2818562000751565b9350620007d481856020860162000762565b620007df8162000798565b840191505092915050565b600060608201905062000801600083018662000714565b62000810602083018562000735565b8181036040830152620008248184620007a9565b9050949350505050565b60006200083b82620006ec565b9050919050565b6200084d816200082e565b82525050565b60006060820190506200086a600083018662000842565b81810360208301526200087e8185620007a9565b90508181036040830152620008948184620007a9565b9050949350505050565b600080fd5b600080fd5b620008b38262000798565b810181811067ffffffffffffffff82111715620008d557620008d46200068b565b5b80604052505050565b6000620008ea6200047d565b9050620008f88282620008a8565b919050565b600067ffffffffffffffff8211156200091b576200091a6200068b565b5b620009268262000798565b9050602081019050919050565b60006200094a6200094484620008fd565b620008de565b905082815260208101848484011115620009695762000968620008a3565b5b6200097684828562000762565b509392505050565b600082601f8301126200099657620009956200089e565b5b8151620009a884826020860162000933565b91505092915050565b600060208284031215620009ca57620009c962000487565b5b600082015167ffffffffffffffff811115620009eb57620009ea6200048c565b5b620009f9848285016200097e565b91505092915050565b61181e8062000a126000396000f3fe608060405234801561001057600080fd5b50600436106100885760003560e01c80638da5cb5b1161005b5780638da5cb5b1461010457806391c05b0b14610122578063a2b25ed11461013e578063beafc53a1461015a57610088565b80631cc8ca991461008d5780632268cacb146100ac578063844a5f5f146100c85780638c7f0959146100e6575b600080fd5b610095610176565b6040516100a3929190610f0b565b60405180910390f35b6100c660048036038101906100c19190610f86565b6101c8565b005b6100d0610208565b6040516100dd9190610fd4565b60405180910390f35b6100ee61022e565b6040516100fb919061100e565b60405180910390f35b61010c610233565b6040516101199190611038565b60405180910390f35b61013c60048036038101906101379190611089565b61025c565b005b610158600480360381019061015391906110e2565b61036f565b005b610174600480360381019061016f91906110e2565b610418565b005b60028060000160009054906101000a900473ffffffffffffffffffffffffffffffffffffffff16908060010160009054906101000a900473ffffffffffffffffffffffffffffffffffffffff16905082565b610205600160009054906101000a900473ffffffffffffffffffffffffffffffffffffffff1630600084600261052790949392919063ffffffff16565b50565b600160009054906101000a900473ffffffffffffffffffffffffffffffffffffffff1681565b600081565b60008060009054906101000a900473ffffffffffffffffffffffffffffffffffffffff16905090565b610264610589565b6000600260010160009054906101000a900473ffffffffffffffffffffffffffffffffffffffff1673ffffffffffffffffffffffffffffffffffffffff1663899baaec600160009054906101000a900473ffffffffffffffffffffffffffffffffffffffff16306000866040518563ffffffff1660e01b81526004016102ed9493929190611131565b6040805180830381865afa158015610309573d6000803e3d6000fd5b505050506040513d601f19601f8201168201806040525081019061032d91906111d3565b50905061036b600160009054906101000a900473ffffffffffffffffffffffffffffffffffffffff166000836002610600909392919063ffffffff16565b5050565b60006103ae600160009054906101000a900473ffffffffffffffffffffffffffffffffffffffff1630600086600261066090949392919063ffffffff16565b506fffffffffffffffffffffffffffffffff1692505050610413600160009054906101000a900473ffffffffffffffffffffffffffffffffffffffff166000858563ffffffff16856104009190611242565b600261071e90949392919063ffffffff16565b505050565b610420610589565b600061045f600160009054906101000a900473ffffffffffffffffffffffffffffffffffffffff1630600086600261066090949392919063ffffffff16565b506fffffffffffffffffffffffffffffffff16925050506104c4600160009054906101000a900473ffffffffffffffffffffffffffffffffffffffff166000858563ffffffff16856104b19190611276565b600261071e90949392919063ffffffff16565b505050565b610522838383600067ffffffffffffffff8111156104ea576104e96112cc565b5b6040519080825280601f01601f19166020018201604052801561051c5781602001600182028036833780820191505090505b50610780565b505050565b6105828585858585600067ffffffffffffffff81111561054a576105496112cc565b5b6040519080825280601f01601f19166020018201604052801561057c5781602001600182028036833780820191505090505b50610937565b5050505050565b3373ffffffffffffffffffffffffffffffffffffffff166105a8610233565b73ffffffffffffffffffffffffffffffffffffffff16146105fe576040517f08c379a00000000000000000000000000000000000000000000000000000000081526004016105f590611358565b60405180910390fd5b565b61065a84848484600067ffffffffffffffff811115610622576106216112cc565b5b6040519080825280601f01601f1916602001820160405280156106545781602001600182028036833780820191505090505b50610af4565b50505050565b6000806000808860010160009054906101000a900473ffffffffffffffffffffffffffffffffffffffff1673ffffffffffffffffffffffffffffffffffffffff16635b534051898989896040518563ffffffff1660e01b81526004016106c99493929190611399565b608060405180830381865afa1580156106e6573d6000803e3d6000fd5b505050506040513d601f19601f8201168201806040525081019061070a9190611416565b935093509350935095509550955095915050565b6107798585858585600067ffffffffffffffff811115610741576107406112cc565b5b6040519080825280601f01601f1916602001820160405280156107735781602001600182028036833780820191505090505b50610cae565b5050505050565b8360000160009054906101000a900473ffffffffffffffffffffffffffffffffffffffff1673ffffffffffffffffffffffffffffffffffffffff166339255d5b8560010160009054906101000a900473ffffffffffffffffffffffffffffffffffffffff168660010160009054906101000a900473ffffffffffffffffffffffffffffffffffffffff1673ffffffffffffffffffffffffffffffffffffffff1663d787840a8787600067ffffffffffffffff811115610842576108416112cc565b5b6040519080825280601f01601f1916602001820160405280156108745781602001600182028036833780820191505090505b5060405160240161088793929190611516565b604051602081830303815290604052915060e01b6020820180517bffffffffffffffffffffffffffffffffffffffffffffffffffffffff8381831617835250505050846040518463ffffffff1660e01b81526004016108e893929190611554565b6000604051808303816000875af1158015610907573d6000803e3d6000fd5b505050506040513d6000823e3d601f19601f820116820180604052508101906109309190611690565b5050505050565b8560000160009054906101000a900473ffffffffffffffffffffffffffffffffffffffff1673ffffffffffffffffffffffffffffffffffffffff166339255d5b8760010160009054906101000a900473ffffffffffffffffffffffffffffffffffffffff168860010160009054906101000a900473ffffffffffffffffffffffffffffffffffffffff1673ffffffffffffffffffffffffffffffffffffffff16632e5e74c689898989600067ffffffffffffffff8111156109fb576109fa6112cc565b5b6040519080825280601f01601f191660200182016040528015610a2d5781602001600182028036833780820191505090505b50604051602401610a429594939291906116d9565b604051602081830303815290604052915060e01b6020820180517bffffffffffffffffffffffffffffffffffffffffffffffffffffffff8381831617835250505050846040518463ffffffff1660e01b8152600401610aa393929190611554565b6000604051808303816000875af1158015610ac2573d6000803e3d6000fd5b505050506040513d6000823e3d601f19601f82011682018060405250810190610aeb9190611690565b50505050505050565b8460000160009054906101000a900473ffffffffffffffffffffffffffffffffffffffff1673ffffffffffffffffffffffffffffffffffffffff166339255d5b8660010160009054906101000a900473ffffffffffffffffffffffffffffffffffffffff168760010160009054906101000a900473ffffffffffffffffffffffffffffffffffffffff1673ffffffffffffffffffffffffffffffffffffffff1663b96731c2888888600067ffffffffffffffff811115610bb757610bb66112cc565b5b6040519080825280601f01601f191660200182016040528015610be95781602001600182028036833780820191505090505b50604051602401610bfd9493929190611733565b604051602081830303815290604052915060e01b6020820180517bffffffffffffffffffffffffffffffffffffffffffffffffffffffff8381831617835250505050846040518463ffffffff1660e01b8152600401610c5e93929190611554565b6000604051808303816000875af1158015610c7d573d6000803e3d6000fd5b505050506040513d6000823e3d601f19601f82011682018060405250810190610ca69190611690565b505050505050565b8560000160009054906101000a900473ffffffffffffffffffffffffffffffffffffffff1673ffffffffffffffffffffffffffffffffffffffff166339255d5b8760010160009054906101000a900473ffffffffffffffffffffffffffffffffffffffff168860010160009054906101000a900473ffffffffffffffffffffffffffffffffffffffff1673ffffffffffffffffffffffffffffffffffffffff1663232d2b5889898989600067ffffffffffffffff811115610d7257610d716112cc565b5b6040519080825280601f01601f191660200182016040528015610da45781602001600182028036833780820191505090505b50604051602401610db995949392919061178e565b604051602081830303815290604052915060e01b6020820180517bffffffffffffffffffffffffffffffffffffffffffffffffffffffff8381831617835250505050846040518463ffffffff1660e01b8152600401610e1a93929190611554565b6000604051808303816000875af1158015610e39573d6000803e3d6000fd5b505050506040513d6000823e3d601f19601f82011682018060405250810190610e629190611690565b50505050505050565b600073ffffffffffffffffffffffffffffffffffffffff82169050919050565b6000819050919050565b6000610eb0610eab610ea684610e6b565b610e8b565b610e6b565b9050919050565b6000610ec282610e95565b9050919050565b6000610ed482610eb7565b9050919050565b610ee481610ec9565b82525050565b6000610ef582610eb7565b9050919050565b610f0581610eea565b82525050565b6000604082019050610f206000830185610edb565b610f2d6020830184610efc565b9392505050565b6000604051905090565b600080fd5b600080fd5b6000610f5382610e6b565b9050919050565b610f6381610f48565b8114610f6e57600080fd5b50565b600081359050610f8081610f5a565b92915050565b600060208284031215610f9c57610f9b610f3e565b5b6000610faa84828501610f71565b91505092915050565b6000610fbe82610eb7565b9050919050565b610fce81610fb3565b82525050565b6000602082019050610fe96000830184610fc5565b92915050565b600063ffffffff82169050919050565b61100881610fef565b82525050565b60006020820190506110236000830184610fff565b92915050565b61103281610f48565b82525050565b600060208201905061104d6000830184611029565b92915050565b6000819050919050565b61106681611053565b811461107157600080fd5b50565b6000813590506110838161105d565b92915050565b60006020828403121561109f5761109e610f3e565b5b60006110ad84828501611074565b91505092915050565b6110bf81610fef565b81146110ca57600080fd5b50565b6000813590506110dc816110b6565b92915050565b600080604083850312156110f9576110f8610f3e565b5b600061110785828601610f71565b9250506020611118858286016110cd565b9150509250929050565b61112b81611053565b82525050565b60006080820190506111466000830187610fc5565b6111536020830186611029565b6111606040830185610fff565b61116d6060830184611122565b95945050505050565b6000815190506111858161105d565b92915050565b60006fffffffffffffffffffffffffffffffff82169050919050565b6111b08161118b565b81146111bb57600080fd5b50565b6000815190506111cd816111a7565b92915050565b600080604083850312156111ea576111e9610f3e565b5b60006111f885828601611176565b9250506020611209858286016111be565b9150509250929050565b7f4e487b7100000000000000000000000000000000000000000000000000000000600052601160045260246000fd5b600061124d82611053565b915061125883611053565b92508282101561126b5761126a611213565b5b828203905092915050565b600061128182611053565b915061128c83611053565b9250827fffffffffffffffffffffffffffffffffffffffffffffffffffffffffffffffff038211156112c1576112c0611213565b5b828201905092915050565b7f4e487b7100000000000000000000000000000000000000000000000000000000600052604160045260246000fd5b600082825260208201905092915050565b7f4f776e61626c653a2063616c6c6572206973206e6f7420746865206f776e6572600082015250565b60006113426020836112fb565b915061134d8261130c565b602082019050919050565b6000602082019050818103600083015261137181611335565b9050919050565b600061138382610eb7565b9050919050565b61139381611378565b82525050565b60006080820190506113ae600083018761138a565b6113bb6020830186611029565b6113c86040830185610fff565b6113d56060830184611029565b95945050505050565b60008115159050919050565b6113f3816113de565b81146113fe57600080fd5b50565b600081519050611410816113ea565b92915050565b600080600080608085870312156114305761142f610f3e565b5b600061143e87828801611401565b945050602061144f87828801611401565b9350506040611460878288016111be565b925050606061147187828801611176565b91505092959194509250565b600081519050919050565b600082825260208201905092915050565b60005b838110156114b757808201518184015260208101905061149c565b838111156114c6576000848401525b50505050565b6000601f19601f8301169050919050565b60006114e88261147d565b6114f28185611488565b9350611502818560208601611499565b61150b816114cc565b840191505092915050565b600060608201905061152b600083018661138a565b6115386020830185610fff565b818103604083015261154a81846114dd565b9050949350505050565b60006060820190506115696000830186610efc565b818103602083015261157b81856114dd565b9050818103604083015261158f81846114dd565b9050949350505050565b600080fd5b600080fd5b6115ac826114cc565b810181811067ffffffffffffffff821117156115cb576115ca6112cc565b5b80604052505050565b60006115de610f34565b90506115ea82826115a3565b919050565b600067ffffffffffffffff82111561160a576116096112cc565b5b611613826114cc565b9050602081019050919050565b600061163361162e846115ef565b6115d4565b90508281526020810184848401111561164f5761164e61159e565b5b61165a848285611499565b509392505050565b600082601f83011261167757611676611599565b5b8151611687848260208601611620565b91505092915050565b6000602082840312156116a6576116a5610f3e565b5b600082015167ffffffffffffffff8111156116c4576116c3610f43565b5b6116d084828501611662565b91505092915050565b600060a0820190506116ee600083018861138a565b6116fb6020830187611029565b6117086040830186610fff565b6117156060830185611029565b818103608083015261172781846114dd565b90509695505050505050565b6000608082019050611748600083018761138a565b6117556020830186610fff565b6117626040830185611122565b818103606083015261177481846114dd565b905095945050505050565b6117888161118b565b82525050565b600060a0820190506117a3600083018861138a565b6117b06020830187610fff565b6117bd6040830186611029565b6117ca606083018561177f565b81810360808301526117dc81846114dd565b9050969550505050505056fea2646970667358221220971c6a73ce187975a5212f438a7cb1c2964f42a1589ccb0a4c6dbc318e9cd89c64736f6c634300080e0033a264697066735822122066680ef6ae8e92d8996e268cc4a47dd863538b1facf5f54c071ee4c91a4353b164736f6c634300080e0033",
  "linkReferences": {},
  "deployedLinkReferences": {}
}